{
	"contracts/Parkplatz.sol": {
		"Parkplatzverwaltung1": {
			"abi": [
				{
					"inputs": [],
					"stateMutability": "nonpayable",
					"type": "constructor"
				},
				{
					"anonymous": false,
					"inputs": [
						{
							"indexed": false,
							"internalType": "uint256",
							"name": "parkplatzId",
							"type": "uint256"
						},
						{
							"indexed": false,
							"internalType": "address",
							"name": "fahrzeugBesitzer",
							"type": "address"
						},
						{
							"indexed": false,
							"internalType": "uint256",
							"name": "belegungsStartzeit",
							"type": "uint256"
						}
					],
					"name": "ParkplatzBelegt",
					"type": "event"
				},
				{
					"anonymous": false,
					"inputs": [
						{
							"indexed": false,
							"internalType": "uint256",
							"name": "parkplatzId",
							"type": "uint256"
						},
						{
							"indexed": false,
							"internalType": "address",
							"name": "fahrzeugBesitzer",
							"type": "address"
						},
						{
							"indexed": false,
							"internalType": "uint256",
							"name": "parkdauer",
							"type": "uint256"
						},
						{
							"indexed": false,
							"internalType": "uint256",
							"name": "parkgebuehr",
							"type": "uint256"
						}
					],
					"name": "ParkplatzFreigegeben",
					"type": "event"
				},
				{
					"inputs": [
						{
							"internalType": "uint256",
							"name": "parkplatzId",
							"type": "uint256"
						}
					],
					"name": "getCurrentGebuehren",
					"outputs": [
						{
							"internalType": "uint256",
							"name": "",
							"type": "uint256"
						}
					],
					"stateMutability": "view",
					"type": "function"
				},
				{
					"inputs": [],
					"name": "getParkplatzIds",
					"outputs": [
						{
							"internalType": "uint256[]",
							"name": "",
							"type": "uint256[]"
						}
					],
					"stateMutability": "view",
					"type": "function"
				},
				{
					"inputs": [
						{
							"internalType": "uint256",
							"name": "parkplatzId",
							"type": "uint256"
						}
					],
					"name": "getParkplatzStatus",
					"outputs": [
						{
							"internalType": "bool",
							"name": "istBelegt",
							"type": "bool"
						},
						{
							"internalType": "uint256",
							"name": "belegungsStartzeit",
							"type": "uint256"
						},
						{
							"internalType": "address",
							"name": "fahrzeugBesitzer",
							"type": "address"
						},
						{
							"internalType": "uint256",
							"name": "ParkgebuehrProMinute",
							"type": "uint256"
						}
					],
					"stateMutability": "view",
					"type": "function"
				},
				{
					"inputs": [
						{
							"internalType": "uint256",
							"name": "",
							"type": "uint256"
						}
					],
					"name": "parkplaetze",
					"outputs": [
						{
							"internalType": "bool",
							"name": "istBelegt",
							"type": "bool"
						},
						{
							"internalType": "uint256",
							"name": "belegungsStartzeit",
							"type": "uint256"
						},
						{
							"internalType": "address",
							"name": "fahrzeugBesitzer",
							"type": "address"
						},
						{
							"internalType": "uint256",
							"name": "ParkgebuehrProMinute",
							"type": "uint256"
						},
						{
							"internalType": "uint256",
							"name": "Parkgebuehren",
							"type": "uint256"
						}
					],
					"stateMutability": "view",
					"type": "function"
				},
				{
					"inputs": [
						{
							"internalType": "uint256",
							"name": "parkplatzId",
							"type": "uint256"
						}
					],
					"name": "parkplatzBelegen",
					"outputs": [],
					"stateMutability": "nonpayable",
					"type": "function"
				},
				{
					"inputs": [
						{
							"internalType": "uint256",
							"name": "parkplatzId",
							"type": "uint256"
						}
					],
					"name": "parkplatzFreigeben",
					"outputs": [],
					"stateMutability": "payable",
					"type": "function"
				},
				{
					"inputs": [
						{
							"internalType": "uint256",
							"name": "",
							"type": "uint256"
						}
					],
					"name": "parkplatzIds",
					"outputs": [
						{
							"internalType": "uint256",
							"name": "",
							"type": "uint256"
						}
					],
					"stateMutability": "view",
					"type": "function"
				}
			],
			"devdoc": {
				"kind": "dev",
				"methods": {},
				"version": 1
			},
			"evm": {
				"assembly": "    /* \"contracts/Parkplatz.sol\":66:4721  contract Parkplatzverwaltung1 {... */\n  mstore(0x40, 0x80)\n    /* \"contracts/Parkplatz.sol\":676:731  constructor(){... */\n  callvalue\n  dup1\n  iszero\n  tag_1\n  jumpi\n  0x00\n  dup1\n  revert\ntag_1:\n  pop\n    /* \"contracts/Parkplatz.sol\":699:724  generateParkplaetze(20,1) */\n  tag_4\n    /* \"contracts/Parkplatz.sol\":719:721  20 */\n  0x14\n    /* \"contracts/Parkplatz.sol\":722:723  1 */\n  0x01\n    /* \"contracts/Parkplatz.sol\":699:718  generateParkplaetze */\n  shl(0x20, tag_5)\n    /* \"contracts/Parkplatz.sol\":699:724  generateParkplaetze(20,1) */\n  0x20\n  shr\n  jump\t// in\ntag_4:\n    /* \"contracts/Parkplatz.sol\":66:4721  contract Parkplatzverwaltung1 {... */\n  jump(tag_6)\n    /* \"contracts/Parkplatz.sol\":736:1022  function generateParkplaetze(uint256 numParkplaetze, uint256 ParkgebuehrProMinute) private  {... */\ntag_5:\n    /* \"contracts/Parkplatz.sol\":859:860  0 */\n  0x00\n    /* \"contracts/Parkplatz.sol\":842:856  numParkplaetze */\n  dup3\n    /* \"contracts/Parkplatz.sol\":842:860  numParkplaetze > 0 */\n  gt\n    /* \"contracts/Parkplatz.sol\":834:906  require(numParkplaetze > 0, \"Anzahl der parkplaetze muss groesser sein\") */\n  tag_8\n  jumpi\n  mload(0x40)\n  0x08c379a000000000000000000000000000000000000000000000000000000000\n  dup2\n  mstore\n  0x04\n  add\n  tag_9\n  swap1\n  tag_10\n  jump\t// in\ntag_9:\n  mload(0x40)\n  dup1\n  swap2\n  sub\n  swap1\n  revert\ntag_8:\n    /* \"contracts/Parkplatz.sol\":918:927  uint256 i */\n  0x00\n    /* \"contracts/Parkplatz.sol\":913:1016  for (uint256 i = 0; i < numParkplaetze; i++) {... */\ntag_11:\n    /* \"contracts/Parkplatz.sol\":937:951  numParkplaetze */\n  dup3\n    /* \"contracts/Parkplatz.sol\":933:934  i */\n  dup2\n    /* \"contracts/Parkplatz.sol\":933:951  i < numParkplaetze */\n  lt\n    /* \"contracts/Parkplatz.sol\":913:1016  for (uint256 i = 0; i < numParkplaetze; i++) {... */\n  iszero\n  tag_12\n  jumpi\n    /* \"contracts/Parkplatz.sol\":968:1009  addParkplatz(i+100, ParkgebuehrProMinute) */\n  tag_14\n    /* \"contracts/Parkplatz.sol\":983:986  100 */\n  0x64\n    /* \"contracts/Parkplatz.sol\":981:982  i */\n  dup3\n    /* \"contracts/Parkplatz.sol\":981:986  i+100 */\n  tag_15\n  swap2\n  swap1\n  tag_16\n  jump\t// in\ntag_15:\n    /* \"contracts/Parkplatz.sol\":988:1008  ParkgebuehrProMinute */\n  dup4\n    /* \"contracts/Parkplatz.sol\":968:980  addParkplatz */\n  shl(0x20, tag_17)\n    /* \"contracts/Parkplatz.sol\":968:1009  addParkplatz(i+100, ParkgebuehrProMinute) */\n  0x20\n  shr\n  jump\t// in\ntag_14:\n    /* \"contracts/Parkplatz.sol\":953:956  i++ */\n  dup1\n  dup1\n  tag_18\n  swap1\n  tag_19\n  jump\t// in\ntag_18:\n  swap2\n  pop\n  pop\n    /* \"contracts/Parkplatz.sol\":913:1016  for (uint256 i = 0; i < numParkplaetze; i++) {... */\n  jump(tag_11)\ntag_12:\n  pop\n    /* \"contracts/Parkplatz.sol\":736:1022  function generateParkplaetze(uint256 numParkplaetze, uint256 ParkgebuehrProMinute) private  {... */\n  pop\n  pop\n  jump\t// out\n    /* \"contracts/Parkplatz.sol\":1079:1503  function addParkplatz(uint256 parkplatzId, uint256 ParkgebuehrProMinute)... */\ntag_17:\n    /* \"contracts/Parkplatz.sol\":1205:1216  parkplaetze */\n  0x00\n    /* \"contracts/Parkplatz.sol\":1205:1229  parkplaetze[parkplatzId] */\n  dup1\n    /* \"contracts/Parkplatz.sol\":1217:1228  parkplatzId */\n  dup4\n    /* \"contracts/Parkplatz.sol\":1205:1229  parkplaetze[parkplatzId] */\n  dup2\n  mstore\n  0x20\n  add\n  swap1\n  dup2\n  mstore\n  0x20\n  add\n  0x00\n  keccak256\n    /* \"contracts/Parkplatz.sol\":1205:1239  parkplaetze[parkplatzId].istBelegt */\n  0x00\n  add\n  0x00\n  swap1\n  sload\n  swap1\n  0x0100\n  exp\n  swap1\n  div\n  0xff\n  and\n    /* \"contracts/Parkplatz.sol\":1204:1239  !parkplaetze[parkplatzId].istBelegt */\n  iszero\n    /* \"contracts/Parkplatz.sol\":1183:1293  require(... */\n  tag_21\n  jumpi\n  mload(0x40)\n  0x08c379a000000000000000000000000000000000000000000000000000000000\n  dup2\n  mstore\n  0x04\n  add\n  tag_22\n  swap1\n  tag_23\n  jump\t// in\ntag_22:\n  mload(0x40)\n  dup1\n  swap2\n  sub\n  swap1\n  revert\ntag_21:\n    /* \"contracts/Parkplatz.sol\":1330:1456  Parkplatz(... */\n  mload(0x40)\n  dup1\n  0xa0\n  add\n  0x40\n  mstore\n  dup1\n    /* \"contracts/Parkplatz.sol\":1353:1358  false */\n  0x00\n    /* \"contracts/Parkplatz.sol\":1330:1456  Parkplatz(... */\n  iszero\n  iszero\n  dup2\n  mstore\n  0x20\n  add\n    /* \"contracts/Parkplatz.sol\":1372:1373  0 */\n  0x00\n    /* \"contracts/Parkplatz.sol\":1330:1456  Parkplatz(... */\n  dup2\n  mstore\n  0x20\n  add\n    /* \"contracts/Parkplatz.sol\":1395:1396  0 */\n  0x00\n    /* \"contracts/Parkplatz.sol\":1330:1456  Parkplatz(... */\n  0xffffffffffffffffffffffffffffffffffffffff\n  and\n  dup2\n  mstore\n  0x20\n  add\n    /* \"contracts/Parkplatz.sol\":1411:1431  ParkgebuehrProMinute */\n  dup3\n    /* \"contracts/Parkplatz.sol\":1330:1456  Parkplatz(... */\n  dup2\n  mstore\n  0x20\n  add\n    /* \"contracts/Parkplatz.sol\":1445:1446  0 */\n  0x00\n    /* \"contracts/Parkplatz.sol\":1330:1456  Parkplatz(... */\n  dup2\n  mstore\n  pop\n    /* \"contracts/Parkplatz.sol\":1303:1314  parkplaetze */\n  0x00\n    /* \"contracts/Parkplatz.sol\":1303:1327  parkplaetze[parkplatzId] */\n  dup1\n    /* \"contracts/Parkplatz.sol\":1315:1326  parkplatzId */\n  dup5\n    /* \"contracts/Parkplatz.sol\":1303:1327  parkplaetze[parkplatzId] */\n  dup2\n  mstore\n  0x20\n  add\n  swap1\n  dup2\n  mstore\n  0x20\n  add\n  0x00\n  keccak256\n    /* \"contracts/Parkplatz.sol\":1303:1456  parkplaetze[parkplatzId] = Parkplatz(... */\n  0x00\n  dup3\n  add\n  mload\n  dup2\n  0x00\n  add\n  exp(0x0100, 0x00)\n  dup2\n  sload\n  dup2\n  0xff\n  mul\n  not\n  and\n  swap1\n  dup4\n  iszero\n  iszero\n  mul\n  or\n  swap1\n  sstore\n  pop\n  0x20\n  dup3\n  add\n  mload\n  dup2\n  0x01\n  add\n  sstore\n  0x40\n  dup3\n  add\n  mload\n  dup2\n  0x02\n  add\n  exp(0x0100, 0x00)\n  dup2\n  sload\n  dup2\n  0xffffffffffffffffffffffffffffffffffffffff\n  mul\n  not\n  and\n  swap1\n  dup4\n  0xffffffffffffffffffffffffffffffffffffffff\n  and\n  mul\n  or\n  swap1\n  sstore\n  pop\n  0x60\n  dup3\n  add\n  mload\n  dup2\n  0x03\n  add\n  sstore\n  0x80\n  dup3\n  add\n  mload\n  dup2\n  0x04\n  add\n  sstore\n  swap1\n  pop\n  pop\n    /* \"contracts/Parkplatz.sol\":1466:1478  parkplatzIds */\n  0x01\n    /* \"contracts/Parkplatz.sol\":1484:1495  parkplatzId */\n  dup3\n    /* \"contracts/Parkplatz.sol\":1466:1496  parkplatzIds.push(parkplatzId) */\n  swap1\n  dup1\n  0x01\n  dup2\n  sload\n  add\n  dup1\n  dup3\n  sstore\n  dup1\n  swap2\n  pop\n  pop\n  0x01\n  swap1\n  sub\n  swap1\n  0x00\n  mstore\n  keccak256(0x00, 0x20)\n  add\n  0x00\n  swap1\n  swap2\n  swap1\n  swap2\n  swap1\n  swap2\n  pop\n  sstore\n    /* \"contracts/Parkplatz.sol\":1079:1503  function addParkplatz(uint256 parkplatzId, uint256 ParkgebuehrProMinute)... */\n  pop\n  pop\n  jump\t// out\n    /* \"#utility.yul\":7:176   */\ntag_25:\n    /* \"#utility.yul\":91:102   */\n  0x00\n    /* \"#utility.yul\":125:131   */\n  dup3\n    /* \"#utility.yul\":120:123   */\n  dup3\n    /* \"#utility.yul\":113:132   */\n  mstore\n    /* \"#utility.yul\":165:169   */\n  0x20\n    /* \"#utility.yul\":160:163   */\n  dup3\n    /* \"#utility.yul\":156:170   */\n  add\n    /* \"#utility.yul\":141:170   */\n  swap1\n  pop\n    /* \"#utility.yul\":7:176   */\n  swap3\n  swap2\n  pop\n  pop\n  jump\t// out\n    /* \"#utility.yul\":182:410   */\ntag_26:\n    /* \"#utility.yul\":322:356   */\n  0x416e7a61686c20646572207061726b706c6165747a65206d7573732067726f65\n    /* \"#utility.yul\":318:319   */\n  0x00\n    /* \"#utility.yul\":310:316   */\n  dup3\n    /* \"#utility.yul\":306:320   */\n  add\n    /* \"#utility.yul\":299:357   */\n  mstore\n    /* \"#utility.yul\":391:402   */\n  0x73736572207365696e0000000000000000000000000000000000000000000000\n    /* \"#utility.yul\":386:388   */\n  0x20\n    /* \"#utility.yul\":378:384   */\n  dup3\n    /* \"#utility.yul\":374:389   */\n  add\n    /* \"#utility.yul\":367:403   */\n  mstore\n    /* \"#utility.yul\":182:410   */\n  pop\n  jump\t// out\n    /* \"#utility.yul\":416:782   */\ntag_27:\n    /* \"#utility.yul\":558:561   */\n  0x00\n    /* \"#utility.yul\":579:646   */\n  tag_36\n    /* \"#utility.yul\":643:645   */\n  0x29\n    /* \"#utility.yul\":638:641   */\n  dup4\n    /* \"#utility.yul\":579:646   */\n  tag_25\n  jump\t// in\ntag_36:\n    /* \"#utility.yul\":572:646   */\n  swap2\n  pop\n    /* \"#utility.yul\":655:748   */\n  tag_37\n    /* \"#utility.yul\":744:747   */\n  dup3\n    /* \"#utility.yul\":655:748   */\n  tag_26\n  jump\t// in\ntag_37:\n    /* \"#utility.yul\":773:775   */\n  0x40\n    /* \"#utility.yul\":768:771   */\n  dup3\n    /* \"#utility.yul\":764:776   */\n  add\n    /* \"#utility.yul\":757:776   */\n  swap1\n  pop\n    /* \"#utility.yul\":416:782   */\n  swap2\n  swap1\n  pop\n  jump\t// out\n    /* \"#utility.yul\":788:1207   */\ntag_10:\n    /* \"#utility.yul\":954:958   */\n  0x00\n    /* \"#utility.yul\":992:994   */\n  0x20\n    /* \"#utility.yul\":981:990   */\n  dup3\n    /* \"#utility.yul\":977:995   */\n  add\n    /* \"#utility.yul\":969:995   */\n  swap1\n  pop\n    /* \"#utility.yul\":1041:1050   */\n  dup2\n    /* \"#utility.yul\":1035:1039   */\n  dup2\n    /* \"#utility.yul\":1031:1051   */\n  sub\n    /* \"#utility.yul\":1027:1028   */\n  0x00\n    /* \"#utility.yul\":1016:1025   */\n  dup4\n    /* \"#utility.yul\":1012:1029   */\n  add\n    /* \"#utility.yul\":1005:1052   */\n  mstore\n    /* \"#utility.yul\":1069:1200   */\n  tag_39\n    /* \"#utility.yul\":1195:1199   */\n  dup2\n    /* \"#utility.yul\":1069:1200   */\n  tag_27\n  jump\t// in\ntag_39:\n    /* \"#utility.yul\":1061:1200   */\n  swap1\n  pop\n    /* \"#utility.yul\":788:1207   */\n  swap2\n  swap1\n  pop\n  jump\t// out\n    /* \"#utility.yul\":1213:1290   */\ntag_28:\n    /* \"#utility.yul\":1250:1257   */\n  0x00\n    /* \"#utility.yul\":1279:1284   */\n  dup2\n    /* \"#utility.yul\":1268:1284   */\n  swap1\n  pop\n    /* \"#utility.yul\":1213:1290   */\n  swap2\n  swap1\n  pop\n  jump\t// out\n    /* \"#utility.yul\":1296:1476   */\ntag_29:\n    /* \"#utility.yul\":1344:1421   */\n  0x4e487b7100000000000000000000000000000000000000000000000000000000\n    /* \"#utility.yul\":1341:1342   */\n  0x00\n    /* \"#utility.yul\":1334:1422   */\n  mstore\n    /* \"#utility.yul\":1441:1445   */\n  0x11\n    /* \"#utility.yul\":1438:1439   */\n  0x04\n    /* \"#utility.yul\":1431:1446   */\n  mstore\n    /* \"#utility.yul\":1465:1469   */\n  0x24\n    /* \"#utility.yul\":1462:1463   */\n  0x00\n    /* \"#utility.yul\":1455:1470   */\n  revert\n    /* \"#utility.yul\":1482:1673   */\ntag_16:\n    /* \"#utility.yul\":1522:1525   */\n  0x00\n    /* \"#utility.yul\":1541:1561   */\n  tag_43\n    /* \"#utility.yul\":1559:1560   */\n  dup3\n    /* \"#utility.yul\":1541:1561   */\n  tag_28\n  jump\t// in\ntag_43:\n    /* \"#utility.yul\":1536:1561   */\n  swap2\n  pop\n    /* \"#utility.yul\":1575:1595   */\n  tag_44\n    /* \"#utility.yul\":1593:1594   */\n  dup4\n    /* \"#utility.yul\":1575:1595   */\n  tag_28\n  jump\t// in\ntag_44:\n    /* \"#utility.yul\":1570:1595   */\n  swap3\n  pop\n    /* \"#utility.yul\":1618:1619   */\n  dup3\n    /* \"#utility.yul\":1615:1616   */\n  dup3\n    /* \"#utility.yul\":1611:1620   */\n  add\n    /* \"#utility.yul\":1604:1620   */\n  swap1\n  pop\n    /* \"#utility.yul\":1639:1642   */\n  dup1\n    /* \"#utility.yul\":1636:1637   */\n  dup3\n    /* \"#utility.yul\":1633:1643   */\n  gt\n    /* \"#utility.yul\":1630:1666   */\n  iszero\n  tag_45\n  jumpi\n    /* \"#utility.yul\":1646:1664   */\n  tag_46\n  tag_29\n  jump\t// in\ntag_46:\n    /* \"#utility.yul\":1630:1666   */\ntag_45:\n    /* \"#utility.yul\":1482:1673   */\n  swap3\n  swap2\n  pop\n  pop\n  jump\t// out\n    /* \"#utility.yul\":1679:1912   */\ntag_19:\n    /* \"#utility.yul\":1718:1721   */\n  0x00\n    /* \"#utility.yul\":1741:1765   */\n  tag_48\n    /* \"#utility.yul\":1759:1764   */\n  dup3\n    /* \"#utility.yul\":1741:1765   */\n  tag_28\n  jump\t// in\ntag_48:\n    /* \"#utility.yul\":1732:1765   */\n  swap2\n  pop\n    /* \"#utility.yul\":1787:1853   */\n  0xffffffffffffffffffffffffffffffffffffffffffffffffffffffffffffffff\n    /* \"#utility.yul\":1780:1785   */\n  dup3\n    /* \"#utility.yul\":1777:1854   */\n  sub\n    /* \"#utility.yul\":1774:1877   */\n  tag_49\n  jumpi\n    /* \"#utility.yul\":1857:1875   */\n  tag_50\n  tag_29\n  jump\t// in\ntag_50:\n    /* \"#utility.yul\":1774:1877   */\ntag_49:\n    /* \"#utility.yul\":1904:1905   */\n  0x01\n    /* \"#utility.yul\":1897:1902   */\n  dup3\n    /* \"#utility.yul\":1893:1906   */\n  add\n    /* \"#utility.yul\":1886:1906   */\n  swap1\n  pop\n    /* \"#utility.yul\":1679:1912   */\n  swap2\n  swap1\n  pop\n  jump\t// out\n    /* \"#utility.yul\":1918:2096   */\ntag_30:\n    /* \"#utility.yul\":2058:2088   */\n  0x5061726b706c61747a2069737420626572656974732062656c65677400000000\n    /* \"#utility.yul\":2054:2055   */\n  0x00\n    /* \"#utility.yul\":2046:2052   */\n  dup3\n    /* \"#utility.yul\":2042:2056   */\n  add\n    /* \"#utility.yul\":2035:2089   */\n  mstore\n    /* \"#utility.yul\":1918:2096   */\n  pop\n  jump\t// out\n    /* \"#utility.yul\":2102:2468   */\ntag_31:\n    /* \"#utility.yul\":2244:2247   */\n  0x00\n    /* \"#utility.yul\":2265:2332   */\n  tag_53\n    /* \"#utility.yul\":2329:2331   */\n  0x1c\n    /* \"#utility.yul\":2324:2327   */\n  dup4\n    /* \"#utility.yul\":2265:2332   */\n  tag_25\n  jump\t// in\ntag_53:\n    /* \"#utility.yul\":2258:2332   */\n  swap2\n  pop\n    /* \"#utility.yul\":2341:2434   */\n  tag_54\n    /* \"#utility.yul\":2430:2433   */\n  dup3\n    /* \"#utility.yul\":2341:2434   */\n  tag_30\n  jump\t// in\ntag_54:\n    /* \"#utility.yul\":2459:2461   */\n  0x20\n    /* \"#utility.yul\":2454:2457   */\n  dup3\n    /* \"#utility.yul\":2450:2462   */\n  add\n    /* \"#utility.yul\":2443:2462   */\n  swap1\n  pop\n    /* \"#utility.yul\":2102:2468   */\n  swap2\n  swap1\n  pop\n  jump\t// out\n    /* \"#utility.yul\":2474:2893   */\ntag_23:\n    /* \"#utility.yul\":2640:2644   */\n  0x00\n    /* \"#utility.yul\":2678:2680   */\n  0x20\n    /* \"#utility.yul\":2667:2676   */\n  dup3\n    /* \"#utility.yul\":2663:2681   */\n  add\n    /* \"#utility.yul\":2655:2681   */\n  swap1\n  pop\n    /* \"#utility.yul\":2727:2736   */\n  dup2\n    /* \"#utility.yul\":2721:2725   */\n  dup2\n    /* \"#utility.yul\":2717:2737   */\n  sub\n    /* \"#utility.yul\":2713:2714   */\n  0x00\n    /* \"#utility.yul\":2702:2711   */\n  dup4\n    /* \"#utility.yul\":2698:2715   */\n  add\n    /* \"#utility.yul\":2691:2738   */\n  mstore\n    /* \"#utility.yul\":2755:2886   */\n  tag_56\n    /* \"#utility.yul\":2881:2885   */\n  dup2\n    /* \"#utility.yul\":2755:2886   */\n  tag_31\n  jump\t// in\ntag_56:\n    /* \"#utility.yul\":2747:2886   */\n  swap1\n  pop\n    /* \"#utility.yul\":2474:2893   */\n  swap2\n  swap1\n  pop\n  jump\t// out\n    /* \"contracts/Parkplatz.sol\":66:4721  contract Parkplatzverwaltung1 {... */\ntag_6:\n  dataSize(sub_0)\n  dup1\n  dataOffset(sub_0)\n  0x00\n  codecopy\n  0x00\n  return\nstop\n\nsub_0: assembly {\n        /* \"contracts/Parkplatz.sol\":66:4721  contract Parkplatzverwaltung1 {... */\n      mstore(0x40, 0x80)\n      jumpi(tag_1, lt(calldatasize, 0x04))\n      shr(0xe0, calldataload(0x00))\n      dup1\n      0xc4b3dea9\n      gt\n      tag_9\n      jumpi\n      dup1\n      0xc4b3dea9\n      eq\n      tag_5\n      jumpi\n      dup1\n      0xd410b4cb\n      eq\n      tag_6\n      jumpi\n      dup1\n      0xecbe10f2\n      eq\n      tag_7\n      jumpi\n      dup1\n      0xf1d7b33e\n      eq\n      tag_8\n      jumpi\n      jump(tag_1)\n    tag_9:\n      dup1\n      0x80a0e0e7\n      eq\n      tag_2\n      jumpi\n      dup1\n      0x9a435124\n      eq\n      tag_3\n      jumpi\n      dup1\n      0xb6990c93\n      eq\n      tag_4\n      jumpi\n    tag_1:\n      0x00\n      dup1\n      revert\n        /* \"contracts/Parkplatz.sol\":350:379  uint256[] public parkplatzIds */\n    tag_2:\n      callvalue\n      dup1\n      iszero\n      tag_10\n      jumpi\n      0x00\n      dup1\n      revert\n    tag_10:\n      pop\n      tag_11\n      0x04\n      dup1\n      calldatasize\n      sub\n      dup2\n      add\n      swap1\n      tag_12\n      swap2\n      swap1\n      tag_13\n      jump\t// in\n    tag_12:\n      tag_14\n      jump\t// in\n    tag_11:\n      mload(0x40)\n      tag_15\n      swap2\n      swap1\n      tag_16\n      jump\t// in\n    tag_15:\n      mload(0x40)\n      dup1\n      swap2\n      sub\n      swap1\n      return\n        /* \"contracts/Parkplatz.sol\":2922:4155  function parkplatzFreigeben(uint256 parkplatzId) public payable {... */\n    tag_3:\n      tag_17\n      0x04\n      dup1\n      calldatasize\n      sub\n      dup2\n      add\n      swap1\n      tag_18\n      swap2\n      swap1\n      tag_13\n      jump\t// in\n    tag_18:\n      tag_19\n      jump\t// in\n    tag_17:\n      stop\n        /* \"contracts/Parkplatz.sol\":1504:1606  function getParkplatzIds() public view returns (uint256[] memory) {... */\n    tag_4:\n      callvalue\n      dup1\n      iszero\n      tag_20\n      jumpi\n      0x00\n      dup1\n      revert\n    tag_20:\n      pop\n      tag_21\n      tag_22\n      jump\t// in\n    tag_21:\n      mload(0x40)\n      tag_23\n      swap2\n      swap1\n      tag_24\n      jump\t// in\n    tag_23:\n      mload(0x40)\n      dup1\n      swap2\n      sub\n      swap1\n      return\n        /* \"contracts/Parkplatz.sol\":4210:4719  function getParkplatzStatus(uint256 parkplatzId)... */\n    tag_5:\n      callvalue\n      dup1\n      iszero\n      tag_25\n      jumpi\n      0x00\n      dup1\n      revert\n    tag_25:\n      pop\n      tag_26\n      0x04\n      dup1\n      calldatasize\n      sub\n      dup2\n      add\n      swap1\n      tag_27\n      swap2\n      swap1\n      tag_13\n      jump\t// in\n    tag_27:\n      tag_28\n      jump\t// in\n    tag_26:\n      mload(0x40)\n      tag_29\n      swap5\n      swap4\n      swap3\n      swap2\n      swap1\n      tag_30\n      jump\t// in\n    tag_29:\n      mload(0x40)\n      dup1\n      swap2\n      sub\n      swap1\n      return\n        /* \"contracts/Parkplatz.sol\":2175:2868  function getCurrentGebuehren(uint256 parkplatzId) public view returns (uint256) {... */\n    tag_6:\n      callvalue\n      dup1\n      iszero\n      tag_31\n      jumpi\n      0x00\n      dup1\n      revert\n    tag_31:\n      pop\n      tag_32\n      0x04\n      dup1\n      calldatasize\n      sub\n      dup2\n      add\n      swap1\n      tag_33\n      swap2\n      swap1\n      tag_13\n      jump\t// in\n    tag_33:\n      tag_34\n      jump\t// in\n    tag_32:\n      mload(0x40)\n      tag_35\n      swap2\n      swap1\n      tag_16\n      jump\t// in\n    tag_35:\n      mload(0x40)\n      dup1\n      swap2\n      sub\n      swap1\n      return\n        /* \"contracts/Parkplatz.sol\":1657:2170  function parkplatzBelegen(uint256 parkplatzId) public {... */\n    tag_7:\n      callvalue\n      dup1\n      iszero\n      tag_36\n      jumpi\n      0x00\n      dup1\n      revert\n    tag_36:\n      pop\n      tag_37\n      0x04\n      dup1\n      calldatasize\n      sub\n      dup2\n      add\n      swap1\n      tag_38\n      swap2\n      swap1\n      tag_13\n      jump\t// in\n    tag_38:\n      tag_39\n      jump\t// in\n    tag_37:\n      stop\n        /* \"contracts/Parkplatz.sol\":295:343  mapping(uint256 => Parkplatz) public parkplaetze */\n    tag_8:\n      callvalue\n      dup1\n      iszero\n      tag_40\n      jumpi\n      0x00\n      dup1\n      revert\n    tag_40:\n      pop\n      tag_41\n      0x04\n      dup1\n      calldatasize\n      sub\n      dup2\n      add\n      swap1\n      tag_42\n      swap2\n      swap1\n      tag_13\n      jump\t// in\n    tag_42:\n      tag_43\n      jump\t// in\n    tag_41:\n      mload(0x40)\n      tag_44\n      swap6\n      swap5\n      swap4\n      swap3\n      swap2\n      swap1\n      tag_45\n      jump\t// in\n    tag_44:\n      mload(0x40)\n      dup1\n      swap2\n      sub\n      swap1\n      return\n        /* \"contracts/Parkplatz.sol\":350:379  uint256[] public parkplatzIds */\n    tag_14:\n      0x01\n      dup2\n      dup2\n      sload\n      dup2\n      lt\n      tag_46\n      jumpi\n      0x00\n      dup1\n      revert\n    tag_46:\n      swap1\n      0x00\n      mstore\n      keccak256(0x00, 0x20)\n      add\n      0x00\n      swap2\n      pop\n      swap1\n      pop\n      sload\n      dup2\n      jump\t// out\n        /* \"contracts/Parkplatz.sol\":2922:4155  function parkplatzFreigeben(uint256 parkplatzId) public payable {... */\n    tag_19:\n        /* \"contracts/Parkplatz.sol\":3000:3011  parkplaetze */\n      0x00\n        /* \"contracts/Parkplatz.sol\":3000:3024  parkplaetze[parkplatzId] */\n      dup1\n        /* \"contracts/Parkplatz.sol\":3012:3023  parkplatzId */\n      dup3\n        /* \"contracts/Parkplatz.sol\":3000:3024  parkplaetze[parkplatzId] */\n      dup2\n      mstore\n      0x20\n      add\n      swap1\n      dup2\n      mstore\n      0x20\n      add\n      0x00\n      keccak256\n        /* \"contracts/Parkplatz.sol\":3000:3034  parkplaetze[parkplatzId].istBelegt */\n      0x00\n      add\n      0x00\n      swap1\n      sload\n      swap1\n      0x0100\n      exp\n      swap1\n      div\n      0xff\n      and\n        /* \"contracts/Parkplatz.sol\":2992:3065  require(parkplaetze[parkplatzId].istBelegt, \"Parkplatz ist nicht belegt\") */\n      tag_49\n      jumpi\n      mload(0x40)\n      0x08c379a000000000000000000000000000000000000000000000000000000000\n      dup2\n      mstore\n      0x04\n      add\n      tag_50\n      swap1\n      tag_51\n      jump\t// in\n    tag_50:\n      mload(0x40)\n      dup1\n      swap2\n      sub\n      swap1\n      revert\n    tag_49:\n        /* \"contracts/Parkplatz.sol\":3093:3104  parkplaetze */\n      0x00\n        /* \"contracts/Parkplatz.sol\":3093:3117  parkplaetze[parkplatzId] */\n      dup1\n        /* \"contracts/Parkplatz.sol\":3105:3116  parkplatzId */\n      dup3\n        /* \"contracts/Parkplatz.sol\":3093:3117  parkplaetze[parkplatzId] */\n      dup2\n      mstore\n      0x20\n      add\n      swap1\n      dup2\n      mstore\n      0x20\n      add\n      0x00\n      keccak256\n        /* \"contracts/Parkplatz.sol\":3093:3134  parkplaetze[parkplatzId].fahrzeugBesitzer */\n      0x02\n      add\n      0x00\n      swap1\n      sload\n      swap1\n      0x0100\n      exp\n      swap1\n      div\n      0xffffffffffffffffffffffffffffffffffffffff\n      and\n        /* \"contracts/Parkplatz.sol\":3079:3134  msg.sender == parkplaetze[parkplatzId].fahrzeugBesitzer */\n      0xffffffffffffffffffffffffffffffffffffffff\n      and\n        /* \"contracts/Parkplatz.sol\":3079:3089  msg.sender */\n      caller\n        /* \"contracts/Parkplatz.sol\":3079:3134  msg.sender == parkplaetze[parkplatzId].fahrzeugBesitzer */\n      0xffffffffffffffffffffffffffffffffffffffff\n      and\n      eq\n        /* \"contracts/Parkplatz.sol\":3071:3192  require(msg.sender == parkplaetze[parkplatzId].fahrzeugBesitzer, \"Nur der Fahrzeugbesitzer kann den Parkplatz freigeben\") */\n      tag_52\n      jumpi\n      mload(0x40)\n      0x08c379a000000000000000000000000000000000000000000000000000000000\n      dup2\n      mstore\n      0x04\n      add\n      tag_53\n      swap1\n      tag_54\n      jump\t// in\n    tag_53:\n      mload(0x40)\n      dup1\n      swap2\n      sub\n      swap1\n      revert\n    tag_52:\n        /* \"contracts/Parkplatz.sol\":3199:3216  uint256 parkdauer */\n      0x00\n        /* \"contracts/Parkplatz.sol\":3237:3248  parkplaetze */\n      dup1\n        /* \"contracts/Parkplatz.sol\":3237:3261  parkplaetze[parkplatzId] */\n      0x00\n        /* \"contracts/Parkplatz.sol\":3249:3260  parkplatzId */\n      dup4\n        /* \"contracts/Parkplatz.sol\":3237:3261  parkplaetze[parkplatzId] */\n      dup2\n      mstore\n      0x20\n      add\n      swap1\n      dup2\n      mstore\n      0x20\n      add\n      0x00\n      keccak256\n        /* \"contracts/Parkplatz.sol\":3237:3280  parkplaetze[parkplatzId].belegungsStartzeit */\n      0x01\n      add\n      sload\n        /* \"contracts/Parkplatz.sol\":3219:3234  block.timestamp */\n      timestamp\n        /* \"contracts/Parkplatz.sol\":3219:3280  block.timestamp - parkplaetze[parkplatzId].belegungsStartzeit */\n      tag_55\n      swap2\n      swap1\n      tag_56\n      jump\t// in\n    tag_55:\n        /* \"contracts/Parkplatz.sol\":3199:3280  uint256 parkdauer = block.timestamp - parkplaetze[parkplatzId].belegungsStartzeit */\n      swap1\n      pop\n        /* \"contracts/Parkplatz.sol\":3286:3314  uint256 parkgebuehrProMinute */\n      0x00\n        /* \"contracts/Parkplatz.sol\":3317:3328  parkplaetze */\n      dup1\n        /* \"contracts/Parkplatz.sol\":3317:3341  parkplaetze[parkplatzId] */\n      0x00\n        /* \"contracts/Parkplatz.sol\":3329:3340  parkplatzId */\n      dup5\n        /* \"contracts/Parkplatz.sol\":3317:3341  parkplaetze[parkplatzId] */\n      dup2\n      mstore\n      0x20\n      add\n      swap1\n      dup2\n      mstore\n      0x20\n      add\n      0x00\n      keccak256\n        /* \"contracts/Parkplatz.sol\":3317:3362  parkplaetze[parkplatzId].ParkgebuehrProMinute */\n      0x03\n      add\n      sload\n        /* \"contracts/Parkplatz.sol\":3286:3362  uint256 parkgebuehrProMinute = parkplaetze[parkplatzId].ParkgebuehrProMinute */\n      swap1\n      pop\n        /* \"contracts/Parkplatz.sol\":3368:3392  uint256 parkgebuehrInWei */\n      0x00\n        /* \"contracts/Parkplatz.sol\":3407:3427  parkgebuehrProMinute */\n      dup2\n        /* \"contracts/Parkplatz.sol\":3395:3404  parkdauer */\n      dup4\n        /* \"contracts/Parkplatz.sol\":3395:3427  parkdauer * parkgebuehrProMinute */\n      tag_57\n      swap2\n      swap1\n      tag_58\n      jump\t// in\n    tag_57:\n        /* \"contracts/Parkplatz.sol\":3368:3427  uint256 parkgebuehrInWei = parkdauer * parkgebuehrProMinute */\n      swap1\n      pop\n        /* \"contracts/Parkplatz.sol\":3508:3518  15 minutes */\n      0x0384\n        /* \"contracts/Parkplatz.sol\":3495:3504  parkdauer */\n      dup4\n        /* \"contracts/Parkplatz.sol\":3495:3518  parkdauer >= 15 minutes */\n      lt\n        /* \"contracts/Parkplatz.sol\":3491:3701  if (parkdauer >= 15 minutes) {... */\n      tag_59\n      jumpi\n        /* \"contracts/Parkplatz.sol\":3576:3599  uint256 zusatzgebuehren */\n      0x00\n        /* \"contracts/Parkplatz.sol\":3629:3649  parkgebuehrProMinute */\n      dup3\n        /* \"contracts/Parkplatz.sol\":3615:3625  15 minutes */\n      0x0384\n        /* \"contracts/Parkplatz.sol\":3603:3612  parkdauer */\n      dup6\n        /* \"contracts/Parkplatz.sol\":3603:3625  parkdauer / 15 minutes */\n      tag_60\n      swap2\n      swap1\n      tag_61\n      jump\t// in\n    tag_60:\n        /* \"contracts/Parkplatz.sol\":3602:3649  (parkdauer / 15 minutes) * parkgebuehrProMinute */\n      tag_62\n      swap2\n      swap1\n      tag_58\n      jump\t// in\n    tag_62:\n        /* \"contracts/Parkplatz.sol\":3576:3649  uint256 zusatzgebuehren = (parkdauer / 15 minutes) * parkgebuehrProMinute */\n      swap1\n      pop\n        /* \"contracts/Parkplatz.sol\":3679:3694  zusatzgebuehren */\n      dup1\n        /* \"contracts/Parkplatz.sol\":3659:3694  parkgebuehrInWei += zusatzgebuehren */\n      dup3\n      tag_63\n      swap2\n      swap1\n      tag_64\n      jump\t// in\n    tag_63:\n      swap2\n      pop\n        /* \"contracts/Parkplatz.sol\":3520:3701  {... */\n      pop\n        /* \"contracts/Parkplatz.sol\":3491:3701  if (parkdauer >= 15 minutes) {... */\n    tag_59:\n        /* \"contracts/Parkplatz.sol\":3714:3725  parkplaetze */\n      0x00\n        /* \"contracts/Parkplatz.sol\":3714:3738  parkplaetze[parkplatzId] */\n      dup1\n        /* \"contracts/Parkplatz.sol\":3726:3737  parkplatzId */\n      dup6\n        /* \"contracts/Parkplatz.sol\":3714:3738  parkplaetze[parkplatzId] */\n      dup2\n      mstore\n      0x20\n      add\n      swap1\n      dup2\n      mstore\n      0x20\n      add\n      0x00\n      keccak256\n      0x00\n        /* \"contracts/Parkplatz.sol\":3707:3738  delete parkplaetze[parkplatzId] */\n      dup1\n      dup3\n      add\n      exp(0x0100, 0x00)\n      dup2\n      sload\n      swap1\n      0xff\n      mul\n      not\n      and\n      swap1\n      sstore\n      0x01\n      dup3\n      add\n      0x00\n      swap1\n      sstore\n      0x02\n      dup3\n      add\n      exp(0x0100, 0x00)\n      dup2\n      sload\n      swap1\n      0xffffffffffffffffffffffffffffffffffffffff\n      mul\n      not\n      and\n      swap1\n      sstore\n      0x03\n      dup3\n      add\n      0x00\n      swap1\n      sstore\n      0x04\n      dup3\n      add\n      0x00\n      swap1\n      sstore\n      pop\n      pop\n        /* \"contracts/Parkplatz.sol\":3749:3823  ParkplatzFreigegeben(parkplatzId, msg.sender, parkdauer, parkgebuehrInWei) */\n      0x446545d9994a9a5213daa76d07835316dce2407c7d27168a073fc65e5374fd3a\n        /* \"contracts/Parkplatz.sol\":3770:3781  parkplatzId */\n      dup5\n        /* \"contracts/Parkplatz.sol\":3783:3793  msg.sender */\n      caller\n        /* \"contracts/Parkplatz.sol\":3795:3804  parkdauer */\n      dup6\n        /* \"contracts/Parkplatz.sol\":3806:3822  parkgebuehrInWei */\n      dup5\n        /* \"contracts/Parkplatz.sol\":3749:3823  ParkplatzFreigegeben(parkplatzId, msg.sender, parkdauer, parkgebuehrInWei) */\n      mload(0x40)\n      tag_65\n      swap5\n      swap4\n      swap3\n      swap2\n      swap1\n      tag_66\n      jump\t// in\n    tag_65:\n      mload(0x40)\n      dup1\n      swap2\n      sub\n      swap1\n      log1\n        /* \"contracts/Parkplatz.sol\":3907:3941  address payable parkplatzbetreiber */\n      0x00\n        /* \"contracts/Parkplatz.sol\":3952:3963  parkplaetze */\n      dup1\n        /* \"contracts/Parkplatz.sol\":3952:3976  parkplaetze[parkplatzId] */\n      0x00\n        /* \"contracts/Parkplatz.sol\":3964:3975  parkplatzId */\n      dup7\n        /* \"contracts/Parkplatz.sol\":3952:3976  parkplaetze[parkplatzId] */\n      dup2\n      mstore\n      0x20\n      add\n      swap1\n      dup2\n      mstore\n      0x20\n      add\n      0x00\n      keccak256\n        /* \"contracts/Parkplatz.sol\":3952:3993  parkplaetze[parkplatzId].fahrzeugBesitzer */\n      0x02\n      add\n      0x00\n      swap1\n      sload\n      swap1\n      0x0100\n      exp\n      swap1\n      div\n      0xffffffffffffffffffffffffffffffffffffffff\n      and\n        /* \"contracts/Parkplatz.sol\":3907:3994  address payable parkplatzbetreiber = payable(parkplaetze[parkplatzId].fahrzeugBesitzer) */\n      swap1\n      pop\n        /* \"contracts/Parkplatz.sol\":4033:4049  parkgebuehrInWei */\n      dup2\n        /* \"contracts/Parkplatz.sol\":4008:4029  address(this).balance */\n      selfbalance\n        /* \"contracts/Parkplatz.sol\":4008:4049  address(this).balance >= parkgebuehrInWei */\n      lt\n      iszero\n        /* \"contracts/Parkplatz.sol\":4000:4101  require(address(this).balance >= parkgebuehrInWei, \"Unzureichendes Guthaben des Parkplatzbetreibers\") */\n      tag_67\n      jumpi\n      mload(0x40)\n      0x08c379a000000000000000000000000000000000000000000000000000000000\n      dup2\n      mstore\n      0x04\n      add\n      tag_68\n      swap1\n      tag_69\n      jump\t// in\n    tag_68:\n      mload(0x40)\n      dup1\n      swap2\n      sub\n      swap1\n      revert\n    tag_67:\n        /* \"contracts/Parkplatz.sol\":4107:4125  parkplatzbetreiber */\n      dup1\n        /* \"contracts/Parkplatz.sol\":4107:4134  parkplatzbetreiber.transfer */\n      0xffffffffffffffffffffffffffffffffffffffff\n      and\n        /* \"contracts/Parkplatz.sol\":4107:4152  parkplatzbetreiber.transfer(parkgebuehrInWei) */\n      0x08fc\n        /* \"contracts/Parkplatz.sol\":4135:4151  parkgebuehrInWei */\n      dup4\n        /* \"contracts/Parkplatz.sol\":4107:4152  parkplatzbetreiber.transfer(parkgebuehrInWei) */\n      swap1\n      dup2\n      iszero\n      mul\n      swap1\n      mload(0x40)\n      0x00\n      mload(0x40)\n      dup1\n      dup4\n      sub\n      dup2\n      dup6\n      dup9\n      dup9\n      call\n      swap4\n      pop\n      pop\n      pop\n      pop\n      iszero\n      dup1\n      iszero\n      tag_71\n      jumpi\n      returndatasize\n      0x00\n      dup1\n      returndatacopy\n      revert(0x00, returndatasize)\n    tag_71:\n      pop\n        /* \"contracts/Parkplatz.sol\":2986:4155  {... */\n      pop\n      pop\n      pop\n      pop\n        /* \"contracts/Parkplatz.sol\":2922:4155  function parkplatzFreigeben(uint256 parkplatzId) public payable {... */\n      pop\n      jump\t// out\n        /* \"contracts/Parkplatz.sol\":1504:1606  function getParkplatzIds() public view returns (uint256[] memory) {... */\n    tag_22:\n        /* \"contracts/Parkplatz.sol\":1552:1568  uint256[] memory */\n      0x60\n        /* \"contracts/Parkplatz.sol\":1587:1599  parkplatzIds */\n      0x01\n        /* \"contracts/Parkplatz.sol\":1580:1599  return parkplatzIds */\n      dup1\n      sload\n      dup1\n      0x20\n      mul\n      0x20\n      add\n      mload(0x40)\n      swap1\n      dup2\n      add\n      0x40\n      mstore\n      dup1\n      swap3\n      swap2\n      swap1\n      dup2\n      dup2\n      mstore\n      0x20\n      add\n      dup3\n      dup1\n      sload\n      dup1\n      iszero\n      tag_73\n      jumpi\n      0x20\n      mul\n      dup3\n      add\n      swap2\n      swap1\n      0x00\n      mstore\n      keccak256(0x00, 0x20)\n      swap1\n    tag_74:\n      dup2\n      sload\n      dup2\n      mstore\n      0x20\n      add\n      swap1\n      0x01\n      add\n      swap1\n      dup1\n      dup4\n      gt\n      tag_74\n      jumpi\n    tag_73:\n      pop\n      pop\n      pop\n      pop\n      pop\n      swap1\n      pop\n        /* \"contracts/Parkplatz.sol\":1504:1606  function getParkplatzIds() public view returns (uint256[] memory) {... */\n      swap1\n      jump\t// out\n        /* \"contracts/Parkplatz.sol\":4210:4719  function getParkplatzStatus(uint256 parkplatzId)... */\n    tag_28:\n        /* \"contracts/Parkplatz.sol\":4317:4331  bool istBelegt */\n      0x00\n        /* \"contracts/Parkplatz.sol\":4345:4371  uint256 belegungsStartzeit */\n      dup1\n        /* \"contracts/Parkplatz.sol\":4385:4409  address fahrzeugBesitzer */\n      0x00\n        /* \"contracts/Parkplatz.sol\":4423:4451  uint256 ParkgebuehrProMinute */\n      dup1\n        /* \"contracts/Parkplatz.sol\":4497:4508  parkplaetze */\n      0x00\n        /* \"contracts/Parkplatz.sol\":4497:4521  parkplaetze[parkplatzId] */\n      dup1\n        /* \"contracts/Parkplatz.sol\":4509:4520  parkplatzId */\n      dup7\n        /* \"contracts/Parkplatz.sol\":4497:4521  parkplaetze[parkplatzId] */\n      dup2\n      mstore\n      0x20\n      add\n      swap1\n      dup2\n      mstore\n      0x20\n      add\n      0x00\n      keccak256\n        /* \"contracts/Parkplatz.sol\":4497:4531  parkplaetze[parkplatzId].istBelegt */\n      0x00\n      add\n      0x00\n      swap1\n      sload\n      swap1\n      0x0100\n      exp\n      swap1\n      div\n      0xff\n      and\n        /* \"contracts/Parkplatz.sol\":4545:4556  parkplaetze */\n      0x00\n        /* \"contracts/Parkplatz.sol\":4545:4569  parkplaetze[parkplatzId] */\n      dup1\n        /* \"contracts/Parkplatz.sol\":4557:4568  parkplatzId */\n      dup8\n        /* \"contracts/Parkplatz.sol\":4545:4569  parkplaetze[parkplatzId] */\n      dup2\n      mstore\n      0x20\n      add\n      swap1\n      dup2\n      mstore\n      0x20\n      add\n      0x00\n      keccak256\n        /* \"contracts/Parkplatz.sol\":4545:4588  parkplaetze[parkplatzId].belegungsStartzeit */\n      0x01\n      add\n      sload\n        /* \"contracts/Parkplatz.sol\":4602:4613  parkplaetze */\n      0x00\n        /* \"contracts/Parkplatz.sol\":4602:4626  parkplaetze[parkplatzId] */\n      dup1\n        /* \"contracts/Parkplatz.sol\":4614:4625  parkplatzId */\n      dup9\n        /* \"contracts/Parkplatz.sol\":4602:4626  parkplaetze[parkplatzId] */\n      dup2\n      mstore\n      0x20\n      add\n      swap1\n      dup2\n      mstore\n      0x20\n      add\n      0x00\n      keccak256\n        /* \"contracts/Parkplatz.sol\":4602:4643  parkplaetze[parkplatzId].fahrzeugBesitzer */\n      0x02\n      add\n      0x00\n      swap1\n      sload\n      swap1\n      0x0100\n      exp\n      swap1\n      div\n      0xffffffffffffffffffffffffffffffffffffffff\n      and\n        /* \"contracts/Parkplatz.sol\":4657:4668  parkplaetze */\n      0x00\n        /* \"contracts/Parkplatz.sol\":4657:4681  parkplaetze[parkplatzId] */\n      dup1\n        /* \"contracts/Parkplatz.sol\":4669:4680  parkplatzId */\n      dup10\n        /* \"contracts/Parkplatz.sol\":4657:4681  parkplaetze[parkplatzId] */\n      dup2\n      mstore\n      0x20\n      add\n      swap1\n      dup2\n      mstore\n      0x20\n      add\n      0x00\n      keccak256\n        /* \"contracts/Parkplatz.sol\":4657:4702  parkplaetze[parkplatzId].ParkgebuehrProMinute */\n      0x03\n      add\n      sload\n        /* \"contracts/Parkplatz.sol\":4476:4712  return (... */\n      swap4\n      pop\n      swap4\n      pop\n      swap4\n      pop\n      swap4\n      pop\n        /* \"contracts/Parkplatz.sol\":4210:4719  function getParkplatzStatus(uint256 parkplatzId)... */\n      swap2\n      swap4\n      pop\n      swap2\n      swap4\n      jump\t// out\n        /* \"contracts/Parkplatz.sol\":2175:2868  function getCurrentGebuehren(uint256 parkplatzId) public view returns (uint256) {... */\n    tag_34:\n        /* \"contracts/Parkplatz.sol\":2246:2253  uint256 */\n      0x00\n        /* \"contracts/Parkplatz.sol\":2269:2280  parkplaetze */\n      dup1\n        /* \"contracts/Parkplatz.sol\":2269:2293  parkplaetze[parkplatzId] */\n      0x00\n        /* \"contracts/Parkplatz.sol\":2281:2292  parkplatzId */\n      dup4\n        /* \"contracts/Parkplatz.sol\":2269:2293  parkplaetze[parkplatzId] */\n      dup2\n      mstore\n      0x20\n      add\n      swap1\n      dup2\n      mstore\n      0x20\n      add\n      0x00\n      keccak256\n        /* \"contracts/Parkplatz.sol\":2269:2303  parkplaetze[parkplatzId].istBelegt */\n      0x00\n      add\n      0x00\n      swap1\n      sload\n      swap1\n      0x0100\n      exp\n      swap1\n      div\n      0xff\n      and\n        /* \"contracts/Parkplatz.sol\":2261:2334  require(parkplaetze[parkplatzId].istBelegt, \"Parkplatz ist nicht belegt\") */\n      tag_77\n      jumpi\n      mload(0x40)\n      0x08c379a000000000000000000000000000000000000000000000000000000000\n      dup2\n      mstore\n      0x04\n      add\n      tag_78\n      swap1\n      tag_51\n      jump\t// in\n    tag_78:\n      mload(0x40)\n      dup1\n      swap2\n      sub\n      swap1\n      revert\n    tag_77:\n        /* \"contracts/Parkplatz.sol\":2345:2362  uint256 parkdauer */\n      0x00\n        /* \"contracts/Parkplatz.sol\":2383:2394  parkplaetze */\n      dup1\n        /* \"contracts/Parkplatz.sol\":2383:2407  parkplaetze[parkplatzId] */\n      0x00\n        /* \"contracts/Parkplatz.sol\":2395:2406  parkplatzId */\n      dup5\n        /* \"contracts/Parkplatz.sol\":2383:2407  parkplaetze[parkplatzId] */\n      dup2\n      mstore\n      0x20\n      add\n      swap1\n      dup2\n      mstore\n      0x20\n      add\n      0x00\n      keccak256\n        /* \"contracts/Parkplatz.sol\":2383:2426  parkplaetze[parkplatzId].belegungsStartzeit */\n      0x01\n      add\n      sload\n        /* \"contracts/Parkplatz.sol\":2365:2380  block.timestamp */\n      timestamp\n        /* \"contracts/Parkplatz.sol\":2365:2426  block.timestamp - parkplaetze[parkplatzId].belegungsStartzeit */\n      tag_79\n      swap2\n      swap1\n      tag_56\n      jump\t// in\n    tag_79:\n        /* \"contracts/Parkplatz.sol\":2345:2426  uint256 parkdauer = block.timestamp - parkplaetze[parkplatzId].belegungsStartzeit */\n      swap1\n      pop\n        /* \"contracts/Parkplatz.sol\":2432:2458  uint256 gebuehrenProMinute */\n      0x00\n        /* \"contracts/Parkplatz.sol\":2461:2472  parkplaetze */\n      dup1\n        /* \"contracts/Parkplatz.sol\":2461:2485  parkplaetze[parkplatzId] */\n      0x00\n        /* \"contracts/Parkplatz.sol\":2473:2484  parkplatzId */\n      dup6\n        /* \"contracts/Parkplatz.sol\":2461:2485  parkplaetze[parkplatzId] */\n      dup2\n      mstore\n      0x20\n      add\n      swap1\n      dup2\n      mstore\n      0x20\n      add\n      0x00\n      keccak256\n        /* \"contracts/Parkplatz.sol\":2461:2506  parkplaetze[parkplatzId].ParkgebuehrProMinute */\n      0x03\n      add\n      sload\n        /* \"contracts/Parkplatz.sol\":2432:2506  uint256 gebuehrenProMinute = parkplaetze[parkplatzId].ParkgebuehrProMinute */\n      swap1\n      pop\n        /* \"contracts/Parkplatz.sol\":2591:2601  15 seconds */\n      0x0f\n        /* \"contracts/Parkplatz.sol\":2578:2587  parkdauer */\n      dup3\n        /* \"contracts/Parkplatz.sol\":2578:2601  parkdauer >= 15 seconds */\n      lt\n        /* \"contracts/Parkplatz.sol\":2574:2810  if (parkdauer >= 15 seconds) {... */\n      tag_80\n      jumpi\n        /* \"contracts/Parkplatz.sol\":2659:2682  uint256 zusatzgebuehren */\n      0x00\n        /* \"contracts/Parkplatz.sol\":2712:2730  gebuehrenProMinute */\n      dup2\n        /* \"contracts/Parkplatz.sol\":2698:2708  15 seconds */\n      0x0f\n        /* \"contracts/Parkplatz.sol\":2686:2695  parkdauer */\n      dup5\n        /* \"contracts/Parkplatz.sol\":2686:2708  parkdauer / 15 seconds */\n      tag_81\n      swap2\n      swap1\n      tag_61\n      jump\t// in\n    tag_81:\n        /* \"contracts/Parkplatz.sol\":2685:2730  (parkdauer / 15 seconds) * gebuehrenProMinute */\n      tag_82\n      swap2\n      swap1\n      tag_58\n      jump\t// in\n    tag_82:\n        /* \"contracts/Parkplatz.sol\":2659:2730  uint256 zusatzgebuehren = (parkdauer / 15 seconds) * gebuehrenProMinute */\n      swap1\n      pop\n        /* \"contracts/Parkplatz.sol\":2788:2803  zusatzgebuehren */\n      dup1\n        /* \"contracts/Parkplatz.sol\":2747:2758  parkplaetze */\n      0x00\n        /* \"contracts/Parkplatz.sol\":2747:2771  parkplaetze[parkplatzId] */\n      dup1\n        /* \"contracts/Parkplatz.sol\":2759:2770  parkplatzId */\n      dup8\n        /* \"contracts/Parkplatz.sol\":2747:2771  parkplaetze[parkplatzId] */\n      dup2\n      mstore\n      0x20\n      add\n      swap1\n      dup2\n      mstore\n      0x20\n      add\n      0x00\n      keccak256\n        /* \"contracts/Parkplatz.sol\":2747:2785  parkplaetze[parkplatzId].Parkgebuehren */\n      0x04\n      add\n      sload\n        /* \"contracts/Parkplatz.sol\":2747:2803  parkplaetze[parkplatzId].Parkgebuehren + zusatzgebuehren */\n      tag_83\n      swap2\n      swap1\n      tag_64\n      jump\t// in\n    tag_83:\n        /* \"contracts/Parkplatz.sol\":2740:2803  return parkplaetze[parkplatzId].Parkgebuehren + zusatzgebuehren */\n      swap4\n      pop\n      pop\n      pop\n      pop\n      jump(tag_76)\n        /* \"contracts/Parkplatz.sol\":2574:2810  if (parkdauer >= 15 seconds) {... */\n    tag_80:\n        /* \"contracts/Parkplatz.sol\":2827:2838  parkplaetze */\n      0x00\n        /* \"contracts/Parkplatz.sol\":2827:2851  parkplaetze[parkplatzId] */\n      dup1\n        /* \"contracts/Parkplatz.sol\":2839:2850  parkplatzId */\n      dup6\n        /* \"contracts/Parkplatz.sol\":2827:2851  parkplaetze[parkplatzId] */\n      dup2\n      mstore\n      0x20\n      add\n      swap1\n      dup2\n      mstore\n      0x20\n      add\n      0x00\n      keccak256\n        /* \"contracts/Parkplatz.sol\":2827:2865  parkplaetze[parkplatzId].Parkgebuehren */\n      0x04\n      add\n      sload\n        /* \"contracts/Parkplatz.sol\":2820:2865  return parkplaetze[parkplatzId].Parkgebuehren */\n      swap3\n      pop\n      pop\n      pop\n        /* \"contracts/Parkplatz.sol\":2175:2868  function getCurrentGebuehren(uint256 parkplatzId) public view returns (uint256) {... */\n    tag_76:\n      swap2\n      swap1\n      pop\n      jump\t// out\n        /* \"contracts/Parkplatz.sol\":1657:2170  function parkplatzBelegen(uint256 parkplatzId) public {... */\n    tag_39:\n        /* \"contracts/Parkplatz.sol\":1743:1754  parkplaetze */\n      0x00\n        /* \"contracts/Parkplatz.sol\":1743:1767  parkplaetze[parkplatzId] */\n      dup1\n        /* \"contracts/Parkplatz.sol\":1755:1766  parkplatzId */\n      dup3\n        /* \"contracts/Parkplatz.sol\":1743:1767  parkplaetze[parkplatzId] */\n      dup2\n      mstore\n      0x20\n      add\n      swap1\n      dup2\n      mstore\n      0x20\n      add\n      0x00\n      keccak256\n        /* \"contracts/Parkplatz.sol\":1743:1777  parkplaetze[parkplatzId].istBelegt */\n      0x00\n      add\n      0x00\n      swap1\n      sload\n      swap1\n      0x0100\n      exp\n      swap1\n      div\n      0xff\n      and\n        /* \"contracts/Parkplatz.sol\":1742:1777  !parkplaetze[parkplatzId].istBelegt */\n      iszero\n        /* \"contracts/Parkplatz.sol\":1721:1831  require(... */\n      tag_85\n      jumpi\n      mload(0x40)\n      0x08c379a000000000000000000000000000000000000000000000000000000000\n      dup2\n      mstore\n      0x04\n      add\n      tag_86\n      swap1\n      tag_87\n      jump\t// in\n    tag_86:\n      mload(0x40)\n      dup1\n      swap2\n      sub\n      swap1\n      revert\n    tag_85:\n        /* \"contracts/Parkplatz.sol\":1878:1882  true */\n      0x01\n        /* \"contracts/Parkplatz.sol\":1841:1852  parkplaetze */\n      0x00\n        /* \"contracts/Parkplatz.sol\":1841:1865  parkplaetze[parkplatzId] */\n      dup1\n        /* \"contracts/Parkplatz.sol\":1853:1864  parkplatzId */\n      dup4\n        /* \"contracts/Parkplatz.sol\":1841:1865  parkplaetze[parkplatzId] */\n      dup2\n      mstore\n      0x20\n      add\n      swap1\n      dup2\n      mstore\n      0x20\n      add\n      0x00\n      keccak256\n        /* \"contracts/Parkplatz.sol\":1841:1875  parkplaetze[parkplatzId].istBelegt */\n      0x00\n      add\n      0x00\n        /* \"contracts/Parkplatz.sol\":1841:1882  parkplaetze[parkplatzId].istBelegt = true */\n      0x0100\n      exp\n      dup2\n      sload\n      dup2\n      0xff\n      mul\n      not\n      and\n      swap1\n      dup4\n      iszero\n      iszero\n      mul\n      or\n      swap1\n      sstore\n      pop\n        /* \"contracts/Parkplatz.sol\":1938:1953  block.timestamp */\n      timestamp\n        /* \"contracts/Parkplatz.sol\":1892:1903  parkplaetze */\n      0x00\n        /* \"contracts/Parkplatz.sol\":1892:1916  parkplaetze[parkplatzId] */\n      dup1\n        /* \"contracts/Parkplatz.sol\":1904:1915  parkplatzId */\n      dup4\n        /* \"contracts/Parkplatz.sol\":1892:1916  parkplaetze[parkplatzId] */\n      dup2\n      mstore\n      0x20\n      add\n      swap1\n      dup2\n      mstore\n      0x20\n      add\n      0x00\n      keccak256\n        /* \"contracts/Parkplatz.sol\":1892:1935  parkplaetze[parkplatzId].belegungsStartzeit */\n      0x01\n      add\n        /* \"contracts/Parkplatz.sol\":1892:1953  parkplaetze[parkplatzId].belegungsStartzeit = block.timestamp */\n      dup2\n      swap1\n      sstore\n      pop\n        /* \"contracts/Parkplatz.sol\":2007:2017  msg.sender */\n      caller\n        /* \"contracts/Parkplatz.sol\":1963:1974  parkplaetze */\n      0x00\n        /* \"contracts/Parkplatz.sol\":1963:1987  parkplaetze[parkplatzId] */\n      dup1\n        /* \"contracts/Parkplatz.sol\":1975:1986  parkplatzId */\n      dup4\n        /* \"contracts/Parkplatz.sol\":1963:1987  parkplaetze[parkplatzId] */\n      dup2\n      mstore\n      0x20\n      add\n      swap1\n      dup2\n      mstore\n      0x20\n      add\n      0x00\n      keccak256\n        /* \"contracts/Parkplatz.sol\":1963:2004  parkplaetze[parkplatzId].fahrzeugBesitzer */\n      0x02\n      add\n      0x00\n        /* \"contracts/Parkplatz.sol\":1963:2017  parkplaetze[parkplatzId].fahrzeugBesitzer = msg.sender */\n      0x0100\n      exp\n      dup2\n      sload\n      dup2\n      0xffffffffffffffffffffffffffffffffffffffff\n      mul\n      not\n      and\n      swap1\n      dup4\n      0xffffffffffffffffffffffffffffffffffffffff\n      and\n      mul\n      or\n      swap1\n      sstore\n      pop\n        /* \"contracts/Parkplatz.sol\":2032:2163  ParkplatzBelegt(... */\n      0x376efccf679161f2b931f2b4e8597692161a8049ade631759b472510b89f11e6\n        /* \"contracts/Parkplatz.sol\":2061:2072  parkplatzId */\n      dup2\n        /* \"contracts/Parkplatz.sol\":2086:2096  msg.sender */\n      caller\n        /* \"contracts/Parkplatz.sol\":2110:2121  parkplaetze */\n      0x00\n        /* \"contracts/Parkplatz.sol\":2110:2134  parkplaetze[parkplatzId] */\n      dup1\n        /* \"contracts/Parkplatz.sol\":2122:2133  parkplatzId */\n      dup6\n        /* \"contracts/Parkplatz.sol\":2110:2134  parkplaetze[parkplatzId] */\n      dup2\n      mstore\n      0x20\n      add\n      swap1\n      dup2\n      mstore\n      0x20\n      add\n      0x00\n      keccak256\n        /* \"contracts/Parkplatz.sol\":2110:2153  parkplaetze[parkplatzId].belegungsStartzeit */\n      0x01\n      add\n      sload\n        /* \"contracts/Parkplatz.sol\":2032:2163  ParkplatzBelegt(... */\n      mload(0x40)\n      tag_88\n      swap4\n      swap3\n      swap2\n      swap1\n      tag_89\n      jump\t// in\n    tag_88:\n      mload(0x40)\n      dup1\n      swap2\n      sub\n      swap1\n      log1\n        /* \"contracts/Parkplatz.sol\":1657:2170  function parkplatzBelegen(uint256 parkplatzId) public {... */\n      pop\n      jump\t// out\n        /* \"contracts/Parkplatz.sol\":295:343  mapping(uint256 => Parkplatz) public parkplaetze */\n    tag_43:\n      mstore(0x20, 0x00)\n      dup1\n      0x00\n      mstore\n      keccak256(0x00, 0x40)\n      0x00\n      swap2\n      pop\n      swap1\n      pop\n      dup1\n      0x00\n      add\n      0x00\n      swap1\n      sload\n      swap1\n      0x0100\n      exp\n      swap1\n      div\n      0xff\n      and\n      swap1\n      dup1\n      0x01\n      add\n      sload\n      swap1\n      dup1\n      0x02\n      add\n      0x00\n      swap1\n      sload\n      swap1\n      0x0100\n      exp\n      swap1\n      div\n      0xffffffffffffffffffffffffffffffffffffffff\n      and\n      swap1\n      dup1\n      0x03\n      add\n      sload\n      swap1\n      dup1\n      0x04\n      add\n      sload\n      swap1\n      pop\n      dup6\n      jump\t// out\n        /* \"#utility.yul\":88:205   */\n    tag_91:\n        /* \"#utility.yul\":197:198   */\n      0x00\n        /* \"#utility.yul\":194:195   */\n      dup1\n        /* \"#utility.yul\":187:199   */\n      revert\n        /* \"#utility.yul\":334:411   */\n    tag_93:\n        /* \"#utility.yul\":371:378   */\n      0x00\n        /* \"#utility.yul\":400:405   */\n      dup2\n        /* \"#utility.yul\":389:405   */\n      swap1\n      pop\n        /* \"#utility.yul\":334:411   */\n      swap2\n      swap1\n      pop\n      jump\t// out\n        /* \"#utility.yul\":417:539   */\n    tag_94:\n        /* \"#utility.yul\":490:514   */\n      tag_126\n        /* \"#utility.yul\":508:513   */\n      dup2\n        /* \"#utility.yul\":490:514   */\n      tag_93\n      jump\t// in\n    tag_126:\n        /* \"#utility.yul\":483:488   */\n      dup2\n        /* \"#utility.yul\":480:515   */\n      eq\n        /* \"#utility.yul\":470:533   */\n      tag_127\n      jumpi\n        /* \"#utility.yul\":529:530   */\n      0x00\n        /* \"#utility.yul\":526:527   */\n      dup1\n        /* \"#utility.yul\":519:531   */\n      revert\n        /* \"#utility.yul\":470:533   */\n    tag_127:\n        /* \"#utility.yul\":417:539   */\n      pop\n      jump\t// out\n        /* \"#utility.yul\":545:684   */\n    tag_95:\n        /* \"#utility.yul\":591:596   */\n      0x00\n        /* \"#utility.yul\":629:635   */\n      dup2\n        /* \"#utility.yul\":616:636   */\n      calldataload\n        /* \"#utility.yul\":607:636   */\n      swap1\n      pop\n        /* \"#utility.yul\":645:678   */\n      tag_129\n        /* \"#utility.yul\":672:677   */\n      dup2\n        /* \"#utility.yul\":645:678   */\n      tag_94\n      jump\t// in\n    tag_129:\n        /* \"#utility.yul\":545:684   */\n      swap3\n      swap2\n      pop\n      pop\n      jump\t// out\n        /* \"#utility.yul\":690:1019   */\n    tag_13:\n        /* \"#utility.yul\":749:755   */\n      0x00\n        /* \"#utility.yul\":798:800   */\n      0x20\n        /* \"#utility.yul\":786:795   */\n      dup3\n        /* \"#utility.yul\":777:784   */\n      dup5\n        /* \"#utility.yul\":773:796   */\n      sub\n        /* \"#utility.yul\":769:801   */\n      slt\n        /* \"#utility.yul\":766:885   */\n      iszero\n      tag_131\n      jumpi\n        /* \"#utility.yul\":804:883   */\n      tag_132\n      tag_91\n      jump\t// in\n    tag_132:\n        /* \"#utility.yul\":766:885   */\n    tag_131:\n        /* \"#utility.yul\":924:925   */\n      0x00\n        /* \"#utility.yul\":949:1002   */\n      tag_133\n        /* \"#utility.yul\":994:1001   */\n      dup5\n        /* \"#utility.yul\":985:991   */\n      dup3\n        /* \"#utility.yul\":974:983   */\n      dup6\n        /* \"#utility.yul\":970:992   */\n      add\n        /* \"#utility.yul\":949:1002   */\n      tag_95\n      jump\t// in\n    tag_133:\n        /* \"#utility.yul\":939:1002   */\n      swap2\n      pop\n        /* \"#utility.yul\":895:1012   */\n      pop\n        /* \"#utility.yul\":690:1019   */\n      swap3\n      swap2\n      pop\n      pop\n      jump\t// out\n        /* \"#utility.yul\":1025:1143   */\n    tag_96:\n        /* \"#utility.yul\":1112:1136   */\n      tag_135\n        /* \"#utility.yul\":1130:1135   */\n      dup2\n        /* \"#utility.yul\":1112:1136   */\n      tag_93\n      jump\t// in\n    tag_135:\n        /* \"#utility.yul\":1107:1110   */\n      dup3\n        /* \"#utility.yul\":1100:1137   */\n      mstore\n        /* \"#utility.yul\":1025:1143   */\n      pop\n      pop\n      jump\t// out\n        /* \"#utility.yul\":1149:1371   */\n    tag_16:\n        /* \"#utility.yul\":1242:1246   */\n      0x00\n        /* \"#utility.yul\":1280:1282   */\n      0x20\n        /* \"#utility.yul\":1269:1278   */\n      dup3\n        /* \"#utility.yul\":1265:1283   */\n      add\n        /* \"#utility.yul\":1257:1283   */\n      swap1\n      pop\n        /* \"#utility.yul\":1293:1364   */\n      tag_137\n        /* \"#utility.yul\":1361:1362   */\n      0x00\n        /* \"#utility.yul\":1350:1359   */\n      dup4\n        /* \"#utility.yul\":1346:1363   */\n      add\n        /* \"#utility.yul\":1337:1343   */\n      dup5\n        /* \"#utility.yul\":1293:1364   */\n      tag_96\n      jump\t// in\n    tag_137:\n        /* \"#utility.yul\":1149:1371   */\n      swap3\n      swap2\n      pop\n      pop\n      jump\t// out\n        /* \"#utility.yul\":1377:1491   */\n    tag_97:\n        /* \"#utility.yul\":1444:1450   */\n      0x00\n        /* \"#utility.yul\":1478:1483   */\n      dup2\n        /* \"#utility.yul\":1472:1484   */\n      mload\n        /* \"#utility.yul\":1462:1484   */\n      swap1\n      pop\n        /* \"#utility.yul\":1377:1491   */\n      swap2\n      swap1\n      pop\n      jump\t// out\n        /* \"#utility.yul\":1497:1681   */\n    tag_98:\n        /* \"#utility.yul\":1596:1607   */\n      0x00\n        /* \"#utility.yul\":1630:1636   */\n      dup3\n        /* \"#utility.yul\":1625:1628   */\n      dup3\n        /* \"#utility.yul\":1618:1637   */\n      mstore\n        /* \"#utility.yul\":1670:1674   */\n      0x20\n        /* \"#utility.yul\":1665:1668   */\n      dup3\n        /* \"#utility.yul\":1661:1675   */\n      add\n        /* \"#utility.yul\":1646:1675   */\n      swap1\n      pop\n        /* \"#utility.yul\":1497:1681   */\n      swap3\n      swap2\n      pop\n      pop\n      jump\t// out\n        /* \"#utility.yul\":1687:1819   */\n    tag_99:\n        /* \"#utility.yul\":1754:1758   */\n      0x00\n        /* \"#utility.yul\":1777:1780   */\n      dup2\n        /* \"#utility.yul\":1769:1780   */\n      swap1\n      pop\n        /* \"#utility.yul\":1807:1811   */\n      0x20\n        /* \"#utility.yul\":1802:1805   */\n      dup3\n        /* \"#utility.yul\":1798:1812   */\n      add\n        /* \"#utility.yul\":1790:1812   */\n      swap1\n      pop\n        /* \"#utility.yul\":1687:1819   */\n      swap2\n      swap1\n      pop\n      jump\t// out\n        /* \"#utility.yul\":1825:1933   */\n    tag_100:\n        /* \"#utility.yul\":1902:1926   */\n      tag_142\n        /* \"#utility.yul\":1920:1925   */\n      dup2\n        /* \"#utility.yul\":1902:1926   */\n      tag_93\n      jump\t// in\n    tag_142:\n        /* \"#utility.yul\":1897:1900   */\n      dup3\n        /* \"#utility.yul\":1890:1927   */\n      mstore\n        /* \"#utility.yul\":1825:1933   */\n      pop\n      pop\n      jump\t// out\n        /* \"#utility.yul\":1939:2118   */\n    tag_101:\n        /* \"#utility.yul\":2008:2018   */\n      0x00\n        /* \"#utility.yul\":2029:2075   */\n      tag_144\n        /* \"#utility.yul\":2071:2074   */\n      dup4\n        /* \"#utility.yul\":2063:2069   */\n      dup4\n        /* \"#utility.yul\":2029:2075   */\n      tag_100\n      jump\t// in\n    tag_144:\n        /* \"#utility.yul\":2107:2111   */\n      0x20\n        /* \"#utility.yul\":2102:2105   */\n      dup4\n        /* \"#utility.yul\":2098:2112   */\n      add\n        /* \"#utility.yul\":2084:2112   */\n      swap1\n      pop\n        /* \"#utility.yul\":1939:2118   */\n      swap3\n      swap2\n      pop\n      pop\n      jump\t// out\n        /* \"#utility.yul\":2124:2237   */\n    tag_102:\n        /* \"#utility.yul\":2194:2198   */\n      0x00\n        /* \"#utility.yul\":2226:2230   */\n      0x20\n        /* \"#utility.yul\":2221:2224   */\n      dup3\n        /* \"#utility.yul\":2217:2231   */\n      add\n        /* \"#utility.yul\":2209:2231   */\n      swap1\n      pop\n        /* \"#utility.yul\":2124:2237   */\n      swap2\n      swap1\n      pop\n      jump\t// out\n        /* \"#utility.yul\":2273:3005   */\n    tag_103:\n        /* \"#utility.yul\":2392:2395   */\n      0x00\n        /* \"#utility.yul\":2421:2475   */\n      tag_147\n        /* \"#utility.yul\":2469:2474   */\n      dup3\n        /* \"#utility.yul\":2421:2475   */\n      tag_97\n      jump\t// in\n    tag_147:\n        /* \"#utility.yul\":2491:2577   */\n      tag_148\n        /* \"#utility.yul\":2570:2576   */\n      dup2\n        /* \"#utility.yul\":2565:2568   */\n      dup6\n        /* \"#utility.yul\":2491:2577   */\n      tag_98\n      jump\t// in\n    tag_148:\n        /* \"#utility.yul\":2484:2577   */\n      swap4\n      pop\n        /* \"#utility.yul\":2601:2657   */\n      tag_149\n        /* \"#utility.yul\":2651:2656   */\n      dup4\n        /* \"#utility.yul\":2601:2657   */\n      tag_99\n      jump\t// in\n    tag_149:\n        /* \"#utility.yul\":2680:2687   */\n      dup1\n        /* \"#utility.yul\":2711:2712   */\n      0x00\n        /* \"#utility.yul\":2696:2980   */\n    tag_150:\n        /* \"#utility.yul\":2721:2727   */\n      dup4\n        /* \"#utility.yul\":2718:2719   */\n      dup2\n        /* \"#utility.yul\":2715:2728   */\n      lt\n        /* \"#utility.yul\":2696:2980   */\n      iszero\n      tag_152\n      jumpi\n        /* \"#utility.yul\":2797:2803   */\n      dup2\n        /* \"#utility.yul\":2791:2804   */\n      mload\n        /* \"#utility.yul\":2824:2887   */\n      tag_153\n        /* \"#utility.yul\":2883:2886   */\n      dup9\n        /* \"#utility.yul\":2868:2881   */\n      dup3\n        /* \"#utility.yul\":2824:2887   */\n      tag_101\n      jump\t// in\n    tag_153:\n        /* \"#utility.yul\":2817:2887   */\n      swap8\n      pop\n        /* \"#utility.yul\":2910:2970   */\n      tag_154\n        /* \"#utility.yul\":2963:2969   */\n      dup4\n        /* \"#utility.yul\":2910:2970   */\n      tag_102\n      jump\t// in\n    tag_154:\n        /* \"#utility.yul\":2900:2970   */\n      swap3\n      pop\n        /* \"#utility.yul\":2756:2980   */\n      pop\n        /* \"#utility.yul\":2743:2744   */\n      0x01\n        /* \"#utility.yul\":2740:2741   */\n      dup2\n        /* \"#utility.yul\":2736:2745   */\n      add\n        /* \"#utility.yul\":2731:2745   */\n      swap1\n      pop\n        /* \"#utility.yul\":2696:2980   */\n      jump(tag_150)\n    tag_152:\n        /* \"#utility.yul\":2700:2714   */\n      pop\n        /* \"#utility.yul\":2996:2999   */\n      dup6\n        /* \"#utility.yul\":2989:2999   */\n      swap4\n      pop\n        /* \"#utility.yul\":2397:3005   */\n      pop\n      pop\n      pop\n        /* \"#utility.yul\":2273:3005   */\n      swap3\n      swap2\n      pop\n      pop\n      jump\t// out\n        /* \"#utility.yul\":3011:3384   */\n    tag_24:\n        /* \"#utility.yul\":3154:3158   */\n      0x00\n        /* \"#utility.yul\":3192:3194   */\n      0x20\n        /* \"#utility.yul\":3181:3190   */\n      dup3\n        /* \"#utility.yul\":3177:3195   */\n      add\n        /* \"#utility.yul\":3169:3195   */\n      swap1\n      pop\n        /* \"#utility.yul\":3241:3250   */\n      dup2\n        /* \"#utility.yul\":3235:3239   */\n      dup2\n        /* \"#utility.yul\":3231:3251   */\n      sub\n        /* \"#utility.yul\":3227:3228   */\n      0x00\n        /* \"#utility.yul\":3216:3225   */\n      dup4\n        /* \"#utility.yul\":3212:3229   */\n      add\n        /* \"#utility.yul\":3205:3252   */\n      mstore\n        /* \"#utility.yul\":3269:3377   */\n      tag_156\n        /* \"#utility.yul\":3372:3376   */\n      dup2\n        /* \"#utility.yul\":3363:3369   */\n      dup5\n        /* \"#utility.yul\":3269:3377   */\n      tag_103\n      jump\t// in\n    tag_156:\n        /* \"#utility.yul\":3261:3377   */\n      swap1\n      pop\n        /* \"#utility.yul\":3011:3384   */\n      swap3\n      swap2\n      pop\n      pop\n      jump\t// out\n        /* \"#utility.yul\":3390:3480   */\n    tag_104:\n        /* \"#utility.yul\":3424:3431   */\n      0x00\n        /* \"#utility.yul\":3467:3472   */\n      dup2\n        /* \"#utility.yul\":3460:3473   */\n      iszero\n        /* \"#utility.yul\":3453:3474   */\n      iszero\n        /* \"#utility.yul\":3442:3474   */\n      swap1\n      pop\n        /* \"#utility.yul\":3390:3480   */\n      swap2\n      swap1\n      pop\n      jump\t// out\n        /* \"#utility.yul\":3486:3595   */\n    tag_105:\n        /* \"#utility.yul\":3567:3588   */\n      tag_159\n        /* \"#utility.yul\":3582:3587   */\n      dup2\n        /* \"#utility.yul\":3567:3588   */\n      tag_104\n      jump\t// in\n    tag_159:\n        /* \"#utility.yul\":3562:3565   */\n      dup3\n        /* \"#utility.yul\":3555:3589   */\n      mstore\n        /* \"#utility.yul\":3486:3595   */\n      pop\n      pop\n      jump\t// out\n        /* \"#utility.yul\":3601:3727   */\n    tag_106:\n        /* \"#utility.yul\":3638:3645   */\n      0x00\n        /* \"#utility.yul\":3678:3720   */\n      0xffffffffffffffffffffffffffffffffffffffff\n        /* \"#utility.yul\":3671:3676   */\n      dup3\n        /* \"#utility.yul\":3667:3721   */\n      and\n        /* \"#utility.yul\":3656:3721   */\n      swap1\n      pop\n        /* \"#utility.yul\":3601:3727   */\n      swap2\n      swap1\n      pop\n      jump\t// out\n        /* \"#utility.yul\":3733:3829   */\n    tag_107:\n        /* \"#utility.yul\":3770:3777   */\n      0x00\n        /* \"#utility.yul\":3799:3823   */\n      tag_162\n        /* \"#utility.yul\":3817:3822   */\n      dup3\n        /* \"#utility.yul\":3799:3823   */\n      tag_106\n      jump\t// in\n    tag_162:\n        /* \"#utility.yul\":3788:3823   */\n      swap1\n      pop\n        /* \"#utility.yul\":3733:3829   */\n      swap2\n      swap1\n      pop\n      jump\t// out\n        /* \"#utility.yul\":3835:3953   */\n    tag_108:\n        /* \"#utility.yul\":3922:3946   */\n      tag_164\n        /* \"#utility.yul\":3940:3945   */\n      dup2\n        /* \"#utility.yul\":3922:3946   */\n      tag_107\n      jump\t// in\n    tag_164:\n        /* \"#utility.yul\":3917:3920   */\n      dup3\n        /* \"#utility.yul\":3910:3947   */\n      mstore\n        /* \"#utility.yul\":3835:3953   */\n      pop\n      pop\n      jump\t// out\n        /* \"#utility.yul\":3959:4500   */\n    tag_30:\n        /* \"#utility.yul\":4130:4134   */\n      0x00\n        /* \"#utility.yul\":4168:4171   */\n      0x80\n        /* \"#utility.yul\":4157:4166   */\n      dup3\n        /* \"#utility.yul\":4153:4172   */\n      add\n        /* \"#utility.yul\":4145:4172   */\n      swap1\n      pop\n        /* \"#utility.yul\":4182:4247   */\n      tag_166\n        /* \"#utility.yul\":4244:4245   */\n      0x00\n        /* \"#utility.yul\":4233:4242   */\n      dup4\n        /* \"#utility.yul\":4229:4246   */\n      add\n        /* \"#utility.yul\":4220:4226   */\n      dup8\n        /* \"#utility.yul\":4182:4247   */\n      tag_105\n      jump\t// in\n    tag_166:\n        /* \"#utility.yul\":4257:4329   */\n      tag_167\n        /* \"#utility.yul\":4325:4327   */\n      0x20\n        /* \"#utility.yul\":4314:4323   */\n      dup4\n        /* \"#utility.yul\":4310:4328   */\n      add\n        /* \"#utility.yul\":4301:4307   */\n      dup7\n        /* \"#utility.yul\":4257:4329   */\n      tag_96\n      jump\t// in\n    tag_167:\n        /* \"#utility.yul\":4339:4411   */\n      tag_168\n        /* \"#utility.yul\":4407:4409   */\n      0x40\n        /* \"#utility.yul\":4396:4405   */\n      dup4\n        /* \"#utility.yul\":4392:4410   */\n      add\n        /* \"#utility.yul\":4383:4389   */\n      dup6\n        /* \"#utility.yul\":4339:4411   */\n      tag_108\n      jump\t// in\n    tag_168:\n        /* \"#utility.yul\":4421:4493   */\n      tag_169\n        /* \"#utility.yul\":4489:4491   */\n      0x60\n        /* \"#utility.yul\":4478:4487   */\n      dup4\n        /* \"#utility.yul\":4474:4492   */\n      add\n        /* \"#utility.yul\":4465:4471   */\n      dup5\n        /* \"#utility.yul\":4421:4493   */\n      tag_96\n      jump\t// in\n    tag_169:\n        /* \"#utility.yul\":3959:4500   */\n      swap6\n      swap5\n      pop\n      pop\n      pop\n      pop\n      pop\n      jump\t// out\n        /* \"#utility.yul\":4506:5158   */\n    tag_45:\n        /* \"#utility.yul\":4705:4709   */\n      0x00\n        /* \"#utility.yul\":4743:4746   */\n      0xa0\n        /* \"#utility.yul\":4732:4741   */\n      dup3\n        /* \"#utility.yul\":4728:4747   */\n      add\n        /* \"#utility.yul\":4720:4747   */\n      swap1\n      pop\n        /* \"#utility.yul\":4757:4822   */\n      tag_171\n        /* \"#utility.yul\":4819:4820   */\n      0x00\n        /* \"#utility.yul\":4808:4817   */\n      dup4\n        /* \"#utility.yul\":4804:4821   */\n      add\n        /* \"#utility.yul\":4795:4801   */\n      dup9\n        /* \"#utility.yul\":4757:4822   */\n      tag_105\n      jump\t// in\n    tag_171:\n        /* \"#utility.yul\":4832:4904   */\n      tag_172\n        /* \"#utility.yul\":4900:4902   */\n      0x20\n        /* \"#utility.yul\":4889:4898   */\n      dup4\n        /* \"#utility.yul\":4885:4903   */\n      add\n        /* \"#utility.yul\":4876:4882   */\n      dup8\n        /* \"#utility.yul\":4832:4904   */\n      tag_96\n      jump\t// in\n    tag_172:\n        /* \"#utility.yul\":4914:4986   */\n      tag_173\n        /* \"#utility.yul\":4982:4984   */\n      0x40\n        /* \"#utility.yul\":4971:4980   */\n      dup4\n        /* \"#utility.yul\":4967:4985   */\n      add\n        /* \"#utility.yul\":4958:4964   */\n      dup7\n        /* \"#utility.yul\":4914:4986   */\n      tag_108\n      jump\t// in\n    tag_173:\n        /* \"#utility.yul\":4996:5068   */\n      tag_174\n        /* \"#utility.yul\":5064:5066   */\n      0x60\n        /* \"#utility.yul\":5053:5062   */\n      dup4\n        /* \"#utility.yul\":5049:5067   */\n      add\n        /* \"#utility.yul\":5040:5046   */\n      dup6\n        /* \"#utility.yul\":4996:5068   */\n      tag_96\n      jump\t// in\n    tag_174:\n        /* \"#utility.yul\":5078:5151   */\n      tag_175\n        /* \"#utility.yul\":5146:5149   */\n      0x80\n        /* \"#utility.yul\":5135:5144   */\n      dup4\n        /* \"#utility.yul\":5131:5150   */\n      add\n        /* \"#utility.yul\":5122:5128   */\n      dup5\n        /* \"#utility.yul\":5078:5151   */\n      tag_96\n      jump\t// in\n    tag_175:\n        /* \"#utility.yul\":4506:5158   */\n      swap7\n      swap6\n      pop\n      pop\n      pop\n      pop\n      pop\n      pop\n      jump\t// out\n        /* \"#utility.yul\":5164:5333   */\n    tag_109:\n        /* \"#utility.yul\":5248:5259   */\n      0x00\n        /* \"#utility.yul\":5282:5288   */\n      dup3\n        /* \"#utility.yul\":5277:5280   */\n      dup3\n        /* \"#utility.yul\":5270:5289   */\n      mstore\n        /* \"#utility.yul\":5322:5326   */\n      0x20\n        /* \"#utility.yul\":5317:5320   */\n      dup3\n        /* \"#utility.yul\":5313:5327   */\n      add\n        /* \"#utility.yul\":5298:5327   */\n      swap1\n      pop\n        /* \"#utility.yul\":5164:5333   */\n      swap3\n      swap2\n      pop\n      pop\n      jump\t// out\n        /* \"#utility.yul\":5339:5515   */\n    tag_110:\n        /* \"#utility.yul\":5479:5507   */\n      0x5061726b706c61747a20697374206e696368742062656c656774000000000000\n        /* \"#utility.yul\":5475:5476   */\n      0x00\n        /* \"#utility.yul\":5467:5473   */\n      dup3\n        /* \"#utility.yul\":5463:5477   */\n      add\n        /* \"#utility.yul\":5456:5508   */\n      mstore\n        /* \"#utility.yul\":5339:5515   */\n      pop\n      jump\t// out\n        /* \"#utility.yul\":5521:5887   */\n    tag_111:\n        /* \"#utility.yul\":5663:5666   */\n      0x00\n        /* \"#utility.yul\":5684:5751   */\n      tag_179\n        /* \"#utility.yul\":5748:5750   */\n      0x1a\n        /* \"#utility.yul\":5743:5746   */\n      dup4\n        /* \"#utility.yul\":5684:5751   */\n      tag_109\n      jump\t// in\n    tag_179:\n        /* \"#utility.yul\":5677:5751   */\n      swap2\n      pop\n        /* \"#utility.yul\":5760:5853   */\n      tag_180\n        /* \"#utility.yul\":5849:5852   */\n      dup3\n        /* \"#utility.yul\":5760:5853   */\n      tag_110\n      jump\t// in\n    tag_180:\n        /* \"#utility.yul\":5878:5880   */\n      0x20\n        /* \"#utility.yul\":5873:5876   */\n      dup3\n        /* \"#utility.yul\":5869:5881   */\n      add\n        /* \"#utility.yul\":5862:5881   */\n      swap1\n      pop\n        /* \"#utility.yul\":5521:5887   */\n      swap2\n      swap1\n      pop\n      jump\t// out\n        /* \"#utility.yul\":5893:6312   */\n    tag_51:\n        /* \"#utility.yul\":6059:6063   */\n      0x00\n        /* \"#utility.yul\":6097:6099   */\n      0x20\n        /* \"#utility.yul\":6086:6095   */\n      dup3\n        /* \"#utility.yul\":6082:6100   */\n      add\n        /* \"#utility.yul\":6074:6100   */\n      swap1\n      pop\n        /* \"#utility.yul\":6146:6155   */\n      dup2\n        /* \"#utility.yul\":6140:6144   */\n      dup2\n        /* \"#utility.yul\":6136:6156   */\n      sub\n        /* \"#utility.yul\":6132:6133   */\n      0x00\n        /* \"#utility.yul\":6121:6130   */\n      dup4\n        /* \"#utility.yul\":6117:6134   */\n      add\n        /* \"#utility.yul\":6110:6157   */\n      mstore\n        /* \"#utility.yul\":6174:6305   */\n      tag_182\n        /* \"#utility.yul\":6300:6304   */\n      dup2\n        /* \"#utility.yul\":6174:6305   */\n      tag_111\n      jump\t// in\n    tag_182:\n        /* \"#utility.yul\":6166:6305   */\n      swap1\n      pop\n        /* \"#utility.yul\":5893:6312   */\n      swap2\n      swap1\n      pop\n      jump\t// out\n        /* \"#utility.yul\":6318:6558   */\n    tag_112:\n        /* \"#utility.yul\":6458:6492   */\n      0x4e75722064657220466168727a65756762657369747a6572206b616e6e206465\n        /* \"#utility.yul\":6454:6455   */\n      0x00\n        /* \"#utility.yul\":6446:6452   */\n      dup3\n        /* \"#utility.yul\":6442:6456   */\n      add\n        /* \"#utility.yul\":6435:6493   */\n      mstore\n        /* \"#utility.yul\":6527:6550   */\n      0x6e205061726b706c61747a2066726569676562656e0000000000000000000000\n        /* \"#utility.yul\":6522:6524   */\n      0x20\n        /* \"#utility.yul\":6514:6520   */\n      dup3\n        /* \"#utility.yul\":6510:6525   */\n      add\n        /* \"#utility.yul\":6503:6551   */\n      mstore\n        /* \"#utility.yul\":6318:6558   */\n      pop\n      jump\t// out\n        /* \"#utility.yul\":6564:6930   */\n    tag_113:\n        /* \"#utility.yul\":6706:6709   */\n      0x00\n        /* \"#utility.yul\":6727:6794   */\n      tag_185\n        /* \"#utility.yul\":6791:6793   */\n      0x35\n        /* \"#utility.yul\":6786:6789   */\n      dup4\n        /* \"#utility.yul\":6727:6794   */\n      tag_109\n      jump\t// in\n    tag_185:\n        /* \"#utility.yul\":6720:6794   */\n      swap2\n      pop\n        /* \"#utility.yul\":6803:6896   */\n      tag_186\n        /* \"#utility.yul\":6892:6895   */\n      dup3\n        /* \"#utility.yul\":6803:6896   */\n      tag_112\n      jump\t// in\n    tag_186:\n        /* \"#utility.yul\":6921:6923   */\n      0x40\n        /* \"#utility.yul\":6916:6919   */\n      dup3\n        /* \"#utility.yul\":6912:6924   */\n      add\n        /* \"#utility.yul\":6905:6924   */\n      swap1\n      pop\n        /* \"#utility.yul\":6564:6930   */\n      swap2\n      swap1\n      pop\n      jump\t// out\n        /* \"#utility.yul\":6936:7355   */\n    tag_54:\n        /* \"#utility.yul\":7102:7106   */\n      0x00\n        /* \"#utility.yul\":7140:7142   */\n      0x20\n        /* \"#utility.yul\":7129:7138   */\n      dup3\n        /* \"#utility.yul\":7125:7143   */\n      add\n        /* \"#utility.yul\":7117:7143   */\n      swap1\n      pop\n        /* \"#utility.yul\":7189:7198   */\n      dup2\n        /* \"#utility.yul\":7183:7187   */\n      dup2\n        /* \"#utility.yul\":7179:7199   */\n      sub\n        /* \"#utility.yul\":7175:7176   */\n      0x00\n        /* \"#utility.yul\":7164:7173   */\n      dup4\n        /* \"#utility.yul\":7160:7177   */\n      add\n        /* \"#utility.yul\":7153:7200   */\n      mstore\n        /* \"#utility.yul\":7217:7348   */\n      tag_188\n        /* \"#utility.yul\":7343:7347   */\n      dup2\n        /* \"#utility.yul\":7217:7348   */\n      tag_113\n      jump\t// in\n    tag_188:\n        /* \"#utility.yul\":7209:7348   */\n      swap1\n      pop\n        /* \"#utility.yul\":6936:7355   */\n      swap2\n      swap1\n      pop\n      jump\t// out\n        /* \"#utility.yul\":7361:7541   */\n    tag_114:\n        /* \"#utility.yul\":7409:7486   */\n      0x4e487b7100000000000000000000000000000000000000000000000000000000\n        /* \"#utility.yul\":7406:7407   */\n      0x00\n        /* \"#utility.yul\":7399:7487   */\n      mstore\n        /* \"#utility.yul\":7506:7510   */\n      0x11\n        /* \"#utility.yul\":7503:7504   */\n      0x04\n        /* \"#utility.yul\":7496:7511   */\n      mstore\n        /* \"#utility.yul\":7530:7534   */\n      0x24\n        /* \"#utility.yul\":7527:7528   */\n      0x00\n        /* \"#utility.yul\":7520:7535   */\n      revert\n        /* \"#utility.yul\":7547:7741   */\n    tag_56:\n        /* \"#utility.yul\":7587:7591   */\n      0x00\n        /* \"#utility.yul\":7607:7627   */\n      tag_191\n        /* \"#utility.yul\":7625:7626   */\n      dup3\n        /* \"#utility.yul\":7607:7627   */\n      tag_93\n      jump\t// in\n    tag_191:\n        /* \"#utility.yul\":7602:7627   */\n      swap2\n      pop\n        /* \"#utility.yul\":7641:7661   */\n      tag_192\n        /* \"#utility.yul\":7659:7660   */\n      dup4\n        /* \"#utility.yul\":7641:7661   */\n      tag_93\n      jump\t// in\n    tag_192:\n        /* \"#utility.yul\":7636:7661   */\n      swap3\n      pop\n        /* \"#utility.yul\":7685:7686   */\n      dup3\n        /* \"#utility.yul\":7682:7683   */\n      dup3\n        /* \"#utility.yul\":7678:7687   */\n      sub\n        /* \"#utility.yul\":7670:7687   */\n      swap1\n      pop\n        /* \"#utility.yul\":7709:7710   */\n      dup2\n        /* \"#utility.yul\":7703:7707   */\n      dup2\n        /* \"#utility.yul\":7700:7711   */\n      gt\n        /* \"#utility.yul\":7697:7734   */\n      iszero\n      tag_193\n      jumpi\n        /* \"#utility.yul\":7714:7732   */\n      tag_194\n      tag_114\n      jump\t// in\n    tag_194:\n        /* \"#utility.yul\":7697:7734   */\n    tag_193:\n        /* \"#utility.yul\":7547:7741   */\n      swap3\n      swap2\n      pop\n      pop\n      jump\t// out\n        /* \"#utility.yul\":7747:8157   */\n    tag_58:\n        /* \"#utility.yul\":7787:7794   */\n      0x00\n        /* \"#utility.yul\":7810:7830   */\n      tag_196\n        /* \"#utility.yul\":7828:7829   */\n      dup3\n        /* \"#utility.yul\":7810:7830   */\n      tag_93\n      jump\t// in\n    tag_196:\n        /* \"#utility.yul\":7805:7830   */\n      swap2\n      pop\n        /* \"#utility.yul\":7844:7864   */\n      tag_197\n        /* \"#utility.yul\":7862:7863   */\n      dup4\n        /* \"#utility.yul\":7844:7864   */\n      tag_93\n      jump\t// in\n    tag_197:\n        /* \"#utility.yul\":7839:7864   */\n      swap3\n      pop\n        /* \"#utility.yul\":7899:7900   */\n      dup3\n        /* \"#utility.yul\":7896:7897   */\n      dup3\n        /* \"#utility.yul\":7892:7901   */\n      mul\n        /* \"#utility.yul\":7921:7951   */\n      tag_198\n        /* \"#utility.yul\":7939:7950   */\n      dup2\n        /* \"#utility.yul\":7921:7951   */\n      tag_93\n      jump\t// in\n    tag_198:\n        /* \"#utility.yul\":7910:7951   */\n      swap2\n      pop\n        /* \"#utility.yul\":8100:8101   */\n      dup3\n        /* \"#utility.yul\":8091:8098   */\n      dup3\n        /* \"#utility.yul\":8087:8102   */\n      div\n        /* \"#utility.yul\":8084:8085   */\n      dup5\n        /* \"#utility.yul\":8081:8103   */\n      eq\n        /* \"#utility.yul\":8061:8062   */\n      dup4\n        /* \"#utility.yul\":8054:8063   */\n      iszero\n        /* \"#utility.yul\":8034:8117   */\n      or\n        /* \"#utility.yul\":8011:8150   */\n      tag_199\n      jumpi\n        /* \"#utility.yul\":8130:8148   */\n      tag_200\n      tag_114\n      jump\t// in\n    tag_200:\n        /* \"#utility.yul\":8011:8150   */\n    tag_199:\n        /* \"#utility.yul\":7795:8157   */\n      pop\n        /* \"#utility.yul\":7747:8157   */\n      swap3\n      swap2\n      pop\n      pop\n      jump\t// out\n        /* \"#utility.yul\":8163:8343   */\n    tag_115:\n        /* \"#utility.yul\":8211:8288   */\n      0x4e487b7100000000000000000000000000000000000000000000000000000000\n        /* \"#utility.yul\":8208:8209   */\n      0x00\n        /* \"#utility.yul\":8201:8289   */\n      mstore\n        /* \"#utility.yul\":8308:8312   */\n      0x12\n        /* \"#utility.yul\":8305:8306   */\n      0x04\n        /* \"#utility.yul\":8298:8313   */\n      mstore\n        /* \"#utility.yul\":8332:8336   */\n      0x24\n        /* \"#utility.yul\":8329:8330   */\n      0x00\n        /* \"#utility.yul\":8322:8337   */\n      revert\n        /* \"#utility.yul\":8349:8534   */\n    tag_61:\n        /* \"#utility.yul\":8389:8390   */\n      0x00\n        /* \"#utility.yul\":8406:8426   */\n      tag_203\n        /* \"#utility.yul\":8424:8425   */\n      dup3\n        /* \"#utility.yul\":8406:8426   */\n      tag_93\n      jump\t// in\n    tag_203:\n        /* \"#utility.yul\":8401:8426   */\n      swap2\n      pop\n        /* \"#utility.yul\":8440:8460   */\n      tag_204\n        /* \"#utility.yul\":8458:8459   */\n      dup4\n        /* \"#utility.yul\":8440:8460   */\n      tag_93\n      jump\t// in\n    tag_204:\n        /* \"#utility.yul\":8435:8460   */\n      swap3\n      pop\n        /* \"#utility.yul\":8479:8480   */\n      dup3\n        /* \"#utility.yul\":8469:8504   */\n      tag_205\n      jumpi\n        /* \"#utility.yul\":8484:8502   */\n      tag_206\n      tag_115\n      jump\t// in\n    tag_206:\n        /* \"#utility.yul\":8469:8504   */\n    tag_205:\n        /* \"#utility.yul\":8526:8527   */\n      dup3\n        /* \"#utility.yul\":8523:8524   */\n      dup3\n        /* \"#utility.yul\":8519:8528   */\n      div\n        /* \"#utility.yul\":8514:8528   */\n      swap1\n      pop\n        /* \"#utility.yul\":8349:8534   */\n      swap3\n      swap2\n      pop\n      pop\n      jump\t// out\n        /* \"#utility.yul\":8540:8731   */\n    tag_64:\n        /* \"#utility.yul\":8580:8583   */\n      0x00\n        /* \"#utility.yul\":8599:8619   */\n      tag_208\n        /* \"#utility.yul\":8617:8618   */\n      dup3\n        /* \"#utility.yul\":8599:8619   */\n      tag_93\n      jump\t// in\n    tag_208:\n        /* \"#utility.yul\":8594:8619   */\n      swap2\n      pop\n        /* \"#utility.yul\":8633:8653   */\n      tag_209\n        /* \"#utility.yul\":8651:8652   */\n      dup4\n        /* \"#utility.yul\":8633:8653   */\n      tag_93\n      jump\t// in\n    tag_209:\n        /* \"#utility.yul\":8628:8653   */\n      swap3\n      pop\n        /* \"#utility.yul\":8676:8677   */\n      dup3\n        /* \"#utility.yul\":8673:8674   */\n      dup3\n        /* \"#utility.yul\":8669:8678   */\n      add\n        /* \"#utility.yul\":8662:8678   */\n      swap1\n      pop\n        /* \"#utility.yul\":8697:8700   */\n      dup1\n        /* \"#utility.yul\":8694:8695   */\n      dup3\n        /* \"#utility.yul\":8691:8701   */\n      gt\n        /* \"#utility.yul\":8688:8724   */\n      iszero\n      tag_210\n      jumpi\n        /* \"#utility.yul\":8704:8722   */\n      tag_211\n      tag_114\n      jump\t// in\n    tag_211:\n        /* \"#utility.yul\":8688:8724   */\n    tag_210:\n        /* \"#utility.yul\":8540:8731   */\n      swap3\n      swap2\n      pop\n      pop\n      jump\t// out\n        /* \"#utility.yul\":8737:9290   */\n    tag_66:\n        /* \"#utility.yul\":8914:8918   */\n      0x00\n        /* \"#utility.yul\":8952:8955   */\n      0x80\n        /* \"#utility.yul\":8941:8950   */\n      dup3\n        /* \"#utility.yul\":8937:8956   */\n      add\n        /* \"#utility.yul\":8929:8956   */\n      swap1\n      pop\n        /* \"#utility.yul\":8966:9037   */\n      tag_213\n        /* \"#utility.yul\":9034:9035   */\n      0x00\n        /* \"#utility.yul\":9023:9032   */\n      dup4\n        /* \"#utility.yul\":9019:9036   */\n      add\n        /* \"#utility.yul\":9010:9016   */\n      dup8\n        /* \"#utility.yul\":8966:9037   */\n      tag_96\n      jump\t// in\n    tag_213:\n        /* \"#utility.yul\":9047:9119   */\n      tag_214\n        /* \"#utility.yul\":9115:9117   */\n      0x20\n        /* \"#utility.yul\":9104:9113   */\n      dup4\n        /* \"#utility.yul\":9100:9118   */\n      add\n        /* \"#utility.yul\":9091:9097   */\n      dup7\n        /* \"#utility.yul\":9047:9119   */\n      tag_108\n      jump\t// in\n    tag_214:\n        /* \"#utility.yul\":9129:9201   */\n      tag_215\n        /* \"#utility.yul\":9197:9199   */\n      0x40\n        /* \"#utility.yul\":9186:9195   */\n      dup4\n        /* \"#utility.yul\":9182:9200   */\n      add\n        /* \"#utility.yul\":9173:9179   */\n      dup6\n        /* \"#utility.yul\":9129:9201   */\n      tag_96\n      jump\t// in\n    tag_215:\n        /* \"#utility.yul\":9211:9283   */\n      tag_216\n        /* \"#utility.yul\":9279:9281   */\n      0x60\n        /* \"#utility.yul\":9268:9277   */\n      dup4\n        /* \"#utility.yul\":9264:9282   */\n      add\n        /* \"#utility.yul\":9255:9261   */\n      dup5\n        /* \"#utility.yul\":9211:9283   */\n      tag_96\n      jump\t// in\n    tag_216:\n        /* \"#utility.yul\":8737:9290   */\n      swap6\n      swap5\n      pop\n      pop\n      pop\n      pop\n      pop\n      jump\t// out\n        /* \"#utility.yul\":9296:9530   */\n    tag_116:\n        /* \"#utility.yul\":9436:9470   */\n      0x556e7a757265696368656e64657320477574686162656e20646573205061726b\n        /* \"#utility.yul\":9432:9433   */\n      0x00\n        /* \"#utility.yul\":9424:9430   */\n      dup3\n        /* \"#utility.yul\":9420:9434   */\n      add\n        /* \"#utility.yul\":9413:9471   */\n      mstore\n        /* \"#utility.yul\":9505:9522   */\n      0x706c61747a626574726569626572730000000000000000000000000000000000\n        /* \"#utility.yul\":9500:9502   */\n      0x20\n        /* \"#utility.yul\":9492:9498   */\n      dup3\n        /* \"#utility.yul\":9488:9503   */\n      add\n        /* \"#utility.yul\":9481:9523   */\n      mstore\n        /* \"#utility.yul\":9296:9530   */\n      pop\n      jump\t// out\n        /* \"#utility.yul\":9536:9902   */\n    tag_117:\n        /* \"#utility.yul\":9678:9681   */\n      0x00\n        /* \"#utility.yul\":9699:9766   */\n      tag_219\n        /* \"#utility.yul\":9763:9765   */\n      0x2f\n        /* \"#utility.yul\":9758:9761   */\n      dup4\n        /* \"#utility.yul\":9699:9766   */\n      tag_109\n      jump\t// in\n    tag_219:\n        /* \"#utility.yul\":9692:9766   */\n      swap2\n      pop\n        /* \"#utility.yul\":9775:9868   */\n      tag_220\n        /* \"#utility.yul\":9864:9867   */\n      dup3\n        /* \"#utility.yul\":9775:9868   */\n      tag_116\n      jump\t// in\n    tag_220:\n        /* \"#utility.yul\":9893:9895   */\n      0x40\n        /* \"#utility.yul\":9888:9891   */\n      dup3\n        /* \"#utility.yul\":9884:9896   */\n      add\n        /* \"#utility.yul\":9877:9896   */\n      swap1\n      pop\n        /* \"#utility.yul\":9536:9902   */\n      swap2\n      swap1\n      pop\n      jump\t// out\n        /* \"#utility.yul\":9908:10327   */\n    tag_69:\n        /* \"#utility.yul\":10074:10078   */\n      0x00\n        /* \"#utility.yul\":10112:10114   */\n      0x20\n        /* \"#utility.yul\":10101:10110   */\n      dup3\n        /* \"#utility.yul\":10097:10115   */\n      add\n        /* \"#utility.yul\":10089:10115   */\n      swap1\n      pop\n        /* \"#utility.yul\":10161:10170   */\n      dup2\n        /* \"#utility.yul\":10155:10159   */\n      dup2\n        /* \"#utility.yul\":10151:10171   */\n      sub\n        /* \"#utility.yul\":10147:10148   */\n      0x00\n        /* \"#utility.yul\":10136:10145   */\n      dup4\n        /* \"#utility.yul\":10132:10149   */\n      add\n        /* \"#utility.yul\":10125:10172   */\n      mstore\n        /* \"#utility.yul\":10189:10320   */\n      tag_222\n        /* \"#utility.yul\":10315:10319   */\n      dup2\n        /* \"#utility.yul\":10189:10320   */\n      tag_117\n      jump\t// in\n    tag_222:\n        /* \"#utility.yul\":10181:10320   */\n      swap1\n      pop\n        /* \"#utility.yul\":9908:10327   */\n      swap2\n      swap1\n      pop\n      jump\t// out\n        /* \"#utility.yul\":10333:10511   */\n    tag_118:\n        /* \"#utility.yul\":10473:10503   */\n      0x5061726b706c61747a2069737420626572656974732062656c65677400000000\n        /* \"#utility.yul\":10469:10470   */\n      0x00\n        /* \"#utility.yul\":10461:10467   */\n      dup3\n        /* \"#utility.yul\":10457:10471   */\n      add\n        /* \"#utility.yul\":10450:10504   */\n      mstore\n        /* \"#utility.yul\":10333:10511   */\n      pop\n      jump\t// out\n        /* \"#utility.yul\":10517:10883   */\n    tag_119:\n        /* \"#utility.yul\":10659:10662   */\n      0x00\n        /* \"#utility.yul\":10680:10747   */\n      tag_225\n        /* \"#utility.yul\":10744:10746   */\n      0x1c\n        /* \"#utility.yul\":10739:10742   */\n      dup4\n        /* \"#utility.yul\":10680:10747   */\n      tag_109\n      jump\t// in\n    tag_225:\n        /* \"#utility.yul\":10673:10747   */\n      swap2\n      pop\n        /* \"#utility.yul\":10756:10849   */\n      tag_226\n        /* \"#utility.yul\":10845:10848   */\n      dup3\n        /* \"#utility.yul\":10756:10849   */\n      tag_118\n      jump\t// in\n    tag_226:\n        /* \"#utility.yul\":10874:10876   */\n      0x20\n        /* \"#utility.yul\":10869:10872   */\n      dup3\n        /* \"#utility.yul\":10865:10877   */\n      add\n        /* \"#utility.yul\":10858:10877   */\n      swap1\n      pop\n        /* \"#utility.yul\":10517:10883   */\n      swap2\n      swap1\n      pop\n      jump\t// out\n        /* \"#utility.yul\":10889:11308   */\n    tag_87:\n        /* \"#utility.yul\":11055:11059   */\n      0x00\n        /* \"#utility.yul\":11093:11095   */\n      0x20\n        /* \"#utility.yul\":11082:11091   */\n      dup3\n        /* \"#utility.yul\":11078:11096   */\n      add\n        /* \"#utility.yul\":11070:11096   */\n      swap1\n      pop\n        /* \"#utility.yul\":11142:11151   */\n      dup2\n        /* \"#utility.yul\":11136:11140   */\n      dup2\n        /* \"#utility.yul\":11132:11152   */\n      sub\n        /* \"#utility.yul\":11128:11129   */\n      0x00\n        /* \"#utility.yul\":11117:11126   */\n      dup4\n        /* \"#utility.yul\":11113:11130   */\n      add\n        /* \"#utility.yul\":11106:11153   */\n      mstore\n        /* \"#utility.yul\":11170:11301   */\n      tag_228\n        /* \"#utility.yul\":11296:11300   */\n      dup2\n        /* \"#utility.yul\":11170:11301   */\n      tag_119\n      jump\t// in\n    tag_228:\n        /* \"#utility.yul\":11162:11301   */\n      swap1\n      pop\n        /* \"#utility.yul\":10889:11308   */\n      swap2\n      swap1\n      pop\n      jump\t// out\n        /* \"#utility.yul\":11314:11756   */\n    tag_89:\n        /* \"#utility.yul\":11463:11467   */\n      0x00\n        /* \"#utility.yul\":11501:11503   */\n      0x60\n        /* \"#utility.yul\":11490:11499   */\n      dup3\n        /* \"#utility.yul\":11486:11504   */\n      add\n        /* \"#utility.yul\":11478:11504   */\n      swap1\n      pop\n        /* \"#utility.yul\":11514:11585   */\n      tag_230\n        /* \"#utility.yul\":11582:11583   */\n      0x00\n        /* \"#utility.yul\":11571:11580   */\n      dup4\n        /* \"#utility.yul\":11567:11584   */\n      add\n        /* \"#utility.yul\":11558:11564   */\n      dup7\n        /* \"#utility.yul\":11514:11585   */\n      tag_96\n      jump\t// in\n    tag_230:\n        /* \"#utility.yul\":11595:11667   */\n      tag_231\n        /* \"#utility.yul\":11663:11665   */\n      0x20\n        /* \"#utility.yul\":11652:11661   */\n      dup4\n        /* \"#utility.yul\":11648:11666   */\n      add\n        /* \"#utility.yul\":11639:11645   */\n      dup6\n        /* \"#utility.yul\":11595:11667   */\n      tag_108\n      jump\t// in\n    tag_231:\n        /* \"#utility.yul\":11677:11749   */\n      tag_232\n        /* \"#utility.yul\":11745:11747   */\n      0x40\n        /* \"#utility.yul\":11734:11743   */\n      dup4\n        /* \"#utility.yul\":11730:11748   */\n      add\n        /* \"#utility.yul\":11721:11727   */\n      dup5\n        /* \"#utility.yul\":11677:11749   */\n      tag_96\n      jump\t// in\n    tag_232:\n        /* \"#utility.yul\":11314:11756   */\n      swap5\n      swap4\n      pop\n      pop\n      pop\n      pop\n      jump\t// out\n\n    auxdata: 0xa2646970667358221220e5488291b474c7d7d90b57c001bae2466174b5cb909c295e94e31b0203c10abd64736f6c63430008120033\n}\n",
				"bytecode": {
					"linkReferences": {},
					"object": "60806040523480156200001157600080fd5b5062000026601460016200002c60201b60201c565b62000405565b6000821162000072576040517f08c379a00000000000000000000000000000000000000000000000000000000081526004016200006990620002b0565b60405180910390fd5b60005b82811015620000b4576200009e6064826200009191906200030b565b83620000b960201b60201c565b8080620000ab9062000346565b91505062000075565b505050565b60008083815260200190815260200160002060000160009054906101000a900460ff16156200011f576040517f08c379a00000000000000000000000000000000000000000000000000000000081526004016200011690620003e3565b60405180910390fd5b6040518060a0016040528060001515815260200160008152602001600073ffffffffffffffffffffffffffffffffffffffff168152602001828152602001600081525060008084815260200190815260200160002060008201518160000160006101000a81548160ff0219169083151502179055506020820151816001015560408201518160020160006101000a81548173ffffffffffffffffffffffffffffffffffffffff021916908373ffffffffffffffffffffffffffffffffffffffff160217905550606082015181600301556080820151816004015590505060018290806001815401808255809150506001900390600052602060002001600090919091909150555050565b600082825260208201905092915050565b7f416e7a61686c20646572207061726b706c6165747a65206d7573732067726f6560008201527f73736572207365696e0000000000000000000000000000000000000000000000602082015250565b60006200029860298362000229565b9150620002a5826200023a565b604082019050919050565b60006020820190508181036000830152620002cb8162000289565b9050919050565b6000819050919050565b7f4e487b7100000000000000000000000000000000000000000000000000000000600052601160045260246000fd5b60006200031882620002d2565b91506200032583620002d2565b925082820190508082111562000340576200033f620002dc565b5b92915050565b60006200035382620002d2565b91507fffffffffffffffffffffffffffffffffffffffffffffffffffffffffffffffff8203620003885762000387620002dc565b5b600182019050919050565b7f5061726b706c61747a2069737420626572656974732062656c65677400000000600082015250565b6000620003cb601c8362000229565b9150620003d88262000393565b602082019050919050565b60006020820190508181036000830152620003fe81620003bc565b9050919050565b610f1580620004156000396000f3fe6080604052600436106100705760003560e01c8063c4b3dea91161004e578063c4b3dea9146100f9578063d410b4cb14610139578063ecbe10f214610176578063f1d7b33e1461019f57610070565b806380a0e0e7146100755780639a435124146100b2578063b6990c93146100ce575b600080fd5b34801561008157600080fd5b5061009c600480360381019061009791906108f2565b6101e0565b6040516100a9919061092e565b60405180910390f35b6100cc60048036038101906100c791906108f2565b610204565b005b3480156100da57600080fd5b506100e36104fe565b6040516100f09190610a07565b60405180910390f35b34801561010557600080fd5b50610120600480360381019061011b91906108f2565b610556565b6040516101309493929190610a85565b60405180910390f35b34801561014557600080fd5b50610160600480360381019061015b91906108f2565b6105f0565b60405161016d919061092e565b60405180910390f35b34801561018257600080fd5b5061019d600480360381019061019891906108f2565b610702565b005b3480156101ab57600080fd5b506101c660048036038101906101c191906108f2565b610854565b6040516101d7959493929190610aca565b60405180910390f35b600181815481106101f057600080fd5b906000526020600020016000915090505481565b60008082815260200190815260200160002060000160009054906101000a900460ff16610266576040517f08c379a000000000000000000000000000000000000000000000000000000000815260040161025d90610b7a565b60405180910390fd5b60008082815260200190815260200160002060020160009054906101000a900473ffffffffffffffffffffffffffffffffffffffff1673ffffffffffffffffffffffffffffffffffffffff163373ffffffffffffffffffffffffffffffffffffffff1614610309576040517f08c379a000000000000000000000000000000000000000000000000000000000815260040161030090610c0c565b60405180910390fd5b6000806000838152602001908152602001600020600101544261032c9190610c5b565b90506000806000848152602001908152602001600020600301549050600081836103569190610c8f565b9050610384831061038e57600082610384856103729190610d00565b61037c9190610c8f565b9050808261038a9190610d31565b9150505b600080858152602001908152602001600020600080820160006101000a81549060ff021916905560018201600090556002820160006101000a81549073ffffffffffffffffffffffffffffffffffffffff02191690556003820160009055600482016000905550507f446545d9994a9a5213daa76d07835316dce2407c7d27168a073fc65e5374fd3a8433858460405161042b9493929190610d65565b60405180910390a1600080600086815260200190815260200160002060020160009054906101000a900473ffffffffffffffffffffffffffffffffffffffff169050814710156104b0576040517f08c379a00000000000000000000000000000000000000000000000000000000081526004016104a790610e1c565b60405180910390fd5b8073ffffffffffffffffffffffffffffffffffffffff166108fc839081150290604051600060405180830381858888f193505050501580156104f6573d6000803e3d6000fd5b505050505050565b6060600180548060200260200160405190810160405280929190818152602001828054801561054c57602002820191906000526020600020905b815481526020019060010190808311610538575b5050505050905090565b60008060008060008086815260200190815260200160002060000160009054906101000a900460ff166000808781526020019081526020016000206001015460008088815260200190815260200160002060020160009054906101000a900473ffffffffffffffffffffffffffffffffffffffff166000808981526020019081526020016000206003015493509350935093509193509193565b600080600083815260200190815260200160002060000160009054906101000a900460ff16610654576040517f08c379a000000000000000000000000000000000000000000000000000000000815260040161064b90610b7a565b60405180910390fd5b600080600084815260200190815260200160002060010154426106779190610c5b565b90506000806000858152602001908152602001600020600301549050600f82106106e257600081600f846106ab9190610d00565b6106b59190610c8f565b905080600080878152602001908152602001600020600401546106d89190610d31565b93505050506106fd565b60008085815260200190815260200160002060040154925050505b919050565b60008082815260200190815260200160002060000160009054906101000a900460ff1615610765576040517f08c379a000000000000000000000000000000000000000000000000000000000815260040161075c90610e88565b60405180910390fd5b600160008083815260200190815260200160002060000160006101000a81548160ff02191690831515021790555042600080838152602001908152602001600020600101819055503360008083815260200190815260200160002060020160006101000a81548173ffffffffffffffffffffffffffffffffffffffff021916908373ffffffffffffffffffffffffffffffffffffffff1602179055507f376efccf679161f2b931f2b4e8597692161a8049ade631759b472510b89f11e681336000808581526020019081526020016000206001015460405161084993929190610ea8565b60405180910390a150565b60006020528060005260406000206000915090508060000160009054906101000a900460ff16908060010154908060020160009054906101000a900473ffffffffffffffffffffffffffffffffffffffff16908060030154908060040154905085565b600080fd5b6000819050919050565b6108cf816108bc565b81146108da57600080fd5b50565b6000813590506108ec816108c6565b92915050565b600060208284031215610908576109076108b7565b5b6000610916848285016108dd565b91505092915050565b610928816108bc565b82525050565b6000602082019050610943600083018461091f565b92915050565b600081519050919050565b600082825260208201905092915050565b6000819050602082019050919050565b61097e816108bc565b82525050565b60006109908383610975565b60208301905092915050565b6000602082019050919050565b60006109b482610949565b6109be8185610954565b93506109c983610965565b8060005b838110156109fa5781516109e18882610984565b97506109ec8361099c565b9250506001810190506109cd565b5085935050505092915050565b60006020820190508181036000830152610a2181846109a9565b905092915050565b60008115159050919050565b610a3e81610a29565b82525050565b600073ffffffffffffffffffffffffffffffffffffffff82169050919050565b6000610a6f82610a44565b9050919050565b610a7f81610a64565b82525050565b6000608082019050610a9a6000830187610a35565b610aa7602083018661091f565b610ab46040830185610a76565b610ac1606083018461091f565b95945050505050565b600060a082019050610adf6000830188610a35565b610aec602083018761091f565b610af96040830186610a76565b610b06606083018561091f565b610b13608083018461091f565b9695505050505050565b600082825260208201905092915050565b7f5061726b706c61747a20697374206e696368742062656c656774000000000000600082015250565b6000610b64601a83610b1d565b9150610b6f82610b2e565b602082019050919050565b60006020820190508181036000830152610b9381610b57565b9050919050565b7f4e75722064657220466168727a65756762657369747a6572206b616e6e20646560008201527f6e205061726b706c61747a2066726569676562656e0000000000000000000000602082015250565b6000610bf6603583610b1d565b9150610c0182610b9a565b604082019050919050565b60006020820190508181036000830152610c2581610be9565b9050919050565b7f4e487b7100000000000000000000000000000000000000000000000000000000600052601160045260246000fd5b6000610c66826108bc565b9150610c71836108bc565b9250828203905081811115610c8957610c88610c2c565b5b92915050565b6000610c9a826108bc565b9150610ca5836108bc565b9250828202610cb3816108bc565b91508282048414831517610cca57610cc9610c2c565b5b5092915050565b7f4e487b7100000000000000000000000000000000000000000000000000000000600052601260045260246000fd5b6000610d0b826108bc565b9150610d16836108bc565b925082610d2657610d25610cd1565b5b828204905092915050565b6000610d3c826108bc565b9150610d47836108bc565b9250828201905080821115610d5f57610d5e610c2c565b5b92915050565b6000608082019050610d7a600083018761091f565b610d876020830186610a76565b610d94604083018561091f565b610da1606083018461091f565b95945050505050565b7f556e7a757265696368656e64657320477574686162656e20646573205061726b60008201527f706c61747a626574726569626572730000000000000000000000000000000000602082015250565b6000610e06602f83610b1d565b9150610e1182610daa565b604082019050919050565b60006020820190508181036000830152610e3581610df9565b9050919050565b7f5061726b706c61747a2069737420626572656974732062656c65677400000000600082015250565b6000610e72601c83610b1d565b9150610e7d82610e3c565b602082019050919050565b60006020820190508181036000830152610ea181610e65565b9050919050565b6000606082019050610ebd600083018661091f565b610eca6020830185610a76565b610ed7604083018461091f565b94935050505056fea2646970667358221220e5488291b474c7d7d90b57c001bae2466174b5cb909c295e94e31b0203c10abd64736f6c63430008120033",
					"opcodes": "PUSH1 0x80 PUSH1 0x40 MSTORE CALLVALUE DUP1 ISZERO PUSH3 0x11 JUMPI PUSH1 0x0 DUP1 REVERT JUMPDEST POP PUSH3 0x26 PUSH1 0x14 PUSH1 0x1 PUSH3 0x2C PUSH1 0x20 SHL PUSH1 0x20 SHR JUMP JUMPDEST PUSH3 0x405 JUMP JUMPDEST PUSH1 0x0 DUP3 GT PUSH3 0x72 JUMPI PUSH1 0x40 MLOAD PUSH32 0x8C379A000000000000000000000000000000000000000000000000000000000 DUP2 MSTORE PUSH1 0x4 ADD PUSH3 0x69 SWAP1 PUSH3 0x2B0 JUMP JUMPDEST PUSH1 0x40 MLOAD DUP1 SWAP2 SUB SWAP1 REVERT JUMPDEST PUSH1 0x0 JUMPDEST DUP3 DUP2 LT ISZERO PUSH3 0xB4 JUMPI PUSH3 0x9E PUSH1 0x64 DUP3 PUSH3 0x91 SWAP2 SWAP1 PUSH3 0x30B JUMP JUMPDEST DUP4 PUSH3 0xB9 PUSH1 0x20 SHL PUSH1 0x20 SHR JUMP JUMPDEST DUP1 DUP1 PUSH3 0xAB SWAP1 PUSH3 0x346 JUMP JUMPDEST SWAP2 POP POP PUSH3 0x75 JUMP JUMPDEST POP POP POP JUMP JUMPDEST PUSH1 0x0 DUP1 DUP4 DUP2 MSTORE PUSH1 0x20 ADD SWAP1 DUP2 MSTORE PUSH1 0x20 ADD PUSH1 0x0 KECCAK256 PUSH1 0x0 ADD PUSH1 0x0 SWAP1 SLOAD SWAP1 PUSH2 0x100 EXP SWAP1 DIV PUSH1 0xFF AND ISZERO PUSH3 0x11F JUMPI PUSH1 0x40 MLOAD PUSH32 0x8C379A000000000000000000000000000000000000000000000000000000000 DUP2 MSTORE PUSH1 0x4 ADD PUSH3 0x116 SWAP1 PUSH3 0x3E3 JUMP JUMPDEST PUSH1 0x40 MLOAD DUP1 SWAP2 SUB SWAP1 REVERT JUMPDEST PUSH1 0x40 MLOAD DUP1 PUSH1 0xA0 ADD PUSH1 0x40 MSTORE DUP1 PUSH1 0x0 ISZERO ISZERO DUP2 MSTORE PUSH1 0x20 ADD PUSH1 0x0 DUP2 MSTORE PUSH1 0x20 ADD PUSH1 0x0 PUSH20 0xFFFFFFFFFFFFFFFFFFFFFFFFFFFFFFFFFFFFFFFF AND DUP2 MSTORE PUSH1 0x20 ADD DUP3 DUP2 MSTORE PUSH1 0x20 ADD PUSH1 0x0 DUP2 MSTORE POP PUSH1 0x0 DUP1 DUP5 DUP2 MSTORE PUSH1 0x20 ADD SWAP1 DUP2 MSTORE PUSH1 0x20 ADD PUSH1 0x0 KECCAK256 PUSH1 0x0 DUP3 ADD MLOAD DUP2 PUSH1 0x0 ADD PUSH1 0x0 PUSH2 0x100 EXP DUP2 SLOAD DUP2 PUSH1 0xFF MUL NOT AND SWAP1 DUP4 ISZERO ISZERO MUL OR SWAP1 SSTORE POP PUSH1 0x20 DUP3 ADD MLOAD DUP2 PUSH1 0x1 ADD SSTORE PUSH1 0x40 DUP3 ADD MLOAD DUP2 PUSH1 0x2 ADD PUSH1 0x0 PUSH2 0x100 EXP DUP2 SLOAD DUP2 PUSH20 0xFFFFFFFFFFFFFFFFFFFFFFFFFFFFFFFFFFFFFFFF MUL NOT AND SWAP1 DUP4 PUSH20 0xFFFFFFFFFFFFFFFFFFFFFFFFFFFFFFFFFFFFFFFF AND MUL OR SWAP1 SSTORE POP PUSH1 0x60 DUP3 ADD MLOAD DUP2 PUSH1 0x3 ADD SSTORE PUSH1 0x80 DUP3 ADD MLOAD DUP2 PUSH1 0x4 ADD SSTORE SWAP1 POP POP PUSH1 0x1 DUP3 SWAP1 DUP1 PUSH1 0x1 DUP2 SLOAD ADD DUP1 DUP3 SSTORE DUP1 SWAP2 POP POP PUSH1 0x1 SWAP1 SUB SWAP1 PUSH1 0x0 MSTORE PUSH1 0x20 PUSH1 0x0 KECCAK256 ADD PUSH1 0x0 SWAP1 SWAP2 SWAP1 SWAP2 SWAP1 SWAP2 POP SSTORE POP POP JUMP JUMPDEST PUSH1 0x0 DUP3 DUP3 MSTORE PUSH1 0x20 DUP3 ADD SWAP1 POP SWAP3 SWAP2 POP POP JUMP JUMPDEST PUSH32 0x416E7A61686C20646572207061726B706C6165747A65206D7573732067726F65 PUSH1 0x0 DUP3 ADD MSTORE PUSH32 0x73736572207365696E0000000000000000000000000000000000000000000000 PUSH1 0x20 DUP3 ADD MSTORE POP JUMP JUMPDEST PUSH1 0x0 PUSH3 0x298 PUSH1 0x29 DUP4 PUSH3 0x229 JUMP JUMPDEST SWAP2 POP PUSH3 0x2A5 DUP3 PUSH3 0x23A JUMP JUMPDEST PUSH1 0x40 DUP3 ADD SWAP1 POP SWAP2 SWAP1 POP JUMP JUMPDEST PUSH1 0x0 PUSH1 0x20 DUP3 ADD SWAP1 POP DUP2 DUP2 SUB PUSH1 0x0 DUP4 ADD MSTORE PUSH3 0x2CB DUP2 PUSH3 0x289 JUMP JUMPDEST SWAP1 POP SWAP2 SWAP1 POP JUMP JUMPDEST PUSH1 0x0 DUP2 SWAP1 POP SWAP2 SWAP1 POP JUMP JUMPDEST PUSH32 0x4E487B7100000000000000000000000000000000000000000000000000000000 PUSH1 0x0 MSTORE PUSH1 0x11 PUSH1 0x4 MSTORE PUSH1 0x24 PUSH1 0x0 REVERT JUMPDEST PUSH1 0x0 PUSH3 0x318 DUP3 PUSH3 0x2D2 JUMP JUMPDEST SWAP2 POP PUSH3 0x325 DUP4 PUSH3 0x2D2 JUMP JUMPDEST SWAP3 POP DUP3 DUP3 ADD SWAP1 POP DUP1 DUP3 GT ISZERO PUSH3 0x340 JUMPI PUSH3 0x33F PUSH3 0x2DC JUMP JUMPDEST JUMPDEST SWAP3 SWAP2 POP POP JUMP JUMPDEST PUSH1 0x0 PUSH3 0x353 DUP3 PUSH3 0x2D2 JUMP JUMPDEST SWAP2 POP PUSH32 0xFFFFFFFFFFFFFFFFFFFFFFFFFFFFFFFFFFFFFFFFFFFFFFFFFFFFFFFFFFFFFFFF DUP3 SUB PUSH3 0x388 JUMPI PUSH3 0x387 PUSH3 0x2DC JUMP JUMPDEST JUMPDEST PUSH1 0x1 DUP3 ADD SWAP1 POP SWAP2 SWAP1 POP JUMP JUMPDEST PUSH32 0x5061726B706C61747A2069737420626572656974732062656C65677400000000 PUSH1 0x0 DUP3 ADD MSTORE POP JUMP JUMPDEST PUSH1 0x0 PUSH3 0x3CB PUSH1 0x1C DUP4 PUSH3 0x229 JUMP JUMPDEST SWAP2 POP PUSH3 0x3D8 DUP3 PUSH3 0x393 JUMP JUMPDEST PUSH1 0x20 DUP3 ADD SWAP1 POP SWAP2 SWAP1 POP JUMP JUMPDEST PUSH1 0x0 PUSH1 0x20 DUP3 ADD SWAP1 POP DUP2 DUP2 SUB PUSH1 0x0 DUP4 ADD MSTORE PUSH3 0x3FE DUP2 PUSH3 0x3BC JUMP JUMPDEST SWAP1 POP SWAP2 SWAP1 POP JUMP JUMPDEST PUSH2 0xF15 DUP1 PUSH3 0x415 PUSH1 0x0 CODECOPY PUSH1 0x0 RETURN INVALID PUSH1 0x80 PUSH1 0x40 MSTORE PUSH1 0x4 CALLDATASIZE LT PUSH2 0x70 JUMPI PUSH1 0x0 CALLDATALOAD PUSH1 0xE0 SHR DUP1 PUSH4 0xC4B3DEA9 GT PUSH2 0x4E JUMPI DUP1 PUSH4 0xC4B3DEA9 EQ PUSH2 0xF9 JUMPI DUP1 PUSH4 0xD410B4CB EQ PUSH2 0x139 JUMPI DUP1 PUSH4 0xECBE10F2 EQ PUSH2 0x176 JUMPI DUP1 PUSH4 0xF1D7B33E EQ PUSH2 0x19F JUMPI PUSH2 0x70 JUMP JUMPDEST DUP1 PUSH4 0x80A0E0E7 EQ PUSH2 0x75 JUMPI DUP1 PUSH4 0x9A435124 EQ PUSH2 0xB2 JUMPI DUP1 PUSH4 0xB6990C93 EQ PUSH2 0xCE JUMPI JUMPDEST PUSH1 0x0 DUP1 REVERT JUMPDEST CALLVALUE DUP1 ISZERO PUSH2 0x81 JUMPI PUSH1 0x0 DUP1 REVERT JUMPDEST POP PUSH2 0x9C PUSH1 0x4 DUP1 CALLDATASIZE SUB DUP2 ADD SWAP1 PUSH2 0x97 SWAP2 SWAP1 PUSH2 0x8F2 JUMP JUMPDEST PUSH2 0x1E0 JUMP JUMPDEST PUSH1 0x40 MLOAD PUSH2 0xA9 SWAP2 SWAP1 PUSH2 0x92E JUMP JUMPDEST PUSH1 0x40 MLOAD DUP1 SWAP2 SUB SWAP1 RETURN JUMPDEST PUSH2 0xCC PUSH1 0x4 DUP1 CALLDATASIZE SUB DUP2 ADD SWAP1 PUSH2 0xC7 SWAP2 SWAP1 PUSH2 0x8F2 JUMP JUMPDEST PUSH2 0x204 JUMP JUMPDEST STOP JUMPDEST CALLVALUE DUP1 ISZERO PUSH2 0xDA JUMPI PUSH1 0x0 DUP1 REVERT JUMPDEST POP PUSH2 0xE3 PUSH2 0x4FE JUMP JUMPDEST PUSH1 0x40 MLOAD PUSH2 0xF0 SWAP2 SWAP1 PUSH2 0xA07 JUMP JUMPDEST PUSH1 0x40 MLOAD DUP1 SWAP2 SUB SWAP1 RETURN JUMPDEST CALLVALUE DUP1 ISZERO PUSH2 0x105 JUMPI PUSH1 0x0 DUP1 REVERT JUMPDEST POP PUSH2 0x120 PUSH1 0x4 DUP1 CALLDATASIZE SUB DUP2 ADD SWAP1 PUSH2 0x11B SWAP2 SWAP1 PUSH2 0x8F2 JUMP JUMPDEST PUSH2 0x556 JUMP JUMPDEST PUSH1 0x40 MLOAD PUSH2 0x130 SWAP5 SWAP4 SWAP3 SWAP2 SWAP1 PUSH2 0xA85 JUMP JUMPDEST PUSH1 0x40 MLOAD DUP1 SWAP2 SUB SWAP1 RETURN JUMPDEST CALLVALUE DUP1 ISZERO PUSH2 0x145 JUMPI PUSH1 0x0 DUP1 REVERT JUMPDEST POP PUSH2 0x160 PUSH1 0x4 DUP1 CALLDATASIZE SUB DUP2 ADD SWAP1 PUSH2 0x15B SWAP2 SWAP1 PUSH2 0x8F2 JUMP JUMPDEST PUSH2 0x5F0 JUMP JUMPDEST PUSH1 0x40 MLOAD PUSH2 0x16D SWAP2 SWAP1 PUSH2 0x92E JUMP JUMPDEST PUSH1 0x40 MLOAD DUP1 SWAP2 SUB SWAP1 RETURN JUMPDEST CALLVALUE DUP1 ISZERO PUSH2 0x182 JUMPI PUSH1 0x0 DUP1 REVERT JUMPDEST POP PUSH2 0x19D PUSH1 0x4 DUP1 CALLDATASIZE SUB DUP2 ADD SWAP1 PUSH2 0x198 SWAP2 SWAP1 PUSH2 0x8F2 JUMP JUMPDEST PUSH2 0x702 JUMP JUMPDEST STOP JUMPDEST CALLVALUE DUP1 ISZERO PUSH2 0x1AB JUMPI PUSH1 0x0 DUP1 REVERT JUMPDEST POP PUSH2 0x1C6 PUSH1 0x4 DUP1 CALLDATASIZE SUB DUP2 ADD SWAP1 PUSH2 0x1C1 SWAP2 SWAP1 PUSH2 0x8F2 JUMP JUMPDEST PUSH2 0x854 JUMP JUMPDEST PUSH1 0x40 MLOAD PUSH2 0x1D7 SWAP6 SWAP5 SWAP4 SWAP3 SWAP2 SWAP1 PUSH2 0xACA JUMP JUMPDEST PUSH1 0x40 MLOAD DUP1 SWAP2 SUB SWAP1 RETURN JUMPDEST PUSH1 0x1 DUP2 DUP2 SLOAD DUP2 LT PUSH2 0x1F0 JUMPI PUSH1 0x0 DUP1 REVERT JUMPDEST SWAP1 PUSH1 0x0 MSTORE PUSH1 0x20 PUSH1 0x0 KECCAK256 ADD PUSH1 0x0 SWAP2 POP SWAP1 POP SLOAD DUP2 JUMP JUMPDEST PUSH1 0x0 DUP1 DUP3 DUP2 MSTORE PUSH1 0x20 ADD SWAP1 DUP2 MSTORE PUSH1 0x20 ADD PUSH1 0x0 KECCAK256 PUSH1 0x0 ADD PUSH1 0x0 SWAP1 SLOAD SWAP1 PUSH2 0x100 EXP SWAP1 DIV PUSH1 0xFF AND PUSH2 0x266 JUMPI PUSH1 0x40 MLOAD PUSH32 0x8C379A000000000000000000000000000000000000000000000000000000000 DUP2 MSTORE PUSH1 0x4 ADD PUSH2 0x25D SWAP1 PUSH2 0xB7A JUMP JUMPDEST PUSH1 0x40 MLOAD DUP1 SWAP2 SUB SWAP1 REVERT JUMPDEST PUSH1 0x0 DUP1 DUP3 DUP2 MSTORE PUSH1 0x20 ADD SWAP1 DUP2 MSTORE PUSH1 0x20 ADD PUSH1 0x0 KECCAK256 PUSH1 0x2 ADD PUSH1 0x0 SWAP1 SLOAD SWAP1 PUSH2 0x100 EXP SWAP1 DIV PUSH20 0xFFFFFFFFFFFFFFFFFFFFFFFFFFFFFFFFFFFFFFFF AND PUSH20 0xFFFFFFFFFFFFFFFFFFFFFFFFFFFFFFFFFFFFFFFF AND CALLER PUSH20 0xFFFFFFFFFFFFFFFFFFFFFFFFFFFFFFFFFFFFFFFF AND EQ PUSH2 0x309 JUMPI PUSH1 0x40 MLOAD PUSH32 0x8C379A000000000000000000000000000000000000000000000000000000000 DUP2 MSTORE PUSH1 0x4 ADD PUSH2 0x300 SWAP1 PUSH2 0xC0C JUMP JUMPDEST PUSH1 0x40 MLOAD DUP1 SWAP2 SUB SWAP1 REVERT JUMPDEST PUSH1 0x0 DUP1 PUSH1 0x0 DUP4 DUP2 MSTORE PUSH1 0x20 ADD SWAP1 DUP2 MSTORE PUSH1 0x20 ADD PUSH1 0x0 KECCAK256 PUSH1 0x1 ADD SLOAD TIMESTAMP PUSH2 0x32C SWAP2 SWAP1 PUSH2 0xC5B JUMP JUMPDEST SWAP1 POP PUSH1 0x0 DUP1 PUSH1 0x0 DUP5 DUP2 MSTORE PUSH1 0x20 ADD SWAP1 DUP2 MSTORE PUSH1 0x20 ADD PUSH1 0x0 KECCAK256 PUSH1 0x3 ADD SLOAD SWAP1 POP PUSH1 0x0 DUP2 DUP4 PUSH2 0x356 SWAP2 SWAP1 PUSH2 0xC8F JUMP JUMPDEST SWAP1 POP PUSH2 0x384 DUP4 LT PUSH2 0x38E JUMPI PUSH1 0x0 DUP3 PUSH2 0x384 DUP6 PUSH2 0x372 SWAP2 SWAP1 PUSH2 0xD00 JUMP JUMPDEST PUSH2 0x37C SWAP2 SWAP1 PUSH2 0xC8F JUMP JUMPDEST SWAP1 POP DUP1 DUP3 PUSH2 0x38A SWAP2 SWAP1 PUSH2 0xD31 JUMP JUMPDEST SWAP2 POP POP JUMPDEST PUSH1 0x0 DUP1 DUP6 DUP2 MSTORE PUSH1 0x20 ADD SWAP1 DUP2 MSTORE PUSH1 0x20 ADD PUSH1 0x0 KECCAK256 PUSH1 0x0 DUP1 DUP3 ADD PUSH1 0x0 PUSH2 0x100 EXP DUP2 SLOAD SWAP1 PUSH1 0xFF MUL NOT AND SWAP1 SSTORE PUSH1 0x1 DUP3 ADD PUSH1 0x0 SWAP1 SSTORE PUSH1 0x2 DUP3 ADD PUSH1 0x0 PUSH2 0x100 EXP DUP2 SLOAD SWAP1 PUSH20 0xFFFFFFFFFFFFFFFFFFFFFFFFFFFFFFFFFFFFFFFF MUL NOT AND SWAP1 SSTORE PUSH1 0x3 DUP3 ADD PUSH1 0x0 SWAP1 SSTORE PUSH1 0x4 DUP3 ADD PUSH1 0x0 SWAP1 SSTORE POP POP PUSH32 0x446545D9994A9A5213DAA76D07835316DCE2407C7D27168A073FC65E5374FD3A DUP5 CALLER DUP6 DUP5 PUSH1 0x40 MLOAD PUSH2 0x42B SWAP5 SWAP4 SWAP3 SWAP2 SWAP1 PUSH2 0xD65 JUMP JUMPDEST PUSH1 0x40 MLOAD DUP1 SWAP2 SUB SWAP1 LOG1 PUSH1 0x0 DUP1 PUSH1 0x0 DUP7 DUP2 MSTORE PUSH1 0x20 ADD SWAP1 DUP2 MSTORE PUSH1 0x20 ADD PUSH1 0x0 KECCAK256 PUSH1 0x2 ADD PUSH1 0x0 SWAP1 SLOAD SWAP1 PUSH2 0x100 EXP SWAP1 DIV PUSH20 0xFFFFFFFFFFFFFFFFFFFFFFFFFFFFFFFFFFFFFFFF AND SWAP1 POP DUP2 SELFBALANCE LT ISZERO PUSH2 0x4B0 JUMPI PUSH1 0x40 MLOAD PUSH32 0x8C379A000000000000000000000000000000000000000000000000000000000 DUP2 MSTORE PUSH1 0x4 ADD PUSH2 0x4A7 SWAP1 PUSH2 0xE1C JUMP JUMPDEST PUSH1 0x40 MLOAD DUP1 SWAP2 SUB SWAP1 REVERT JUMPDEST DUP1 PUSH20 0xFFFFFFFFFFFFFFFFFFFFFFFFFFFFFFFFFFFFFFFF AND PUSH2 0x8FC DUP4 SWAP1 DUP2 ISZERO MUL SWAP1 PUSH1 0x40 MLOAD PUSH1 0x0 PUSH1 0x40 MLOAD DUP1 DUP4 SUB DUP2 DUP6 DUP9 DUP9 CALL SWAP4 POP POP POP POP ISZERO DUP1 ISZERO PUSH2 0x4F6 JUMPI RETURNDATASIZE PUSH1 0x0 DUP1 RETURNDATACOPY RETURNDATASIZE PUSH1 0x0 REVERT JUMPDEST POP POP POP POP POP POP JUMP JUMPDEST PUSH1 0x60 PUSH1 0x1 DUP1 SLOAD DUP1 PUSH1 0x20 MUL PUSH1 0x20 ADD PUSH1 0x40 MLOAD SWAP1 DUP2 ADD PUSH1 0x40 MSTORE DUP1 SWAP3 SWAP2 SWAP1 DUP2 DUP2 MSTORE PUSH1 0x20 ADD DUP3 DUP1 SLOAD DUP1 ISZERO PUSH2 0x54C JUMPI PUSH1 0x20 MUL DUP3 ADD SWAP2 SWAP1 PUSH1 0x0 MSTORE PUSH1 0x20 PUSH1 0x0 KECCAK256 SWAP1 JUMPDEST DUP2 SLOAD DUP2 MSTORE PUSH1 0x20 ADD SWAP1 PUSH1 0x1 ADD SWAP1 DUP1 DUP4 GT PUSH2 0x538 JUMPI JUMPDEST POP POP POP POP POP SWAP1 POP SWAP1 JUMP JUMPDEST PUSH1 0x0 DUP1 PUSH1 0x0 DUP1 PUSH1 0x0 DUP1 DUP7 DUP2 MSTORE PUSH1 0x20 ADD SWAP1 DUP2 MSTORE PUSH1 0x20 ADD PUSH1 0x0 KECCAK256 PUSH1 0x0 ADD PUSH1 0x0 SWAP1 SLOAD SWAP1 PUSH2 0x100 EXP SWAP1 DIV PUSH1 0xFF AND PUSH1 0x0 DUP1 DUP8 DUP2 MSTORE PUSH1 0x20 ADD SWAP1 DUP2 MSTORE PUSH1 0x20 ADD PUSH1 0x0 KECCAK256 PUSH1 0x1 ADD SLOAD PUSH1 0x0 DUP1 DUP9 DUP2 MSTORE PUSH1 0x20 ADD SWAP1 DUP2 MSTORE PUSH1 0x20 ADD PUSH1 0x0 KECCAK256 PUSH1 0x2 ADD PUSH1 0x0 SWAP1 SLOAD SWAP1 PUSH2 0x100 EXP SWAP1 DIV PUSH20 0xFFFFFFFFFFFFFFFFFFFFFFFFFFFFFFFFFFFFFFFF AND PUSH1 0x0 DUP1 DUP10 DUP2 MSTORE PUSH1 0x20 ADD SWAP1 DUP2 MSTORE PUSH1 0x20 ADD PUSH1 0x0 KECCAK256 PUSH1 0x3 ADD SLOAD SWAP4 POP SWAP4 POP SWAP4 POP SWAP4 POP SWAP2 SWAP4 POP SWAP2 SWAP4 JUMP JUMPDEST PUSH1 0x0 DUP1 PUSH1 0x0 DUP4 DUP2 MSTORE PUSH1 0x20 ADD SWAP1 DUP2 MSTORE PUSH1 0x20 ADD PUSH1 0x0 KECCAK256 PUSH1 0x0 ADD PUSH1 0x0 SWAP1 SLOAD SWAP1 PUSH2 0x100 EXP SWAP1 DIV PUSH1 0xFF AND PUSH2 0x654 JUMPI PUSH1 0x40 MLOAD PUSH32 0x8C379A000000000000000000000000000000000000000000000000000000000 DUP2 MSTORE PUSH1 0x4 ADD PUSH2 0x64B SWAP1 PUSH2 0xB7A JUMP JUMPDEST PUSH1 0x40 MLOAD DUP1 SWAP2 SUB SWAP1 REVERT JUMPDEST PUSH1 0x0 DUP1 PUSH1 0x0 DUP5 DUP2 MSTORE PUSH1 0x20 ADD SWAP1 DUP2 MSTORE PUSH1 0x20 ADD PUSH1 0x0 KECCAK256 PUSH1 0x1 ADD SLOAD TIMESTAMP PUSH2 0x677 SWAP2 SWAP1 PUSH2 0xC5B JUMP JUMPDEST SWAP1 POP PUSH1 0x0 DUP1 PUSH1 0x0 DUP6 DUP2 MSTORE PUSH1 0x20 ADD SWAP1 DUP2 MSTORE PUSH1 0x20 ADD PUSH1 0x0 KECCAK256 PUSH1 0x3 ADD SLOAD SWAP1 POP PUSH1 0xF DUP3 LT PUSH2 0x6E2 JUMPI PUSH1 0x0 DUP2 PUSH1 0xF DUP5 PUSH2 0x6AB SWAP2 SWAP1 PUSH2 0xD00 JUMP JUMPDEST PUSH2 0x6B5 SWAP2 SWAP1 PUSH2 0xC8F JUMP JUMPDEST SWAP1 POP DUP1 PUSH1 0x0 DUP1 DUP8 DUP2 MSTORE PUSH1 0x20 ADD SWAP1 DUP2 MSTORE PUSH1 0x20 ADD PUSH1 0x0 KECCAK256 PUSH1 0x4 ADD SLOAD PUSH2 0x6D8 SWAP2 SWAP1 PUSH2 0xD31 JUMP JUMPDEST SWAP4 POP POP POP POP PUSH2 0x6FD JUMP JUMPDEST PUSH1 0x0 DUP1 DUP6 DUP2 MSTORE PUSH1 0x20 ADD SWAP1 DUP2 MSTORE PUSH1 0x20 ADD PUSH1 0x0 KECCAK256 PUSH1 0x4 ADD SLOAD SWAP3 POP POP POP JUMPDEST SWAP2 SWAP1 POP JUMP JUMPDEST PUSH1 0x0 DUP1 DUP3 DUP2 MSTORE PUSH1 0x20 ADD SWAP1 DUP2 MSTORE PUSH1 0x20 ADD PUSH1 0x0 KECCAK256 PUSH1 0x0 ADD PUSH1 0x0 SWAP1 SLOAD SWAP1 PUSH2 0x100 EXP SWAP1 DIV PUSH1 0xFF AND ISZERO PUSH2 0x765 JUMPI PUSH1 0x40 MLOAD PUSH32 0x8C379A000000000000000000000000000000000000000000000000000000000 DUP2 MSTORE PUSH1 0x4 ADD PUSH2 0x75C SWAP1 PUSH2 0xE88 JUMP JUMPDEST PUSH1 0x40 MLOAD DUP1 SWAP2 SUB SWAP1 REVERT JUMPDEST PUSH1 0x1 PUSH1 0x0 DUP1 DUP4 DUP2 MSTORE PUSH1 0x20 ADD SWAP1 DUP2 MSTORE PUSH1 0x20 ADD PUSH1 0x0 KECCAK256 PUSH1 0x0 ADD PUSH1 0x0 PUSH2 0x100 EXP DUP2 SLOAD DUP2 PUSH1 0xFF MUL NOT AND SWAP1 DUP4 ISZERO ISZERO MUL OR SWAP1 SSTORE POP TIMESTAMP PUSH1 0x0 DUP1 DUP4 DUP2 MSTORE PUSH1 0x20 ADD SWAP1 DUP2 MSTORE PUSH1 0x20 ADD PUSH1 0x0 KECCAK256 PUSH1 0x1 ADD DUP2 SWAP1 SSTORE POP CALLER PUSH1 0x0 DUP1 DUP4 DUP2 MSTORE PUSH1 0x20 ADD SWAP1 DUP2 MSTORE PUSH1 0x20 ADD PUSH1 0x0 KECCAK256 PUSH1 0x2 ADD PUSH1 0x0 PUSH2 0x100 EXP DUP2 SLOAD DUP2 PUSH20 0xFFFFFFFFFFFFFFFFFFFFFFFFFFFFFFFFFFFFFFFF MUL NOT AND SWAP1 DUP4 PUSH20 0xFFFFFFFFFFFFFFFFFFFFFFFFFFFFFFFFFFFFFFFF AND MUL OR SWAP1 SSTORE POP PUSH32 0x376EFCCF679161F2B931F2B4E8597692161A8049ADE631759B472510B89F11E6 DUP2 CALLER PUSH1 0x0 DUP1 DUP6 DUP2 MSTORE PUSH1 0x20 ADD SWAP1 DUP2 MSTORE PUSH1 0x20 ADD PUSH1 0x0 KECCAK256 PUSH1 0x1 ADD SLOAD PUSH1 0x40 MLOAD PUSH2 0x849 SWAP4 SWAP3 SWAP2 SWAP1 PUSH2 0xEA8 JUMP JUMPDEST PUSH1 0x40 MLOAD DUP1 SWAP2 SUB SWAP1 LOG1 POP JUMP JUMPDEST PUSH1 0x0 PUSH1 0x20 MSTORE DUP1 PUSH1 0x0 MSTORE PUSH1 0x40 PUSH1 0x0 KECCAK256 PUSH1 0x0 SWAP2 POP SWAP1 POP DUP1 PUSH1 0x0 ADD PUSH1 0x0 SWAP1 SLOAD SWAP1 PUSH2 0x100 EXP SWAP1 DIV PUSH1 0xFF AND SWAP1 DUP1 PUSH1 0x1 ADD SLOAD SWAP1 DUP1 PUSH1 0x2 ADD PUSH1 0x0 SWAP1 SLOAD SWAP1 PUSH2 0x100 EXP SWAP1 DIV PUSH20 0xFFFFFFFFFFFFFFFFFFFFFFFFFFFFFFFFFFFFFFFF AND SWAP1 DUP1 PUSH1 0x3 ADD SLOAD SWAP1 DUP1 PUSH1 0x4 ADD SLOAD SWAP1 POP DUP6 JUMP JUMPDEST PUSH1 0x0 DUP1 REVERT JUMPDEST PUSH1 0x0 DUP2 SWAP1 POP SWAP2 SWAP1 POP JUMP JUMPDEST PUSH2 0x8CF DUP2 PUSH2 0x8BC JUMP JUMPDEST DUP2 EQ PUSH2 0x8DA JUMPI PUSH1 0x0 DUP1 REVERT JUMPDEST POP JUMP JUMPDEST PUSH1 0x0 DUP2 CALLDATALOAD SWAP1 POP PUSH2 0x8EC DUP2 PUSH2 0x8C6 JUMP JUMPDEST SWAP3 SWAP2 POP POP JUMP JUMPDEST PUSH1 0x0 PUSH1 0x20 DUP3 DUP5 SUB SLT ISZERO PUSH2 0x908 JUMPI PUSH2 0x907 PUSH2 0x8B7 JUMP JUMPDEST JUMPDEST PUSH1 0x0 PUSH2 0x916 DUP5 DUP3 DUP6 ADD PUSH2 0x8DD JUMP JUMPDEST SWAP2 POP POP SWAP3 SWAP2 POP POP JUMP JUMPDEST PUSH2 0x928 DUP2 PUSH2 0x8BC JUMP JUMPDEST DUP3 MSTORE POP POP JUMP JUMPDEST PUSH1 0x0 PUSH1 0x20 DUP3 ADD SWAP1 POP PUSH2 0x943 PUSH1 0x0 DUP4 ADD DUP5 PUSH2 0x91F JUMP JUMPDEST SWAP3 SWAP2 POP POP JUMP JUMPDEST PUSH1 0x0 DUP2 MLOAD SWAP1 POP SWAP2 SWAP1 POP JUMP JUMPDEST PUSH1 0x0 DUP3 DUP3 MSTORE PUSH1 0x20 DUP3 ADD SWAP1 POP SWAP3 SWAP2 POP POP JUMP JUMPDEST PUSH1 0x0 DUP2 SWAP1 POP PUSH1 0x20 DUP3 ADD SWAP1 POP SWAP2 SWAP1 POP JUMP JUMPDEST PUSH2 0x97E DUP2 PUSH2 0x8BC JUMP JUMPDEST DUP3 MSTORE POP POP JUMP JUMPDEST PUSH1 0x0 PUSH2 0x990 DUP4 DUP4 PUSH2 0x975 JUMP JUMPDEST PUSH1 0x20 DUP4 ADD SWAP1 POP SWAP3 SWAP2 POP POP JUMP JUMPDEST PUSH1 0x0 PUSH1 0x20 DUP3 ADD SWAP1 POP SWAP2 SWAP1 POP JUMP JUMPDEST PUSH1 0x0 PUSH2 0x9B4 DUP3 PUSH2 0x949 JUMP JUMPDEST PUSH2 0x9BE DUP2 DUP6 PUSH2 0x954 JUMP JUMPDEST SWAP4 POP PUSH2 0x9C9 DUP4 PUSH2 0x965 JUMP JUMPDEST DUP1 PUSH1 0x0 JUMPDEST DUP4 DUP2 LT ISZERO PUSH2 0x9FA JUMPI DUP2 MLOAD PUSH2 0x9E1 DUP9 DUP3 PUSH2 0x984 JUMP JUMPDEST SWAP8 POP PUSH2 0x9EC DUP4 PUSH2 0x99C JUMP JUMPDEST SWAP3 POP POP PUSH1 0x1 DUP2 ADD SWAP1 POP PUSH2 0x9CD JUMP JUMPDEST POP DUP6 SWAP4 POP POP POP POP SWAP3 SWAP2 POP POP JUMP JUMPDEST PUSH1 0x0 PUSH1 0x20 DUP3 ADD SWAP1 POP DUP2 DUP2 SUB PUSH1 0x0 DUP4 ADD MSTORE PUSH2 0xA21 DUP2 DUP5 PUSH2 0x9A9 JUMP JUMPDEST SWAP1 POP SWAP3 SWAP2 POP POP JUMP JUMPDEST PUSH1 0x0 DUP2 ISZERO ISZERO SWAP1 POP SWAP2 SWAP1 POP JUMP JUMPDEST PUSH2 0xA3E DUP2 PUSH2 0xA29 JUMP JUMPDEST DUP3 MSTORE POP POP JUMP JUMPDEST PUSH1 0x0 PUSH20 0xFFFFFFFFFFFFFFFFFFFFFFFFFFFFFFFFFFFFFFFF DUP3 AND SWAP1 POP SWAP2 SWAP1 POP JUMP JUMPDEST PUSH1 0x0 PUSH2 0xA6F DUP3 PUSH2 0xA44 JUMP JUMPDEST SWAP1 POP SWAP2 SWAP1 POP JUMP JUMPDEST PUSH2 0xA7F DUP2 PUSH2 0xA64 JUMP JUMPDEST DUP3 MSTORE POP POP JUMP JUMPDEST PUSH1 0x0 PUSH1 0x80 DUP3 ADD SWAP1 POP PUSH2 0xA9A PUSH1 0x0 DUP4 ADD DUP8 PUSH2 0xA35 JUMP JUMPDEST PUSH2 0xAA7 PUSH1 0x20 DUP4 ADD DUP7 PUSH2 0x91F JUMP JUMPDEST PUSH2 0xAB4 PUSH1 0x40 DUP4 ADD DUP6 PUSH2 0xA76 JUMP JUMPDEST PUSH2 0xAC1 PUSH1 0x60 DUP4 ADD DUP5 PUSH2 0x91F JUMP JUMPDEST SWAP6 SWAP5 POP POP POP POP POP JUMP JUMPDEST PUSH1 0x0 PUSH1 0xA0 DUP3 ADD SWAP1 POP PUSH2 0xADF PUSH1 0x0 DUP4 ADD DUP9 PUSH2 0xA35 JUMP JUMPDEST PUSH2 0xAEC PUSH1 0x20 DUP4 ADD DUP8 PUSH2 0x91F JUMP JUMPDEST PUSH2 0xAF9 PUSH1 0x40 DUP4 ADD DUP7 PUSH2 0xA76 JUMP JUMPDEST PUSH2 0xB06 PUSH1 0x60 DUP4 ADD DUP6 PUSH2 0x91F JUMP JUMPDEST PUSH2 0xB13 PUSH1 0x80 DUP4 ADD DUP5 PUSH2 0x91F JUMP JUMPDEST SWAP7 SWAP6 POP POP POP POP POP POP JUMP JUMPDEST PUSH1 0x0 DUP3 DUP3 MSTORE PUSH1 0x20 DUP3 ADD SWAP1 POP SWAP3 SWAP2 POP POP JUMP JUMPDEST PUSH32 0x5061726B706C61747A20697374206E696368742062656C656774000000000000 PUSH1 0x0 DUP3 ADD MSTORE POP JUMP JUMPDEST PUSH1 0x0 PUSH2 0xB64 PUSH1 0x1A DUP4 PUSH2 0xB1D JUMP JUMPDEST SWAP2 POP PUSH2 0xB6F DUP3 PUSH2 0xB2E JUMP JUMPDEST PUSH1 0x20 DUP3 ADD SWAP1 POP SWAP2 SWAP1 POP JUMP JUMPDEST PUSH1 0x0 PUSH1 0x20 DUP3 ADD SWAP1 POP DUP2 DUP2 SUB PUSH1 0x0 DUP4 ADD MSTORE PUSH2 0xB93 DUP2 PUSH2 0xB57 JUMP JUMPDEST SWAP1 POP SWAP2 SWAP1 POP JUMP JUMPDEST PUSH32 0x4E75722064657220466168727A65756762657369747A6572206B616E6E206465 PUSH1 0x0 DUP3 ADD MSTORE PUSH32 0x6E205061726B706C61747A2066726569676562656E0000000000000000000000 PUSH1 0x20 DUP3 ADD MSTORE POP JUMP JUMPDEST PUSH1 0x0 PUSH2 0xBF6 PUSH1 0x35 DUP4 PUSH2 0xB1D JUMP JUMPDEST SWAP2 POP PUSH2 0xC01 DUP3 PUSH2 0xB9A JUMP JUMPDEST PUSH1 0x40 DUP3 ADD SWAP1 POP SWAP2 SWAP1 POP JUMP JUMPDEST PUSH1 0x0 PUSH1 0x20 DUP3 ADD SWAP1 POP DUP2 DUP2 SUB PUSH1 0x0 DUP4 ADD MSTORE PUSH2 0xC25 DUP2 PUSH2 0xBE9 JUMP JUMPDEST SWAP1 POP SWAP2 SWAP1 POP JUMP JUMPDEST PUSH32 0x4E487B7100000000000000000000000000000000000000000000000000000000 PUSH1 0x0 MSTORE PUSH1 0x11 PUSH1 0x4 MSTORE PUSH1 0x24 PUSH1 0x0 REVERT JUMPDEST PUSH1 0x0 PUSH2 0xC66 DUP3 PUSH2 0x8BC JUMP JUMPDEST SWAP2 POP PUSH2 0xC71 DUP4 PUSH2 0x8BC JUMP JUMPDEST SWAP3 POP DUP3 DUP3 SUB SWAP1 POP DUP2 DUP2 GT ISZERO PUSH2 0xC89 JUMPI PUSH2 0xC88 PUSH2 0xC2C JUMP JUMPDEST JUMPDEST SWAP3 SWAP2 POP POP JUMP JUMPDEST PUSH1 0x0 PUSH2 0xC9A DUP3 PUSH2 0x8BC JUMP JUMPDEST SWAP2 POP PUSH2 0xCA5 DUP4 PUSH2 0x8BC JUMP JUMPDEST SWAP3 POP DUP3 DUP3 MUL PUSH2 0xCB3 DUP2 PUSH2 0x8BC JUMP JUMPDEST SWAP2 POP DUP3 DUP3 DIV DUP5 EQ DUP4 ISZERO OR PUSH2 0xCCA JUMPI PUSH2 0xCC9 PUSH2 0xC2C JUMP JUMPDEST JUMPDEST POP SWAP3 SWAP2 POP POP JUMP JUMPDEST PUSH32 0x4E487B7100000000000000000000000000000000000000000000000000000000 PUSH1 0x0 MSTORE PUSH1 0x12 PUSH1 0x4 MSTORE PUSH1 0x24 PUSH1 0x0 REVERT JUMPDEST PUSH1 0x0 PUSH2 0xD0B DUP3 PUSH2 0x8BC JUMP JUMPDEST SWAP2 POP PUSH2 0xD16 DUP4 PUSH2 0x8BC JUMP JUMPDEST SWAP3 POP DUP3 PUSH2 0xD26 JUMPI PUSH2 0xD25 PUSH2 0xCD1 JUMP JUMPDEST JUMPDEST DUP3 DUP3 DIV SWAP1 POP SWAP3 SWAP2 POP POP JUMP JUMPDEST PUSH1 0x0 PUSH2 0xD3C DUP3 PUSH2 0x8BC JUMP JUMPDEST SWAP2 POP PUSH2 0xD47 DUP4 PUSH2 0x8BC JUMP JUMPDEST SWAP3 POP DUP3 DUP3 ADD SWAP1 POP DUP1 DUP3 GT ISZERO PUSH2 0xD5F JUMPI PUSH2 0xD5E PUSH2 0xC2C JUMP JUMPDEST JUMPDEST SWAP3 SWAP2 POP POP JUMP JUMPDEST PUSH1 0x0 PUSH1 0x80 DUP3 ADD SWAP1 POP PUSH2 0xD7A PUSH1 0x0 DUP4 ADD DUP8 PUSH2 0x91F JUMP JUMPDEST PUSH2 0xD87 PUSH1 0x20 DUP4 ADD DUP7 PUSH2 0xA76 JUMP JUMPDEST PUSH2 0xD94 PUSH1 0x40 DUP4 ADD DUP6 PUSH2 0x91F JUMP JUMPDEST PUSH2 0xDA1 PUSH1 0x60 DUP4 ADD DUP5 PUSH2 0x91F JUMP JUMPDEST SWAP6 SWAP5 POP POP POP POP POP JUMP JUMPDEST PUSH32 0x556E7A757265696368656E64657320477574686162656E20646573205061726B PUSH1 0x0 DUP3 ADD MSTORE PUSH32 0x706C61747A626574726569626572730000000000000000000000000000000000 PUSH1 0x20 DUP3 ADD MSTORE POP JUMP JUMPDEST PUSH1 0x0 PUSH2 0xE06 PUSH1 0x2F DUP4 PUSH2 0xB1D JUMP JUMPDEST SWAP2 POP PUSH2 0xE11 DUP3 PUSH2 0xDAA JUMP JUMPDEST PUSH1 0x40 DUP3 ADD SWAP1 POP SWAP2 SWAP1 POP JUMP JUMPDEST PUSH1 0x0 PUSH1 0x20 DUP3 ADD SWAP1 POP DUP2 DUP2 SUB PUSH1 0x0 DUP4 ADD MSTORE PUSH2 0xE35 DUP2 PUSH2 0xDF9 JUMP JUMPDEST SWAP1 POP SWAP2 SWAP1 POP JUMP JUMPDEST PUSH32 0x5061726B706C61747A2069737420626572656974732062656C65677400000000 PUSH1 0x0 DUP3 ADD MSTORE POP JUMP JUMPDEST PUSH1 0x0 PUSH2 0xE72 PUSH1 0x1C DUP4 PUSH2 0xB1D JUMP JUMPDEST SWAP2 POP PUSH2 0xE7D DUP3 PUSH2 0xE3C JUMP JUMPDEST PUSH1 0x20 DUP3 ADD SWAP1 POP SWAP2 SWAP1 POP JUMP JUMPDEST PUSH1 0x0 PUSH1 0x20 DUP3 ADD SWAP1 POP DUP2 DUP2 SUB PUSH1 0x0 DUP4 ADD MSTORE PUSH2 0xEA1 DUP2 PUSH2 0xE65 JUMP JUMPDEST SWAP1 POP SWAP2 SWAP1 POP JUMP JUMPDEST PUSH1 0x0 PUSH1 0x60 DUP3 ADD SWAP1 POP PUSH2 0xEBD PUSH1 0x0 DUP4 ADD DUP7 PUSH2 0x91F JUMP JUMPDEST PUSH2 0xECA PUSH1 0x20 DUP4 ADD DUP6 PUSH2 0xA76 JUMP JUMPDEST PUSH2 0xED7 PUSH1 0x40 DUP4 ADD DUP5 PUSH2 0x91F JUMP JUMPDEST SWAP5 SWAP4 POP POP POP POP JUMP INVALID LOG2 PUSH5 0x6970667358 0x22 SLT KECCAK256 0xE5 BASEFEE DUP3 SWAP2 0xB4 PUSH21 0xC7D7D90B57C001BAE2466174B5CB909C295E94E31B MUL SUB 0xC1 EXP 0xBD PUSH5 0x736F6C6343 STOP ADDMOD SLT STOP CALLER "
				},
				"gasEstimates": {
					"creation": {
						"codeDepositCost": "772200",
						"executionCost": "infinite",
						"totalCost": "infinite"
					},
					"external": {
						"getCurrentGebuehren(uint256)": "infinite",
						"getParkplatzIds()": "infinite",
						"getParkplatzStatus(uint256)": "infinite",
						"parkplaetze(uint256)": "infinite",
						"parkplatzBelegen(uint256)": "infinite",
						"parkplatzFreigeben(uint256)": "infinite",
						"parkplatzIds(uint256)": "infinite"
					},
					"internal": {
						"addParkplatz(uint256,uint256)": "infinite",
						"generateParkplaetze(uint256,uint256)": "infinite"
					}
				},
				"methodIdentifiers": {
					"getCurrentGebuehren(uint256)": "d410b4cb",
					"getParkplatzIds()": "b6990c93",
					"getParkplatzStatus(uint256)": "c4b3dea9",
					"parkplaetze(uint256)": "f1d7b33e",
					"parkplatzBelegen(uint256)": "ecbe10f2",
					"parkplatzFreigeben(uint256)": "9a435124",
					"parkplatzIds(uint256)": "80a0e0e7"
				}
			},
			"storageLayout": {
				"storage": [
					{
						"astId": 17,
						"contract": "contracts/Parkplatz.sol:Parkplatzverwaltung1",
						"label": "parkplaetze",
						"offset": 0,
						"slot": "0",
						"type": "t_mapping(t_uint256,t_struct(Parkplatz)12_storage)"
					},
					{
						"astId": 20,
						"contract": "contracts/Parkplatz.sol:Parkplatzverwaltung1",
						"label": "parkplatzIds",
						"offset": 0,
						"slot": "1",
						"type": "t_array(t_uint256)dyn_storage"
					}
				],
				"types": {
					"t_address": {
						"encoding": "inplace",
						"label": "address",
						"numberOfBytes": "20"
					},
					"t_array(t_uint256)dyn_storage": {
						"base": "t_uint256",
						"encoding": "dynamic_array",
						"label": "uint256[]",
						"numberOfBytes": "32"
					},
					"t_bool": {
						"encoding": "inplace",
						"label": "bool",
						"numberOfBytes": "1"
					},
					"t_mapping(t_uint256,t_struct(Parkplatz)12_storage)": {
						"encoding": "mapping",
						"key": "t_uint256",
						"label": "mapping(uint256 => struct Parkplatzverwaltung1.Parkplatz)",
						"numberOfBytes": "32",
						"value": "t_struct(Parkplatz)12_storage"
					},
					"t_struct(Parkplatz)12_storage": {
						"encoding": "inplace",
						"label": "struct Parkplatzverwaltung1.Parkplatz",
						"members": [
							{
								"astId": 3,
								"contract": "contracts/Parkplatz.sol:Parkplatzverwaltung1",
								"label": "istBelegt",
								"offset": 0,
								"slot": "0",
								"type": "t_bool"
							},
							{
								"astId": 5,
								"contract": "contracts/Parkplatz.sol:Parkplatzverwaltung1",
								"label": "belegungsStartzeit",
								"offset": 0,
								"slot": "1",
								"type": "t_uint256"
							},
							{
								"astId": 7,
								"contract": "contracts/Parkplatz.sol:Parkplatzverwaltung1",
								"label": "fahrzeugBesitzer",
								"offset": 0,
								"slot": "2",
								"type": "t_address"
							},
							{
								"astId": 9,
								"contract": "contracts/Parkplatz.sol:Parkplatzverwaltung1",
								"label": "ParkgebuehrProMinute",
								"offset": 0,
								"slot": "3",
								"type": "t_uint256"
							},
							{
								"astId": 11,
								"contract": "contracts/Parkplatz.sol:Parkplatzverwaltung1",
								"label": "Parkgebuehren",
								"offset": 0,
								"slot": "4",
								"type": "t_uint256"
							}
						],
						"numberOfBytes": "160"
					},
					"t_uint256": {
						"encoding": "inplace",
						"label": "uint256",
						"numberOfBytes": "32"
					}
				}
			},
			"userdoc": {
				"kind": "user",
				"methods": {},
				"version": 1
			}
		}
	}
}