{
	"contracts/StorageFactory.sol": {
		"StorageFactory": {
			"abi": [
				{
					"inputs": [
						{
							"internalType": "uint256",
							"name": "",
							"type": "uint256"
						}
					],
					"name": "SimpleStorageArray",
					"outputs": [
						{
							"internalType": "contract SimpleStorage",
							"name": "",
							"type": "address"
						}
					],
					"stateMutability": "view",
					"type": "function"
				},
				{
					"inputs": [
						{
							"internalType": "string",
							"name": "_name",
							"type": "string"
						},
						{
							"internalType": "uint256",
							"name": "_favoriteNumber",
							"type": "uint256"
						}
					],
					"name": "addPerson",
					"outputs": [],
					"stateMutability": "nonpayable",
					"type": "function"
				},
				{
					"inputs": [],
					"name": "createSimpleStorageContract",
					"outputs": [],
					"stateMutability": "nonpayable",
					"type": "function"
				},
				{
					"inputs": [
						{
							"internalType": "string",
							"name": "",
							"type": "string"
						}
					],
					"name": "nameToFavoriteNumber",
					"outputs": [
						{
							"internalType": "uint256",
							"name": "",
							"type": "uint256"
						}
					],
					"stateMutability": "view",
					"type": "function"
				},
				{
					"inputs": [
						{
							"internalType": "uint256",
							"name": "",
							"type": "uint256"
						}
					],
					"name": "people",
					"outputs": [
						{
							"internalType": "uint256",
							"name": "favoriteNumber",
							"type": "uint256"
						},
						{
							"internalType": "string",
							"name": "name",
							"type": "string"
						}
					],
					"stateMutability": "view",
					"type": "function"
				},
				{
					"inputs": [],
					"name": "retrieve",
					"outputs": [
						{
							"internalType": "uint256",
							"name": "",
							"type": "uint256"
						}
					],
					"stateMutability": "view",
					"type": "function"
				},
				{
					"inputs": [
						{
							"internalType": "uint256",
							"name": "_simpleStorageIndex",
							"type": "uint256"
						}
					],
					"name": "sdGet",
					"outputs": [
						{
							"internalType": "uint256",
							"name": "",
							"type": "uint256"
						}
					],
					"stateMutability": "view",
					"type": "function"
				},
				{
					"inputs": [
						{
							"internalType": "uint256",
							"name": "_simpleStorageIndex",
							"type": "uint256"
						},
						{
							"internalType": "uint256",
							"name": "_simpleStorageNumber",
							"type": "uint256"
						}
					],
					"name": "sfStore",
					"outputs": [],
					"stateMutability": "nonpayable",
					"type": "function"
				},
				{
					"inputs": [
						{
							"internalType": "uint256",
							"name": "_favoriteNumber",
							"type": "uint256"
						}
					],
					"name": "store",
					"outputs": [],
					"stateMutability": "nonpayable",
					"type": "function"
				}
			],
			"devdoc": {
				"kind": "dev",
				"methods": {},
				"version": 1
			},
			"evm": {
				"assembly": "    /* \"contracts/StorageFactory.sol\":96:790  contract StorageFactory is SimpleStorage{... */\n  mstore(0x40, 0x80)\n    /* \"contracts/SimpleStorage.sol\":142:147  false */\n  0x00\n    /* \"contracts/SimpleStorage.sol\":122:147  bool favoriteBool = false */\n  0x01\n  exp(0x0100, 0x00)\n  dup2\n  sload\n  dup2\n  0xff\n  mul\n  not\n  and\n  swap1\n  dup4\n  iszero\n  iszero\n  mul\n  or\n  swap1\n  sstore\n  pop\n    /* \"contracts/StorageFactory.sol\":96:790  contract StorageFactory is SimpleStorage{... */\n  callvalue\n  dup1\n  iszero\n  tag_1\n  jumpi\n  0x00\n  dup1\n  revert\ntag_1:\n  pop\n  dataSize(sub_0)\n  dup1\n  dataOffset(sub_0)\n  0x00\n  codecopy\n  0x00\n  return\nstop\n\nsub_0: assembly {\n        /* \"contracts/StorageFactory.sol\":96:790  contract StorageFactory is SimpleStorage{... */\n      mstore(0x40, 0x80)\n      callvalue\n      dup1\n      iszero\n      tag_1\n      jumpi\n      0x00\n      dup1\n      revert\n    tag_1:\n      pop\n      jumpi(tag_2, lt(calldatasize, 0x04))\n      shr(0xe0, calldataload(0x00))\n      dup1\n      0x6f760f41\n      gt\n      tag_12\n      jumpi\n      dup1\n      0x6f760f41\n      eq\n      tag_7\n      jumpi\n      dup1\n      0x8bab8dd5\n      eq\n      tag_8\n      jumpi\n      dup1\n      0x9e7a13ad\n      eq\n      tag_9\n      jumpi\n      dup1\n      0xbe2ec9cb\n      eq\n      tag_10\n      jumpi\n      dup1\n      0xf5daaa02\n      eq\n      tag_11\n      jumpi\n      jump(tag_2)\n    tag_12:\n      dup1\n      0x1563700f\n      eq\n      tag_3\n      jumpi\n      dup1\n      0x1dda6541\n      eq\n      tag_4\n      jumpi\n      dup1\n      0x2e64cec1\n      eq\n      tag_5\n      jumpi\n      dup1\n      0x6057361d\n      eq\n      tag_6\n      jumpi\n    tag_2:\n      0x00\n      dup1\n      revert\n        /* \"contracts/StorageFactory.sol\":356:581  function sfStore(uint256 _simpleStorageIndex, uint256 _simpleStorageNumber)... */\n    tag_3:\n      tag_13\n      0x04\n      dup1\n      calldatasize\n      sub\n      dup2\n      add\n      swap1\n      tag_14\n      swap2\n      swap1\n      tag_15\n      jump\t// in\n    tag_14:\n      tag_16\n      jump\t// in\n    tag_13:\n      stop\n        /* \"contracts/StorageFactory.sol\":190:350  function createSimpleStorageContract() public {... */\n    tag_4:\n      tag_17\n      tag_18\n      jump\t// in\n    tag_17:\n      stop\n        /* \"contracts/SimpleStorage.sol\":642:730  function retrieve() public view returns (uint256) {... */\n    tag_5:\n      tag_19\n      tag_20\n      jump\t// in\n    tag_19:\n      mload(0x40)\n      tag_21\n      swap2\n      swap1\n      tag_22\n      jump\t// in\n    tag_21:\n      mload(0x40)\n      dup1\n      swap2\n      sub\n      swap1\n      return\n        /* \"contracts/SimpleStorage.sol\":323:419  function store(uint256 _favoriteNumber) public {... */\n    tag_6:\n      tag_23\n      0x04\n      dup1\n      calldatasize\n      sub\n      dup2\n      add\n      swap1\n      tag_24\n      swap2\n      swap1\n      tag_25\n      jump\t// in\n    tag_24:\n      tag_26\n      jump\t// in\n    tag_23:\n      stop\n        /* \"contracts/SimpleStorage.sol\":425:636  function addPerson(string memory _name, uint256 _favoriteNumber) public {... */\n    tag_7:\n      tag_27\n      0x04\n      dup1\n      calldatasize\n      sub\n      dup2\n      add\n      swap1\n      tag_28\n      swap2\n      swap1\n      tag_29\n      jump\t// in\n    tag_28:\n      tag_30\n      jump\t// in\n    tag_27:\n      stop\n        /* \"contracts/SimpleStorage.sol\":262:316  mapping(string => uint256) public nameToFavoriteNumber */\n    tag_8:\n      tag_31\n      0x04\n      dup1\n      calldatasize\n      sub\n      dup2\n      add\n      swap1\n      tag_32\n      swap2\n      swap1\n      tag_33\n      jump\t// in\n    tag_32:\n      tag_34\n      jump\t// in\n    tag_31:\n      mload(0x40)\n      tag_35\n      swap2\n      swap1\n      tag_22\n      jump\t// in\n    tag_35:\n      mload(0x40)\n      dup1\n      swap2\n      sub\n      swap1\n      return\n        /* \"contracts/SimpleStorage.sol\":234:256  People[] public people */\n    tag_9:\n      tag_36\n      0x04\n      dup1\n      calldatasize\n      sub\n      dup2\n      add\n      swap1\n      tag_37\n      swap2\n      swap1\n      tag_25\n      jump\t// in\n    tag_37:\n      tag_38\n      jump\t// in\n    tag_36:\n      mload(0x40)\n      tag_39\n      swap3\n      swap2\n      swap1\n      tag_40\n      jump\t// in\n    tag_39:\n      mload(0x40)\n      dup1\n      swap2\n      sub\n      swap1\n      return\n        /* \"contracts/StorageFactory.sol\":587:788  function sdGet(uint256 _simpleStorageIndex) public view returns (uint256) {... */\n    tag_10:\n      tag_41\n      0x04\n      dup1\n      calldatasize\n      sub\n      dup2\n      add\n      swap1\n      tag_42\n      swap2\n      swap1\n      tag_25\n      jump\t// in\n    tag_42:\n      tag_43\n      jump\t// in\n    tag_41:\n      mload(0x40)\n      tag_44\n      swap2\n      swap1\n      tag_22\n      jump\t// in\n    tag_44:\n      mload(0x40)\n      dup1\n      swap2\n      sub\n      swap1\n      return\n        /* \"contracts/StorageFactory.sol\":142:183  SimpleStorage[] public SimpleStorageArray */\n    tag_11:\n      tag_45\n      0x04\n      dup1\n      calldatasize\n      sub\n      dup2\n      add\n      swap1\n      tag_46\n      swap2\n      swap1\n      tag_25\n      jump\t// in\n    tag_46:\n      tag_47\n      jump\t// in\n    tag_45:\n      mload(0x40)\n      tag_48\n      swap2\n      swap1\n      tag_49\n      jump\t// in\n    tag_48:\n      mload(0x40)\n      dup1\n      swap2\n      sub\n      swap1\n      return\n        /* \"contracts/StorageFactory.sol\":356:581  function sfStore(uint256 _simpleStorageIndex, uint256 _simpleStorageNumber)... */\n    tag_16:\n        /* \"contracts/StorageFactory.sol\":483:501  SimpleStorageArray */\n      0x04\n        /* \"contracts/StorageFactory.sol\":502:521  _simpleStorageIndex */\n      dup3\n        /* \"contracts/StorageFactory.sol\":483:522  SimpleStorageArray[_simpleStorageIndex] */\n      dup2\n      sload\n      dup2\n      lt\n      tag_51\n      jumpi\n      tag_52\n      tag_53\n      jump\t// in\n    tag_52:\n    tag_51:\n      swap1\n      0x00\n      mstore\n      keccak256(0x00, 0x20)\n      add\n      0x00\n      swap1\n      sload\n      swap1\n      0x0100\n      exp\n      swap1\n      div\n      0xffffffffffffffffffffffffffffffffffffffff\n      and\n        /* \"contracts/StorageFactory.sol\":461:530  SimpleStorage(address(SimpleStorageArray[_simpleStorageIndex])).store */\n      0xffffffffffffffffffffffffffffffffffffffff\n      and\n      0x6057361d\n        /* \"contracts/StorageFactory.sol\":544:564  _simpleStorageNumber */\n      dup3\n        /* \"contracts/StorageFactory.sol\":461:574  SimpleStorage(address(SimpleStorageArray[_simpleStorageIndex])).store(... */\n      mload(0x40)\n      dup3\n      0xffffffff\n      and\n      0xe0\n      shl\n      dup2\n      mstore\n      0x04\n      add\n      tag_55\n      swap2\n      swap1\n      tag_22\n      jump\t// in\n    tag_55:\n      0x00\n      mload(0x40)\n      dup1\n      dup4\n      sub\n      dup2\n      0x00\n      dup8\n      dup1\n      extcodesize\n      iszero\n      dup1\n      iszero\n      tag_56\n      jumpi\n      0x00\n      dup1\n      revert\n    tag_56:\n      pop\n      gas\n      call\n      iszero\n      dup1\n      iszero\n      tag_58\n      jumpi\n      returndatasize\n      0x00\n      dup1\n      returndatacopy\n      revert(0x00, returndatasize)\n    tag_58:\n      pop\n      pop\n      pop\n      pop\n        /* \"contracts/StorageFactory.sol\":356:581  function sfStore(uint256 _simpleStorageIndex, uint256 _simpleStorageNumber)... */\n      pop\n      pop\n      jump\t// out\n        /* \"contracts/StorageFactory.sol\":190:350  function createSimpleStorageContract() public {... */\n    tag_18:\n        /* \"contracts/StorageFactory.sol\":246:273  SimpleStorage simpleStorage */\n      0x00\n        /* \"contracts/StorageFactory.sol\":276:295  new SimpleStorage() */\n      mload(0x40)\n      tag_60\n      swap1\n      tag_61\n      jump\t// in\n    tag_60:\n      mload(0x40)\n      dup1\n      swap2\n      sub\n      swap1\n      0x00\n      create\n      dup1\n      iszero\n      dup1\n      iszero\n      tag_62\n      jumpi\n      returndatasize\n      0x00\n      dup1\n      returndatacopy\n      revert(0x00, returndatasize)\n    tag_62:\n      pop\n        /* \"contracts/StorageFactory.sol\":246:295  SimpleStorage simpleStorage = new SimpleStorage() */\n      swap1\n      pop\n        /* \"contracts/StorageFactory.sol\":305:323  SimpleStorageArray */\n      0x04\n        /* \"contracts/StorageFactory.sol\":329:342  simpleStorage */\n      dup2\n        /* \"contracts/StorageFactory.sol\":305:343  SimpleStorageArray.push(simpleStorage) */\n      swap1\n      dup1\n      0x01\n      dup2\n      sload\n      add\n      dup1\n      dup3\n      sstore\n      dup1\n      swap2\n      pop\n      pop\n      0x01\n      swap1\n      sub\n      swap1\n      0x00\n      mstore\n      keccak256(0x00, 0x20)\n      add\n      0x00\n      swap1\n      swap2\n      swap1\n      swap2\n      swap1\n      swap2\n      0x0100\n      exp\n      dup2\n      sload\n      dup2\n      0xffffffffffffffffffffffffffffffffffffffff\n      mul\n      not\n      and\n      swap1\n      dup4\n      0xffffffffffffffffffffffffffffffffffffffff\n      and\n      mul\n      or\n      swap1\n      sstore\n      pop\n        /* \"contracts/StorageFactory.sol\":236:350  {... */\n      pop\n        /* \"contracts/StorageFactory.sol\":190:350  function createSimpleStorageContract() public {... */\n      jump\t// out\n        /* \"contracts/SimpleStorage.sol\":642:730  function retrieve() public view returns (uint256) {... */\n    tag_20:\n        /* \"contracts/SimpleStorage.sol\":683:690  uint256 */\n      0x00\n        /* \"contracts/SimpleStorage.sol\":709:723  favoriteNumber */\n      dup1\n      sload\n        /* \"contracts/SimpleStorage.sol\":702:723  return favoriteNumber */\n      swap1\n      pop\n        /* \"contracts/SimpleStorage.sol\":642:730  function retrieve() public view returns (uint256) {... */\n      swap1\n      jump\t// out\n        /* \"contracts/SimpleStorage.sol\":323:419  function store(uint256 _favoriteNumber) public {... */\n    tag_26:\n        /* \"contracts/SimpleStorage.sol\":397:412  _favoriteNumber */\n      dup1\n        /* \"contracts/SimpleStorage.sol\":380:394  favoriteNumber */\n      0x00\n        /* \"contracts/SimpleStorage.sol\":380:412  favoriteNumber = _favoriteNumber */\n      dup2\n      swap1\n      sstore\n      pop\n        /* \"contracts/SimpleStorage.sol\":323:419  function store(uint256 _favoriteNumber) public {... */\n      pop\n      jump\t// out\n        /* \"contracts/SimpleStorage.sol\":425:636  function addPerson(string memory _name, uint256 _favoriteNumber) public {... */\n    tag_30:\n        /* \"contracts/SimpleStorage.sol\":507:513  people */\n      0x02\n        /* \"contracts/SimpleStorage.sol\":519:573  People({favoriteNumber: _favoriteNumber, name: _name}) */\n      mload(0x40)\n      dup1\n      0x40\n      add\n      0x40\n      mstore\n      dup1\n        /* \"contracts/SimpleStorage.sol\":543:558  _favoriteNumber */\n      dup4\n        /* \"contracts/SimpleStorage.sol\":519:573  People({favoriteNumber: _favoriteNumber, name: _name}) */\n      dup2\n      mstore\n      0x20\n      add\n        /* \"contracts/SimpleStorage.sol\":566:571  _name */\n      dup5\n        /* \"contracts/SimpleStorage.sol\":519:573  People({favoriteNumber: _favoriteNumber, name: _name}) */\n      dup2\n      mstore\n      pop\n        /* \"contracts/SimpleStorage.sol\":507:574  people.push(People({favoriteNumber: _favoriteNumber, name: _name})) */\n      swap1\n      dup1\n      0x01\n      dup2\n      sload\n      add\n      dup1\n      dup3\n      sstore\n      dup1\n      swap2\n      pop\n      pop\n      0x01\n      swap1\n      sub\n      swap1\n      0x00\n      mstore\n      keccak256(0x00, 0x20)\n      swap1\n      0x02\n      mul\n      add\n      0x00\n      swap1\n      swap2\n      swap1\n      swap2\n      swap1\n      swap2\n      pop\n      0x00\n      dup3\n      add\n      mload\n      dup2\n      0x00\n      add\n      sstore\n      0x20\n      dup3\n      add\n      mload\n      dup2\n      0x01\n      add\n      swap1\n      dup2\n      tag_68\n      swap2\n      swap1\n      tag_69\n      jump\t// in\n    tag_68:\n      pop\n      pop\n      pop\n        /* \"contracts/SimpleStorage.sol\":614:629  _favoriteNumber */\n      dup1\n        /* \"contracts/SimpleStorage.sol\":584:604  nameToFavoriteNumber */\n      0x03\n        /* \"contracts/SimpleStorage.sol\":605:610  _name */\n      dup4\n        /* \"contracts/SimpleStorage.sol\":584:611  nameToFavoriteNumber[_name] */\n      mload(0x40)\n      tag_70\n      swap2\n      swap1\n      tag_71\n      jump\t// in\n    tag_70:\n      swap1\n      dup2\n      mstore\n      0x20\n      add\n      mload(0x40)\n      dup1\n      swap2\n      sub\n      swap1\n      keccak256\n        /* \"contracts/SimpleStorage.sol\":584:629  nameToFavoriteNumber[_name] = _favoriteNumber */\n      dup2\n      swap1\n      sstore\n      pop\n        /* \"contracts/SimpleStorage.sol\":425:636  function addPerson(string memory _name, uint256 _favoriteNumber) public {... */\n      pop\n      pop\n      jump\t// out\n        /* \"contracts/SimpleStorage.sol\":262:316  mapping(string => uint256) public nameToFavoriteNumber */\n    tag_34:\n      0x03\n      dup2\n      dup1\n      mload\n      0x20\n      dup2\n      add\n      dup3\n      add\n      dup1\n      mload\n      dup5\n      dup3\n      mstore\n      0x20\n      dup4\n      add\n      0x20\n      dup6\n      add\n      keccak256\n      dup2\n      dup4\n      mstore\n      dup1\n      swap6\n      pop\n      pop\n      pop\n      pop\n      pop\n      pop\n      0x00\n      swap2\n      pop\n      swap1\n      pop\n      sload\n      dup2\n      jump\t// out\n        /* \"contracts/SimpleStorage.sol\":234:256  People[] public people */\n    tag_38:\n      0x02\n      dup2\n      dup2\n      sload\n      dup2\n      lt\n      tag_72\n      jumpi\n      0x00\n      dup1\n      revert\n    tag_72:\n      swap1\n      0x00\n      mstore\n      keccak256(0x00, 0x20)\n      swap1\n      0x02\n      mul\n      add\n      0x00\n      swap2\n      pop\n      swap1\n      pop\n      dup1\n      0x00\n      add\n      sload\n      swap1\n      dup1\n      0x01\n      add\n      dup1\n      sload\n      tag_74\n      swap1\n      tag_75\n      jump\t// in\n    tag_74:\n      dup1\n      0x1f\n      add\n      0x20\n      dup1\n      swap2\n      div\n      mul\n      0x20\n      add\n      mload(0x40)\n      swap1\n      dup2\n      add\n      0x40\n      mstore\n      dup1\n      swap3\n      swap2\n      swap1\n      dup2\n      dup2\n      mstore\n      0x20\n      add\n      dup3\n      dup1\n      sload\n      tag_76\n      swap1\n      tag_75\n      jump\t// in\n    tag_76:\n      dup1\n      iszero\n      tag_77\n      jumpi\n      dup1\n      0x1f\n      lt\n      tag_78\n      jumpi\n      0x0100\n      dup1\n      dup4\n      sload\n      div\n      mul\n      dup4\n      mstore\n      swap2\n      0x20\n      add\n      swap2\n      jump(tag_77)\n    tag_78:\n      dup3\n      add\n      swap2\n      swap1\n      0x00\n      mstore\n      keccak256(0x00, 0x20)\n      swap1\n    tag_79:\n      dup2\n      sload\n      dup2\n      mstore\n      swap1\n      0x01\n      add\n      swap1\n      0x20\n      add\n      dup1\n      dup4\n      gt\n      tag_79\n      jumpi\n      dup3\n      swap1\n      sub\n      0x1f\n      and\n      dup3\n      add\n      swap2\n    tag_77:\n      pop\n      pop\n      pop\n      pop\n      pop\n      swap1\n      pop\n      dup3\n      jump\t// out\n        /* \"contracts/StorageFactory.sol\":587:788  function sdGet(uint256 _simpleStorageIndex) public view returns (uint256) {... */\n    tag_43:\n        /* \"contracts/StorageFactory.sol\":652:659  uint256 */\n      0x00\n        /* \"contracts/StorageFactory.sol\":712:730  SimpleStorageArray */\n      0x04\n        /* \"contracts/StorageFactory.sol\":731:750  _simpleStorageIndex */\n      dup3\n        /* \"contracts/StorageFactory.sol\":712:751  SimpleStorageArray[_simpleStorageIndex] */\n      dup2\n      sload\n      dup2\n      lt\n      tag_81\n      jumpi\n      tag_82\n      tag_53\n      jump\t// in\n    tag_82:\n    tag_81:\n      swap1\n      0x00\n      mstore\n      keccak256(0x00, 0x20)\n      add\n      0x00\n      swap1\n      sload\n      swap1\n      0x0100\n      exp\n      swap1\n      div\n      0xffffffffffffffffffffffffffffffffffffffff\n      and\n        /* \"contracts/StorageFactory.sol\":690:779  SimpleStorage(address(SimpleStorageArray[_simpleStorageIndex]))... */\n      0xffffffffffffffffffffffffffffffffffffffff\n      and\n      0x2e64cec1\n        /* \"contracts/StorageFactory.sol\":690:781  SimpleStorage(address(SimpleStorageArray[_simpleStorageIndex]))... */\n      mload(0x40)\n      dup2\n      0xffffffff\n      and\n      0xe0\n      shl\n      dup2\n      mstore\n      0x04\n      add\n      0x20\n      mload(0x40)\n      dup1\n      dup4\n      sub\n      dup2\n      dup7\n      gas\n      staticcall\n      iszero\n      dup1\n      iszero\n      tag_85\n      jumpi\n      returndatasize\n      0x00\n      dup1\n      returndatacopy\n      revert(0x00, returndatasize)\n    tag_85:\n      pop\n      pop\n      pop\n      pop\n      mload(0x40)\n      returndatasize\n      not(0x1f)\n      0x1f\n      dup3\n      add\n      and\n      dup3\n      add\n      dup1\n      0x40\n      mstore\n      pop\n      dup2\n      add\n      swap1\n      tag_86\n      swap2\n      swap1\n      tag_87\n      jump\t// in\n    tag_86:\n        /* \"contracts/StorageFactory.sol\":671:781  return... */\n      swap1\n      pop\n        /* \"contracts/StorageFactory.sol\":587:788  function sdGet(uint256 _simpleStorageIndex) public view returns (uint256) {... */\n      swap2\n      swap1\n      pop\n      jump\t// out\n        /* \"contracts/StorageFactory.sol\":142:183  SimpleStorage[] public SimpleStorageArray */\n    tag_47:\n      0x04\n      dup2\n      dup2\n      sload\n      dup2\n      lt\n      tag_88\n      jumpi\n      0x00\n      dup1\n      revert\n    tag_88:\n      swap1\n      0x00\n      mstore\n      keccak256(0x00, 0x20)\n      add\n      0x00\n      swap2\n      pop\n      sload\n      swap1\n      0x0100\n      exp\n      swap1\n      div\n      0xffffffffffffffffffffffffffffffffffffffff\n      and\n      dup2\n      jump\t// out\n    tag_61:\n      dataSize(sub_0)\n      dup1\n      dataOffset(sub_0)\n      dup4\n      codecopy\n      add\n      swap1\n      jump\t// out\n        /* \"#utility.yul\":7:82   */\n    tag_90:\n        /* \"#utility.yul\":40:46   */\n      0x00\n        /* \"#utility.yul\":73:75   */\n      0x40\n        /* \"#utility.yul\":67:76   */\n      mload\n        /* \"#utility.yul\":57:76   */\n      swap1\n      pop\n        /* \"#utility.yul\":7:82   */\n      swap1\n      jump\t// out\n        /* \"#utility.yul\":88:205   */\n    tag_91:\n        /* \"#utility.yul\":197:198   */\n      0x00\n        /* \"#utility.yul\":194:195   */\n      dup1\n        /* \"#utility.yul\":187:199   */\n      revert\n        /* \"#utility.yul\":211:328   */\n    tag_92:\n        /* \"#utility.yul\":320:321   */\n      0x00\n        /* \"#utility.yul\":317:318   */\n      dup1\n        /* \"#utility.yul\":310:322   */\n      revert\n        /* \"#utility.yul\":334:411   */\n    tag_93:\n        /* \"#utility.yul\":371:378   */\n      0x00\n        /* \"#utility.yul\":400:405   */\n      dup2\n        /* \"#utility.yul\":389:405   */\n      swap1\n      pop\n        /* \"#utility.yul\":334:411   */\n      swap2\n      swap1\n      pop\n      jump\t// out\n        /* \"#utility.yul\":417:539   */\n    tag_94:\n        /* \"#utility.yul\":490:514   */\n      tag_141\n        /* \"#utility.yul\":508:513   */\n      dup2\n        /* \"#utility.yul\":490:514   */\n      tag_93\n      jump\t// in\n    tag_141:\n        /* \"#utility.yul\":483:488   */\n      dup2\n        /* \"#utility.yul\":480:515   */\n      eq\n        /* \"#utility.yul\":470:533   */\n      tag_142\n      jumpi\n        /* \"#utility.yul\":529:530   */\n      0x00\n        /* \"#utility.yul\":526:527   */\n      dup1\n        /* \"#utility.yul\":519:531   */\n      revert\n        /* \"#utility.yul\":470:533   */\n    tag_142:\n        /* \"#utility.yul\":417:539   */\n      pop\n      jump\t// out\n        /* \"#utility.yul\":545:684   */\n    tag_95:\n        /* \"#utility.yul\":591:596   */\n      0x00\n        /* \"#utility.yul\":629:635   */\n      dup2\n        /* \"#utility.yul\":616:636   */\n      calldataload\n        /* \"#utility.yul\":607:636   */\n      swap1\n      pop\n        /* \"#utility.yul\":645:678   */\n      tag_144\n        /* \"#utility.yul\":672:677   */\n      dup2\n        /* \"#utility.yul\":645:678   */\n      tag_94\n      jump\t// in\n    tag_144:\n        /* \"#utility.yul\":545:684   */\n      swap3\n      swap2\n      pop\n      pop\n      jump\t// out\n        /* \"#utility.yul\":690:1164   */\n    tag_15:\n        /* \"#utility.yul\":758:764   */\n      0x00\n        /* \"#utility.yul\":766:772   */\n      dup1\n        /* \"#utility.yul\":815:817   */\n      0x40\n        /* \"#utility.yul\":803:812   */\n      dup4\n        /* \"#utility.yul\":794:801   */\n      dup6\n        /* \"#utility.yul\":790:813   */\n      sub\n        /* \"#utility.yul\":786:818   */\n      slt\n        /* \"#utility.yul\":783:902   */\n      iszero\n      tag_146\n      jumpi\n        /* \"#utility.yul\":821:900   */\n      tag_147\n      tag_91\n      jump\t// in\n    tag_147:\n        /* \"#utility.yul\":783:902   */\n    tag_146:\n        /* \"#utility.yul\":941:942   */\n      0x00\n        /* \"#utility.yul\":966:1019   */\n      tag_148\n        /* \"#utility.yul\":1011:1018   */\n      dup6\n        /* \"#utility.yul\":1002:1008   */\n      dup3\n        /* \"#utility.yul\":991:1000   */\n      dup7\n        /* \"#utility.yul\":987:1009   */\n      add\n        /* \"#utility.yul\":966:1019   */\n      tag_95\n      jump\t// in\n    tag_148:\n        /* \"#utility.yul\":956:1019   */\n      swap3\n      pop\n        /* \"#utility.yul\":912:1029   */\n      pop\n        /* \"#utility.yul\":1068:1070   */\n      0x20\n        /* \"#utility.yul\":1094:1147   */\n      tag_149\n        /* \"#utility.yul\":1139:1146   */\n      dup6\n        /* \"#utility.yul\":1130:1136   */\n      dup3\n        /* \"#utility.yul\":1119:1128   */\n      dup7\n        /* \"#utility.yul\":1115:1137   */\n      add\n        /* \"#utility.yul\":1094:1147   */\n      tag_95\n      jump\t// in\n    tag_149:\n        /* \"#utility.yul\":1084:1147   */\n      swap2\n      pop\n        /* \"#utility.yul\":1039:1157   */\n      pop\n        /* \"#utility.yul\":690:1164   */\n      swap3\n      pop\n      swap3\n      swap1\n      pop\n      jump\t// out\n        /* \"#utility.yul\":1170:1288   */\n    tag_96:\n        /* \"#utility.yul\":1257:1281   */\n      tag_151\n        /* \"#utility.yul\":1275:1280   */\n      dup2\n        /* \"#utility.yul\":1257:1281   */\n      tag_93\n      jump\t// in\n    tag_151:\n        /* \"#utility.yul\":1252:1255   */\n      dup3\n        /* \"#utility.yul\":1245:1282   */\n      mstore\n        /* \"#utility.yul\":1170:1288   */\n      pop\n      pop\n      jump\t// out\n        /* \"#utility.yul\":1294:1516   */\n    tag_22:\n        /* \"#utility.yul\":1387:1391   */\n      0x00\n        /* \"#utility.yul\":1425:1427   */\n      0x20\n        /* \"#utility.yul\":1414:1423   */\n      dup3\n        /* \"#utility.yul\":1410:1428   */\n      add\n        /* \"#utility.yul\":1402:1428   */\n      swap1\n      pop\n        /* \"#utility.yul\":1438:1509   */\n      tag_153\n        /* \"#utility.yul\":1506:1507   */\n      0x00\n        /* \"#utility.yul\":1495:1504   */\n      dup4\n        /* \"#utility.yul\":1491:1508   */\n      add\n        /* \"#utility.yul\":1482:1488   */\n      dup5\n        /* \"#utility.yul\":1438:1509   */\n      tag_96\n      jump\t// in\n    tag_153:\n        /* \"#utility.yul\":1294:1516   */\n      swap3\n      swap2\n      pop\n      pop\n      jump\t// out\n        /* \"#utility.yul\":1522:1851   */\n    tag_25:\n        /* \"#utility.yul\":1581:1587   */\n      0x00\n        /* \"#utility.yul\":1630:1632   */\n      0x20\n        /* \"#utility.yul\":1618:1627   */\n      dup3\n        /* \"#utility.yul\":1609:1616   */\n      dup5\n        /* \"#utility.yul\":1605:1628   */\n      sub\n        /* \"#utility.yul\":1601:1633   */\n      slt\n        /* \"#utility.yul\":1598:1717   */\n      iszero\n      tag_155\n      jumpi\n        /* \"#utility.yul\":1636:1715   */\n      tag_156\n      tag_91\n      jump\t// in\n    tag_156:\n        /* \"#utility.yul\":1598:1717   */\n    tag_155:\n        /* \"#utility.yul\":1756:1757   */\n      0x00\n        /* \"#utility.yul\":1781:1834   */\n      tag_157\n        /* \"#utility.yul\":1826:1833   */\n      dup5\n        /* \"#utility.yul\":1817:1823   */\n      dup3\n        /* \"#utility.yul\":1806:1815   */\n      dup6\n        /* \"#utility.yul\":1802:1824   */\n      add\n        /* \"#utility.yul\":1781:1834   */\n      tag_95\n      jump\t// in\n    tag_157:\n        /* \"#utility.yul\":1771:1834   */\n      swap2\n      pop\n        /* \"#utility.yul\":1727:1844   */\n      pop\n        /* \"#utility.yul\":1522:1851   */\n      swap3\n      swap2\n      pop\n      pop\n      jump\t// out\n        /* \"#utility.yul\":1857:1974   */\n    tag_97:\n        /* \"#utility.yul\":1966:1967   */\n      0x00\n        /* \"#utility.yul\":1963:1964   */\n      dup1\n        /* \"#utility.yul\":1956:1968   */\n      revert\n        /* \"#utility.yul\":1980:2097   */\n    tag_98:\n        /* \"#utility.yul\":2089:2090   */\n      0x00\n        /* \"#utility.yul\":2086:2087   */\n      dup1\n        /* \"#utility.yul\":2079:2091   */\n      revert\n        /* \"#utility.yul\":2103:2205   */\n    tag_99:\n        /* \"#utility.yul\":2144:2150   */\n      0x00\n        /* \"#utility.yul\":2195:2197   */\n      0x1f\n        /* \"#utility.yul\":2191:2198   */\n      not\n        /* \"#utility.yul\":2186:2188   */\n      0x1f\n        /* \"#utility.yul\":2179:2184   */\n      dup4\n        /* \"#utility.yul\":2175:2189   */\n      add\n        /* \"#utility.yul\":2171:2199   */\n      and\n        /* \"#utility.yul\":2161:2199   */\n      swap1\n      pop\n        /* \"#utility.yul\":2103:2205   */\n      swap2\n      swap1\n      pop\n      jump\t// out\n        /* \"#utility.yul\":2211:2391   */\n    tag_100:\n        /* \"#utility.yul\":2259:2336   */\n      0x4e487b7100000000000000000000000000000000000000000000000000000000\n        /* \"#utility.yul\":2256:2257   */\n      0x00\n        /* \"#utility.yul\":2249:2337   */\n      mstore\n        /* \"#utility.yul\":2356:2360   */\n      0x41\n        /* \"#utility.yul\":2353:2354   */\n      0x04\n        /* \"#utility.yul\":2346:2361   */\n      mstore\n        /* \"#utility.yul\":2380:2384   */\n      0x24\n        /* \"#utility.yul\":2377:2378   */\n      0x00\n        /* \"#utility.yul\":2370:2385   */\n      revert\n        /* \"#utility.yul\":2397:2678   */\n    tag_101:\n        /* \"#utility.yul\":2480:2507   */\n      tag_163\n        /* \"#utility.yul\":2502:2506   */\n      dup3\n        /* \"#utility.yul\":2480:2507   */\n      tag_99\n      jump\t// in\n    tag_163:\n        /* \"#utility.yul\":2472:2478   */\n      dup2\n        /* \"#utility.yul\":2468:2508   */\n      add\n        /* \"#utility.yul\":2610:2616   */\n      dup2\n        /* \"#utility.yul\":2598:2608   */\n      dup2\n        /* \"#utility.yul\":2595:2617   */\n      lt\n        /* \"#utility.yul\":2574:2592   */\n      0xffffffffffffffff\n        /* \"#utility.yul\":2562:2572   */\n      dup3\n        /* \"#utility.yul\":2559:2593   */\n      gt\n        /* \"#utility.yul\":2556:2618   */\n      or\n        /* \"#utility.yul\":2553:2641   */\n      iszero\n      tag_164\n      jumpi\n        /* \"#utility.yul\":2621:2639   */\n      tag_165\n      tag_100\n      jump\t// in\n    tag_165:\n        /* \"#utility.yul\":2553:2641   */\n    tag_164:\n        /* \"#utility.yul\":2661:2671   */\n      dup1\n        /* \"#utility.yul\":2657:2659   */\n      0x40\n        /* \"#utility.yul\":2650:2672   */\n      mstore\n        /* \"#utility.yul\":2440:2678   */\n      pop\n        /* \"#utility.yul\":2397:2678   */\n      pop\n      pop\n      jump\t// out\n        /* \"#utility.yul\":2684:2813   */\n    tag_102:\n        /* \"#utility.yul\":2718:2724   */\n      0x00\n        /* \"#utility.yul\":2745:2765   */\n      tag_167\n      tag_90\n      jump\t// in\n    tag_167:\n        /* \"#utility.yul\":2735:2765   */\n      swap1\n      pop\n        /* \"#utility.yul\":2774:2807   */\n      tag_168\n        /* \"#utility.yul\":2802:2806   */\n      dup3\n        /* \"#utility.yul\":2794:2800   */\n      dup3\n        /* \"#utility.yul\":2774:2807   */\n      tag_101\n      jump\t// in\n    tag_168:\n        /* \"#utility.yul\":2684:2813   */\n      swap2\n      swap1\n      pop\n      jump\t// out\n        /* \"#utility.yul\":2819:3127   */\n    tag_103:\n        /* \"#utility.yul\":2881:2885   */\n      0x00\n        /* \"#utility.yul\":2971:2989   */\n      0xffffffffffffffff\n        /* \"#utility.yul\":2963:2969   */\n      dup3\n        /* \"#utility.yul\":2960:2990   */\n      gt\n        /* \"#utility.yul\":2957:3013   */\n      iszero\n      tag_170\n      jumpi\n        /* \"#utility.yul\":2993:3011   */\n      tag_171\n      tag_100\n      jump\t// in\n    tag_171:\n        /* \"#utility.yul\":2957:3013   */\n    tag_170:\n        /* \"#utility.yul\":3031:3060   */\n      tag_172\n        /* \"#utility.yul\":3053:3059   */\n      dup3\n        /* \"#utility.yul\":3031:3060   */\n      tag_99\n      jump\t// in\n    tag_172:\n        /* \"#utility.yul\":3023:3060   */\n      swap1\n      pop\n        /* \"#utility.yul\":3115:3119   */\n      0x20\n        /* \"#utility.yul\":3109:3113   */\n      dup2\n        /* \"#utility.yul\":3105:3120   */\n      add\n        /* \"#utility.yul\":3097:3120   */\n      swap1\n      pop\n        /* \"#utility.yul\":2819:3127   */\n      swap2\n      swap1\n      pop\n      jump\t// out\n        /* \"#utility.yul\":3133:3279   */\n    tag_104:\n        /* \"#utility.yul\":3230:3236   */\n      dup3\n        /* \"#utility.yul\":3225:3228   */\n      dup2\n        /* \"#utility.yul\":3220:3223   */\n      dup4\n        /* \"#utility.yul\":3207:3237   */\n      calldatacopy\n        /* \"#utility.yul\":3271:3272   */\n      0x00\n        /* \"#utility.yul\":3262:3268   */\n      dup4\n        /* \"#utility.yul\":3257:3260   */\n      dup4\n        /* \"#utility.yul\":3253:3269   */\n      add\n        /* \"#utility.yul\":3246:3273   */\n      mstore\n        /* \"#utility.yul\":3133:3279   */\n      pop\n      pop\n      pop\n      jump\t// out\n        /* \"#utility.yul\":3285:3710   */\n    tag_105:\n        /* \"#utility.yul\":3363:3368   */\n      0x00\n        /* \"#utility.yul\":3388:3454   */\n      tag_175\n        /* \"#utility.yul\":3404:3453   */\n      tag_176\n        /* \"#utility.yul\":3446:3452   */\n      dup5\n        /* \"#utility.yul\":3404:3453   */\n      tag_103\n      jump\t// in\n    tag_176:\n        /* \"#utility.yul\":3388:3454   */\n      tag_102\n      jump\t// in\n    tag_175:\n        /* \"#utility.yul\":3379:3454   */\n      swap1\n      pop\n        /* \"#utility.yul\":3477:3483   */\n      dup3\n        /* \"#utility.yul\":3470:3475   */\n      dup2\n        /* \"#utility.yul\":3463:3484   */\n      mstore\n        /* \"#utility.yul\":3515:3519   */\n      0x20\n        /* \"#utility.yul\":3508:3513   */\n      dup2\n        /* \"#utility.yul\":3504:3520   */\n      add\n        /* \"#utility.yul\":3553:3556   */\n      dup5\n        /* \"#utility.yul\":3544:3550   */\n      dup5\n        /* \"#utility.yul\":3539:3542   */\n      dup5\n        /* \"#utility.yul\":3535:3551   */\n      add\n        /* \"#utility.yul\":3532:3557   */\n      gt\n        /* \"#utility.yul\":3529:3641   */\n      iszero\n      tag_177\n      jumpi\n        /* \"#utility.yul\":3560:3639   */\n      tag_178\n      tag_98\n      jump\t// in\n    tag_178:\n        /* \"#utility.yul\":3529:3641   */\n    tag_177:\n        /* \"#utility.yul\":3650:3704   */\n      tag_179\n        /* \"#utility.yul\":3697:3703   */\n      dup5\n        /* \"#utility.yul\":3692:3695   */\n      dup3\n        /* \"#utility.yul\":3687:3690   */\n      dup6\n        /* \"#utility.yul\":3650:3704   */\n      tag_104\n      jump\t// in\n    tag_179:\n        /* \"#utility.yul\":3369:3710   */\n      pop\n        /* \"#utility.yul\":3285:3710   */\n      swap4\n      swap3\n      pop\n      pop\n      pop\n      jump\t// out\n        /* \"#utility.yul\":3730:4070   */\n    tag_106:\n        /* \"#utility.yul\":3786:3791   */\n      0x00\n        /* \"#utility.yul\":3835:3838   */\n      dup3\n        /* \"#utility.yul\":3828:3832   */\n      0x1f\n        /* \"#utility.yul\":3820:3826   */\n      dup4\n        /* \"#utility.yul\":3816:3833   */\n      add\n        /* \"#utility.yul\":3812:3839   */\n      slt\n        /* \"#utility.yul\":3802:3924   */\n      tag_181\n      jumpi\n        /* \"#utility.yul\":3843:3922   */\n      tag_182\n      tag_97\n      jump\t// in\n    tag_182:\n        /* \"#utility.yul\":3802:3924   */\n    tag_181:\n        /* \"#utility.yul\":3960:3966   */\n      dup2\n        /* \"#utility.yul\":3947:3967   */\n      calldataload\n        /* \"#utility.yul\":3985:4064   */\n      tag_183\n        /* \"#utility.yul\":4060:4063   */\n      dup5\n        /* \"#utility.yul\":4052:4058   */\n      dup3\n        /* \"#utility.yul\":4045:4049   */\n      0x20\n        /* \"#utility.yul\":4037:4043   */\n      dup7\n        /* \"#utility.yul\":4033:4050   */\n      add\n        /* \"#utility.yul\":3985:4064   */\n      tag_105\n      jump\t// in\n    tag_183:\n        /* \"#utility.yul\":3976:4064   */\n      swap2\n      pop\n        /* \"#utility.yul\":3792:4070   */\n      pop\n        /* \"#utility.yul\":3730:4070   */\n      swap3\n      swap2\n      pop\n      pop\n      jump\t// out\n        /* \"#utility.yul\":4076:4730   */\n    tag_29:\n        /* \"#utility.yul\":4154:4160   */\n      0x00\n        /* \"#utility.yul\":4162:4168   */\n      dup1\n        /* \"#utility.yul\":4211:4213   */\n      0x40\n        /* \"#utility.yul\":4199:4208   */\n      dup4\n        /* \"#utility.yul\":4190:4197   */\n      dup6\n        /* \"#utility.yul\":4186:4209   */\n      sub\n        /* \"#utility.yul\":4182:4214   */\n      slt\n        /* \"#utility.yul\":4179:4298   */\n      iszero\n      tag_185\n      jumpi\n        /* \"#utility.yul\":4217:4296   */\n      tag_186\n      tag_91\n      jump\t// in\n    tag_186:\n        /* \"#utility.yul\":4179:4298   */\n    tag_185:\n        /* \"#utility.yul\":4365:4366   */\n      0x00\n        /* \"#utility.yul\":4354:4363   */\n      dup4\n        /* \"#utility.yul\":4350:4367   */\n      add\n        /* \"#utility.yul\":4337:4368   */\n      calldataload\n        /* \"#utility.yul\":4395:4413   */\n      0xffffffffffffffff\n        /* \"#utility.yul\":4387:4393   */\n      dup2\n        /* \"#utility.yul\":4384:4414   */\n      gt\n        /* \"#utility.yul\":4381:4498   */\n      iszero\n      tag_187\n      jumpi\n        /* \"#utility.yul\":4417:4496   */\n      tag_188\n      tag_92\n      jump\t// in\n    tag_188:\n        /* \"#utility.yul\":4381:4498   */\n    tag_187:\n        /* \"#utility.yul\":4522:4585   */\n      tag_189\n        /* \"#utility.yul\":4577:4584   */\n      dup6\n        /* \"#utility.yul\":4568:4574   */\n      dup3\n        /* \"#utility.yul\":4557:4566   */\n      dup7\n        /* \"#utility.yul\":4553:4575   */\n      add\n        /* \"#utility.yul\":4522:4585   */\n      tag_106\n      jump\t// in\n    tag_189:\n        /* \"#utility.yul\":4512:4585   */\n      swap3\n      pop\n        /* \"#utility.yul\":4308:4595   */\n      pop\n        /* \"#utility.yul\":4634:4636   */\n      0x20\n        /* \"#utility.yul\":4660:4713   */\n      tag_190\n        /* \"#utility.yul\":4705:4712   */\n      dup6\n        /* \"#utility.yul\":4696:4702   */\n      dup3\n        /* \"#utility.yul\":4685:4694   */\n      dup7\n        /* \"#utility.yul\":4681:4703   */\n      add\n        /* \"#utility.yul\":4660:4713   */\n      tag_95\n      jump\t// in\n    tag_190:\n        /* \"#utility.yul\":4650:4713   */\n      swap2\n      pop\n        /* \"#utility.yul\":4605:4723   */\n      pop\n        /* \"#utility.yul\":4076:4730   */\n      swap3\n      pop\n      swap3\n      swap1\n      pop\n      jump\t// out\n        /* \"#utility.yul\":4736:5245   */\n    tag_33:\n        /* \"#utility.yul\":4805:4811   */\n      0x00\n        /* \"#utility.yul\":4854:4856   */\n      0x20\n        /* \"#utility.yul\":4842:4851   */\n      dup3\n        /* \"#utility.yul\":4833:4840   */\n      dup5\n        /* \"#utility.yul\":4829:4852   */\n      sub\n        /* \"#utility.yul\":4825:4857   */\n      slt\n        /* \"#utility.yul\":4822:4941   */\n      iszero\n      tag_192\n      jumpi\n        /* \"#utility.yul\":4860:4939   */\n      tag_193\n      tag_91\n      jump\t// in\n    tag_193:\n        /* \"#utility.yul\":4822:4941   */\n    tag_192:\n        /* \"#utility.yul\":5008:5009   */\n      0x00\n        /* \"#utility.yul\":4997:5006   */\n      dup3\n        /* \"#utility.yul\":4993:5010   */\n      add\n        /* \"#utility.yul\":4980:5011   */\n      calldataload\n        /* \"#utility.yul\":5038:5056   */\n      0xffffffffffffffff\n        /* \"#utility.yul\":5030:5036   */\n      dup2\n        /* \"#utility.yul\":5027:5057   */\n      gt\n        /* \"#utility.yul\":5024:5141   */\n      iszero\n      tag_194\n      jumpi\n        /* \"#utility.yul\":5060:5139   */\n      tag_195\n      tag_92\n      jump\t// in\n    tag_195:\n        /* \"#utility.yul\":5024:5141   */\n    tag_194:\n        /* \"#utility.yul\":5165:5228   */\n      tag_196\n        /* \"#utility.yul\":5220:5227   */\n      dup5\n        /* \"#utility.yul\":5211:5217   */\n      dup3\n        /* \"#utility.yul\":5200:5209   */\n      dup6\n        /* \"#utility.yul\":5196:5218   */\n      add\n        /* \"#utility.yul\":5165:5228   */\n      tag_106\n      jump\t// in\n    tag_196:\n        /* \"#utility.yul\":5155:5228   */\n      swap2\n      pop\n        /* \"#utility.yul\":4951:5238   */\n      pop\n        /* \"#utility.yul\":4736:5245   */\n      swap3\n      swap2\n      pop\n      pop\n      jump\t// out\n        /* \"#utility.yul\":5251:5350   */\n    tag_107:\n        /* \"#utility.yul\":5303:5309   */\n      0x00\n        /* \"#utility.yul\":5337:5342   */\n      dup2\n        /* \"#utility.yul\":5331:5343   */\n      mload\n        /* \"#utility.yul\":5321:5343   */\n      swap1\n      pop\n        /* \"#utility.yul\":5251:5350   */\n      swap2\n      swap1\n      pop\n      jump\t// out\n        /* \"#utility.yul\":5356:5525   */\n    tag_108:\n        /* \"#utility.yul\":5440:5451   */\n      0x00\n        /* \"#utility.yul\":5474:5480   */\n      dup3\n        /* \"#utility.yul\":5469:5472   */\n      dup3\n        /* \"#utility.yul\":5462:5481   */\n      mstore\n        /* \"#utility.yul\":5514:5518   */\n      0x20\n        /* \"#utility.yul\":5509:5512   */\n      dup3\n        /* \"#utility.yul\":5505:5519   */\n      add\n        /* \"#utility.yul\":5490:5519   */\n      swap1\n      pop\n        /* \"#utility.yul\":5356:5525   */\n      swap3\n      swap2\n      pop\n      pop\n      jump\t// out\n        /* \"#utility.yul\":5531:5777   */\n    tag_109:\n        /* \"#utility.yul\":5612:5613   */\n      0x00\n        /* \"#utility.yul\":5622:5735   */\n    tag_200:\n        /* \"#utility.yul\":5636:5642   */\n      dup4\n        /* \"#utility.yul\":5633:5634   */\n      dup2\n        /* \"#utility.yul\":5630:5643   */\n      lt\n        /* \"#utility.yul\":5622:5735   */\n      iszero\n      tag_202\n      jumpi\n        /* \"#utility.yul\":5721:5722   */\n      dup1\n        /* \"#utility.yul\":5716:5719   */\n      dup3\n        /* \"#utility.yul\":5712:5723   */\n      add\n        /* \"#utility.yul\":5706:5724   */\n      mload\n        /* \"#utility.yul\":5702:5703   */\n      dup2\n        /* \"#utility.yul\":5697:5700   */\n      dup5\n        /* \"#utility.yul\":5693:5704   */\n      add\n        /* \"#utility.yul\":5686:5725   */\n      mstore\n        /* \"#utility.yul\":5658:5660   */\n      0x20\n        /* \"#utility.yul\":5655:5656   */\n      dup2\n        /* \"#utility.yul\":5651:5661   */\n      add\n        /* \"#utility.yul\":5646:5661   */\n      swap1\n      pop\n        /* \"#utility.yul\":5622:5735   */\n      jump(tag_200)\n    tag_202:\n        /* \"#utility.yul\":5769:5770   */\n      0x00\n        /* \"#utility.yul\":5760:5766   */\n      dup5\n        /* \"#utility.yul\":5755:5758   */\n      dup5\n        /* \"#utility.yul\":5751:5767   */\n      add\n        /* \"#utility.yul\":5744:5771   */\n      mstore\n        /* \"#utility.yul\":5593:5777   */\n      pop\n        /* \"#utility.yul\":5531:5777   */\n      pop\n      pop\n      pop\n      jump\t// out\n        /* \"#utility.yul\":5783:6160   */\n    tag_110:\n        /* \"#utility.yul\":5871:5874   */\n      0x00\n        /* \"#utility.yul\":5899:5938   */\n      tag_204\n        /* \"#utility.yul\":5932:5937   */\n      dup3\n        /* \"#utility.yul\":5899:5938   */\n      tag_107\n      jump\t// in\n    tag_204:\n        /* \"#utility.yul\":5954:6025   */\n      tag_205\n        /* \"#utility.yul\":6018:6024   */\n      dup2\n        /* \"#utility.yul\":6013:6016   */\n      dup6\n        /* \"#utility.yul\":5954:6025   */\n      tag_108\n      jump\t// in\n    tag_205:\n        /* \"#utility.yul\":5947:6025   */\n      swap4\n      pop\n        /* \"#utility.yul\":6034:6099   */\n      tag_206\n        /* \"#utility.yul\":6092:6098   */\n      dup2\n        /* \"#utility.yul\":6087:6090   */\n      dup6\n        /* \"#utility.yul\":6080:6084   */\n      0x20\n        /* \"#utility.yul\":6073:6078   */\n      dup7\n        /* \"#utility.yul\":6069:6085   */\n      add\n        /* \"#utility.yul\":6034:6099   */\n      tag_109\n      jump\t// in\n    tag_206:\n        /* \"#utility.yul\":6124:6153   */\n      tag_207\n        /* \"#utility.yul\":6146:6152   */\n      dup2\n        /* \"#utility.yul\":6124:6153   */\n      tag_99\n      jump\t// in\n    tag_207:\n        /* \"#utility.yul\":6119:6122   */\n      dup5\n        /* \"#utility.yul\":6115:6154   */\n      add\n        /* \"#utility.yul\":6108:6154   */\n      swap2\n      pop\n        /* \"#utility.yul\":5875:6160   */\n      pop\n        /* \"#utility.yul\":5783:6160   */\n      swap3\n      swap2\n      pop\n      pop\n      jump\t// out\n        /* \"#utility.yul\":6166:6589   */\n    tag_40:\n        /* \"#utility.yul\":6307:6311   */\n      0x00\n        /* \"#utility.yul\":6345:6347   */\n      0x40\n        /* \"#utility.yul\":6334:6343   */\n      dup3\n        /* \"#utility.yul\":6330:6348   */\n      add\n        /* \"#utility.yul\":6322:6348   */\n      swap1\n      pop\n        /* \"#utility.yul\":6358:6429   */\n      tag_209\n        /* \"#utility.yul\":6426:6427   */\n      0x00\n        /* \"#utility.yul\":6415:6424   */\n      dup4\n        /* \"#utility.yul\":6411:6428   */\n      add\n        /* \"#utility.yul\":6402:6408   */\n      dup6\n        /* \"#utility.yul\":6358:6429   */\n      tag_96\n      jump\t// in\n    tag_209:\n        /* \"#utility.yul\":6476:6485   */\n      dup2\n        /* \"#utility.yul\":6470:6474   */\n      dup2\n        /* \"#utility.yul\":6466:6486   */\n      sub\n        /* \"#utility.yul\":6461:6463   */\n      0x20\n        /* \"#utility.yul\":6450:6459   */\n      dup4\n        /* \"#utility.yul\":6446:6464   */\n      add\n        /* \"#utility.yul\":6439:6487   */\n      mstore\n        /* \"#utility.yul\":6504:6582   */\n      tag_210\n        /* \"#utility.yul\":6577:6581   */\n      dup2\n        /* \"#utility.yul\":6568:6574   */\n      dup5\n        /* \"#utility.yul\":6504:6582   */\n      tag_110\n      jump\t// in\n    tag_210:\n        /* \"#utility.yul\":6496:6582   */\n      swap1\n      pop\n        /* \"#utility.yul\":6166:6589   */\n      swap4\n      swap3\n      pop\n      pop\n      pop\n      jump\t// out\n        /* \"#utility.yul\":6595:6721   */\n    tag_111:\n        /* \"#utility.yul\":6632:6639   */\n      0x00\n        /* \"#utility.yul\":6672:6714   */\n      0xffffffffffffffffffffffffffffffffffffffff\n        /* \"#utility.yul\":6665:6670   */\n      dup3\n        /* \"#utility.yul\":6661:6715   */\n      and\n        /* \"#utility.yul\":6650:6715   */\n      swap1\n      pop\n        /* \"#utility.yul\":6595:6721   */\n      swap2\n      swap1\n      pop\n      jump\t// out\n        /* \"#utility.yul\":6727:6787   */\n    tag_112:\n        /* \"#utility.yul\":6755:6758   */\n      0x00\n        /* \"#utility.yul\":6776:6781   */\n      dup2\n        /* \"#utility.yul\":6769:6781   */\n      swap1\n      pop\n        /* \"#utility.yul\":6727:6787   */\n      swap2\n      swap1\n      pop\n      jump\t// out\n        /* \"#utility.yul\":6793:6935   */\n    tag_113:\n        /* \"#utility.yul\":6843:6852   */\n      0x00\n        /* \"#utility.yul\":6876:6929   */\n      tag_214\n        /* \"#utility.yul\":6894:6928   */\n      tag_215\n        /* \"#utility.yul\":6903:6927   */\n      tag_216\n        /* \"#utility.yul\":6921:6926   */\n      dup5\n        /* \"#utility.yul\":6903:6927   */\n      tag_111\n      jump\t// in\n    tag_216:\n        /* \"#utility.yul\":6894:6928   */\n      tag_112\n      jump\t// in\n    tag_215:\n        /* \"#utility.yul\":6876:6929   */\n      tag_111\n      jump\t// in\n    tag_214:\n        /* \"#utility.yul\":6863:6929   */\n      swap1\n      pop\n        /* \"#utility.yul\":6793:6935   */\n      swap2\n      swap1\n      pop\n      jump\t// out\n        /* \"#utility.yul\":6941:7067   */\n    tag_114:\n        /* \"#utility.yul\":6991:7000   */\n      0x00\n        /* \"#utility.yul\":7024:7061   */\n      tag_218\n        /* \"#utility.yul\":7055:7060   */\n      dup3\n        /* \"#utility.yul\":7024:7061   */\n      tag_113\n      jump\t// in\n    tag_218:\n        /* \"#utility.yul\":7011:7061   */\n      swap1\n      pop\n        /* \"#utility.yul\":6941:7067   */\n      swap2\n      swap1\n      pop\n      jump\t// out\n        /* \"#utility.yul\":7073:7219   */\n    tag_115:\n        /* \"#utility.yul\":7143:7152   */\n      0x00\n        /* \"#utility.yul\":7176:7213   */\n      tag_220\n        /* \"#utility.yul\":7207:7212   */\n      dup3\n        /* \"#utility.yul\":7176:7213   */\n      tag_114\n      jump\t// in\n    tag_220:\n        /* \"#utility.yul\":7163:7213   */\n      swap1\n      pop\n        /* \"#utility.yul\":7073:7219   */\n      swap2\n      swap1\n      pop\n      jump\t// out\n        /* \"#utility.yul\":7225:7396   */\n    tag_116:\n        /* \"#utility.yul\":7332:7389   */\n      tag_222\n        /* \"#utility.yul\":7383:7388   */\n      dup2\n        /* \"#utility.yul\":7332:7389   */\n      tag_115\n      jump\t// in\n    tag_222:\n        /* \"#utility.yul\":7327:7330   */\n      dup3\n        /* \"#utility.yul\":7320:7390   */\n      mstore\n        /* \"#utility.yul\":7225:7396   */\n      pop\n      pop\n      jump\t// out\n        /* \"#utility.yul\":7402:7664   */\n    tag_49:\n        /* \"#utility.yul\":7515:7519   */\n      0x00\n        /* \"#utility.yul\":7553:7555   */\n      0x20\n        /* \"#utility.yul\":7542:7551   */\n      dup3\n        /* \"#utility.yul\":7538:7556   */\n      add\n        /* \"#utility.yul\":7530:7556   */\n      swap1\n      pop\n        /* \"#utility.yul\":7566:7657   */\n      tag_224\n        /* \"#utility.yul\":7654:7655   */\n      0x00\n        /* \"#utility.yul\":7643:7652   */\n      dup4\n        /* \"#utility.yul\":7639:7656   */\n      add\n        /* \"#utility.yul\":7630:7636   */\n      dup5\n        /* \"#utility.yul\":7566:7657   */\n      tag_116\n      jump\t// in\n    tag_224:\n        /* \"#utility.yul\":7402:7664   */\n      swap3\n      swap2\n      pop\n      pop\n      jump\t// out\n        /* \"#utility.yul\":7670:7850   */\n    tag_53:\n        /* \"#utility.yul\":7718:7795   */\n      0x4e487b7100000000000000000000000000000000000000000000000000000000\n        /* \"#utility.yul\":7715:7716   */\n      0x00\n        /* \"#utility.yul\":7708:7796   */\n      mstore\n        /* \"#utility.yul\":7815:7819   */\n      0x32\n        /* \"#utility.yul\":7812:7813   */\n      0x04\n        /* \"#utility.yul\":7805:7820   */\n      mstore\n        /* \"#utility.yul\":7839:7843   */\n      0x24\n        /* \"#utility.yul\":7836:7837   */\n      0x00\n        /* \"#utility.yul\":7829:7844   */\n      revert\n        /* \"#utility.yul\":7856:8036   */\n    tag_117:\n        /* \"#utility.yul\":7904:7981   */\n      0x4e487b7100000000000000000000000000000000000000000000000000000000\n        /* \"#utility.yul\":7901:7902   */\n      0x00\n        /* \"#utility.yul\":7894:7982   */\n      mstore\n        /* \"#utility.yul\":8001:8005   */\n      0x22\n        /* \"#utility.yul\":7998:7999   */\n      0x04\n        /* \"#utility.yul\":7991:8006   */\n      mstore\n        /* \"#utility.yul\":8025:8029   */\n      0x24\n        /* \"#utility.yul\":8022:8023   */\n      0x00\n        /* \"#utility.yul\":8015:8030   */\n      revert\n        /* \"#utility.yul\":8042:8362   */\n    tag_75:\n        /* \"#utility.yul\":8086:8092   */\n      0x00\n        /* \"#utility.yul\":8123:8124   */\n      0x02\n        /* \"#utility.yul\":8117:8121   */\n      dup3\n        /* \"#utility.yul\":8113:8125   */\n      div\n        /* \"#utility.yul\":8103:8125   */\n      swap1\n      pop\n        /* \"#utility.yul\":8170:8171   */\n      0x01\n        /* \"#utility.yul\":8164:8168   */\n      dup3\n        /* \"#utility.yul\":8160:8172   */\n      and\n        /* \"#utility.yul\":8191:8209   */\n      dup1\n        /* \"#utility.yul\":8181:8262   */\n      tag_228\n      jumpi\n        /* \"#utility.yul\":8247:8251   */\n      0x7f\n        /* \"#utility.yul\":8239:8245   */\n      dup3\n        /* \"#utility.yul\":8235:8252   */\n      and\n        /* \"#utility.yul\":8225:8252   */\n      swap2\n      pop\n        /* \"#utility.yul\":8181:8262   */\n    tag_228:\n        /* \"#utility.yul\":8309:8311   */\n      0x20\n        /* \"#utility.yul\":8301:8307   */\n      dup3\n        /* \"#utility.yul\":8298:8312   */\n      lt\n        /* \"#utility.yul\":8278:8296   */\n      dup2\n        /* \"#utility.yul\":8275:8313   */\n      sub\n        /* \"#utility.yul\":8272:8356   */\n      tag_229\n      jumpi\n        /* \"#utility.yul\":8328:8346   */\n      tag_230\n      tag_117\n      jump\t// in\n    tag_230:\n        /* \"#utility.yul\":8272:8356   */\n    tag_229:\n        /* \"#utility.yul\":8093:8362   */\n      pop\n        /* \"#utility.yul\":8042:8362   */\n      swap2\n      swap1\n      pop\n      jump\t// out\n        /* \"#utility.yul\":8368:8509   */\n    tag_118:\n        /* \"#utility.yul\":8417:8421   */\n      0x00\n        /* \"#utility.yul\":8440:8443   */\n      dup2\n        /* \"#utility.yul\":8432:8443   */\n      swap1\n      pop\n        /* \"#utility.yul\":8463:8466   */\n      dup2\n        /* \"#utility.yul\":8460:8461   */\n      0x00\n        /* \"#utility.yul\":8453:8467   */\n      mstore\n        /* \"#utility.yul\":8497:8501   */\n      0x20\n        /* \"#utility.yul\":8494:8495   */\n      0x00\n        /* \"#utility.yul\":8484:8502   */\n      keccak256\n        /* \"#utility.yul\":8476:8502   */\n      swap1\n      pop\n        /* \"#utility.yul\":8368:8509   */\n      swap2\n      swap1\n      pop\n      jump\t// out\n        /* \"#utility.yul\":8515:8608   */\n    tag_119:\n        /* \"#utility.yul\":8552:8558   */\n      0x00\n        /* \"#utility.yul\":8599:8601   */\n      0x20\n        /* \"#utility.yul\":8594:8596   */\n      0x1f\n        /* \"#utility.yul\":8587:8592   */\n      dup4\n        /* \"#utility.yul\":8583:8597   */\n      add\n        /* \"#utility.yul\":8579:8602   */\n      div\n        /* \"#utility.yul\":8569:8602   */\n      swap1\n      pop\n        /* \"#utility.yul\":8515:8608   */\n      swap2\n      swap1\n      pop\n      jump\t// out\n        /* \"#utility.yul\":8614:8721   */\n    tag_120:\n        /* \"#utility.yul\":8658:8666   */\n      0x00\n        /* \"#utility.yul\":8708:8713   */\n      dup3\n        /* \"#utility.yul\":8702:8706   */\n      dup3\n        /* \"#utility.yul\":8698:8714   */\n      shl\n        /* \"#utility.yul\":8677:8714   */\n      swap1\n      pop\n        /* \"#utility.yul\":8614:8721   */\n      swap3\n      swap2\n      pop\n      pop\n      jump\t// out\n        /* \"#utility.yul\":8727:9120   */\n    tag_121:\n        /* \"#utility.yul\":8796:8802   */\n      0x00\n        /* \"#utility.yul\":8846:8847   */\n      0x08\n        /* \"#utility.yul\":8834:8844   */\n      dup4\n        /* \"#utility.yul\":8830:8848   */\n      mul\n        /* \"#utility.yul\":8869:8966   */\n      tag_235\n        /* \"#utility.yul\":8899:8965   */\n      0xffffffffffffffffffffffffffffffffffffffffffffffffffffffffffffffff\n        /* \"#utility.yul\":8888:8897   */\n      dup3\n        /* \"#utility.yul\":8869:8966   */\n      tag_120\n      jump\t// in\n    tag_235:\n        /* \"#utility.yul\":8987:9026   */\n      tag_236\n        /* \"#utility.yul\":9017:9025   */\n      dup7\n        /* \"#utility.yul\":9006:9015   */\n      dup4\n        /* \"#utility.yul\":8987:9026   */\n      tag_120\n      jump\t// in\n    tag_236:\n        /* \"#utility.yul\":8975:9026   */\n      swap6\n      pop\n        /* \"#utility.yul\":9059:9063   */\n      dup1\n        /* \"#utility.yul\":9055:9064   */\n      not\n        /* \"#utility.yul\":9048:9053   */\n      dup5\n        /* \"#utility.yul\":9044:9065   */\n      and\n        /* \"#utility.yul\":9035:9065   */\n      swap4\n      pop\n        /* \"#utility.yul\":9108:9112   */\n      dup1\n        /* \"#utility.yul\":9098:9106   */\n      dup7\n        /* \"#utility.yul\":9094:9113   */\n      and\n        /* \"#utility.yul\":9087:9092   */\n      dup5\n        /* \"#utility.yul\":9084:9114   */\n      or\n        /* \"#utility.yul\":9074:9114   */\n      swap3\n      pop\n        /* \"#utility.yul\":8803:9120   */\n      pop\n      pop\n        /* \"#utility.yul\":8727:9120   */\n      swap4\n      swap3\n      pop\n      pop\n      pop\n      jump\t// out\n        /* \"#utility.yul\":9126:9268   */\n    tag_122:\n        /* \"#utility.yul\":9176:9185   */\n      0x00\n        /* \"#utility.yul\":9209:9262   */\n      tag_238\n        /* \"#utility.yul\":9227:9261   */\n      tag_239\n        /* \"#utility.yul\":9236:9260   */\n      tag_240\n        /* \"#utility.yul\":9254:9259   */\n      dup5\n        /* \"#utility.yul\":9236:9260   */\n      tag_93\n      jump\t// in\n    tag_240:\n        /* \"#utility.yul\":9227:9261   */\n      tag_112\n      jump\t// in\n    tag_239:\n        /* \"#utility.yul\":9209:9262   */\n      tag_93\n      jump\t// in\n    tag_238:\n        /* \"#utility.yul\":9196:9262   */\n      swap1\n      pop\n        /* \"#utility.yul\":9126:9268   */\n      swap2\n      swap1\n      pop\n      jump\t// out\n        /* \"#utility.yul\":9274:9349   */\n    tag_123:\n        /* \"#utility.yul\":9317:9320   */\n      0x00\n        /* \"#utility.yul\":9338:9343   */\n      dup2\n        /* \"#utility.yul\":9331:9343   */\n      swap1\n      pop\n        /* \"#utility.yul\":9274:9349   */\n      swap2\n      swap1\n      pop\n      jump\t// out\n        /* \"#utility.yul\":9355:9624   */\n    tag_124:\n        /* \"#utility.yul\":9465:9504   */\n      tag_243\n        /* \"#utility.yul\":9496:9503   */\n      dup4\n        /* \"#utility.yul\":9465:9504   */\n      tag_122\n      jump\t// in\n    tag_243:\n        /* \"#utility.yul\":9526:9617   */\n      tag_244\n        /* \"#utility.yul\":9575:9616   */\n      tag_245\n        /* \"#utility.yul\":9599:9615   */\n      dup3\n        /* \"#utility.yul\":9575:9616   */\n      tag_123\n      jump\t// in\n    tag_245:\n        /* \"#utility.yul\":9567:9573   */\n      dup5\n        /* \"#utility.yul\":9560:9564   */\n      dup5\n        /* \"#utility.yul\":9554:9565   */\n      sload\n        /* \"#utility.yul\":9526:9617   */\n      tag_121\n      jump\t// in\n    tag_244:\n        /* \"#utility.yul\":9520:9524   */\n      dup3\n        /* \"#utility.yul\":9513:9618   */\n      sstore\n        /* \"#utility.yul\":9431:9624   */\n      pop\n        /* \"#utility.yul\":9355:9624   */\n      pop\n      pop\n      pop\n      jump\t// out\n        /* \"#utility.yul\":9630:9703   */\n    tag_125:\n        /* \"#utility.yul\":9675:9678   */\n      0x00\n        /* \"#utility.yul\":9630:9703   */\n      swap1\n      jump\t// out\n        /* \"#utility.yul\":9709:9898   */\n    tag_126:\n        /* \"#utility.yul\":9786:9818   */\n      tag_248\n      tag_125\n      jump\t// in\n    tag_248:\n        /* \"#utility.yul\":9827:9892   */\n      tag_249\n        /* \"#utility.yul\":9885:9891   */\n      dup2\n        /* \"#utility.yul\":9877:9883   */\n      dup5\n        /* \"#utility.yul\":9871:9875   */\n      dup5\n        /* \"#utility.yul\":9827:9892   */\n      tag_124\n      jump\t// in\n    tag_249:\n        /* \"#utility.yul\":9762:9898   */\n      pop\n        /* \"#utility.yul\":9709:9898   */\n      pop\n      pop\n      jump\t// out\n        /* \"#utility.yul\":9904:10090   */\n    tag_127:\n        /* \"#utility.yul\":9964:10084   */\n    tag_251:\n        /* \"#utility.yul\":9981:9984   */\n      dup2\n        /* \"#utility.yul\":9974:9979   */\n      dup2\n        /* \"#utility.yul\":9971:9985   */\n      lt\n        /* \"#utility.yul\":9964:10084   */\n      iszero\n      tag_253\n      jumpi\n        /* \"#utility.yul\":10035:10074   */\n      tag_254\n        /* \"#utility.yul\":10072:10073   */\n      0x00\n        /* \"#utility.yul\":10065:10070   */\n      dup3\n        /* \"#utility.yul\":10035:10074   */\n      tag_126\n      jump\t// in\n    tag_254:\n        /* \"#utility.yul\":10008:10009   */\n      0x01\n        /* \"#utility.yul\":10001:10006   */\n      dup2\n        /* \"#utility.yul\":9997:10010   */\n      add\n        /* \"#utility.yul\":9988:10010   */\n      swap1\n      pop\n        /* \"#utility.yul\":9964:10084   */\n      jump(tag_251)\n    tag_253:\n        /* \"#utility.yul\":9904:10090   */\n      pop\n      pop\n      jump\t// out\n        /* \"#utility.yul\":10096:10639   */\n    tag_128:\n        /* \"#utility.yul\":10197:10199   */\n      0x1f\n        /* \"#utility.yul\":10192:10195   */\n      dup3\n        /* \"#utility.yul\":10189:10200   */\n      gt\n        /* \"#utility.yul\":10186:10632   */\n      iszero\n      tag_256\n      jumpi\n        /* \"#utility.yul\":10231:10269   */\n      tag_257\n        /* \"#utility.yul\":10263:10268   */\n      dup2\n        /* \"#utility.yul\":10231:10269   */\n      tag_118\n      jump\t// in\n    tag_257:\n        /* \"#utility.yul\":10315:10344   */\n      tag_258\n        /* \"#utility.yul\":10333:10343   */\n      dup5\n        /* \"#utility.yul\":10315:10344   */\n      tag_119\n      jump\t// in\n    tag_258:\n        /* \"#utility.yul\":10305:10313   */\n      dup2\n        /* \"#utility.yul\":10301:10345   */\n      add\n        /* \"#utility.yul\":10498:10500   */\n      0x20\n        /* \"#utility.yul\":10486:10496   */\n      dup6\n        /* \"#utility.yul\":10483:10501   */\n      lt\n        /* \"#utility.yul\":10480:10529   */\n      iszero\n      tag_259\n      jumpi\n        /* \"#utility.yul\":10519:10527   */\n      dup2\n        /* \"#utility.yul\":10504:10527   */\n      swap1\n      pop\n        /* \"#utility.yul\":10480:10529   */\n    tag_259:\n        /* \"#utility.yul\":10542:10622   */\n      tag_260\n        /* \"#utility.yul\":10598:10620   */\n      tag_261\n        /* \"#utility.yul\":10616:10619   */\n      dup6\n        /* \"#utility.yul\":10598:10620   */\n      tag_119\n      jump\t// in\n    tag_261:\n        /* \"#utility.yul\":10588:10596   */\n      dup4\n        /* \"#utility.yul\":10584:10621   */\n      add\n        /* \"#utility.yul\":10571:10582   */\n      dup3\n        /* \"#utility.yul\":10542:10622   */\n      tag_127\n      jump\t// in\n    tag_260:\n        /* \"#utility.yul\":10201:10632   */\n      pop\n      pop\n        /* \"#utility.yul\":10186:10632   */\n    tag_256:\n        /* \"#utility.yul\":10096:10639   */\n      pop\n      pop\n      pop\n      jump\t// out\n        /* \"#utility.yul\":10645:10762   */\n    tag_129:\n        /* \"#utility.yul\":10699:10707   */\n      0x00\n        /* \"#utility.yul\":10749:10754   */\n      dup3\n        /* \"#utility.yul\":10743:10747   */\n      dup3\n        /* \"#utility.yul\":10739:10755   */\n      shr\n        /* \"#utility.yul\":10718:10755   */\n      swap1\n      pop\n        /* \"#utility.yul\":10645:10762   */\n      swap3\n      swap2\n      pop\n      pop\n      jump\t// out\n        /* \"#utility.yul\":10768:10937   */\n    tag_130:\n        /* \"#utility.yul\":10812:10818   */\n      0x00\n        /* \"#utility.yul\":10845:10896   */\n      tag_264\n        /* \"#utility.yul\":10893:10894   */\n      0x00\n        /* \"#utility.yul\":10889:10895   */\n      not\n        /* \"#utility.yul\":10881:10886   */\n      dup5\n        /* \"#utility.yul\":10878:10879   */\n      0x08\n        /* \"#utility.yul\":10874:10887   */\n      mul\n        /* \"#utility.yul\":10845:10896   */\n      tag_129\n      jump\t// in\n    tag_264:\n        /* \"#utility.yul\":10841:10897   */\n      not\n        /* \"#utility.yul\":10926:10930   */\n      dup1\n        /* \"#utility.yul\":10920:10924   */\n      dup4\n        /* \"#utility.yul\":10916:10931   */\n      and\n        /* \"#utility.yul\":10906:10931   */\n      swap2\n      pop\n        /* \"#utility.yul\":10819:10937   */\n      pop\n        /* \"#utility.yul\":10768:10937   */\n      swap3\n      swap2\n      pop\n      pop\n      jump\t// out\n        /* \"#utility.yul\":10942:11237   */\n    tag_131:\n        /* \"#utility.yul\":11018:11022   */\n      0x00\n        /* \"#utility.yul\":11164:11193   */\n      tag_266\n        /* \"#utility.yul\":11189:11192   */\n      dup4\n        /* \"#utility.yul\":11183:11187   */\n      dup4\n        /* \"#utility.yul\":11164:11193   */\n      tag_130\n      jump\t// in\n    tag_266:\n        /* \"#utility.yul\":11156:11193   */\n      swap2\n      pop\n        /* \"#utility.yul\":11226:11229   */\n      dup3\n        /* \"#utility.yul\":11223:11224   */\n      0x02\n        /* \"#utility.yul\":11219:11230   */\n      mul\n        /* \"#utility.yul\":11213:11217   */\n      dup3\n        /* \"#utility.yul\":11210:11231   */\n      or\n        /* \"#utility.yul\":11202:11231   */\n      swap1\n      pop\n        /* \"#utility.yul\":10942:11237   */\n      swap3\n      swap2\n      pop\n      pop\n      jump\t// out\n        /* \"#utility.yul\":11242:12637   */\n    tag_69:\n        /* \"#utility.yul\":11359:11396   */\n      tag_268\n        /* \"#utility.yul\":11392:11395   */\n      dup3\n        /* \"#utility.yul\":11359:11396   */\n      tag_107\n      jump\t// in\n    tag_268:\n        /* \"#utility.yul\":11461:11479   */\n      0xffffffffffffffff\n        /* \"#utility.yul\":11453:11459   */\n      dup2\n        /* \"#utility.yul\":11450:11480   */\n      gt\n        /* \"#utility.yul\":11447:11503   */\n      iszero\n      tag_269\n      jumpi\n        /* \"#utility.yul\":11483:11501   */\n      tag_270\n      tag_100\n      jump\t// in\n    tag_270:\n        /* \"#utility.yul\":11447:11503   */\n    tag_269:\n        /* \"#utility.yul\":11527:11565   */\n      tag_271\n        /* \"#utility.yul\":11559:11563   */\n      dup3\n        /* \"#utility.yul\":11553:11564   */\n      sload\n        /* \"#utility.yul\":11527:11565   */\n      tag_75\n      jump\t// in\n    tag_271:\n        /* \"#utility.yul\":11612:11679   */\n      tag_272\n        /* \"#utility.yul\":11672:11678   */\n      dup3\n        /* \"#utility.yul\":11664:11670   */\n      dup3\n        /* \"#utility.yul\":11658:11662   */\n      dup6\n        /* \"#utility.yul\":11612:11679   */\n      tag_128\n      jump\t// in\n    tag_272:\n        /* \"#utility.yul\":11706:11707   */\n      0x00\n        /* \"#utility.yul\":11730:11734   */\n      0x20\n        /* \"#utility.yul\":11717:11734   */\n      swap1\n      pop\n        /* \"#utility.yul\":11762:11764   */\n      0x1f\n        /* \"#utility.yul\":11754:11760   */\n      dup4\n        /* \"#utility.yul\":11751:11765   */\n      gt\n        /* \"#utility.yul\":11779:11780   */\n      0x01\n        /* \"#utility.yul\":11774:12392   */\n      dup2\n      eq\n      tag_274\n      jumpi\n        /* \"#utility.yul\":12436:12437   */\n      0x00\n        /* \"#utility.yul\":12453:12459   */\n      dup5\n        /* \"#utility.yul\":12450:12527   */\n      iszero\n      tag_275\n      jumpi\n        /* \"#utility.yul\":12502:12511   */\n      dup3\n        /* \"#utility.yul\":12497:12500   */\n      dup8\n        /* \"#utility.yul\":12493:12512   */\n      add\n        /* \"#utility.yul\":12487:12513   */\n      mload\n        /* \"#utility.yul\":12478:12513   */\n      swap1\n      pop\n        /* \"#utility.yul\":12450:12527   */\n    tag_275:\n        /* \"#utility.yul\":12553:12620   */\n      tag_276\n        /* \"#utility.yul\":12613:12619   */\n      dup6\n        /* \"#utility.yul\":12606:12611   */\n      dup3\n        /* \"#utility.yul\":12553:12620   */\n      tag_131\n      jump\t// in\n    tag_276:\n        /* \"#utility.yul\":12547:12551   */\n      dup7\n        /* \"#utility.yul\":12540:12621   */\n      sstore\n        /* \"#utility.yul\":12409:12631   */\n      pop\n        /* \"#utility.yul\":11744:12631   */\n      jump(tag_273)\n        /* \"#utility.yul\":11774:12392   */\n    tag_274:\n        /* \"#utility.yul\":11826:11830   */\n      0x1f\n        /* \"#utility.yul\":11822:11831   */\n      not\n        /* \"#utility.yul\":11814:11820   */\n      dup5\n        /* \"#utility.yul\":11810:11832   */\n      and\n        /* \"#utility.yul\":11860:11897   */\n      tag_277\n        /* \"#utility.yul\":11892:11896   */\n      dup7\n        /* \"#utility.yul\":11860:11897   */\n      tag_118\n      jump\t// in\n    tag_277:\n        /* \"#utility.yul\":11919:11920   */\n      0x00\n        /* \"#utility.yul\":11933:12141   */\n    tag_278:\n        /* \"#utility.yul\":11947:11954   */\n      dup3\n        /* \"#utility.yul\":11944:11945   */\n      dup2\n        /* \"#utility.yul\":11941:11955   */\n      lt\n        /* \"#utility.yul\":11933:12141   */\n      iszero\n      tag_280\n      jumpi\n        /* \"#utility.yul\":12026:12035   */\n      dup5\n        /* \"#utility.yul\":12021:12024   */\n      dup10\n        /* \"#utility.yul\":12017:12036   */\n      add\n        /* \"#utility.yul\":12011:12037   */\n      mload\n        /* \"#utility.yul\":12003:12009   */\n      dup3\n        /* \"#utility.yul\":11996:12038   */\n      sstore\n        /* \"#utility.yul\":12077:12078   */\n      0x01\n        /* \"#utility.yul\":12069:12075   */\n      dup3\n        /* \"#utility.yul\":12065:12079   */\n      add\n        /* \"#utility.yul\":12055:12079   */\n      swap2\n      pop\n        /* \"#utility.yul\":12124:12126   */\n      0x20\n        /* \"#utility.yul\":12113:12122   */\n      dup6\n        /* \"#utility.yul\":12109:12127   */\n      add\n        /* \"#utility.yul\":12096:12127   */\n      swap5\n      pop\n        /* \"#utility.yul\":11970:11974   */\n      0x20\n        /* \"#utility.yul\":11967:11968   */\n      dup2\n        /* \"#utility.yul\":11963:11975   */\n      add\n        /* \"#utility.yul\":11958:11975   */\n      swap1\n      pop\n        /* \"#utility.yul\":11933:12141   */\n      jump(tag_278)\n    tag_280:\n        /* \"#utility.yul\":12169:12175   */\n      dup7\n        /* \"#utility.yul\":12160:12167   */\n      dup4\n        /* \"#utility.yul\":12157:12176   */\n      lt\n        /* \"#utility.yul\":12154:12333   */\n      iszero\n      tag_281\n      jumpi\n        /* \"#utility.yul\":12227:12236   */\n      dup5\n        /* \"#utility.yul\":12222:12225   */\n      dup10\n        /* \"#utility.yul\":12218:12237   */\n      add\n        /* \"#utility.yul\":12212:12238   */\n      mload\n        /* \"#utility.yul\":12270:12318   */\n      tag_282\n        /* \"#utility.yul\":12312:12316   */\n      0x1f\n        /* \"#utility.yul\":12304:12310   */\n      dup10\n        /* \"#utility.yul\":12300:12317   */\n      and\n        /* \"#utility.yul\":12289:12298   */\n      dup3\n        /* \"#utility.yul\":12270:12318   */\n      tag_130\n      jump\t// in\n    tag_282:\n        /* \"#utility.yul\":12262:12268   */\n      dup4\n        /* \"#utility.yul\":12255:12319   */\n      sstore\n        /* \"#utility.yul\":12177:12333   */\n      pop\n        /* \"#utility.yul\":12154:12333   */\n    tag_281:\n        /* \"#utility.yul\":12379:12380   */\n      0x01\n        /* \"#utility.yul\":12375:12376   */\n      0x02\n        /* \"#utility.yul\":12367:12373   */\n      dup9\n        /* \"#utility.yul\":12363:12377   */\n      mul\n        /* \"#utility.yul\":12359:12381   */\n      add\n        /* \"#utility.yul\":12353:12357   */\n      dup9\n        /* \"#utility.yul\":12346:12382   */\n      sstore\n        /* \"#utility.yul\":11781:12392   */\n      pop\n      pop\n      pop\n        /* \"#utility.yul\":11744:12631   */\n    tag_273:\n      pop\n        /* \"#utility.yul\":11334:12637   */\n      pop\n      pop\n      pop\n        /* \"#utility.yul\":11242:12637   */\n      pop\n      pop\n      jump\t// out\n        /* \"#utility.yul\":12643:12791   */\n    tag_132:\n        /* \"#utility.yul\":12745:12756   */\n      0x00\n        /* \"#utility.yul\":12782:12785   */\n      dup2\n        /* \"#utility.yul\":12767:12785   */\n      swap1\n      pop\n        /* \"#utility.yul\":12643:12791   */\n      swap3\n      swap2\n      pop\n      pop\n      jump\t// out\n        /* \"#utility.yul\":12797:13187   */\n    tag_133:\n        /* \"#utility.yul\":12903:12906   */\n      0x00\n        /* \"#utility.yul\":12931:12970   */\n      tag_285\n        /* \"#utility.yul\":12964:12969   */\n      dup3\n        /* \"#utility.yul\":12931:12970   */\n      tag_107\n      jump\t// in\n    tag_285:\n        /* \"#utility.yul\":12986:13075   */\n      tag_286\n        /* \"#utility.yul\":13068:13074   */\n      dup2\n        /* \"#utility.yul\":13063:13066   */\n      dup6\n        /* \"#utility.yul\":12986:13075   */\n      tag_132\n      jump\t// in\n    tag_286:\n        /* \"#utility.yul\":12979:13075   */\n      swap4\n      pop\n        /* \"#utility.yul\":13084:13149   */\n      tag_287\n        /* \"#utility.yul\":13142:13148   */\n      dup2\n        /* \"#utility.yul\":13137:13140   */\n      dup6\n        /* \"#utility.yul\":13130:13134   */\n      0x20\n        /* \"#utility.yul\":13123:13128   */\n      dup7\n        /* \"#utility.yul\":13119:13135   */\n      add\n        /* \"#utility.yul\":13084:13149   */\n      tag_109\n      jump\t// in\n    tag_287:\n        /* \"#utility.yul\":13174:13180   */\n      dup1\n        /* \"#utility.yul\":13169:13172   */\n      dup5\n        /* \"#utility.yul\":13165:13181   */\n      add\n        /* \"#utility.yul\":13158:13181   */\n      swap2\n      pop\n        /* \"#utility.yul\":12907:13187   */\n      pop\n        /* \"#utility.yul\":12797:13187   */\n      swap3\n      swap2\n      pop\n      pop\n      jump\t// out\n        /* \"#utility.yul\":13193:13468   */\n    tag_71:\n        /* \"#utility.yul\":13325:13328   */\n      0x00\n        /* \"#utility.yul\":13347:13442   */\n      tag_289\n        /* \"#utility.yul\":13438:13441   */\n      dup3\n        /* \"#utility.yul\":13429:13435   */\n      dup5\n        /* \"#utility.yul\":13347:13442   */\n      tag_133\n      jump\t// in\n    tag_289:\n        /* \"#utility.yul\":13340:13442   */\n      swap2\n      pop\n        /* \"#utility.yul\":13459:13462   */\n      dup2\n        /* \"#utility.yul\":13452:13462   */\n      swap1\n      pop\n        /* \"#utility.yul\":13193:13468   */\n      swap3\n      swap2\n      pop\n      pop\n      jump\t// out\n        /* \"#utility.yul\":13474:13617   */\n    tag_134:\n        /* \"#utility.yul\":13531:13536   */\n      0x00\n        /* \"#utility.yul\":13562:13568   */\n      dup2\n        /* \"#utility.yul\":13556:13569   */\n      mload\n        /* \"#utility.yul\":13547:13569   */\n      swap1\n      pop\n        /* \"#utility.yul\":13578:13611   */\n      tag_291\n        /* \"#utility.yul\":13605:13610   */\n      dup2\n        /* \"#utility.yul\":13578:13611   */\n      tag_94\n      jump\t// in\n    tag_291:\n        /* \"#utility.yul\":13474:13617   */\n      swap3\n      swap2\n      pop\n      pop\n      jump\t// out\n        /* \"#utility.yul\":13623:13974   */\n    tag_87:\n        /* \"#utility.yul\":13693:13699   */\n      0x00\n        /* \"#utility.yul\":13742:13744   */\n      0x20\n        /* \"#utility.yul\":13730:13739   */\n      dup3\n        /* \"#utility.yul\":13721:13728   */\n      dup5\n        /* \"#utility.yul\":13717:13740   */\n      sub\n        /* \"#utility.yul\":13713:13745   */\n      slt\n        /* \"#utility.yul\":13710:13829   */\n      iszero\n      tag_293\n      jumpi\n        /* \"#utility.yul\":13748:13827   */\n      tag_294\n      tag_91\n      jump\t// in\n    tag_294:\n        /* \"#utility.yul\":13710:13829   */\n    tag_293:\n        /* \"#utility.yul\":13868:13869   */\n      0x00\n        /* \"#utility.yul\":13893:13957   */\n      tag_295\n        /* \"#utility.yul\":13949:13956   */\n      dup5\n        /* \"#utility.yul\":13940:13946   */\n      dup3\n        /* \"#utility.yul\":13929:13938   */\n      dup6\n        /* \"#utility.yul\":13925:13947   */\n      add\n        /* \"#utility.yul\":13893:13957   */\n      tag_134\n      jump\t// in\n    tag_295:\n        /* \"#utility.yul\":13883:13957   */\n      swap2\n      pop\n        /* \"#utility.yul\":13839:13967   */\n      pop\n        /* \"#utility.yul\":13623:13974   */\n      swap3\n      swap2\n      pop\n      pop\n      jump\t// out\n    stop\n\n    sub_0: assembly {\n            /* \"contracts/SimpleStorage.sol\":65:732  contract SimpleStorage {... */\n          mstore(0x40, 0x80)\n            /* \"contracts/SimpleStorage.sol\":142:147  false */\n          0x00\n            /* \"contracts/SimpleStorage.sol\":122:147  bool favoriteBool = false */\n          0x01\n          exp(0x0100, 0x00)\n          dup2\n          sload\n          dup2\n          0xff\n          mul\n          not\n          and\n          swap1\n          dup4\n          iszero\n          iszero\n          mul\n          or\n          swap1\n          sstore\n          pop\n            /* \"contracts/SimpleStorage.sol\":65:732  contract SimpleStorage {... */\n          callvalue\n          dup1\n          iszero\n          tag_1\n          jumpi\n          0x00\n          dup1\n          revert\n        tag_1:\n          pop\n          dataSize(sub_0)\n          dup1\n          dataOffset(sub_0)\n          0x00\n          codecopy\n          0x00\n          return\n        stop\n\n        sub_0: assembly {\n                /* \"contracts/SimpleStorage.sol\":65:732  contract SimpleStorage {... */\n              mstore(0x40, 0x80)\n              callvalue\n              dup1\n              iszero\n              tag_1\n              jumpi\n              0x00\n              dup1\n              revert\n            tag_1:\n              pop\n              jumpi(tag_2, lt(calldatasize, 0x04))\n              shr(0xe0, calldataload(0x00))\n              dup1\n              0x2e64cec1\n              eq\n              tag_3\n              jumpi\n              dup1\n              0x6057361d\n              eq\n              tag_4\n              jumpi\n              dup1\n              0x6f760f41\n              eq\n              tag_5\n              jumpi\n              dup1\n              0x8bab8dd5\n              eq\n              tag_6\n              jumpi\n              dup1\n              0x9e7a13ad\n              eq\n              tag_7\n              jumpi\n            tag_2:\n              0x00\n              dup1\n              revert\n                /* \"contracts/SimpleStorage.sol\":642:730  function retrieve() public view returns (uint256) {... */\n            tag_3:\n              tag_8\n              tag_9\n              jump\t// in\n            tag_8:\n              mload(0x40)\n              tag_10\n              swap2\n              swap1\n              tag_11\n              jump\t// in\n            tag_10:\n              mload(0x40)\n              dup1\n              swap2\n              sub\n              swap1\n              return\n                /* \"contracts/SimpleStorage.sol\":323:419  function store(uint256 _favoriteNumber) public {... */\n            tag_4:\n              tag_12\n              0x04\n              dup1\n              calldatasize\n              sub\n              dup2\n              add\n              swap1\n              tag_13\n              swap2\n              swap1\n              tag_14\n              jump\t// in\n            tag_13:\n              tag_15\n              jump\t// in\n            tag_12:\n              stop\n                /* \"contracts/SimpleStorage.sol\":425:636  function addPerson(string memory _name, uint256 _favoriteNumber) public {... */\n            tag_5:\n              tag_16\n              0x04\n              dup1\n              calldatasize\n              sub\n              dup2\n              add\n              swap1\n              tag_17\n              swap2\n              swap1\n              tag_18\n              jump\t// in\n            tag_17:\n              tag_19\n              jump\t// in\n            tag_16:\n              stop\n                /* \"contracts/SimpleStorage.sol\":262:316  mapping(string => uint256) public nameToFavoriteNumber */\n            tag_6:\n              tag_20\n              0x04\n              dup1\n              calldatasize\n              sub\n              dup2\n              add\n              swap1\n              tag_21\n              swap2\n              swap1\n              tag_22\n              jump\t// in\n            tag_21:\n              tag_23\n              jump\t// in\n            tag_20:\n              mload(0x40)\n              tag_24\n              swap2\n              swap1\n              tag_11\n              jump\t// in\n            tag_24:\n              mload(0x40)\n              dup1\n              swap2\n              sub\n              swap1\n              return\n                /* \"contracts/SimpleStorage.sol\":234:256  People[] public people */\n            tag_7:\n              tag_25\n              0x04\n              dup1\n              calldatasize\n              sub\n              dup2\n              add\n              swap1\n              tag_26\n              swap2\n              swap1\n              tag_14\n              jump\t// in\n            tag_26:\n              tag_27\n              jump\t// in\n            tag_25:\n              mload(0x40)\n              tag_28\n              swap3\n              swap2\n              swap1\n              tag_29\n              jump\t// in\n            tag_28:\n              mload(0x40)\n              dup1\n              swap2\n              sub\n              swap1\n              return\n                /* \"contracts/SimpleStorage.sol\":642:730  function retrieve() public view returns (uint256) {... */\n            tag_9:\n                /* \"contracts/SimpleStorage.sol\":683:690  uint256 */\n              0x00\n                /* \"contracts/SimpleStorage.sol\":709:723  favoriteNumber */\n              dup1\n              sload\n                /* \"contracts/SimpleStorage.sol\":702:723  return favoriteNumber */\n              swap1\n              pop\n                /* \"contracts/SimpleStorage.sol\":642:730  function retrieve() public view returns (uint256) {... */\n              swap1\n              jump\t// out\n                /* \"contracts/SimpleStorage.sol\":323:419  function store(uint256 _favoriteNumber) public {... */\n            tag_15:\n                /* \"contracts/SimpleStorage.sol\":397:412  _favoriteNumber */\n              dup1\n                /* \"contracts/SimpleStorage.sol\":380:394  favoriteNumber */\n              0x00\n                /* \"contracts/SimpleStorage.sol\":380:412  favoriteNumber = _favoriteNumber */\n              dup2\n              swap1\n              sstore\n              pop\n                /* \"contracts/SimpleStorage.sol\":323:419  function store(uint256 _favoriteNumber) public {... */\n              pop\n              jump\t// out\n                /* \"contracts/SimpleStorage.sol\":425:636  function addPerson(string memory _name, uint256 _favoriteNumber) public {... */\n            tag_19:\n                /* \"contracts/SimpleStorage.sol\":507:513  people */\n              0x02\n                /* \"contracts/SimpleStorage.sol\":519:573  People({favoriteNumber: _favoriteNumber, name: _name}) */\n              mload(0x40)\n              dup1\n              0x40\n              add\n              0x40\n              mstore\n              dup1\n                /* \"contracts/SimpleStorage.sol\":543:558  _favoriteNumber */\n              dup4\n                /* \"contracts/SimpleStorage.sol\":519:573  People({favoriteNumber: _favoriteNumber, name: _name}) */\n              dup2\n              mstore\n              0x20\n              add\n                /* \"contracts/SimpleStorage.sol\":566:571  _name */\n              dup5\n                /* \"contracts/SimpleStorage.sol\":519:573  People({favoriteNumber: _favoriteNumber, name: _name}) */\n              dup2\n              mstore\n              pop\n                /* \"contracts/SimpleStorage.sol\":507:574  people.push(People({favoriteNumber: _favoriteNumber, name: _name})) */\n              swap1\n              dup1\n              0x01\n              dup2\n              sload\n              add\n              dup1\n              dup3\n              sstore\n              dup1\n              swap2\n              pop\n              pop\n              0x01\n              swap1\n              sub\n              swap1\n              0x00\n              mstore\n              keccak256(0x00, 0x20)\n              swap1\n              0x02\n              mul\n              add\n              0x00\n              swap1\n              swap2\n              swap1\n              swap2\n              swap1\n              swap2\n              pop\n              0x00\n              dup3\n              add\n              mload\n              dup2\n              0x00\n              add\n              sstore\n              0x20\n              dup3\n              add\n              mload\n              dup2\n              0x01\n              add\n              swap1\n              dup2\n              tag_34\n              swap2\n              swap1\n              tag_35\n              jump\t// in\n            tag_34:\n              pop\n              pop\n              pop\n                /* \"contracts/SimpleStorage.sol\":614:629  _favoriteNumber */\n              dup1\n                /* \"contracts/SimpleStorage.sol\":584:604  nameToFavoriteNumber */\n              0x03\n                /* \"contracts/SimpleStorage.sol\":605:610  _name */\n              dup4\n                /* \"contracts/SimpleStorage.sol\":584:611  nameToFavoriteNumber[_name] */\n              mload(0x40)\n              tag_36\n              swap2\n              swap1\n              tag_37\n              jump\t// in\n            tag_36:\n              swap1\n              dup2\n              mstore\n              0x20\n              add\n              mload(0x40)\n              dup1\n              swap2\n              sub\n              swap1\n              keccak256\n                /* \"contracts/SimpleStorage.sol\":584:629  nameToFavoriteNumber[_name] = _favoriteNumber */\n              dup2\n              swap1\n              sstore\n              pop\n                /* \"contracts/SimpleStorage.sol\":425:636  function addPerson(string memory _name, uint256 _favoriteNumber) public {... */\n              pop\n              pop\n              jump\t// out\n                /* \"contracts/SimpleStorage.sol\":262:316  mapping(string => uint256) public nameToFavoriteNumber */\n            tag_23:\n              0x03\n              dup2\n              dup1\n              mload\n              0x20\n              dup2\n              add\n              dup3\n              add\n              dup1\n              mload\n              dup5\n              dup3\n              mstore\n              0x20\n              dup4\n              add\n              0x20\n              dup6\n              add\n              keccak256\n              dup2\n              dup4\n              mstore\n              dup1\n              swap6\n              pop\n              pop\n              pop\n              pop\n              pop\n              pop\n              0x00\n              swap2\n              pop\n              swap1\n              pop\n              sload\n              dup2\n              jump\t// out\n                /* \"contracts/SimpleStorage.sol\":234:256  People[] public people */\n            tag_27:\n              0x02\n              dup2\n              dup2\n              sload\n              dup2\n              lt\n              tag_38\n              jumpi\n              0x00\n              dup1\n              revert\n            tag_38:\n              swap1\n              0x00\n              mstore\n              keccak256(0x00, 0x20)\n              swap1\n              0x02\n              mul\n              add\n              0x00\n              swap2\n              pop\n              swap1\n              pop\n              dup1\n              0x00\n              add\n              sload\n              swap1\n              dup1\n              0x01\n              add\n              dup1\n              sload\n              tag_40\n              swap1\n              tag_41\n              jump\t// in\n            tag_40:\n              dup1\n              0x1f\n              add\n              0x20\n              dup1\n              swap2\n              div\n              mul\n              0x20\n              add\n              mload(0x40)\n              swap1\n              dup2\n              add\n              0x40\n              mstore\n              dup1\n              swap3\n              swap2\n              swap1\n              dup2\n              dup2\n              mstore\n              0x20\n              add\n              dup3\n              dup1\n              sload\n              tag_42\n              swap1\n              tag_41\n              jump\t// in\n            tag_42:\n              dup1\n              iszero\n              tag_43\n              jumpi\n              dup1\n              0x1f\n              lt\n              tag_44\n              jumpi\n              0x0100\n              dup1\n              dup4\n              sload\n              div\n              mul\n              dup4\n              mstore\n              swap2\n              0x20\n              add\n              swap2\n              jump(tag_43)\n            tag_44:\n              dup3\n              add\n              swap2\n              swap1\n              0x00\n              mstore\n              keccak256(0x00, 0x20)\n              swap1\n            tag_45:\n              dup2\n              sload\n              dup2\n              mstore\n              swap1\n              0x01\n              add\n              swap1\n              0x20\n              add\n              dup1\n              dup4\n              gt\n              tag_45\n              jumpi\n              dup3\n              swap1\n              sub\n              0x1f\n              and\n              dup3\n              add\n              swap2\n            tag_43:\n              pop\n              pop\n              pop\n              pop\n              pop\n              swap1\n              pop\n              dup3\n              jump\t// out\n                /* \"#utility.yul\":7:84   */\n            tag_46:\n                /* \"#utility.yul\":44:51   */\n              0x00\n                /* \"#utility.yul\":73:78   */\n              dup2\n                /* \"#utility.yul\":62:78   */\n              swap1\n              pop\n                /* \"#utility.yul\":7:84   */\n              swap2\n              swap1\n              pop\n              jump\t// out\n                /* \"#utility.yul\":90:208   */\n            tag_47:\n                /* \"#utility.yul\":177:201   */\n              tag_88\n                /* \"#utility.yul\":195:200   */\n              dup2\n                /* \"#utility.yul\":177:201   */\n              tag_46\n              jump\t// in\n            tag_88:\n                /* \"#utility.yul\":172:175   */\n              dup3\n                /* \"#utility.yul\":165:202   */\n              mstore\n                /* \"#utility.yul\":90:208   */\n              pop\n              pop\n              jump\t// out\n                /* \"#utility.yul\":214:436   */\n            tag_11:\n                /* \"#utility.yul\":307:311   */\n              0x00\n                /* \"#utility.yul\":345:347   */\n              0x20\n                /* \"#utility.yul\":334:343   */\n              dup3\n                /* \"#utility.yul\":330:348   */\n              add\n                /* \"#utility.yul\":322:348   */\n              swap1\n              pop\n                /* \"#utility.yul\":358:429   */\n              tag_90\n                /* \"#utility.yul\":426:427   */\n              0x00\n                /* \"#utility.yul\":415:424   */\n              dup4\n                /* \"#utility.yul\":411:428   */\n              add\n                /* \"#utility.yul\":402:408   */\n              dup5\n                /* \"#utility.yul\":358:429   */\n              tag_47\n              jump\t// in\n            tag_90:\n                /* \"#utility.yul\":214:436   */\n              swap3\n              swap2\n              pop\n              pop\n              jump\t// out\n                /* \"#utility.yul\":442:517   */\n            tag_48:\n                /* \"#utility.yul\":475:481   */\n              0x00\n                /* \"#utility.yul\":508:510   */\n              0x40\n                /* \"#utility.yul\":502:511   */\n              mload\n                /* \"#utility.yul\":492:511   */\n              swap1\n              pop\n                /* \"#utility.yul\":442:517   */\n              swap1\n              jump\t// out\n                /* \"#utility.yul\":523:640   */\n            tag_49:\n                /* \"#utility.yul\":632:633   */\n              0x00\n                /* \"#utility.yul\":629:630   */\n              dup1\n                /* \"#utility.yul\":622:634   */\n              revert\n                /* \"#utility.yul\":646:763   */\n            tag_50:\n                /* \"#utility.yul\":755:756   */\n              0x00\n                /* \"#utility.yul\":752:753   */\n              dup1\n                /* \"#utility.yul\":745:757   */\n              revert\n                /* \"#utility.yul\":769:891   */\n            tag_51:\n                /* \"#utility.yul\":842:866   */\n              tag_95\n                /* \"#utility.yul\":860:865   */\n              dup2\n                /* \"#utility.yul\":842:866   */\n              tag_46\n              jump\t// in\n            tag_95:\n                /* \"#utility.yul\":835:840   */\n              dup2\n                /* \"#utility.yul\":832:867   */\n              eq\n                /* \"#utility.yul\":822:885   */\n              tag_96\n              jumpi\n                /* \"#utility.yul\":881:882   */\n              0x00\n                /* \"#utility.yul\":878:879   */\n              dup1\n                /* \"#utility.yul\":871:883   */\n              revert\n                /* \"#utility.yul\":822:885   */\n            tag_96:\n                /* \"#utility.yul\":769:891   */\n              pop\n              jump\t// out\n                /* \"#utility.yul\":897:1036   */\n            tag_52:\n                /* \"#utility.yul\":943:948   */\n              0x00\n                /* \"#utility.yul\":981:987   */\n              dup2\n                /* \"#utility.yul\":968:988   */\n              calldataload\n                /* \"#utility.yul\":959:988   */\n              swap1\n              pop\n                /* \"#utility.yul\":997:1030   */\n              tag_98\n                /* \"#utility.yul\":1024:1029   */\n              dup2\n                /* \"#utility.yul\":997:1030   */\n              tag_51\n              jump\t// in\n            tag_98:\n                /* \"#utility.yul\":897:1036   */\n              swap3\n              swap2\n              pop\n              pop\n              jump\t// out\n                /* \"#utility.yul\":1042:1371   */\n            tag_14:\n                /* \"#utility.yul\":1101:1107   */\n              0x00\n                /* \"#utility.yul\":1150:1152   */\n              0x20\n                /* \"#utility.yul\":1138:1147   */\n              dup3\n                /* \"#utility.yul\":1129:1136   */\n              dup5\n                /* \"#utility.yul\":1125:1148   */\n              sub\n                /* \"#utility.yul\":1121:1153   */\n              slt\n                /* \"#utility.yul\":1118:1237   */\n              iszero\n              tag_100\n              jumpi\n                /* \"#utility.yul\":1156:1235   */\n              tag_101\n              tag_49\n              jump\t// in\n            tag_101:\n                /* \"#utility.yul\":1118:1237   */\n            tag_100:\n                /* \"#utility.yul\":1276:1277   */\n              0x00\n                /* \"#utility.yul\":1301:1354   */\n              tag_102\n                /* \"#utility.yul\":1346:1353   */\n              dup5\n                /* \"#utility.yul\":1337:1343   */\n              dup3\n                /* \"#utility.yul\":1326:1335   */\n              dup6\n                /* \"#utility.yul\":1322:1344   */\n              add\n                /* \"#utility.yul\":1301:1354   */\n              tag_52\n              jump\t// in\n            tag_102:\n                /* \"#utility.yul\":1291:1354   */\n              swap2\n              pop\n                /* \"#utility.yul\":1247:1364   */\n              pop\n                /* \"#utility.yul\":1042:1371   */\n              swap3\n              swap2\n              pop\n              pop\n              jump\t// out\n                /* \"#utility.yul\":1377:1494   */\n            tag_53:\n                /* \"#utility.yul\":1486:1487   */\n              0x00\n                /* \"#utility.yul\":1483:1484   */\n              dup1\n                /* \"#utility.yul\":1476:1488   */\n              revert\n                /* \"#utility.yul\":1500:1617   */\n            tag_54:\n                /* \"#utility.yul\":1609:1610   */\n              0x00\n                /* \"#utility.yul\":1606:1607   */\n              dup1\n                /* \"#utility.yul\":1599:1611   */\n              revert\n                /* \"#utility.yul\":1623:1725   */\n            tag_55:\n                /* \"#utility.yul\":1664:1670   */\n              0x00\n                /* \"#utility.yul\":1715:1717   */\n              0x1f\n                /* \"#utility.yul\":1711:1718   */\n              not\n                /* \"#utility.yul\":1706:1708   */\n              0x1f\n                /* \"#utility.yul\":1699:1704   */\n              dup4\n                /* \"#utility.yul\":1695:1709   */\n              add\n                /* \"#utility.yul\":1691:1719   */\n              and\n                /* \"#utility.yul\":1681:1719   */\n              swap1\n              pop\n                /* \"#utility.yul\":1623:1725   */\n              swap2\n              swap1\n              pop\n              jump\t// out\n                /* \"#utility.yul\":1731:1911   */\n            tag_56:\n                /* \"#utility.yul\":1779:1856   */\n              0x4e487b7100000000000000000000000000000000000000000000000000000000\n                /* \"#utility.yul\":1776:1777   */\n              0x00\n                /* \"#utility.yul\":1769:1857   */\n              mstore\n                /* \"#utility.yul\":1876:1880   */\n              0x41\n                /* \"#utility.yul\":1873:1874   */\n              0x04\n                /* \"#utility.yul\":1866:1881   */\n              mstore\n                /* \"#utility.yul\":1900:1904   */\n              0x24\n                /* \"#utility.yul\":1897:1898   */\n              0x00\n                /* \"#utility.yul\":1890:1905   */\n              revert\n                /* \"#utility.yul\":1917:2198   */\n            tag_57:\n                /* \"#utility.yul\":2000:2027   */\n              tag_108\n                /* \"#utility.yul\":2022:2026   */\n              dup3\n                /* \"#utility.yul\":2000:2027   */\n              tag_55\n              jump\t// in\n            tag_108:\n                /* \"#utility.yul\":1992:1998   */\n              dup2\n                /* \"#utility.yul\":1988:2028   */\n              add\n                /* \"#utility.yul\":2130:2136   */\n              dup2\n                /* \"#utility.yul\":2118:2128   */\n              dup2\n                /* \"#utility.yul\":2115:2137   */\n              lt\n                /* \"#utility.yul\":2094:2112   */\n              0xffffffffffffffff\n                /* \"#utility.yul\":2082:2092   */\n              dup3\n                /* \"#utility.yul\":2079:2113   */\n              gt\n                /* \"#utility.yul\":2076:2138   */\n              or\n                /* \"#utility.yul\":2073:2161   */\n              iszero\n              tag_109\n              jumpi\n                /* \"#utility.yul\":2141:2159   */\n              tag_110\n              tag_56\n              jump\t// in\n            tag_110:\n                /* \"#utility.yul\":2073:2161   */\n            tag_109:\n                /* \"#utility.yul\":2181:2191   */\n              dup1\n                /* \"#utility.yul\":2177:2179   */\n              0x40\n                /* \"#utility.yul\":2170:2192   */\n              mstore\n                /* \"#utility.yul\":1960:2198   */\n              pop\n                /* \"#utility.yul\":1917:2198   */\n              pop\n              pop\n              jump\t// out\n                /* \"#utility.yul\":2204:2333   */\n            tag_58:\n                /* \"#utility.yul\":2238:2244   */\n              0x00\n                /* \"#utility.yul\":2265:2285   */\n              tag_112\n              tag_48\n              jump\t// in\n            tag_112:\n                /* \"#utility.yul\":2255:2285   */\n              swap1\n              pop\n                /* \"#utility.yul\":2294:2327   */\n              tag_113\n                /* \"#utility.yul\":2322:2326   */\n              dup3\n                /* \"#utility.yul\":2314:2320   */\n              dup3\n                /* \"#utility.yul\":2294:2327   */\n              tag_57\n              jump\t// in\n            tag_113:\n                /* \"#utility.yul\":2204:2333   */\n              swap2\n              swap1\n              pop\n              jump\t// out\n                /* \"#utility.yul\":2339:2647   */\n            tag_59:\n                /* \"#utility.yul\":2401:2405   */\n              0x00\n                /* \"#utility.yul\":2491:2509   */\n              0xffffffffffffffff\n                /* \"#utility.yul\":2483:2489   */\n              dup3\n                /* \"#utility.yul\":2480:2510   */\n              gt\n                /* \"#utility.yul\":2477:2533   */\n              iszero\n              tag_115\n              jumpi\n                /* \"#utility.yul\":2513:2531   */\n              tag_116\n              tag_56\n              jump\t// in\n            tag_116:\n                /* \"#utility.yul\":2477:2533   */\n            tag_115:\n                /* \"#utility.yul\":2551:2580   */\n              tag_117\n                /* \"#utility.yul\":2573:2579   */\n              dup3\n                /* \"#utility.yul\":2551:2580   */\n              tag_55\n              jump\t// in\n            tag_117:\n                /* \"#utility.yul\":2543:2580   */\n              swap1\n              pop\n                /* \"#utility.yul\":2635:2639   */\n              0x20\n                /* \"#utility.yul\":2629:2633   */\n              dup2\n                /* \"#utility.yul\":2625:2640   */\n              add\n                /* \"#utility.yul\":2617:2640   */\n              swap1\n              pop\n                /* \"#utility.yul\":2339:2647   */\n              swap2\n              swap1\n              pop\n              jump\t// out\n                /* \"#utility.yul\":2653:2799   */\n            tag_60:\n                /* \"#utility.yul\":2750:2756   */\n              dup3\n                /* \"#utility.yul\":2745:2748   */\n              dup2\n                /* \"#utility.yul\":2740:2743   */\n              dup4\n                /* \"#utility.yul\":2727:2757   */\n              calldatacopy\n                /* \"#utility.yul\":2791:2792   */\n              0x00\n                /* \"#utility.yul\":2782:2788   */\n              dup4\n                /* \"#utility.yul\":2777:2780   */\n              dup4\n                /* \"#utility.yul\":2773:2789   */\n              add\n                /* \"#utility.yul\":2766:2793   */\n              mstore\n                /* \"#utility.yul\":2653:2799   */\n              pop\n              pop\n              pop\n              jump\t// out\n                /* \"#utility.yul\":2805:3230   */\n            tag_61:\n                /* \"#utility.yul\":2883:2888   */\n              0x00\n                /* \"#utility.yul\":2908:2974   */\n              tag_120\n                /* \"#utility.yul\":2924:2973   */\n              tag_121\n                /* \"#utility.yul\":2966:2972   */\n              dup5\n                /* \"#utility.yul\":2924:2973   */\n              tag_59\n              jump\t// in\n            tag_121:\n                /* \"#utility.yul\":2908:2974   */\n              tag_58\n              jump\t// in\n            tag_120:\n                /* \"#utility.yul\":2899:2974   */\n              swap1\n              pop\n                /* \"#utility.yul\":2997:3003   */\n              dup3\n                /* \"#utility.yul\":2990:2995   */\n              dup2\n                /* \"#utility.yul\":2983:3004   */\n              mstore\n                /* \"#utility.yul\":3035:3039   */\n              0x20\n                /* \"#utility.yul\":3028:3033   */\n              dup2\n                /* \"#utility.yul\":3024:3040   */\n              add\n                /* \"#utility.yul\":3073:3076   */\n              dup5\n                /* \"#utility.yul\":3064:3070   */\n              dup5\n                /* \"#utility.yul\":3059:3062   */\n              dup5\n                /* \"#utility.yul\":3055:3071   */\n              add\n                /* \"#utility.yul\":3052:3077   */\n              gt\n                /* \"#utility.yul\":3049:3161   */\n              iszero\n              tag_122\n              jumpi\n                /* \"#utility.yul\":3080:3159   */\n              tag_123\n              tag_54\n              jump\t// in\n            tag_123:\n                /* \"#utility.yul\":3049:3161   */\n            tag_122:\n                /* \"#utility.yul\":3170:3224   */\n              tag_124\n                /* \"#utility.yul\":3217:3223   */\n              dup5\n                /* \"#utility.yul\":3212:3215   */\n              dup3\n                /* \"#utility.yul\":3207:3210   */\n              dup6\n                /* \"#utility.yul\":3170:3224   */\n              tag_60\n              jump\t// in\n            tag_124:\n                /* \"#utility.yul\":2889:3230   */\n              pop\n                /* \"#utility.yul\":2805:3230   */\n              swap4\n              swap3\n              pop\n              pop\n              pop\n              jump\t// out\n                /* \"#utility.yul\":3250:3590   */\n            tag_62:\n                /* \"#utility.yul\":3306:3311   */\n              0x00\n                /* \"#utility.yul\":3355:3358   */\n              dup3\n                /* \"#utility.yul\":3348:3352   */\n              0x1f\n                /* \"#utility.yul\":3340:3346   */\n              dup4\n                /* \"#utility.yul\":3336:3353   */\n              add\n                /* \"#utility.yul\":3332:3359   */\n              slt\n                /* \"#utility.yul\":3322:3444   */\n              tag_126\n              jumpi\n                /* \"#utility.yul\":3363:3442   */\n              tag_127\n              tag_53\n              jump\t// in\n            tag_127:\n                /* \"#utility.yul\":3322:3444   */\n            tag_126:\n                /* \"#utility.yul\":3480:3486   */\n              dup2\n                /* \"#utility.yul\":3467:3487   */\n              calldataload\n                /* \"#utility.yul\":3505:3584   */\n              tag_128\n                /* \"#utility.yul\":3580:3583   */\n              dup5\n                /* \"#utility.yul\":3572:3578   */\n              dup3\n                /* \"#utility.yul\":3565:3569   */\n              0x20\n                /* \"#utility.yul\":3557:3563   */\n              dup7\n                /* \"#utility.yul\":3553:3570   */\n              add\n                /* \"#utility.yul\":3505:3584   */\n              tag_61\n              jump\t// in\n            tag_128:\n                /* \"#utility.yul\":3496:3584   */\n              swap2\n              pop\n                /* \"#utility.yul\":3312:3590   */\n              pop\n                /* \"#utility.yul\":3250:3590   */\n              swap3\n              swap2\n              pop\n              pop\n              jump\t// out\n                /* \"#utility.yul\":3596:4250   */\n            tag_18:\n                /* \"#utility.yul\":3674:3680   */\n              0x00\n                /* \"#utility.yul\":3682:3688   */\n              dup1\n                /* \"#utility.yul\":3731:3733   */\n              0x40\n                /* \"#utility.yul\":3719:3728   */\n              dup4\n                /* \"#utility.yul\":3710:3717   */\n              dup6\n                /* \"#utility.yul\":3706:3729   */\n              sub\n                /* \"#utility.yul\":3702:3734   */\n              slt\n                /* \"#utility.yul\":3699:3818   */\n              iszero\n              tag_130\n              jumpi\n                /* \"#utility.yul\":3737:3816   */\n              tag_131\n              tag_49\n              jump\t// in\n            tag_131:\n                /* \"#utility.yul\":3699:3818   */\n            tag_130:\n                /* \"#utility.yul\":3885:3886   */\n              0x00\n                /* \"#utility.yul\":3874:3883   */\n              dup4\n                /* \"#utility.yul\":3870:3887   */\n              add\n                /* \"#utility.yul\":3857:3888   */\n              calldataload\n                /* \"#utility.yul\":3915:3933   */\n              0xffffffffffffffff\n                /* \"#utility.yul\":3907:3913   */\n              dup2\n                /* \"#utility.yul\":3904:3934   */\n              gt\n                /* \"#utility.yul\":3901:4018   */\n              iszero\n              tag_132\n              jumpi\n                /* \"#utility.yul\":3937:4016   */\n              tag_133\n              tag_50\n              jump\t// in\n            tag_133:\n                /* \"#utility.yul\":3901:4018   */\n            tag_132:\n                /* \"#utility.yul\":4042:4105   */\n              tag_134\n                /* \"#utility.yul\":4097:4104   */\n              dup6\n                /* \"#utility.yul\":4088:4094   */\n              dup3\n                /* \"#utility.yul\":4077:4086   */\n              dup7\n                /* \"#utility.yul\":4073:4095   */\n              add\n                /* \"#utility.yul\":4042:4105   */\n              tag_62\n              jump\t// in\n            tag_134:\n                /* \"#utility.yul\":4032:4105   */\n              swap3\n              pop\n                /* \"#utility.yul\":3828:4115   */\n              pop\n                /* \"#utility.yul\":4154:4156   */\n              0x20\n                /* \"#utility.yul\":4180:4233   */\n              tag_135\n                /* \"#utility.yul\":4225:4232   */\n              dup6\n                /* \"#utility.yul\":4216:4222   */\n              dup3\n                /* \"#utility.yul\":4205:4214   */\n              dup7\n                /* \"#utility.yul\":4201:4223   */\n              add\n                /* \"#utility.yul\":4180:4233   */\n              tag_52\n              jump\t// in\n            tag_135:\n                /* \"#utility.yul\":4170:4233   */\n              swap2\n              pop\n                /* \"#utility.yul\":4125:4243   */\n              pop\n                /* \"#utility.yul\":3596:4250   */\n              swap3\n              pop\n              swap3\n              swap1\n              pop\n              jump\t// out\n                /* \"#utility.yul\":4256:4765   */\n            tag_22:\n                /* \"#utility.yul\":4325:4331   */\n              0x00\n                /* \"#utility.yul\":4374:4376   */\n              0x20\n                /* \"#utility.yul\":4362:4371   */\n              dup3\n                /* \"#utility.yul\":4353:4360   */\n              dup5\n                /* \"#utility.yul\":4349:4372   */\n              sub\n                /* \"#utility.yul\":4345:4377   */\n              slt\n                /* \"#utility.yul\":4342:4461   */\n              iszero\n              tag_137\n              jumpi\n                /* \"#utility.yul\":4380:4459   */\n              tag_138\n              tag_49\n              jump\t// in\n            tag_138:\n                /* \"#utility.yul\":4342:4461   */\n            tag_137:\n                /* \"#utility.yul\":4528:4529   */\n              0x00\n                /* \"#utility.yul\":4517:4526   */\n              dup3\n                /* \"#utility.yul\":4513:4530   */\n              add\n                /* \"#utility.yul\":4500:4531   */\n              calldataload\n                /* \"#utility.yul\":4558:4576   */\n              0xffffffffffffffff\n                /* \"#utility.yul\":4550:4556   */\n              dup2\n                /* \"#utility.yul\":4547:4577   */\n              gt\n                /* \"#utility.yul\":4544:4661   */\n              iszero\n              tag_139\n              jumpi\n                /* \"#utility.yul\":4580:4659   */\n              tag_140\n              tag_50\n              jump\t// in\n            tag_140:\n                /* \"#utility.yul\":4544:4661   */\n            tag_139:\n                /* \"#utility.yul\":4685:4748   */\n              tag_141\n                /* \"#utility.yul\":4740:4747   */\n              dup5\n                /* \"#utility.yul\":4731:4737   */\n              dup3\n                /* \"#utility.yul\":4720:4729   */\n              dup6\n                /* \"#utility.yul\":4716:4738   */\n              add\n                /* \"#utility.yul\":4685:4748   */\n              tag_62\n              jump\t// in\n            tag_141:\n                /* \"#utility.yul\":4675:4748   */\n              swap2\n              pop\n                /* \"#utility.yul\":4471:4758   */\n              pop\n                /* \"#utility.yul\":4256:4765   */\n              swap3\n              swap2\n              pop\n              pop\n              jump\t// out\n                /* \"#utility.yul\":4771:4870   */\n            tag_63:\n                /* \"#utility.yul\":4823:4829   */\n              0x00\n                /* \"#utility.yul\":4857:4862   */\n              dup2\n                /* \"#utility.yul\":4851:4863   */\n              mload\n                /* \"#utility.yul\":4841:4863   */\n              swap1\n              pop\n                /* \"#utility.yul\":4771:4870   */\n              swap2\n              swap1\n              pop\n              jump\t// out\n                /* \"#utility.yul\":4876:5045   */\n            tag_64:\n                /* \"#utility.yul\":4960:4971   */\n              0x00\n                /* \"#utility.yul\":4994:5000   */\n              dup3\n                /* \"#utility.yul\":4989:4992   */\n              dup3\n                /* \"#utility.yul\":4982:5001   */\n              mstore\n                /* \"#utility.yul\":5034:5038   */\n              0x20\n                /* \"#utility.yul\":5029:5032   */\n              dup3\n                /* \"#utility.yul\":5025:5039   */\n              add\n                /* \"#utility.yul\":5010:5039   */\n              swap1\n              pop\n                /* \"#utility.yul\":4876:5045   */\n              swap3\n              swap2\n              pop\n              pop\n              jump\t// out\n                /* \"#utility.yul\":5051:5297   */\n            tag_65:\n                /* \"#utility.yul\":5132:5133   */\n              0x00\n                /* \"#utility.yul\":5142:5255   */\n            tag_145:\n                /* \"#utility.yul\":5156:5162   */\n              dup4\n                /* \"#utility.yul\":5153:5154   */\n              dup2\n                /* \"#utility.yul\":5150:5163   */\n              lt\n                /* \"#utility.yul\":5142:5255   */\n              iszero\n              tag_147\n              jumpi\n                /* \"#utility.yul\":5241:5242   */\n              dup1\n                /* \"#utility.yul\":5236:5239   */\n              dup3\n                /* \"#utility.yul\":5232:5243   */\n              add\n                /* \"#utility.yul\":5226:5244   */\n              mload\n                /* \"#utility.yul\":5222:5223   */\n              dup2\n                /* \"#utility.yul\":5217:5220   */\n              dup5\n                /* \"#utility.yul\":5213:5224   */\n              add\n                /* \"#utility.yul\":5206:5245   */\n              mstore\n                /* \"#utility.yul\":5178:5180   */\n              0x20\n                /* \"#utility.yul\":5175:5176   */\n              dup2\n                /* \"#utility.yul\":5171:5181   */\n              add\n                /* \"#utility.yul\":5166:5181   */\n              swap1\n              pop\n                /* \"#utility.yul\":5142:5255   */\n              jump(tag_145)\n            tag_147:\n                /* \"#utility.yul\":5289:5290   */\n              0x00\n                /* \"#utility.yul\":5280:5286   */\n              dup5\n                /* \"#utility.yul\":5275:5278   */\n              dup5\n                /* \"#utility.yul\":5271:5287   */\n              add\n                /* \"#utility.yul\":5264:5291   */\n              mstore\n                /* \"#utility.yul\":5113:5297   */\n              pop\n                /* \"#utility.yul\":5051:5297   */\n              pop\n              pop\n              pop\n              jump\t// out\n                /* \"#utility.yul\":5303:5680   */\n            tag_66:\n                /* \"#utility.yul\":5391:5394   */\n              0x00\n                /* \"#utility.yul\":5419:5458   */\n              tag_149\n                /* \"#utility.yul\":5452:5457   */\n              dup3\n                /* \"#utility.yul\":5419:5458   */\n              tag_63\n              jump\t// in\n            tag_149:\n                /* \"#utility.yul\":5474:5545   */\n              tag_150\n                /* \"#utility.yul\":5538:5544   */\n              dup2\n                /* \"#utility.yul\":5533:5536   */\n              dup6\n                /* \"#utility.yul\":5474:5545   */\n              tag_64\n              jump\t// in\n            tag_150:\n                /* \"#utility.yul\":5467:5545   */\n              swap4\n              pop\n                /* \"#utility.yul\":5554:5619   */\n              tag_151\n                /* \"#utility.yul\":5612:5618   */\n              dup2\n                /* \"#utility.yul\":5607:5610   */\n              dup6\n                /* \"#utility.yul\":5600:5604   */\n              0x20\n                /* \"#utility.yul\":5593:5598   */\n              dup7\n                /* \"#utility.yul\":5589:5605   */\n              add\n                /* \"#utility.yul\":5554:5619   */\n              tag_65\n              jump\t// in\n            tag_151:\n                /* \"#utility.yul\":5644:5673   */\n              tag_152\n                /* \"#utility.yul\":5666:5672   */\n              dup2\n                /* \"#utility.yul\":5644:5673   */\n              tag_55\n              jump\t// in\n            tag_152:\n                /* \"#utility.yul\":5639:5642   */\n              dup5\n                /* \"#utility.yul\":5635:5674   */\n              add\n                /* \"#utility.yul\":5628:5674   */\n              swap2\n              pop\n                /* \"#utility.yul\":5395:5680   */\n              pop\n                /* \"#utility.yul\":5303:5680   */\n              swap3\n              swap2\n              pop\n              pop\n              jump\t// out\n                /* \"#utility.yul\":5686:6109   */\n            tag_29:\n                /* \"#utility.yul\":5827:5831   */\n              0x00\n                /* \"#utility.yul\":5865:5867   */\n              0x40\n                /* \"#utility.yul\":5854:5863   */\n              dup3\n                /* \"#utility.yul\":5850:5868   */\n              add\n                /* \"#utility.yul\":5842:5868   */\n              swap1\n              pop\n                /* \"#utility.yul\":5878:5949   */\n              tag_154\n                /* \"#utility.yul\":5946:5947   */\n              0x00\n                /* \"#utility.yul\":5935:5944   */\n              dup4\n                /* \"#utility.yul\":5931:5948   */\n              add\n                /* \"#utility.yul\":5922:5928   */\n              dup6\n                /* \"#utility.yul\":5878:5949   */\n              tag_47\n              jump\t// in\n            tag_154:\n                /* \"#utility.yul\":5996:6005   */\n              dup2\n                /* \"#utility.yul\":5990:5994   */\n              dup2\n                /* \"#utility.yul\":5986:6006   */\n              sub\n                /* \"#utility.yul\":5981:5983   */\n              0x20\n                /* \"#utility.yul\":5970:5979   */\n              dup4\n                /* \"#utility.yul\":5966:5984   */\n              add\n                /* \"#utility.yul\":5959:6007   */\n              mstore\n                /* \"#utility.yul\":6024:6102   */\n              tag_155\n                /* \"#utility.yul\":6097:6101   */\n              dup2\n                /* \"#utility.yul\":6088:6094   */\n              dup5\n                /* \"#utility.yul\":6024:6102   */\n              tag_66\n              jump\t// in\n            tag_155:\n                /* \"#utility.yul\":6016:6102   */\n              swap1\n              pop\n                /* \"#utility.yul\":5686:6109   */\n              swap4\n              swap3\n              pop\n              pop\n              pop\n              jump\t// out\n                /* \"#utility.yul\":6115:6295   */\n            tag_67:\n                /* \"#utility.yul\":6163:6240   */\n              0x4e487b7100000000000000000000000000000000000000000000000000000000\n                /* \"#utility.yul\":6160:6161   */\n              0x00\n                /* \"#utility.yul\":6153:6241   */\n              mstore\n                /* \"#utility.yul\":6260:6264   */\n              0x22\n                /* \"#utility.yul\":6257:6258   */\n              0x04\n                /* \"#utility.yul\":6250:6265   */\n              mstore\n                /* \"#utility.yul\":6284:6288   */\n              0x24\n                /* \"#utility.yul\":6281:6282   */\n              0x00\n                /* \"#utility.yul\":6274:6289   */\n              revert\n                /* \"#utility.yul\":6301:6621   */\n            tag_41:\n                /* \"#utility.yul\":6345:6351   */\n              0x00\n                /* \"#utility.yul\":6382:6383   */\n              0x02\n                /* \"#utility.yul\":6376:6380   */\n              dup3\n                /* \"#utility.yul\":6372:6384   */\n              div\n                /* \"#utility.yul\":6362:6384   */\n              swap1\n              pop\n                /* \"#utility.yul\":6429:6430   */\n              0x01\n                /* \"#utility.yul\":6423:6427   */\n              dup3\n                /* \"#utility.yul\":6419:6431   */\n              and\n                /* \"#utility.yul\":6450:6468   */\n              dup1\n                /* \"#utility.yul\":6440:6521   */\n              tag_158\n              jumpi\n                /* \"#utility.yul\":6506:6510   */\n              0x7f\n                /* \"#utility.yul\":6498:6504   */\n              dup3\n                /* \"#utility.yul\":6494:6511   */\n              and\n                /* \"#utility.yul\":6484:6511   */\n              swap2\n              pop\n                /* \"#utility.yul\":6440:6521   */\n            tag_158:\n                /* \"#utility.yul\":6568:6570   */\n              0x20\n                /* \"#utility.yul\":6560:6566   */\n              dup3\n                /* \"#utility.yul\":6557:6571   */\n              lt\n                /* \"#utility.yul\":6537:6555   */\n              dup2\n                /* \"#utility.yul\":6534:6572   */\n              sub\n                /* \"#utility.yul\":6531:6615   */\n              tag_159\n              jumpi\n                /* \"#utility.yul\":6587:6605   */\n              tag_160\n              tag_67\n              jump\t// in\n            tag_160:\n                /* \"#utility.yul\":6531:6615   */\n            tag_159:\n                /* \"#utility.yul\":6352:6621   */\n              pop\n                /* \"#utility.yul\":6301:6621   */\n              swap2\n              swap1\n              pop\n              jump\t// out\n                /* \"#utility.yul\":6627:6768   */\n            tag_68:\n                /* \"#utility.yul\":6676:6680   */\n              0x00\n                /* \"#utility.yul\":6699:6702   */\n              dup2\n                /* \"#utility.yul\":6691:6702   */\n              swap1\n              pop\n                /* \"#utility.yul\":6722:6725   */\n              dup2\n                /* \"#utility.yul\":6719:6720   */\n              0x00\n                /* \"#utility.yul\":6712:6726   */\n              mstore\n                /* \"#utility.yul\":6756:6760   */\n              0x20\n                /* \"#utility.yul\":6753:6754   */\n              0x00\n                /* \"#utility.yul\":6743:6761   */\n              keccak256\n                /* \"#utility.yul\":6735:6761   */\n              swap1\n              pop\n                /* \"#utility.yul\":6627:6768   */\n              swap2\n              swap1\n              pop\n              jump\t// out\n                /* \"#utility.yul\":6774:6867   */\n            tag_69:\n                /* \"#utility.yul\":6811:6817   */\n              0x00\n                /* \"#utility.yul\":6858:6860   */\n              0x20\n                /* \"#utility.yul\":6853:6855   */\n              0x1f\n                /* \"#utility.yul\":6846:6851   */\n              dup4\n                /* \"#utility.yul\":6842:6856   */\n              add\n                /* \"#utility.yul\":6838:6861   */\n              div\n                /* \"#utility.yul\":6828:6861   */\n              swap1\n              pop\n                /* \"#utility.yul\":6774:6867   */\n              swap2\n              swap1\n              pop\n              jump\t// out\n                /* \"#utility.yul\":6873:6980   */\n            tag_70:\n                /* \"#utility.yul\":6917:6925   */\n              0x00\n                /* \"#utility.yul\":6967:6972   */\n              dup3\n                /* \"#utility.yul\":6961:6965   */\n              dup3\n                /* \"#utility.yul\":6957:6973   */\n              shl\n                /* \"#utility.yul\":6936:6973   */\n              swap1\n              pop\n                /* \"#utility.yul\":6873:6980   */\n              swap3\n              swap2\n              pop\n              pop\n              jump\t// out\n                /* \"#utility.yul\":6986:7379   */\n            tag_71:\n                /* \"#utility.yul\":7055:7061   */\n              0x00\n                /* \"#utility.yul\":7105:7106   */\n              0x08\n                /* \"#utility.yul\":7093:7103   */\n              dup4\n                /* \"#utility.yul\":7089:7107   */\n              mul\n                /* \"#utility.yul\":7128:7225   */\n              tag_165\n                /* \"#utility.yul\":7158:7224   */\n              0xffffffffffffffffffffffffffffffffffffffffffffffffffffffffffffffff\n                /* \"#utility.yul\":7147:7156   */\n              dup3\n                /* \"#utility.yul\":7128:7225   */\n              tag_70\n              jump\t// in\n            tag_165:\n                /* \"#utility.yul\":7246:7285   */\n              tag_166\n                /* \"#utility.yul\":7276:7284   */\n              dup7\n                /* \"#utility.yul\":7265:7274   */\n              dup4\n                /* \"#utility.yul\":7246:7285   */\n              tag_70\n              jump\t// in\n            tag_166:\n                /* \"#utility.yul\":7234:7285   */\n              swap6\n              pop\n                /* \"#utility.yul\":7318:7322   */\n              dup1\n                /* \"#utility.yul\":7314:7323   */\n              not\n                /* \"#utility.yul\":7307:7312   */\n              dup5\n                /* \"#utility.yul\":7303:7324   */\n              and\n                /* \"#utility.yul\":7294:7324   */\n              swap4\n              pop\n                /* \"#utility.yul\":7367:7371   */\n              dup1\n                /* \"#utility.yul\":7357:7365   */\n              dup7\n                /* \"#utility.yul\":7353:7372   */\n              and\n                /* \"#utility.yul\":7346:7351   */\n              dup5\n                /* \"#utility.yul\":7343:7373   */\n              or\n                /* \"#utility.yul\":7333:7373   */\n              swap3\n              pop\n                /* \"#utility.yul\":7062:7379   */\n              pop\n              pop\n                /* \"#utility.yul\":6986:7379   */\n              swap4\n              swap3\n              pop\n              pop\n              pop\n              jump\t// out\n                /* \"#utility.yul\":7385:7445   */\n            tag_72:\n                /* \"#utility.yul\":7413:7416   */\n              0x00\n                /* \"#utility.yul\":7434:7439   */\n              dup2\n                /* \"#utility.yul\":7427:7439   */\n              swap1\n              pop\n                /* \"#utility.yul\":7385:7445   */\n              swap2\n              swap1\n              pop\n              jump\t// out\n                /* \"#utility.yul\":7451:7593   */\n            tag_73:\n                /* \"#utility.yul\":7501:7510   */\n              0x00\n                /* \"#utility.yul\":7534:7587   */\n              tag_169\n                /* \"#utility.yul\":7552:7586   */\n              tag_170\n                /* \"#utility.yul\":7561:7585   */\n              tag_171\n                /* \"#utility.yul\":7579:7584   */\n              dup5\n                /* \"#utility.yul\":7561:7585   */\n              tag_46\n              jump\t// in\n            tag_171:\n                /* \"#utility.yul\":7552:7586   */\n              tag_72\n              jump\t// in\n            tag_170:\n                /* \"#utility.yul\":7534:7587   */\n              tag_46\n              jump\t// in\n            tag_169:\n                /* \"#utility.yul\":7521:7587   */\n              swap1\n              pop\n                /* \"#utility.yul\":7451:7593   */\n              swap2\n              swap1\n              pop\n              jump\t// out\n                /* \"#utility.yul\":7599:7674   */\n            tag_74:\n                /* \"#utility.yul\":7642:7645   */\n              0x00\n                /* \"#utility.yul\":7663:7668   */\n              dup2\n                /* \"#utility.yul\":7656:7668   */\n              swap1\n              pop\n                /* \"#utility.yul\":7599:7674   */\n              swap2\n              swap1\n              pop\n              jump\t// out\n                /* \"#utility.yul\":7680:7949   */\n            tag_75:\n                /* \"#utility.yul\":7790:7829   */\n              tag_174\n                /* \"#utility.yul\":7821:7828   */\n              dup4\n                /* \"#utility.yul\":7790:7829   */\n              tag_73\n              jump\t// in\n            tag_174:\n                /* \"#utility.yul\":7851:7942   */\n              tag_175\n                /* \"#utility.yul\":7900:7941   */\n              tag_176\n                /* \"#utility.yul\":7924:7940   */\n              dup3\n                /* \"#utility.yul\":7900:7941   */\n              tag_74\n              jump\t// in\n            tag_176:\n                /* \"#utility.yul\":7892:7898   */\n              dup5\n                /* \"#utility.yul\":7885:7889   */\n              dup5\n                /* \"#utility.yul\":7879:7890   */\n              sload\n                /* \"#utility.yul\":7851:7942   */\n              tag_71\n              jump\t// in\n            tag_175:\n                /* \"#utility.yul\":7845:7849   */\n              dup3\n                /* \"#utility.yul\":7838:7943   */\n              sstore\n                /* \"#utility.yul\":7756:7949   */\n              pop\n                /* \"#utility.yul\":7680:7949   */\n              pop\n              pop\n              pop\n              jump\t// out\n                /* \"#utility.yul\":7955:8028   */\n            tag_76:\n                /* \"#utility.yul\":8000:8003   */\n              0x00\n                /* \"#utility.yul\":7955:8028   */\n              swap1\n              jump\t// out\n                /* \"#utility.yul\":8034:8223   */\n            tag_77:\n                /* \"#utility.yul\":8111:8143   */\n              tag_179\n              tag_76\n              jump\t// in\n            tag_179:\n                /* \"#utility.yul\":8152:8217   */\n              tag_180\n                /* \"#utility.yul\":8210:8216   */\n              dup2\n                /* \"#utility.yul\":8202:8208   */\n              dup5\n                /* \"#utility.yul\":8196:8200   */\n              dup5\n                /* \"#utility.yul\":8152:8217   */\n              tag_75\n              jump\t// in\n            tag_180:\n                /* \"#utility.yul\":8087:8223   */\n              pop\n                /* \"#utility.yul\":8034:8223   */\n              pop\n              pop\n              jump\t// out\n                /* \"#utility.yul\":8229:8415   */\n            tag_78:\n                /* \"#utility.yul\":8289:8409   */\n            tag_182:\n                /* \"#utility.yul\":8306:8309   */\n              dup2\n                /* \"#utility.yul\":8299:8304   */\n              dup2\n                /* \"#utility.yul\":8296:8310   */\n              lt\n                /* \"#utility.yul\":8289:8409   */\n              iszero\n              tag_184\n              jumpi\n                /* \"#utility.yul\":8360:8399   */\n              tag_185\n                /* \"#utility.yul\":8397:8398   */\n              0x00\n                /* \"#utility.yul\":8390:8395   */\n              dup3\n                /* \"#utility.yul\":8360:8399   */\n              tag_77\n              jump\t// in\n            tag_185:\n                /* \"#utility.yul\":8333:8334   */\n              0x01\n                /* \"#utility.yul\":8326:8331   */\n              dup2\n                /* \"#utility.yul\":8322:8335   */\n              add\n                /* \"#utility.yul\":8313:8335   */\n              swap1\n              pop\n                /* \"#utility.yul\":8289:8409   */\n              jump(tag_182)\n            tag_184:\n                /* \"#utility.yul\":8229:8415   */\n              pop\n              pop\n              jump\t// out\n                /* \"#utility.yul\":8421:8964   */\n            tag_79:\n                /* \"#utility.yul\":8522:8524   */\n              0x1f\n                /* \"#utility.yul\":8517:8520   */\n              dup3\n                /* \"#utility.yul\":8514:8525   */\n              gt\n                /* \"#utility.yul\":8511:8957   */\n              iszero\n              tag_187\n              jumpi\n                /* \"#utility.yul\":8556:8594   */\n              tag_188\n                /* \"#utility.yul\":8588:8593   */\n              dup2\n                /* \"#utility.yul\":8556:8594   */\n              tag_68\n              jump\t// in\n            tag_188:\n                /* \"#utility.yul\":8640:8669   */\n              tag_189\n                /* \"#utility.yul\":8658:8668   */\n              dup5\n                /* \"#utility.yul\":8640:8669   */\n              tag_69\n              jump\t// in\n            tag_189:\n                /* \"#utility.yul\":8630:8638   */\n              dup2\n                /* \"#utility.yul\":8626:8670   */\n              add\n                /* \"#utility.yul\":8823:8825   */\n              0x20\n                /* \"#utility.yul\":8811:8821   */\n              dup6\n                /* \"#utility.yul\":8808:8826   */\n              lt\n                /* \"#utility.yul\":8805:8854   */\n              iszero\n              tag_190\n              jumpi\n                /* \"#utility.yul\":8844:8852   */\n              dup2\n                /* \"#utility.yul\":8829:8852   */\n              swap1\n              pop\n                /* \"#utility.yul\":8805:8854   */\n            tag_190:\n                /* \"#utility.yul\":8867:8947   */\n              tag_191\n                /* \"#utility.yul\":8923:8945   */\n              tag_192\n                /* \"#utility.yul\":8941:8944   */\n              dup6\n                /* \"#utility.yul\":8923:8945   */\n              tag_69\n              jump\t// in\n            tag_192:\n                /* \"#utility.yul\":8913:8921   */\n              dup4\n                /* \"#utility.yul\":8909:8946   */\n              add\n                /* \"#utility.yul\":8896:8907   */\n              dup3\n                /* \"#utility.yul\":8867:8947   */\n              tag_78\n              jump\t// in\n            tag_191:\n                /* \"#utility.yul\":8526:8957   */\n              pop\n              pop\n                /* \"#utility.yul\":8511:8957   */\n            tag_187:\n                /* \"#utility.yul\":8421:8964   */\n              pop\n              pop\n              pop\n              jump\t// out\n                /* \"#utility.yul\":8970:9087   */\n            tag_80:\n                /* \"#utility.yul\":9024:9032   */\n              0x00\n                /* \"#utility.yul\":9074:9079   */\n              dup3\n                /* \"#utility.yul\":9068:9072   */\n              dup3\n                /* \"#utility.yul\":9064:9080   */\n              shr\n                /* \"#utility.yul\":9043:9080   */\n              swap1\n              pop\n                /* \"#utility.yul\":8970:9087   */\n              swap3\n              swap2\n              pop\n              pop\n              jump\t// out\n                /* \"#utility.yul\":9093:9262   */\n            tag_81:\n                /* \"#utility.yul\":9137:9143   */\n              0x00\n                /* \"#utility.yul\":9170:9221   */\n              tag_195\n                /* \"#utility.yul\":9218:9219   */\n              0x00\n                /* \"#utility.yul\":9214:9220   */\n              not\n                /* \"#utility.yul\":9206:9211   */\n              dup5\n                /* \"#utility.yul\":9203:9204   */\n              0x08\n                /* \"#utility.yul\":9199:9212   */\n              mul\n                /* \"#utility.yul\":9170:9221   */\n              tag_80\n              jump\t// in\n            tag_195:\n                /* \"#utility.yul\":9166:9222   */\n              not\n                /* \"#utility.yul\":9251:9255   */\n              dup1\n                /* \"#utility.yul\":9245:9249   */\n              dup4\n                /* \"#utility.yul\":9241:9256   */\n              and\n                /* \"#utility.yul\":9231:9256   */\n              swap2\n              pop\n                /* \"#utility.yul\":9144:9262   */\n              pop\n                /* \"#utility.yul\":9093:9262   */\n              swap3\n              swap2\n              pop\n              pop\n              jump\t// out\n                /* \"#utility.yul\":9267:9562   */\n            tag_82:\n                /* \"#utility.yul\":9343:9347   */\n              0x00\n                /* \"#utility.yul\":9489:9518   */\n              tag_197\n                /* \"#utility.yul\":9514:9517   */\n              dup4\n                /* \"#utility.yul\":9508:9512   */\n              dup4\n                /* \"#utility.yul\":9489:9518   */\n              tag_81\n              jump\t// in\n            tag_197:\n                /* \"#utility.yul\":9481:9518   */\n              swap2\n              pop\n                /* \"#utility.yul\":9551:9554   */\n              dup3\n                /* \"#utility.yul\":9548:9549   */\n              0x02\n                /* \"#utility.yul\":9544:9555   */\n              mul\n                /* \"#utility.yul\":9538:9542   */\n              dup3\n                /* \"#utility.yul\":9535:9556   */\n              or\n                /* \"#utility.yul\":9527:9556   */\n              swap1\n              pop\n                /* \"#utility.yul\":9267:9562   */\n              swap3\n              swap2\n              pop\n              pop\n              jump\t// out\n                /* \"#utility.yul\":9567:10962   */\n            tag_35:\n                /* \"#utility.yul\":9684:9721   */\n              tag_199\n                /* \"#utility.yul\":9717:9720   */\n              dup3\n                /* \"#utility.yul\":9684:9721   */\n              tag_63\n              jump\t// in\n            tag_199:\n                /* \"#utility.yul\":9786:9804   */\n              0xffffffffffffffff\n                /* \"#utility.yul\":9778:9784   */\n              dup2\n                /* \"#utility.yul\":9775:9805   */\n              gt\n                /* \"#utility.yul\":9772:9828   */\n              iszero\n              tag_200\n              jumpi\n                /* \"#utility.yul\":9808:9826   */\n              tag_201\n              tag_56\n              jump\t// in\n            tag_201:\n                /* \"#utility.yul\":9772:9828   */\n            tag_200:\n                /* \"#utility.yul\":9852:9890   */\n              tag_202\n                /* \"#utility.yul\":9884:9888   */\n              dup3\n                /* \"#utility.yul\":9878:9889   */\n              sload\n                /* \"#utility.yul\":9852:9890   */\n              tag_41\n              jump\t// in\n            tag_202:\n                /* \"#utility.yul\":9937:10004   */\n              tag_203\n                /* \"#utility.yul\":9997:10003   */\n              dup3\n                /* \"#utility.yul\":9989:9995   */\n              dup3\n                /* \"#utility.yul\":9983:9987   */\n              dup6\n                /* \"#utility.yul\":9937:10004   */\n              tag_79\n              jump\t// in\n            tag_203:\n                /* \"#utility.yul\":10031:10032   */\n              0x00\n                /* \"#utility.yul\":10055:10059   */\n              0x20\n                /* \"#utility.yul\":10042:10059   */\n              swap1\n              pop\n                /* \"#utility.yul\":10087:10089   */\n              0x1f\n                /* \"#utility.yul\":10079:10085   */\n              dup4\n                /* \"#utility.yul\":10076:10090   */\n              gt\n                /* \"#utility.yul\":10104:10105   */\n              0x01\n                /* \"#utility.yul\":10099:10717   */\n              dup2\n              eq\n              tag_205\n              jumpi\n                /* \"#utility.yul\":10761:10762   */\n              0x00\n                /* \"#utility.yul\":10778:10784   */\n              dup5\n                /* \"#utility.yul\":10775:10852   */\n              iszero\n              tag_206\n              jumpi\n                /* \"#utility.yul\":10827:10836   */\n              dup3\n                /* \"#utility.yul\":10822:10825   */\n              dup8\n                /* \"#utility.yul\":10818:10837   */\n              add\n                /* \"#utility.yul\":10812:10838   */\n              mload\n                /* \"#utility.yul\":10803:10838   */\n              swap1\n              pop\n                /* \"#utility.yul\":10775:10852   */\n            tag_206:\n                /* \"#utility.yul\":10878:10945   */\n              tag_207\n                /* \"#utility.yul\":10938:10944   */\n              dup6\n                /* \"#utility.yul\":10931:10936   */\n              dup3\n                /* \"#utility.yul\":10878:10945   */\n              tag_82\n              jump\t// in\n            tag_207:\n                /* \"#utility.yul\":10872:10876   */\n              dup7\n                /* \"#utility.yul\":10865:10946   */\n              sstore\n                /* \"#utility.yul\":10734:10956   */\n              pop\n                /* \"#utility.yul\":10069:10956   */\n              jump(tag_204)\n                /* \"#utility.yul\":10099:10717   */\n            tag_205:\n                /* \"#utility.yul\":10151:10155   */\n              0x1f\n                /* \"#utility.yul\":10147:10156   */\n              not\n                /* \"#utility.yul\":10139:10145   */\n              dup5\n                /* \"#utility.yul\":10135:10157   */\n              and\n                /* \"#utility.yul\":10185:10222   */\n              tag_208\n                /* \"#utility.yul\":10217:10221   */\n              dup7\n                /* \"#utility.yul\":10185:10222   */\n              tag_68\n              jump\t// in\n            tag_208:\n                /* \"#utility.yul\":10244:10245   */\n              0x00\n                /* \"#utility.yul\":10258:10466   */\n            tag_209:\n                /* \"#utility.yul\":10272:10279   */\n              dup3\n                /* \"#utility.yul\":10269:10270   */\n              dup2\n                /* \"#utility.yul\":10266:10280   */\n              lt\n                /* \"#utility.yul\":10258:10466   */\n              iszero\n              tag_211\n              jumpi\n                /* \"#utility.yul\":10351:10360   */\n              dup5\n                /* \"#utility.yul\":10346:10349   */\n              dup10\n                /* \"#utility.yul\":10342:10361   */\n              add\n                /* \"#utility.yul\":10336:10362   */\n              mload\n                /* \"#utility.yul\":10328:10334   */\n              dup3\n                /* \"#utility.yul\":10321:10363   */\n              sstore\n                /* \"#utility.yul\":10402:10403   */\n              0x01\n                /* \"#utility.yul\":10394:10400   */\n              dup3\n                /* \"#utility.yul\":10390:10404   */\n              add\n                /* \"#utility.yul\":10380:10404   */\n              swap2\n              pop\n                /* \"#utility.yul\":10449:10451   */\n              0x20\n                /* \"#utility.yul\":10438:10447   */\n              dup6\n                /* \"#utility.yul\":10434:10452   */\n              add\n                /* \"#utility.yul\":10421:10452   */\n              swap5\n              pop\n                /* \"#utility.yul\":10295:10299   */\n              0x20\n                /* \"#utility.yul\":10292:10293   */\n              dup2\n                /* \"#utility.yul\":10288:10300   */\n              add\n                /* \"#utility.yul\":10283:10300   */\n              swap1\n              pop\n                /* \"#utility.yul\":10258:10466   */\n              jump(tag_209)\n            tag_211:\n                /* \"#utility.yul\":10494:10500   */\n              dup7\n                /* \"#utility.yul\":10485:10492   */\n              dup4\n                /* \"#utility.yul\":10482:10501   */\n              lt\n                /* \"#utility.yul\":10479:10658   */\n              iszero\n              tag_212\n              jumpi\n                /* \"#utility.yul\":10552:10561   */\n              dup5\n                /* \"#utility.yul\":10547:10550   */\n              dup10\n                /* \"#utility.yul\":10543:10562   */\n              add\n                /* \"#utility.yul\":10537:10563   */\n              mload\n                /* \"#utility.yul\":10595:10643   */\n              tag_213\n                /* \"#utility.yul\":10637:10641   */\n              0x1f\n                /* \"#utility.yul\":10629:10635   */\n              dup10\n                /* \"#utility.yul\":10625:10642   */\n              and\n                /* \"#utility.yul\":10614:10623   */\n              dup3\n                /* \"#utility.yul\":10595:10643   */\n              tag_81\n              jump\t// in\n            tag_213:\n                /* \"#utility.yul\":10587:10593   */\n              dup4\n                /* \"#utility.yul\":10580:10644   */\n              sstore\n                /* \"#utility.yul\":10502:10658   */\n              pop\n                /* \"#utility.yul\":10479:10658   */\n            tag_212:\n                /* \"#utility.yul\":10704:10705   */\n              0x01\n                /* \"#utility.yul\":10700:10701   */\n              0x02\n                /* \"#utility.yul\":10692:10698   */\n              dup9\n                /* \"#utility.yul\":10688:10702   */\n              mul\n                /* \"#utility.yul\":10684:10706   */\n              add\n                /* \"#utility.yul\":10678:10682   */\n              dup9\n                /* \"#utility.yul\":10671:10707   */\n              sstore\n                /* \"#utility.yul\":10106:10717   */\n              pop\n              pop\n              pop\n                /* \"#utility.yul\":10069:10956   */\n            tag_204:\n              pop\n                /* \"#utility.yul\":9659:10962   */\n              pop\n              pop\n              pop\n                /* \"#utility.yul\":9567:10962   */\n              pop\n              pop\n              jump\t// out\n                /* \"#utility.yul\":10968:11116   */\n            tag_83:\n                /* \"#utility.yul\":11070:11081   */\n              0x00\n                /* \"#utility.yul\":11107:11110   */\n              dup2\n                /* \"#utility.yul\":11092:11110   */\n              swap1\n              pop\n                /* \"#utility.yul\":10968:11116   */\n              swap3\n              swap2\n              pop\n              pop\n              jump\t// out\n                /* \"#utility.yul\":11122:11512   */\n            tag_84:\n                /* \"#utility.yul\":11228:11231   */\n              0x00\n                /* \"#utility.yul\":11256:11295   */\n              tag_216\n                /* \"#utility.yul\":11289:11294   */\n              dup3\n                /* \"#utility.yul\":11256:11295   */\n              tag_63\n              jump\t// in\n            tag_216:\n                /* \"#utility.yul\":11311:11400   */\n              tag_217\n                /* \"#utility.yul\":11393:11399   */\n              dup2\n                /* \"#utility.yul\":11388:11391   */\n              dup6\n                /* \"#utility.yul\":11311:11400   */\n              tag_83\n              jump\t// in\n            tag_217:\n                /* \"#utility.yul\":11304:11400   */\n              swap4\n              pop\n                /* \"#utility.yul\":11409:11474   */\n              tag_218\n                /* \"#utility.yul\":11467:11473   */\n              dup2\n                /* \"#utility.yul\":11462:11465   */\n              dup6\n                /* \"#utility.yul\":11455:11459   */\n              0x20\n                /* \"#utility.yul\":11448:11453   */\n              dup7\n                /* \"#utility.yul\":11444:11460   */\n              add\n                /* \"#utility.yul\":11409:11474   */\n              tag_65\n              jump\t// in\n            tag_218:\n                /* \"#utility.yul\":11499:11505   */\n              dup1\n                /* \"#utility.yul\":11494:11497   */\n              dup5\n                /* \"#utility.yul\":11490:11506   */\n              add\n                /* \"#utility.yul\":11483:11506   */\n              swap2\n              pop\n                /* \"#utility.yul\":11232:11512   */\n              pop\n                /* \"#utility.yul\":11122:11512   */\n              swap3\n              swap2\n              pop\n              pop\n              jump\t// out\n                /* \"#utility.yul\":11518:11793   */\n            tag_37:\n                /* \"#utility.yul\":11650:11653   */\n              0x00\n                /* \"#utility.yul\":11672:11767   */\n              tag_220\n                /* \"#utility.yul\":11763:11766   */\n              dup3\n                /* \"#utility.yul\":11754:11760   */\n              dup5\n                /* \"#utility.yul\":11672:11767   */\n              tag_84\n              jump\t// in\n            tag_220:\n                /* \"#utility.yul\":11665:11767   */\n              swap2\n              pop\n                /* \"#utility.yul\":11784:11787   */\n              dup2\n                /* \"#utility.yul\":11777:11787   */\n              swap1\n              pop\n                /* \"#utility.yul\":11518:11793   */\n              swap3\n              swap2\n              pop\n              pop\n              jump\t// out\n\n            auxdata: 0xa26469706673582212201d24e932cd4d8301a8615f79c4afa154d6b1ba158e7728d13d2172d1fd96d53464736f6c63430008120033\n        }\n    }\n\n    auxdata: 0xa26469706673582212201e1e0e5e43fccd30586160aa3e5cd7a407ce8eb988f4f3e1c5ed0bded5ea48b864736f6c63430008120033\n}\n",
				"bytecode": {
					"linkReferences": {},
					"object": "60806040526000600160006101000a81548160ff02191690831515021790555034801561002b57600080fd5b506116f68061003b6000396000f3fe608060405234801561001057600080fd5b50600436106100935760003560e01c80636f760f41116100665780636f760f41146100f85780638bab8dd5146101145780639e7a13ad14610144578063be2ec9cb14610175578063f5daaa02146101a557610093565b80631563700f146100985780631dda6541146100b45780632e64cec1146100be5780636057361d146100dc575b600080fd5b6100b260048036038101906100ad91906105e7565b6101d5565b005b6100bc610282565b005b6100c6610315565b6040516100d39190610636565b60405180910390f35b6100f660048036038101906100f19190610651565b61031e565b005b610112600480360381019061010d91906107c4565b610328565b005b61012e60048036038101906101299190610820565b6103b1565b60405161013b9190610636565b60405180910390f35b61015e60048036038101906101599190610651565b6103df565b60405161016c9291906108e8565b60405180910390f35b61018f600480360381019061018a9190610651565b61049b565b60405161019c9190610636565b60405180910390f35b6101bf60048036038101906101ba9190610651565b610551565b6040516101cc9190610997565b60405180910390f35b600482815481106101e9576101e86109b2565b5b9060005260206000200160009054906101000a900473ffffffffffffffffffffffffffffffffffffffff1673ffffffffffffffffffffffffffffffffffffffff16636057361d826040518263ffffffff1660e01b815260040161024c9190610636565b600060405180830381600087803b15801561026657600080fd5b505af115801561027a573d6000803e3d6000fd5b505050505050565b600060405161029090610590565b604051809103906000f0801580156102ac573d6000803e3d6000fd5b5090506004819080600181540180825580915050600190039060005260206000200160009091909190916101000a81548173ffffffffffffffffffffffffffffffffffffffff021916908373ffffffffffffffffffffffffffffffffffffffff16021790555050565b60008054905090565b8060008190555050565b600260405180604001604052808381526020018481525090806001815401808255809150506001900390600052602060002090600202016000909190919091506000820151816000015560208201518160010190816103879190610be3565b5050508060038360405161039b9190610cf1565b9081526020016040518091039020819055505050565b6003818051602081018201805184825260208301602085012081835280955050505050506000915090505481565b600281815481106103ef57600080fd5b906000526020600020906002020160009150905080600001549080600101805461041890610a10565b80601f016020809104026020016040519081016040528092919081815260200182805461044490610a10565b80156104915780601f1061046657610100808354040283529160200191610491565b820191906000526020600020905b81548152906001019060200180831161047457829003601f168201915b5050505050905082565b6000600482815481106104b1576104b06109b2565b5b9060005260206000200160009054906101000a900473ffffffffffffffffffffffffffffffffffffffff1673ffffffffffffffffffffffffffffffffffffffff16632e64cec16040518163ffffffff1660e01b8152600401602060405180830381865afa158015610526573d6000803e3d6000fd5b505050506040513d601f19601f8201168201806040525081019061054a9190610d1d565b9050919050565b6004818154811061056157600080fd5b906000526020600020016000915054906101000a900473ffffffffffffffffffffffffffffffffffffffff1681565b61097680610d4b83390190565b6000604051905090565b600080fd5b600080fd5b6000819050919050565b6105c4816105b1565b81146105cf57600080fd5b50565b6000813590506105e1816105bb565b92915050565b600080604083850312156105fe576105fd6105a7565b5b600061060c858286016105d2565b925050602061061d858286016105d2565b9150509250929050565b610630816105b1565b82525050565b600060208201905061064b6000830184610627565b92915050565b600060208284031215610667576106666105a7565b5b6000610675848285016105d2565b91505092915050565b600080fd5b600080fd5b6000601f19601f8301169050919050565b7f4e487b7100000000000000000000000000000000000000000000000000000000600052604160045260246000fd5b6106d182610688565b810181811067ffffffffffffffff821117156106f0576106ef610699565b5b80604052505050565b600061070361059d565b905061070f82826106c8565b919050565b600067ffffffffffffffff82111561072f5761072e610699565b5b61073882610688565b9050602081019050919050565b82818337600083830152505050565b600061076761076284610714565b6106f9565b90508281526020810184848401111561078357610782610683565b5b61078e848285610745565b509392505050565b600082601f8301126107ab576107aa61067e565b5b81356107bb848260208601610754565b91505092915050565b600080604083850312156107db576107da6105a7565b5b600083013567ffffffffffffffff8111156107f9576107f86105ac565b5b61080585828601610796565b9250506020610816858286016105d2565b9150509250929050565b600060208284031215610836576108356105a7565b5b600082013567ffffffffffffffff811115610854576108536105ac565b5b61086084828501610796565b91505092915050565b600081519050919050565b600082825260208201905092915050565b60005b838110156108a3578082015181840152602081019050610888565b60008484015250505050565b60006108ba82610869565b6108c48185610874565b93506108d4818560208601610885565b6108dd81610688565b840191505092915050565b60006040820190506108fd6000830185610627565b818103602083015261090f81846108af565b90509392505050565b600073ffffffffffffffffffffffffffffffffffffffff82169050919050565b6000819050919050565b600061095d61095861095384610918565b610938565b610918565b9050919050565b600061096f82610942565b9050919050565b600061098182610964565b9050919050565b61099181610976565b82525050565b60006020820190506109ac6000830184610988565b92915050565b7f4e487b7100000000000000000000000000000000000000000000000000000000600052603260045260246000fd5b7f4e487b7100000000000000000000000000000000000000000000000000000000600052602260045260246000fd5b60006002820490506001821680610a2857607f821691505b602082108103610a3b57610a3a6109e1565b5b50919050565b60008190508160005260206000209050919050565b60006020601f8301049050919050565b600082821b905092915050565b600060088302610aa37fffffffffffffffffffffffffffffffffffffffffffffffffffffffffffffffff82610a66565b610aad8683610a66565b95508019841693508086168417925050509392505050565b6000610ae0610adb610ad6846105b1565b610938565b6105b1565b9050919050565b6000819050919050565b610afa83610ac5565b610b0e610b0682610ae7565b848454610a73565b825550505050565b600090565b610b23610b16565b610b2e818484610af1565b505050565b5b81811015610b5257610b47600082610b1b565b600181019050610b34565b5050565b601f821115610b9757610b6881610a41565b610b7184610a56565b81016020851015610b80578190505b610b94610b8c85610a56565b830182610b33565b50505b505050565b600082821c905092915050565b6000610bba60001984600802610b9c565b1980831691505092915050565b6000610bd38383610ba9565b9150826002028217905092915050565b610bec82610869565b67ffffffffffffffff811115610c0557610c04610699565b5b610c0f8254610a10565b610c1a828285610b56565b600060209050601f831160018114610c4d5760008415610c3b578287015190505b610c458582610bc7565b865550610cad565b601f198416610c5b86610a41565b60005b82811015610c8357848901518255600182019150602085019450602081019050610c5e565b86831015610ca05784890151610c9c601f891682610ba9565b8355505b6001600288020188555050505b505050505050565b600081905092915050565b6000610ccb82610869565b610cd58185610cb5565b9350610ce5818560208601610885565b80840191505092915050565b6000610cfd8284610cc0565b915081905092915050565b600081519050610d17816105bb565b92915050565b600060208284031215610d3357610d326105a7565b5b6000610d4184828501610d08565b9150509291505056fe60806040526000600160006101000a81548160ff02191690831515021790555034801561002b57600080fd5b5061093b8061003b6000396000f3fe608060405234801561001057600080fd5b50600436106100575760003560e01c80632e64cec11461005c5780636057361d1461007a5780636f760f41146100965780638bab8dd5146100b25780639e7a13ad146100e2575b600080fd5b610064610113565b60405161007191906102b2565b60405180910390f35b610094600480360381019061008f919061030d565b61011c565b005b6100b060048036038101906100ab9190610480565b610126565b005b6100cc60048036038101906100c791906104dc565b6101af565b6040516100d991906102b2565b60405180910390f35b6100fc60048036038101906100f7919061030d565b6101dd565b60405161010a9291906105a4565b60405180910390f35b60008054905090565b8060008190555050565b6002604051806040016040528083815260200184815250908060018154018082558091505060019003906000526020600020906002020160009091909190915060008201518160000155602082015181600101908161018591906107e0565b5050508060038360405161019991906108ee565b9081526020016040518091039020819055505050565b6003818051602081018201805184825260208301602085012081835280955050505050506000915090505481565b600281815481106101ed57600080fd5b906000526020600020906002020160009150905080600001549080600101805461021690610603565b80601f016020809104026020016040519081016040528092919081815260200182805461024290610603565b801561028f5780601f106102645761010080835404028352916020019161028f565b820191906000526020600020905b81548152906001019060200180831161027257829003601f168201915b5050505050905082565b6000819050919050565b6102ac81610299565b82525050565b60006020820190506102c760008301846102a3565b92915050565b6000604051905090565b600080fd5b600080fd5b6102ea81610299565b81146102f557600080fd5b50565b600081359050610307816102e1565b92915050565b600060208284031215610323576103226102d7565b5b6000610331848285016102f8565b91505092915050565b600080fd5b600080fd5b6000601f19601f8301169050919050565b7f4e487b7100000000000000000000000000000000000000000000000000000000600052604160045260246000fd5b61038d82610344565b810181811067ffffffffffffffff821117156103ac576103ab610355565b5b80604052505050565b60006103bf6102cd565b90506103cb8282610384565b919050565b600067ffffffffffffffff8211156103eb576103ea610355565b5b6103f482610344565b9050602081019050919050565b82818337600083830152505050565b600061042361041e846103d0565b6103b5565b90508281526020810184848401111561043f5761043e61033f565b5b61044a848285610401565b509392505050565b600082601f8301126104675761046661033a565b5b8135610477848260208601610410565b91505092915050565b60008060408385031215610497576104966102d7565b5b600083013567ffffffffffffffff8111156104b5576104b46102dc565b5b6104c185828601610452565b92505060206104d2858286016102f8565b9150509250929050565b6000602082840312156104f2576104f16102d7565b5b600082013567ffffffffffffffff8111156105105761050f6102dc565b5b61051c84828501610452565b91505092915050565b600081519050919050565b600082825260208201905092915050565b60005b8381101561055f578082015181840152602081019050610544565b60008484015250505050565b600061057682610525565b6105808185610530565b9350610590818560208601610541565b61059981610344565b840191505092915050565b60006040820190506105b960008301856102a3565b81810360208301526105cb818461056b565b90509392505050565b7f4e487b7100000000000000000000000000000000000000000000000000000000600052602260045260246000fd5b6000600282049050600182168061061b57607f821691505b60208210810361062e5761062d6105d4565b5b50919050565b60008190508160005260206000209050919050565b60006020601f8301049050919050565b600082821b905092915050565b6000600883026106967fffffffffffffffffffffffffffffffffffffffffffffffffffffffffffffffff82610659565b6106a08683610659565b95508019841693508086168417925050509392505050565b6000819050919050565b60006106dd6106d86106d384610299565b6106b8565b610299565b9050919050565b6000819050919050565b6106f7836106c2565b61070b610703826106e4565b848454610666565b825550505050565b600090565b610720610713565b61072b8184846106ee565b505050565b5b8181101561074f57610744600082610718565b600181019050610731565b5050565b601f8211156107945761076581610634565b61076e84610649565b8101602085101561077d578190505b61079161078985610649565b830182610730565b50505b505050565b600082821c905092915050565b60006107b760001984600802610799565b1980831691505092915050565b60006107d083836107a6565b9150826002028217905092915050565b6107e982610525565b67ffffffffffffffff81111561080257610801610355565b5b61080c8254610603565b610817828285610753565b600060209050601f83116001811461084a5760008415610838578287015190505b61084285826107c4565b8655506108aa565b601f19841661085886610634565b60005b828110156108805784890151825560018201915060208501945060208101905061085b565b8683101561089d5784890151610899601f8916826107a6565b8355505b6001600288020188555050505b505050505050565b600081905092915050565b60006108c882610525565b6108d281856108b2565b93506108e2818560208601610541565b80840191505092915050565b60006108fa82846108bd565b91508190509291505056fea26469706673582212201d24e932cd4d8301a8615f79c4afa154d6b1ba158e7728d13d2172d1fd96d53464736f6c63430008120033a26469706673582212201e1e0e5e43fccd30586160aa3e5cd7a407ce8eb988f4f3e1c5ed0bded5ea48b864736f6c63430008120033",
					"opcodes": "PUSH1 0x80 PUSH1 0x40 MSTORE PUSH1 0x0 PUSH1 0x1 PUSH1 0x0 PUSH2 0x100 EXP DUP2 SLOAD DUP2 PUSH1 0xFF MUL NOT AND SWAP1 DUP4 ISZERO ISZERO MUL OR SWAP1 SSTORE POP CALLVALUE DUP1 ISZERO PUSH2 0x2B JUMPI PUSH1 0x0 DUP1 REVERT JUMPDEST POP PUSH2 0x16F6 DUP1 PUSH2 0x3B PUSH1 0x0 CODECOPY PUSH1 0x0 RETURN INVALID PUSH1 0x80 PUSH1 0x40 MSTORE CALLVALUE DUP1 ISZERO PUSH2 0x10 JUMPI PUSH1 0x0 DUP1 REVERT JUMPDEST POP PUSH1 0x4 CALLDATASIZE LT PUSH2 0x93 JUMPI PUSH1 0x0 CALLDATALOAD PUSH1 0xE0 SHR DUP1 PUSH4 0x6F760F41 GT PUSH2 0x66 JUMPI DUP1 PUSH4 0x6F760F41 EQ PUSH2 0xF8 JUMPI DUP1 PUSH4 0x8BAB8DD5 EQ PUSH2 0x114 JUMPI DUP1 PUSH4 0x9E7A13AD EQ PUSH2 0x144 JUMPI DUP1 PUSH4 0xBE2EC9CB EQ PUSH2 0x175 JUMPI DUP1 PUSH4 0xF5DAAA02 EQ PUSH2 0x1A5 JUMPI PUSH2 0x93 JUMP JUMPDEST DUP1 PUSH4 0x1563700F EQ PUSH2 0x98 JUMPI DUP1 PUSH4 0x1DDA6541 EQ PUSH2 0xB4 JUMPI DUP1 PUSH4 0x2E64CEC1 EQ PUSH2 0xBE JUMPI DUP1 PUSH4 0x6057361D EQ PUSH2 0xDC JUMPI JUMPDEST PUSH1 0x0 DUP1 REVERT JUMPDEST PUSH2 0xB2 PUSH1 0x4 DUP1 CALLDATASIZE SUB DUP2 ADD SWAP1 PUSH2 0xAD SWAP2 SWAP1 PUSH2 0x5E7 JUMP JUMPDEST PUSH2 0x1D5 JUMP JUMPDEST STOP JUMPDEST PUSH2 0xBC PUSH2 0x282 JUMP JUMPDEST STOP JUMPDEST PUSH2 0xC6 PUSH2 0x315 JUMP JUMPDEST PUSH1 0x40 MLOAD PUSH2 0xD3 SWAP2 SWAP1 PUSH2 0x636 JUMP JUMPDEST PUSH1 0x40 MLOAD DUP1 SWAP2 SUB SWAP1 RETURN JUMPDEST PUSH2 0xF6 PUSH1 0x4 DUP1 CALLDATASIZE SUB DUP2 ADD SWAP1 PUSH2 0xF1 SWAP2 SWAP1 PUSH2 0x651 JUMP JUMPDEST PUSH2 0x31E JUMP JUMPDEST STOP JUMPDEST PUSH2 0x112 PUSH1 0x4 DUP1 CALLDATASIZE SUB DUP2 ADD SWAP1 PUSH2 0x10D SWAP2 SWAP1 PUSH2 0x7C4 JUMP JUMPDEST PUSH2 0x328 JUMP JUMPDEST STOP JUMPDEST PUSH2 0x12E PUSH1 0x4 DUP1 CALLDATASIZE SUB DUP2 ADD SWAP1 PUSH2 0x129 SWAP2 SWAP1 PUSH2 0x820 JUMP JUMPDEST PUSH2 0x3B1 JUMP JUMPDEST PUSH1 0x40 MLOAD PUSH2 0x13B SWAP2 SWAP1 PUSH2 0x636 JUMP JUMPDEST PUSH1 0x40 MLOAD DUP1 SWAP2 SUB SWAP1 RETURN JUMPDEST PUSH2 0x15E PUSH1 0x4 DUP1 CALLDATASIZE SUB DUP2 ADD SWAP1 PUSH2 0x159 SWAP2 SWAP1 PUSH2 0x651 JUMP JUMPDEST PUSH2 0x3DF JUMP JUMPDEST PUSH1 0x40 MLOAD PUSH2 0x16C SWAP3 SWAP2 SWAP1 PUSH2 0x8E8 JUMP JUMPDEST PUSH1 0x40 MLOAD DUP1 SWAP2 SUB SWAP1 RETURN JUMPDEST PUSH2 0x18F PUSH1 0x4 DUP1 CALLDATASIZE SUB DUP2 ADD SWAP1 PUSH2 0x18A SWAP2 SWAP1 PUSH2 0x651 JUMP JUMPDEST PUSH2 0x49B JUMP JUMPDEST PUSH1 0x40 MLOAD PUSH2 0x19C SWAP2 SWAP1 PUSH2 0x636 JUMP JUMPDEST PUSH1 0x40 MLOAD DUP1 SWAP2 SUB SWAP1 RETURN JUMPDEST PUSH2 0x1BF PUSH1 0x4 DUP1 CALLDATASIZE SUB DUP2 ADD SWAP1 PUSH2 0x1BA SWAP2 SWAP1 PUSH2 0x651 JUMP JUMPDEST PUSH2 0x551 JUMP JUMPDEST PUSH1 0x40 MLOAD PUSH2 0x1CC SWAP2 SWAP1 PUSH2 0x997 JUMP JUMPDEST PUSH1 0x40 MLOAD DUP1 SWAP2 SUB SWAP1 RETURN JUMPDEST PUSH1 0x4 DUP3 DUP2 SLOAD DUP2 LT PUSH2 0x1E9 JUMPI PUSH2 0x1E8 PUSH2 0x9B2 JUMP JUMPDEST JUMPDEST SWAP1 PUSH1 0x0 MSTORE PUSH1 0x20 PUSH1 0x0 KECCAK256 ADD PUSH1 0x0 SWAP1 SLOAD SWAP1 PUSH2 0x100 EXP SWAP1 DIV PUSH20 0xFFFFFFFFFFFFFFFFFFFFFFFFFFFFFFFFFFFFFFFF AND PUSH20 0xFFFFFFFFFFFFFFFFFFFFFFFFFFFFFFFFFFFFFFFF AND PUSH4 0x6057361D DUP3 PUSH1 0x40 MLOAD DUP3 PUSH4 0xFFFFFFFF AND PUSH1 0xE0 SHL DUP2 MSTORE PUSH1 0x4 ADD PUSH2 0x24C SWAP2 SWAP1 PUSH2 0x636 JUMP JUMPDEST PUSH1 0x0 PUSH1 0x40 MLOAD DUP1 DUP4 SUB DUP2 PUSH1 0x0 DUP8 DUP1 EXTCODESIZE ISZERO DUP1 ISZERO PUSH2 0x266 JUMPI PUSH1 0x0 DUP1 REVERT JUMPDEST POP GAS CALL ISZERO DUP1 ISZERO PUSH2 0x27A JUMPI RETURNDATASIZE PUSH1 0x0 DUP1 RETURNDATACOPY RETURNDATASIZE PUSH1 0x0 REVERT JUMPDEST POP POP POP POP POP POP JUMP JUMPDEST PUSH1 0x0 PUSH1 0x40 MLOAD PUSH2 0x290 SWAP1 PUSH2 0x590 JUMP JUMPDEST PUSH1 0x40 MLOAD DUP1 SWAP2 SUB SWAP1 PUSH1 0x0 CREATE DUP1 ISZERO DUP1 ISZERO PUSH2 0x2AC JUMPI RETURNDATASIZE PUSH1 0x0 DUP1 RETURNDATACOPY RETURNDATASIZE PUSH1 0x0 REVERT JUMPDEST POP SWAP1 POP PUSH1 0x4 DUP2 SWAP1 DUP1 PUSH1 0x1 DUP2 SLOAD ADD DUP1 DUP3 SSTORE DUP1 SWAP2 POP POP PUSH1 0x1 SWAP1 SUB SWAP1 PUSH1 0x0 MSTORE PUSH1 0x20 PUSH1 0x0 KECCAK256 ADD PUSH1 0x0 SWAP1 SWAP2 SWAP1 SWAP2 SWAP1 SWAP2 PUSH2 0x100 EXP DUP2 SLOAD DUP2 PUSH20 0xFFFFFFFFFFFFFFFFFFFFFFFFFFFFFFFFFFFFFFFF MUL NOT AND SWAP1 DUP4 PUSH20 0xFFFFFFFFFFFFFFFFFFFFFFFFFFFFFFFFFFFFFFFF AND MUL OR SWAP1 SSTORE POP POP JUMP JUMPDEST PUSH1 0x0 DUP1 SLOAD SWAP1 POP SWAP1 JUMP JUMPDEST DUP1 PUSH1 0x0 DUP2 SWAP1 SSTORE POP POP JUMP JUMPDEST PUSH1 0x2 PUSH1 0x40 MLOAD DUP1 PUSH1 0x40 ADD PUSH1 0x40 MSTORE DUP1 DUP4 DUP2 MSTORE PUSH1 0x20 ADD DUP5 DUP2 MSTORE POP SWAP1 DUP1 PUSH1 0x1 DUP2 SLOAD ADD DUP1 DUP3 SSTORE DUP1 SWAP2 POP POP PUSH1 0x1 SWAP1 SUB SWAP1 PUSH1 0x0 MSTORE PUSH1 0x20 PUSH1 0x0 KECCAK256 SWAP1 PUSH1 0x2 MUL ADD PUSH1 0x0 SWAP1 SWAP2 SWAP1 SWAP2 SWAP1 SWAP2 POP PUSH1 0x0 DUP3 ADD MLOAD DUP2 PUSH1 0x0 ADD SSTORE PUSH1 0x20 DUP3 ADD MLOAD DUP2 PUSH1 0x1 ADD SWAP1 DUP2 PUSH2 0x387 SWAP2 SWAP1 PUSH2 0xBE3 JUMP JUMPDEST POP POP POP DUP1 PUSH1 0x3 DUP4 PUSH1 0x40 MLOAD PUSH2 0x39B SWAP2 SWAP1 PUSH2 0xCF1 JUMP JUMPDEST SWAP1 DUP2 MSTORE PUSH1 0x20 ADD PUSH1 0x40 MLOAD DUP1 SWAP2 SUB SWAP1 KECCAK256 DUP2 SWAP1 SSTORE POP POP POP JUMP JUMPDEST PUSH1 0x3 DUP2 DUP1 MLOAD PUSH1 0x20 DUP2 ADD DUP3 ADD DUP1 MLOAD DUP5 DUP3 MSTORE PUSH1 0x20 DUP4 ADD PUSH1 0x20 DUP6 ADD KECCAK256 DUP2 DUP4 MSTORE DUP1 SWAP6 POP POP POP POP POP POP PUSH1 0x0 SWAP2 POP SWAP1 POP SLOAD DUP2 JUMP JUMPDEST PUSH1 0x2 DUP2 DUP2 SLOAD DUP2 LT PUSH2 0x3EF JUMPI PUSH1 0x0 DUP1 REVERT JUMPDEST SWAP1 PUSH1 0x0 MSTORE PUSH1 0x20 PUSH1 0x0 KECCAK256 SWAP1 PUSH1 0x2 MUL ADD PUSH1 0x0 SWAP2 POP SWAP1 POP DUP1 PUSH1 0x0 ADD SLOAD SWAP1 DUP1 PUSH1 0x1 ADD DUP1 SLOAD PUSH2 0x418 SWAP1 PUSH2 0xA10 JUMP JUMPDEST DUP1 PUSH1 0x1F ADD PUSH1 0x20 DUP1 SWAP2 DIV MUL PUSH1 0x20 ADD PUSH1 0x40 MLOAD SWAP1 DUP2 ADD PUSH1 0x40 MSTORE DUP1 SWAP3 SWAP2 SWAP1 DUP2 DUP2 MSTORE PUSH1 0x20 ADD DUP3 DUP1 SLOAD PUSH2 0x444 SWAP1 PUSH2 0xA10 JUMP JUMPDEST DUP1 ISZERO PUSH2 0x491 JUMPI DUP1 PUSH1 0x1F LT PUSH2 0x466 JUMPI PUSH2 0x100 DUP1 DUP4 SLOAD DIV MUL DUP4 MSTORE SWAP2 PUSH1 0x20 ADD SWAP2 PUSH2 0x491 JUMP JUMPDEST DUP3 ADD SWAP2 SWAP1 PUSH1 0x0 MSTORE PUSH1 0x20 PUSH1 0x0 KECCAK256 SWAP1 JUMPDEST DUP2 SLOAD DUP2 MSTORE SWAP1 PUSH1 0x1 ADD SWAP1 PUSH1 0x20 ADD DUP1 DUP4 GT PUSH2 0x474 JUMPI DUP3 SWAP1 SUB PUSH1 0x1F AND DUP3 ADD SWAP2 JUMPDEST POP POP POP POP POP SWAP1 POP DUP3 JUMP JUMPDEST PUSH1 0x0 PUSH1 0x4 DUP3 DUP2 SLOAD DUP2 LT PUSH2 0x4B1 JUMPI PUSH2 0x4B0 PUSH2 0x9B2 JUMP JUMPDEST JUMPDEST SWAP1 PUSH1 0x0 MSTORE PUSH1 0x20 PUSH1 0x0 KECCAK256 ADD PUSH1 0x0 SWAP1 SLOAD SWAP1 PUSH2 0x100 EXP SWAP1 DIV PUSH20 0xFFFFFFFFFFFFFFFFFFFFFFFFFFFFFFFFFFFFFFFF AND PUSH20 0xFFFFFFFFFFFFFFFFFFFFFFFFFFFFFFFFFFFFFFFF AND PUSH4 0x2E64CEC1 PUSH1 0x40 MLOAD DUP2 PUSH4 0xFFFFFFFF AND PUSH1 0xE0 SHL DUP2 MSTORE PUSH1 0x4 ADD PUSH1 0x20 PUSH1 0x40 MLOAD DUP1 DUP4 SUB DUP2 DUP7 GAS STATICCALL ISZERO DUP1 ISZERO PUSH2 0x526 JUMPI RETURNDATASIZE PUSH1 0x0 DUP1 RETURNDATACOPY RETURNDATASIZE PUSH1 0x0 REVERT JUMPDEST POP POP POP POP PUSH1 0x40 MLOAD RETURNDATASIZE PUSH1 0x1F NOT PUSH1 0x1F DUP3 ADD AND DUP3 ADD DUP1 PUSH1 0x40 MSTORE POP DUP2 ADD SWAP1 PUSH2 0x54A SWAP2 SWAP1 PUSH2 0xD1D JUMP JUMPDEST SWAP1 POP SWAP2 SWAP1 POP JUMP JUMPDEST PUSH1 0x4 DUP2 DUP2 SLOAD DUP2 LT PUSH2 0x561 JUMPI PUSH1 0x0 DUP1 REVERT JUMPDEST SWAP1 PUSH1 0x0 MSTORE PUSH1 0x20 PUSH1 0x0 KECCAK256 ADD PUSH1 0x0 SWAP2 POP SLOAD SWAP1 PUSH2 0x100 EXP SWAP1 DIV PUSH20 0xFFFFFFFFFFFFFFFFFFFFFFFFFFFFFFFFFFFFFFFF AND DUP2 JUMP JUMPDEST PUSH2 0x976 DUP1 PUSH2 0xD4B DUP4 CODECOPY ADD SWAP1 JUMP JUMPDEST PUSH1 0x0 PUSH1 0x40 MLOAD SWAP1 POP SWAP1 JUMP JUMPDEST PUSH1 0x0 DUP1 REVERT JUMPDEST PUSH1 0x0 DUP1 REVERT JUMPDEST PUSH1 0x0 DUP2 SWAP1 POP SWAP2 SWAP1 POP JUMP JUMPDEST PUSH2 0x5C4 DUP2 PUSH2 0x5B1 JUMP JUMPDEST DUP2 EQ PUSH2 0x5CF JUMPI PUSH1 0x0 DUP1 REVERT JUMPDEST POP JUMP JUMPDEST PUSH1 0x0 DUP2 CALLDATALOAD SWAP1 POP PUSH2 0x5E1 DUP2 PUSH2 0x5BB JUMP JUMPDEST SWAP3 SWAP2 POP POP JUMP JUMPDEST PUSH1 0x0 DUP1 PUSH1 0x40 DUP4 DUP6 SUB SLT ISZERO PUSH2 0x5FE JUMPI PUSH2 0x5FD PUSH2 0x5A7 JUMP JUMPDEST JUMPDEST PUSH1 0x0 PUSH2 0x60C DUP6 DUP3 DUP7 ADD PUSH2 0x5D2 JUMP JUMPDEST SWAP3 POP POP PUSH1 0x20 PUSH2 0x61D DUP6 DUP3 DUP7 ADD PUSH2 0x5D2 JUMP JUMPDEST SWAP2 POP POP SWAP3 POP SWAP3 SWAP1 POP JUMP JUMPDEST PUSH2 0x630 DUP2 PUSH2 0x5B1 JUMP JUMPDEST DUP3 MSTORE POP POP JUMP JUMPDEST PUSH1 0x0 PUSH1 0x20 DUP3 ADD SWAP1 POP PUSH2 0x64B PUSH1 0x0 DUP4 ADD DUP5 PUSH2 0x627 JUMP JUMPDEST SWAP3 SWAP2 POP POP JUMP JUMPDEST PUSH1 0x0 PUSH1 0x20 DUP3 DUP5 SUB SLT ISZERO PUSH2 0x667 JUMPI PUSH2 0x666 PUSH2 0x5A7 JUMP JUMPDEST JUMPDEST PUSH1 0x0 PUSH2 0x675 DUP5 DUP3 DUP6 ADD PUSH2 0x5D2 JUMP JUMPDEST SWAP2 POP POP SWAP3 SWAP2 POP POP JUMP JUMPDEST PUSH1 0x0 DUP1 REVERT JUMPDEST PUSH1 0x0 DUP1 REVERT JUMPDEST PUSH1 0x0 PUSH1 0x1F NOT PUSH1 0x1F DUP4 ADD AND SWAP1 POP SWAP2 SWAP1 POP JUMP JUMPDEST PUSH32 0x4E487B7100000000000000000000000000000000000000000000000000000000 PUSH1 0x0 MSTORE PUSH1 0x41 PUSH1 0x4 MSTORE PUSH1 0x24 PUSH1 0x0 REVERT JUMPDEST PUSH2 0x6D1 DUP3 PUSH2 0x688 JUMP JUMPDEST DUP2 ADD DUP2 DUP2 LT PUSH8 0xFFFFFFFFFFFFFFFF DUP3 GT OR ISZERO PUSH2 0x6F0 JUMPI PUSH2 0x6EF PUSH2 0x699 JUMP JUMPDEST JUMPDEST DUP1 PUSH1 0x40 MSTORE POP POP POP JUMP JUMPDEST PUSH1 0x0 PUSH2 0x703 PUSH2 0x59D JUMP JUMPDEST SWAP1 POP PUSH2 0x70F DUP3 DUP3 PUSH2 0x6C8 JUMP JUMPDEST SWAP2 SWAP1 POP JUMP JUMPDEST PUSH1 0x0 PUSH8 0xFFFFFFFFFFFFFFFF DUP3 GT ISZERO PUSH2 0x72F JUMPI PUSH2 0x72E PUSH2 0x699 JUMP JUMPDEST JUMPDEST PUSH2 0x738 DUP3 PUSH2 0x688 JUMP JUMPDEST SWAP1 POP PUSH1 0x20 DUP2 ADD SWAP1 POP SWAP2 SWAP1 POP JUMP JUMPDEST DUP3 DUP2 DUP4 CALLDATACOPY PUSH1 0x0 DUP4 DUP4 ADD MSTORE POP POP POP JUMP JUMPDEST PUSH1 0x0 PUSH2 0x767 PUSH2 0x762 DUP5 PUSH2 0x714 JUMP JUMPDEST PUSH2 0x6F9 JUMP JUMPDEST SWAP1 POP DUP3 DUP2 MSTORE PUSH1 0x20 DUP2 ADD DUP5 DUP5 DUP5 ADD GT ISZERO PUSH2 0x783 JUMPI PUSH2 0x782 PUSH2 0x683 JUMP JUMPDEST JUMPDEST PUSH2 0x78E DUP5 DUP3 DUP6 PUSH2 0x745 JUMP JUMPDEST POP SWAP4 SWAP3 POP POP POP JUMP JUMPDEST PUSH1 0x0 DUP3 PUSH1 0x1F DUP4 ADD SLT PUSH2 0x7AB JUMPI PUSH2 0x7AA PUSH2 0x67E JUMP JUMPDEST JUMPDEST DUP2 CALLDATALOAD PUSH2 0x7BB DUP5 DUP3 PUSH1 0x20 DUP7 ADD PUSH2 0x754 JUMP JUMPDEST SWAP2 POP POP SWAP3 SWAP2 POP POP JUMP JUMPDEST PUSH1 0x0 DUP1 PUSH1 0x40 DUP4 DUP6 SUB SLT ISZERO PUSH2 0x7DB JUMPI PUSH2 0x7DA PUSH2 0x5A7 JUMP JUMPDEST JUMPDEST PUSH1 0x0 DUP4 ADD CALLDATALOAD PUSH8 0xFFFFFFFFFFFFFFFF DUP2 GT ISZERO PUSH2 0x7F9 JUMPI PUSH2 0x7F8 PUSH2 0x5AC JUMP JUMPDEST JUMPDEST PUSH2 0x805 DUP6 DUP3 DUP7 ADD PUSH2 0x796 JUMP JUMPDEST SWAP3 POP POP PUSH1 0x20 PUSH2 0x816 DUP6 DUP3 DUP7 ADD PUSH2 0x5D2 JUMP JUMPDEST SWAP2 POP POP SWAP3 POP SWAP3 SWAP1 POP JUMP JUMPDEST PUSH1 0x0 PUSH1 0x20 DUP3 DUP5 SUB SLT ISZERO PUSH2 0x836 JUMPI PUSH2 0x835 PUSH2 0x5A7 JUMP JUMPDEST JUMPDEST PUSH1 0x0 DUP3 ADD CALLDATALOAD PUSH8 0xFFFFFFFFFFFFFFFF DUP2 GT ISZERO PUSH2 0x854 JUMPI PUSH2 0x853 PUSH2 0x5AC JUMP JUMPDEST JUMPDEST PUSH2 0x860 DUP5 DUP3 DUP6 ADD PUSH2 0x796 JUMP JUMPDEST SWAP2 POP POP SWAP3 SWAP2 POP POP JUMP JUMPDEST PUSH1 0x0 DUP2 MLOAD SWAP1 POP SWAP2 SWAP1 POP JUMP JUMPDEST PUSH1 0x0 DUP3 DUP3 MSTORE PUSH1 0x20 DUP3 ADD SWAP1 POP SWAP3 SWAP2 POP POP JUMP JUMPDEST PUSH1 0x0 JUMPDEST DUP4 DUP2 LT ISZERO PUSH2 0x8A3 JUMPI DUP1 DUP3 ADD MLOAD DUP2 DUP5 ADD MSTORE PUSH1 0x20 DUP2 ADD SWAP1 POP PUSH2 0x888 JUMP JUMPDEST PUSH1 0x0 DUP5 DUP5 ADD MSTORE POP POP POP POP JUMP JUMPDEST PUSH1 0x0 PUSH2 0x8BA DUP3 PUSH2 0x869 JUMP JUMPDEST PUSH2 0x8C4 DUP2 DUP6 PUSH2 0x874 JUMP JUMPDEST SWAP4 POP PUSH2 0x8D4 DUP2 DUP6 PUSH1 0x20 DUP7 ADD PUSH2 0x885 JUMP JUMPDEST PUSH2 0x8DD DUP2 PUSH2 0x688 JUMP JUMPDEST DUP5 ADD SWAP2 POP POP SWAP3 SWAP2 POP POP JUMP JUMPDEST PUSH1 0x0 PUSH1 0x40 DUP3 ADD SWAP1 POP PUSH2 0x8FD PUSH1 0x0 DUP4 ADD DUP6 PUSH2 0x627 JUMP JUMPDEST DUP2 DUP2 SUB PUSH1 0x20 DUP4 ADD MSTORE PUSH2 0x90F DUP2 DUP5 PUSH2 0x8AF JUMP JUMPDEST SWAP1 POP SWAP4 SWAP3 POP POP POP JUMP JUMPDEST PUSH1 0x0 PUSH20 0xFFFFFFFFFFFFFFFFFFFFFFFFFFFFFFFFFFFFFFFF DUP3 AND SWAP1 POP SWAP2 SWAP1 POP JUMP JUMPDEST PUSH1 0x0 DUP2 SWAP1 POP SWAP2 SWAP1 POP JUMP JUMPDEST PUSH1 0x0 PUSH2 0x95D PUSH2 0x958 PUSH2 0x953 DUP5 PUSH2 0x918 JUMP JUMPDEST PUSH2 0x938 JUMP JUMPDEST PUSH2 0x918 JUMP JUMPDEST SWAP1 POP SWAP2 SWAP1 POP JUMP JUMPDEST PUSH1 0x0 PUSH2 0x96F DUP3 PUSH2 0x942 JUMP JUMPDEST SWAP1 POP SWAP2 SWAP1 POP JUMP JUMPDEST PUSH1 0x0 PUSH2 0x981 DUP3 PUSH2 0x964 JUMP JUMPDEST SWAP1 POP SWAP2 SWAP1 POP JUMP JUMPDEST PUSH2 0x991 DUP2 PUSH2 0x976 JUMP JUMPDEST DUP3 MSTORE POP POP JUMP JUMPDEST PUSH1 0x0 PUSH1 0x20 DUP3 ADD SWAP1 POP PUSH2 0x9AC PUSH1 0x0 DUP4 ADD DUP5 PUSH2 0x988 JUMP JUMPDEST SWAP3 SWAP2 POP POP JUMP JUMPDEST PUSH32 0x4E487B7100000000000000000000000000000000000000000000000000000000 PUSH1 0x0 MSTORE PUSH1 0x32 PUSH1 0x4 MSTORE PUSH1 0x24 PUSH1 0x0 REVERT JUMPDEST PUSH32 0x4E487B7100000000000000000000000000000000000000000000000000000000 PUSH1 0x0 MSTORE PUSH1 0x22 PUSH1 0x4 MSTORE PUSH1 0x24 PUSH1 0x0 REVERT JUMPDEST PUSH1 0x0 PUSH1 0x2 DUP3 DIV SWAP1 POP PUSH1 0x1 DUP3 AND DUP1 PUSH2 0xA28 JUMPI PUSH1 0x7F DUP3 AND SWAP2 POP JUMPDEST PUSH1 0x20 DUP3 LT DUP2 SUB PUSH2 0xA3B JUMPI PUSH2 0xA3A PUSH2 0x9E1 JUMP JUMPDEST JUMPDEST POP SWAP2 SWAP1 POP JUMP JUMPDEST PUSH1 0x0 DUP2 SWAP1 POP DUP2 PUSH1 0x0 MSTORE PUSH1 0x20 PUSH1 0x0 KECCAK256 SWAP1 POP SWAP2 SWAP1 POP JUMP JUMPDEST PUSH1 0x0 PUSH1 0x20 PUSH1 0x1F DUP4 ADD DIV SWAP1 POP SWAP2 SWAP1 POP JUMP JUMPDEST PUSH1 0x0 DUP3 DUP3 SHL SWAP1 POP SWAP3 SWAP2 POP POP JUMP JUMPDEST PUSH1 0x0 PUSH1 0x8 DUP4 MUL PUSH2 0xAA3 PUSH32 0xFFFFFFFFFFFFFFFFFFFFFFFFFFFFFFFFFFFFFFFFFFFFFFFFFFFFFFFFFFFFFFFF DUP3 PUSH2 0xA66 JUMP JUMPDEST PUSH2 0xAAD DUP7 DUP4 PUSH2 0xA66 JUMP JUMPDEST SWAP6 POP DUP1 NOT DUP5 AND SWAP4 POP DUP1 DUP7 AND DUP5 OR SWAP3 POP POP POP SWAP4 SWAP3 POP POP POP JUMP JUMPDEST PUSH1 0x0 PUSH2 0xAE0 PUSH2 0xADB PUSH2 0xAD6 DUP5 PUSH2 0x5B1 JUMP JUMPDEST PUSH2 0x938 JUMP JUMPDEST PUSH2 0x5B1 JUMP JUMPDEST SWAP1 POP SWAP2 SWAP1 POP JUMP JUMPDEST PUSH1 0x0 DUP2 SWAP1 POP SWAP2 SWAP1 POP JUMP JUMPDEST PUSH2 0xAFA DUP4 PUSH2 0xAC5 JUMP JUMPDEST PUSH2 0xB0E PUSH2 0xB06 DUP3 PUSH2 0xAE7 JUMP JUMPDEST DUP5 DUP5 SLOAD PUSH2 0xA73 JUMP JUMPDEST DUP3 SSTORE POP POP POP POP JUMP JUMPDEST PUSH1 0x0 SWAP1 JUMP JUMPDEST PUSH2 0xB23 PUSH2 0xB16 JUMP JUMPDEST PUSH2 0xB2E DUP2 DUP5 DUP5 PUSH2 0xAF1 JUMP JUMPDEST POP POP POP JUMP JUMPDEST JUMPDEST DUP2 DUP2 LT ISZERO PUSH2 0xB52 JUMPI PUSH2 0xB47 PUSH1 0x0 DUP3 PUSH2 0xB1B JUMP JUMPDEST PUSH1 0x1 DUP2 ADD SWAP1 POP PUSH2 0xB34 JUMP JUMPDEST POP POP JUMP JUMPDEST PUSH1 0x1F DUP3 GT ISZERO PUSH2 0xB97 JUMPI PUSH2 0xB68 DUP2 PUSH2 0xA41 JUMP JUMPDEST PUSH2 0xB71 DUP5 PUSH2 0xA56 JUMP JUMPDEST DUP2 ADD PUSH1 0x20 DUP6 LT ISZERO PUSH2 0xB80 JUMPI DUP2 SWAP1 POP JUMPDEST PUSH2 0xB94 PUSH2 0xB8C DUP6 PUSH2 0xA56 JUMP JUMPDEST DUP4 ADD DUP3 PUSH2 0xB33 JUMP JUMPDEST POP POP JUMPDEST POP POP POP JUMP JUMPDEST PUSH1 0x0 DUP3 DUP3 SHR SWAP1 POP SWAP3 SWAP2 POP POP JUMP JUMPDEST PUSH1 0x0 PUSH2 0xBBA PUSH1 0x0 NOT DUP5 PUSH1 0x8 MUL PUSH2 0xB9C JUMP JUMPDEST NOT DUP1 DUP4 AND SWAP2 POP POP SWAP3 SWAP2 POP POP JUMP JUMPDEST PUSH1 0x0 PUSH2 0xBD3 DUP4 DUP4 PUSH2 0xBA9 JUMP JUMPDEST SWAP2 POP DUP3 PUSH1 0x2 MUL DUP3 OR SWAP1 POP SWAP3 SWAP2 POP POP JUMP JUMPDEST PUSH2 0xBEC DUP3 PUSH2 0x869 JUMP JUMPDEST PUSH8 0xFFFFFFFFFFFFFFFF DUP2 GT ISZERO PUSH2 0xC05 JUMPI PUSH2 0xC04 PUSH2 0x699 JUMP JUMPDEST JUMPDEST PUSH2 0xC0F DUP3 SLOAD PUSH2 0xA10 JUMP JUMPDEST PUSH2 0xC1A DUP3 DUP3 DUP6 PUSH2 0xB56 JUMP JUMPDEST PUSH1 0x0 PUSH1 0x20 SWAP1 POP PUSH1 0x1F DUP4 GT PUSH1 0x1 DUP2 EQ PUSH2 0xC4D JUMPI PUSH1 0x0 DUP5 ISZERO PUSH2 0xC3B JUMPI DUP3 DUP8 ADD MLOAD SWAP1 POP JUMPDEST PUSH2 0xC45 DUP6 DUP3 PUSH2 0xBC7 JUMP JUMPDEST DUP7 SSTORE POP PUSH2 0xCAD JUMP JUMPDEST PUSH1 0x1F NOT DUP5 AND PUSH2 0xC5B DUP7 PUSH2 0xA41 JUMP JUMPDEST PUSH1 0x0 JUMPDEST DUP3 DUP2 LT ISZERO PUSH2 0xC83 JUMPI DUP5 DUP10 ADD MLOAD DUP3 SSTORE PUSH1 0x1 DUP3 ADD SWAP2 POP PUSH1 0x20 DUP6 ADD SWAP5 POP PUSH1 0x20 DUP2 ADD SWAP1 POP PUSH2 0xC5E JUMP JUMPDEST DUP7 DUP4 LT ISZERO PUSH2 0xCA0 JUMPI DUP5 DUP10 ADD MLOAD PUSH2 0xC9C PUSH1 0x1F DUP10 AND DUP3 PUSH2 0xBA9 JUMP JUMPDEST DUP4 SSTORE POP JUMPDEST PUSH1 0x1 PUSH1 0x2 DUP9 MUL ADD DUP9 SSTORE POP POP POP JUMPDEST POP POP POP POP POP POP JUMP JUMPDEST PUSH1 0x0 DUP2 SWAP1 POP SWAP3 SWAP2 POP POP JUMP JUMPDEST PUSH1 0x0 PUSH2 0xCCB DUP3 PUSH2 0x869 JUMP JUMPDEST PUSH2 0xCD5 DUP2 DUP6 PUSH2 0xCB5 JUMP JUMPDEST SWAP4 POP PUSH2 0xCE5 DUP2 DUP6 PUSH1 0x20 DUP7 ADD PUSH2 0x885 JUMP JUMPDEST DUP1 DUP5 ADD SWAP2 POP POP SWAP3 SWAP2 POP POP JUMP JUMPDEST PUSH1 0x0 PUSH2 0xCFD DUP3 DUP5 PUSH2 0xCC0 JUMP JUMPDEST SWAP2 POP DUP2 SWAP1 POP SWAP3 SWAP2 POP POP JUMP JUMPDEST PUSH1 0x0 DUP2 MLOAD SWAP1 POP PUSH2 0xD17 DUP2 PUSH2 0x5BB JUMP JUMPDEST SWAP3 SWAP2 POP POP JUMP JUMPDEST PUSH1 0x0 PUSH1 0x20 DUP3 DUP5 SUB SLT ISZERO PUSH2 0xD33 JUMPI PUSH2 0xD32 PUSH2 0x5A7 JUMP JUMPDEST JUMPDEST PUSH1 0x0 PUSH2 0xD41 DUP5 DUP3 DUP6 ADD PUSH2 0xD08 JUMP JUMPDEST SWAP2 POP POP SWAP3 SWAP2 POP POP JUMP INVALID PUSH1 0x80 PUSH1 0x40 MSTORE PUSH1 0x0 PUSH1 0x1 PUSH1 0x0 PUSH2 0x100 EXP DUP2 SLOAD DUP2 PUSH1 0xFF MUL NOT AND SWAP1 DUP4 ISZERO ISZERO MUL OR SWAP1 SSTORE POP CALLVALUE DUP1 ISZERO PUSH2 0x2B JUMPI PUSH1 0x0 DUP1 REVERT JUMPDEST POP PUSH2 0x93B DUP1 PUSH2 0x3B PUSH1 0x0 CODECOPY PUSH1 0x0 RETURN INVALID PUSH1 0x80 PUSH1 0x40 MSTORE CALLVALUE DUP1 ISZERO PUSH2 0x10 JUMPI PUSH1 0x0 DUP1 REVERT JUMPDEST POP PUSH1 0x4 CALLDATASIZE LT PUSH2 0x57 JUMPI PUSH1 0x0 CALLDATALOAD PUSH1 0xE0 SHR DUP1 PUSH4 0x2E64CEC1 EQ PUSH2 0x5C JUMPI DUP1 PUSH4 0x6057361D EQ PUSH2 0x7A JUMPI DUP1 PUSH4 0x6F760F41 EQ PUSH2 0x96 JUMPI DUP1 PUSH4 0x8BAB8DD5 EQ PUSH2 0xB2 JUMPI DUP1 PUSH4 0x9E7A13AD EQ PUSH2 0xE2 JUMPI JUMPDEST PUSH1 0x0 DUP1 REVERT JUMPDEST PUSH2 0x64 PUSH2 0x113 JUMP JUMPDEST PUSH1 0x40 MLOAD PUSH2 0x71 SWAP2 SWAP1 PUSH2 0x2B2 JUMP JUMPDEST PUSH1 0x40 MLOAD DUP1 SWAP2 SUB SWAP1 RETURN JUMPDEST PUSH2 0x94 PUSH1 0x4 DUP1 CALLDATASIZE SUB DUP2 ADD SWAP1 PUSH2 0x8F SWAP2 SWAP1 PUSH2 0x30D JUMP JUMPDEST PUSH2 0x11C JUMP JUMPDEST STOP JUMPDEST PUSH2 0xB0 PUSH1 0x4 DUP1 CALLDATASIZE SUB DUP2 ADD SWAP1 PUSH2 0xAB SWAP2 SWAP1 PUSH2 0x480 JUMP JUMPDEST PUSH2 0x126 JUMP JUMPDEST STOP JUMPDEST PUSH2 0xCC PUSH1 0x4 DUP1 CALLDATASIZE SUB DUP2 ADD SWAP1 PUSH2 0xC7 SWAP2 SWAP1 PUSH2 0x4DC JUMP JUMPDEST PUSH2 0x1AF JUMP JUMPDEST PUSH1 0x40 MLOAD PUSH2 0xD9 SWAP2 SWAP1 PUSH2 0x2B2 JUMP JUMPDEST PUSH1 0x40 MLOAD DUP1 SWAP2 SUB SWAP1 RETURN JUMPDEST PUSH2 0xFC PUSH1 0x4 DUP1 CALLDATASIZE SUB DUP2 ADD SWAP1 PUSH2 0xF7 SWAP2 SWAP1 PUSH2 0x30D JUMP JUMPDEST PUSH2 0x1DD JUMP JUMPDEST PUSH1 0x40 MLOAD PUSH2 0x10A SWAP3 SWAP2 SWAP1 PUSH2 0x5A4 JUMP JUMPDEST PUSH1 0x40 MLOAD DUP1 SWAP2 SUB SWAP1 RETURN JUMPDEST PUSH1 0x0 DUP1 SLOAD SWAP1 POP SWAP1 JUMP JUMPDEST DUP1 PUSH1 0x0 DUP2 SWAP1 SSTORE POP POP JUMP JUMPDEST PUSH1 0x2 PUSH1 0x40 MLOAD DUP1 PUSH1 0x40 ADD PUSH1 0x40 MSTORE DUP1 DUP4 DUP2 MSTORE PUSH1 0x20 ADD DUP5 DUP2 MSTORE POP SWAP1 DUP1 PUSH1 0x1 DUP2 SLOAD ADD DUP1 DUP3 SSTORE DUP1 SWAP2 POP POP PUSH1 0x1 SWAP1 SUB SWAP1 PUSH1 0x0 MSTORE PUSH1 0x20 PUSH1 0x0 KECCAK256 SWAP1 PUSH1 0x2 MUL ADD PUSH1 0x0 SWAP1 SWAP2 SWAP1 SWAP2 SWAP1 SWAP2 POP PUSH1 0x0 DUP3 ADD MLOAD DUP2 PUSH1 0x0 ADD SSTORE PUSH1 0x20 DUP3 ADD MLOAD DUP2 PUSH1 0x1 ADD SWAP1 DUP2 PUSH2 0x185 SWAP2 SWAP1 PUSH2 0x7E0 JUMP JUMPDEST POP POP POP DUP1 PUSH1 0x3 DUP4 PUSH1 0x40 MLOAD PUSH2 0x199 SWAP2 SWAP1 PUSH2 0x8EE JUMP JUMPDEST SWAP1 DUP2 MSTORE PUSH1 0x20 ADD PUSH1 0x40 MLOAD DUP1 SWAP2 SUB SWAP1 KECCAK256 DUP2 SWAP1 SSTORE POP POP POP JUMP JUMPDEST PUSH1 0x3 DUP2 DUP1 MLOAD PUSH1 0x20 DUP2 ADD DUP3 ADD DUP1 MLOAD DUP5 DUP3 MSTORE PUSH1 0x20 DUP4 ADD PUSH1 0x20 DUP6 ADD KECCAK256 DUP2 DUP4 MSTORE DUP1 SWAP6 POP POP POP POP POP POP PUSH1 0x0 SWAP2 POP SWAP1 POP SLOAD DUP2 JUMP JUMPDEST PUSH1 0x2 DUP2 DUP2 SLOAD DUP2 LT PUSH2 0x1ED JUMPI PUSH1 0x0 DUP1 REVERT JUMPDEST SWAP1 PUSH1 0x0 MSTORE PUSH1 0x20 PUSH1 0x0 KECCAK256 SWAP1 PUSH1 0x2 MUL ADD PUSH1 0x0 SWAP2 POP SWAP1 POP DUP1 PUSH1 0x0 ADD SLOAD SWAP1 DUP1 PUSH1 0x1 ADD DUP1 SLOAD PUSH2 0x216 SWAP1 PUSH2 0x603 JUMP JUMPDEST DUP1 PUSH1 0x1F ADD PUSH1 0x20 DUP1 SWAP2 DIV MUL PUSH1 0x20 ADD PUSH1 0x40 MLOAD SWAP1 DUP2 ADD PUSH1 0x40 MSTORE DUP1 SWAP3 SWAP2 SWAP1 DUP2 DUP2 MSTORE PUSH1 0x20 ADD DUP3 DUP1 SLOAD PUSH2 0x242 SWAP1 PUSH2 0x603 JUMP JUMPDEST DUP1 ISZERO PUSH2 0x28F JUMPI DUP1 PUSH1 0x1F LT PUSH2 0x264 JUMPI PUSH2 0x100 DUP1 DUP4 SLOAD DIV MUL DUP4 MSTORE SWAP2 PUSH1 0x20 ADD SWAP2 PUSH2 0x28F JUMP JUMPDEST DUP3 ADD SWAP2 SWAP1 PUSH1 0x0 MSTORE PUSH1 0x20 PUSH1 0x0 KECCAK256 SWAP1 JUMPDEST DUP2 SLOAD DUP2 MSTORE SWAP1 PUSH1 0x1 ADD SWAP1 PUSH1 0x20 ADD DUP1 DUP4 GT PUSH2 0x272 JUMPI DUP3 SWAP1 SUB PUSH1 0x1F AND DUP3 ADD SWAP2 JUMPDEST POP POP POP POP POP SWAP1 POP DUP3 JUMP JUMPDEST PUSH1 0x0 DUP2 SWAP1 POP SWAP2 SWAP1 POP JUMP JUMPDEST PUSH2 0x2AC DUP2 PUSH2 0x299 JUMP JUMPDEST DUP3 MSTORE POP POP JUMP JUMPDEST PUSH1 0x0 PUSH1 0x20 DUP3 ADD SWAP1 POP PUSH2 0x2C7 PUSH1 0x0 DUP4 ADD DUP5 PUSH2 0x2A3 JUMP JUMPDEST SWAP3 SWAP2 POP POP JUMP JUMPDEST PUSH1 0x0 PUSH1 0x40 MLOAD SWAP1 POP SWAP1 JUMP JUMPDEST PUSH1 0x0 DUP1 REVERT JUMPDEST PUSH1 0x0 DUP1 REVERT JUMPDEST PUSH2 0x2EA DUP2 PUSH2 0x299 JUMP JUMPDEST DUP2 EQ PUSH2 0x2F5 JUMPI PUSH1 0x0 DUP1 REVERT JUMPDEST POP JUMP JUMPDEST PUSH1 0x0 DUP2 CALLDATALOAD SWAP1 POP PUSH2 0x307 DUP2 PUSH2 0x2E1 JUMP JUMPDEST SWAP3 SWAP2 POP POP JUMP JUMPDEST PUSH1 0x0 PUSH1 0x20 DUP3 DUP5 SUB SLT ISZERO PUSH2 0x323 JUMPI PUSH2 0x322 PUSH2 0x2D7 JUMP JUMPDEST JUMPDEST PUSH1 0x0 PUSH2 0x331 DUP5 DUP3 DUP6 ADD PUSH2 0x2F8 JUMP JUMPDEST SWAP2 POP POP SWAP3 SWAP2 POP POP JUMP JUMPDEST PUSH1 0x0 DUP1 REVERT JUMPDEST PUSH1 0x0 DUP1 REVERT JUMPDEST PUSH1 0x0 PUSH1 0x1F NOT PUSH1 0x1F DUP4 ADD AND SWAP1 POP SWAP2 SWAP1 POP JUMP JUMPDEST PUSH32 0x4E487B7100000000000000000000000000000000000000000000000000000000 PUSH1 0x0 MSTORE PUSH1 0x41 PUSH1 0x4 MSTORE PUSH1 0x24 PUSH1 0x0 REVERT JUMPDEST PUSH2 0x38D DUP3 PUSH2 0x344 JUMP JUMPDEST DUP2 ADD DUP2 DUP2 LT PUSH8 0xFFFFFFFFFFFFFFFF DUP3 GT OR ISZERO PUSH2 0x3AC JUMPI PUSH2 0x3AB PUSH2 0x355 JUMP JUMPDEST JUMPDEST DUP1 PUSH1 0x40 MSTORE POP POP POP JUMP JUMPDEST PUSH1 0x0 PUSH2 0x3BF PUSH2 0x2CD JUMP JUMPDEST SWAP1 POP PUSH2 0x3CB DUP3 DUP3 PUSH2 0x384 JUMP JUMPDEST SWAP2 SWAP1 POP JUMP JUMPDEST PUSH1 0x0 PUSH8 0xFFFFFFFFFFFFFFFF DUP3 GT ISZERO PUSH2 0x3EB JUMPI PUSH2 0x3EA PUSH2 0x355 JUMP JUMPDEST JUMPDEST PUSH2 0x3F4 DUP3 PUSH2 0x344 JUMP JUMPDEST SWAP1 POP PUSH1 0x20 DUP2 ADD SWAP1 POP SWAP2 SWAP1 POP JUMP JUMPDEST DUP3 DUP2 DUP4 CALLDATACOPY PUSH1 0x0 DUP4 DUP4 ADD MSTORE POP POP POP JUMP JUMPDEST PUSH1 0x0 PUSH2 0x423 PUSH2 0x41E DUP5 PUSH2 0x3D0 JUMP JUMPDEST PUSH2 0x3B5 JUMP JUMPDEST SWAP1 POP DUP3 DUP2 MSTORE PUSH1 0x20 DUP2 ADD DUP5 DUP5 DUP5 ADD GT ISZERO PUSH2 0x43F JUMPI PUSH2 0x43E PUSH2 0x33F JUMP JUMPDEST JUMPDEST PUSH2 0x44A DUP5 DUP3 DUP6 PUSH2 0x401 JUMP JUMPDEST POP SWAP4 SWAP3 POP POP POP JUMP JUMPDEST PUSH1 0x0 DUP3 PUSH1 0x1F DUP4 ADD SLT PUSH2 0x467 JUMPI PUSH2 0x466 PUSH2 0x33A JUMP JUMPDEST JUMPDEST DUP2 CALLDATALOAD PUSH2 0x477 DUP5 DUP3 PUSH1 0x20 DUP7 ADD PUSH2 0x410 JUMP JUMPDEST SWAP2 POP POP SWAP3 SWAP2 POP POP JUMP JUMPDEST PUSH1 0x0 DUP1 PUSH1 0x40 DUP4 DUP6 SUB SLT ISZERO PUSH2 0x497 JUMPI PUSH2 0x496 PUSH2 0x2D7 JUMP JUMPDEST JUMPDEST PUSH1 0x0 DUP4 ADD CALLDATALOAD PUSH8 0xFFFFFFFFFFFFFFFF DUP2 GT ISZERO PUSH2 0x4B5 JUMPI PUSH2 0x4B4 PUSH2 0x2DC JUMP JUMPDEST JUMPDEST PUSH2 0x4C1 DUP6 DUP3 DUP7 ADD PUSH2 0x452 JUMP JUMPDEST SWAP3 POP POP PUSH1 0x20 PUSH2 0x4D2 DUP6 DUP3 DUP7 ADD PUSH2 0x2F8 JUMP JUMPDEST SWAP2 POP POP SWAP3 POP SWAP3 SWAP1 POP JUMP JUMPDEST PUSH1 0x0 PUSH1 0x20 DUP3 DUP5 SUB SLT ISZERO PUSH2 0x4F2 JUMPI PUSH2 0x4F1 PUSH2 0x2D7 JUMP JUMPDEST JUMPDEST PUSH1 0x0 DUP3 ADD CALLDATALOAD PUSH8 0xFFFFFFFFFFFFFFFF DUP2 GT ISZERO PUSH2 0x510 JUMPI PUSH2 0x50F PUSH2 0x2DC JUMP JUMPDEST JUMPDEST PUSH2 0x51C DUP5 DUP3 DUP6 ADD PUSH2 0x452 JUMP JUMPDEST SWAP2 POP POP SWAP3 SWAP2 POP POP JUMP JUMPDEST PUSH1 0x0 DUP2 MLOAD SWAP1 POP SWAP2 SWAP1 POP JUMP JUMPDEST PUSH1 0x0 DUP3 DUP3 MSTORE PUSH1 0x20 DUP3 ADD SWAP1 POP SWAP3 SWAP2 POP POP JUMP JUMPDEST PUSH1 0x0 JUMPDEST DUP4 DUP2 LT ISZERO PUSH2 0x55F JUMPI DUP1 DUP3 ADD MLOAD DUP2 DUP5 ADD MSTORE PUSH1 0x20 DUP2 ADD SWAP1 POP PUSH2 0x544 JUMP JUMPDEST PUSH1 0x0 DUP5 DUP5 ADD MSTORE POP POP POP POP JUMP JUMPDEST PUSH1 0x0 PUSH2 0x576 DUP3 PUSH2 0x525 JUMP JUMPDEST PUSH2 0x580 DUP2 DUP6 PUSH2 0x530 JUMP JUMPDEST SWAP4 POP PUSH2 0x590 DUP2 DUP6 PUSH1 0x20 DUP7 ADD PUSH2 0x541 JUMP JUMPDEST PUSH2 0x599 DUP2 PUSH2 0x344 JUMP JUMPDEST DUP5 ADD SWAP2 POP POP SWAP3 SWAP2 POP POP JUMP JUMPDEST PUSH1 0x0 PUSH1 0x40 DUP3 ADD SWAP1 POP PUSH2 0x5B9 PUSH1 0x0 DUP4 ADD DUP6 PUSH2 0x2A3 JUMP JUMPDEST DUP2 DUP2 SUB PUSH1 0x20 DUP4 ADD MSTORE PUSH2 0x5CB DUP2 DUP5 PUSH2 0x56B JUMP JUMPDEST SWAP1 POP SWAP4 SWAP3 POP POP POP JUMP JUMPDEST PUSH32 0x4E487B7100000000000000000000000000000000000000000000000000000000 PUSH1 0x0 MSTORE PUSH1 0x22 PUSH1 0x4 MSTORE PUSH1 0x24 PUSH1 0x0 REVERT JUMPDEST PUSH1 0x0 PUSH1 0x2 DUP3 DIV SWAP1 POP PUSH1 0x1 DUP3 AND DUP1 PUSH2 0x61B JUMPI PUSH1 0x7F DUP3 AND SWAP2 POP JUMPDEST PUSH1 0x20 DUP3 LT DUP2 SUB PUSH2 0x62E JUMPI PUSH2 0x62D PUSH2 0x5D4 JUMP JUMPDEST JUMPDEST POP SWAP2 SWAP1 POP JUMP JUMPDEST PUSH1 0x0 DUP2 SWAP1 POP DUP2 PUSH1 0x0 MSTORE PUSH1 0x20 PUSH1 0x0 KECCAK256 SWAP1 POP SWAP2 SWAP1 POP JUMP JUMPDEST PUSH1 0x0 PUSH1 0x20 PUSH1 0x1F DUP4 ADD DIV SWAP1 POP SWAP2 SWAP1 POP JUMP JUMPDEST PUSH1 0x0 DUP3 DUP3 SHL SWAP1 POP SWAP3 SWAP2 POP POP JUMP JUMPDEST PUSH1 0x0 PUSH1 0x8 DUP4 MUL PUSH2 0x696 PUSH32 0xFFFFFFFFFFFFFFFFFFFFFFFFFFFFFFFFFFFFFFFFFFFFFFFFFFFFFFFFFFFFFFFF DUP3 PUSH2 0x659 JUMP JUMPDEST PUSH2 0x6A0 DUP7 DUP4 PUSH2 0x659 JUMP JUMPDEST SWAP6 POP DUP1 NOT DUP5 AND SWAP4 POP DUP1 DUP7 AND DUP5 OR SWAP3 POP POP POP SWAP4 SWAP3 POP POP POP JUMP JUMPDEST PUSH1 0x0 DUP2 SWAP1 POP SWAP2 SWAP1 POP JUMP JUMPDEST PUSH1 0x0 PUSH2 0x6DD PUSH2 0x6D8 PUSH2 0x6D3 DUP5 PUSH2 0x299 JUMP JUMPDEST PUSH2 0x6B8 JUMP JUMPDEST PUSH2 0x299 JUMP JUMPDEST SWAP1 POP SWAP2 SWAP1 POP JUMP JUMPDEST PUSH1 0x0 DUP2 SWAP1 POP SWAP2 SWAP1 POP JUMP JUMPDEST PUSH2 0x6F7 DUP4 PUSH2 0x6C2 JUMP JUMPDEST PUSH2 0x70B PUSH2 0x703 DUP3 PUSH2 0x6E4 JUMP JUMPDEST DUP5 DUP5 SLOAD PUSH2 0x666 JUMP JUMPDEST DUP3 SSTORE POP POP POP POP JUMP JUMPDEST PUSH1 0x0 SWAP1 JUMP JUMPDEST PUSH2 0x720 PUSH2 0x713 JUMP JUMPDEST PUSH2 0x72B DUP2 DUP5 DUP5 PUSH2 0x6EE JUMP JUMPDEST POP POP POP JUMP JUMPDEST JUMPDEST DUP2 DUP2 LT ISZERO PUSH2 0x74F JUMPI PUSH2 0x744 PUSH1 0x0 DUP3 PUSH2 0x718 JUMP JUMPDEST PUSH1 0x1 DUP2 ADD SWAP1 POP PUSH2 0x731 JUMP JUMPDEST POP POP JUMP JUMPDEST PUSH1 0x1F DUP3 GT ISZERO PUSH2 0x794 JUMPI PUSH2 0x765 DUP2 PUSH2 0x634 JUMP JUMPDEST PUSH2 0x76E DUP5 PUSH2 0x649 JUMP JUMPDEST DUP2 ADD PUSH1 0x20 DUP6 LT ISZERO PUSH2 0x77D JUMPI DUP2 SWAP1 POP JUMPDEST PUSH2 0x791 PUSH2 0x789 DUP6 PUSH2 0x649 JUMP JUMPDEST DUP4 ADD DUP3 PUSH2 0x730 JUMP JUMPDEST POP POP JUMPDEST POP POP POP JUMP JUMPDEST PUSH1 0x0 DUP3 DUP3 SHR SWAP1 POP SWAP3 SWAP2 POP POP JUMP JUMPDEST PUSH1 0x0 PUSH2 0x7B7 PUSH1 0x0 NOT DUP5 PUSH1 0x8 MUL PUSH2 0x799 JUMP JUMPDEST NOT DUP1 DUP4 AND SWAP2 POP POP SWAP3 SWAP2 POP POP JUMP JUMPDEST PUSH1 0x0 PUSH2 0x7D0 DUP4 DUP4 PUSH2 0x7A6 JUMP JUMPDEST SWAP2 POP DUP3 PUSH1 0x2 MUL DUP3 OR SWAP1 POP SWAP3 SWAP2 POP POP JUMP JUMPDEST PUSH2 0x7E9 DUP3 PUSH2 0x525 JUMP JUMPDEST PUSH8 0xFFFFFFFFFFFFFFFF DUP2 GT ISZERO PUSH2 0x802 JUMPI PUSH2 0x801 PUSH2 0x355 JUMP JUMPDEST JUMPDEST PUSH2 0x80C DUP3 SLOAD PUSH2 0x603 JUMP JUMPDEST PUSH2 0x817 DUP3 DUP3 DUP6 PUSH2 0x753 JUMP JUMPDEST PUSH1 0x0 PUSH1 0x20 SWAP1 POP PUSH1 0x1F DUP4 GT PUSH1 0x1 DUP2 EQ PUSH2 0x84A JUMPI PUSH1 0x0 DUP5 ISZERO PUSH2 0x838 JUMPI DUP3 DUP8 ADD MLOAD SWAP1 POP JUMPDEST PUSH2 0x842 DUP6 DUP3 PUSH2 0x7C4 JUMP JUMPDEST DUP7 SSTORE POP PUSH2 0x8AA JUMP JUMPDEST PUSH1 0x1F NOT DUP5 AND PUSH2 0x858 DUP7 PUSH2 0x634 JUMP JUMPDEST PUSH1 0x0 JUMPDEST DUP3 DUP2 LT ISZERO PUSH2 0x880 JUMPI DUP5 DUP10 ADD MLOAD DUP3 SSTORE PUSH1 0x1 DUP3 ADD SWAP2 POP PUSH1 0x20 DUP6 ADD SWAP5 POP PUSH1 0x20 DUP2 ADD SWAP1 POP PUSH2 0x85B JUMP JUMPDEST DUP7 DUP4 LT ISZERO PUSH2 0x89D JUMPI DUP5 DUP10 ADD MLOAD PUSH2 0x899 PUSH1 0x1F DUP10 AND DUP3 PUSH2 0x7A6 JUMP JUMPDEST DUP4 SSTORE POP JUMPDEST PUSH1 0x1 PUSH1 0x2 DUP9 MUL ADD DUP9 SSTORE POP POP POP JUMPDEST POP POP POP POP POP POP JUMP JUMPDEST PUSH1 0x0 DUP2 SWAP1 POP SWAP3 SWAP2 POP POP JUMP JUMPDEST PUSH1 0x0 PUSH2 0x8C8 DUP3 PUSH2 0x525 JUMP JUMPDEST PUSH2 0x8D2 DUP2 DUP6 PUSH2 0x8B2 JUMP JUMPDEST SWAP4 POP PUSH2 0x8E2 DUP2 DUP6 PUSH1 0x20 DUP7 ADD PUSH2 0x541 JUMP JUMPDEST DUP1 DUP5 ADD SWAP2 POP POP SWAP3 SWAP2 POP POP JUMP JUMPDEST PUSH1 0x0 PUSH2 0x8FA DUP3 DUP5 PUSH2 0x8BD JUMP JUMPDEST SWAP2 POP DUP2 SWAP1 POP SWAP3 SWAP2 POP POP JUMP INVALID LOG2 PUSH5 0x6970667358 0x22 SLT KECCAK256 SAR 0x24 0xE9 ORIGIN 0xCD 0x4D DUP4 ADD 0xA8 PUSH2 0x5F79 0xC4 0xAF LOG1 SLOAD 0xD6 0xB1 0xBA ISZERO DUP15 PUSH24 0x28D13D2172D1FD96D53464736F6C63430008120033A26469 PUSH17 0x6673582212201E1E0E5E43FCCD30586160 0xAA RETURNDATACOPY 0x5C 0xD7 LOG4 SMOD 0xCE DUP15 0xB9 DUP9 DELEGATECALL RETURN 0xE1 0xC5 0xED SIGNEXTEND 0xDE 0xD5 0xEA BASEFEE 0xB8 PUSH5 0x736F6C6343 STOP ADDMOD SLT STOP CALLER "
				},
				"gasEstimates": {
					"creation": {
						"codeDepositCost": "1175600",
						"executionCost": "25488",
						"totalCost": "1201088"
					},
					"external": {
						"SimpleStorageArray(uint256)": "infinite",
						"addPerson(string,uint256)": "infinite",
						"createSimpleStorageContract()": "infinite",
						"nameToFavoriteNumber(string)": "infinite",
						"people(uint256)": "infinite",
						"retrieve()": "2482",
						"sdGet(uint256)": "infinite",
						"sfStore(uint256,uint256)": "infinite",
						"store(uint256)": "22587"
					}
				},
				"methodIdentifiers": {
					"SimpleStorageArray(uint256)": "f5daaa02",
					"addPerson(string,uint256)": "6f760f41",
					"createSimpleStorageContract()": "1dda6541",
					"nameToFavoriteNumber(string)": "8bab8dd5",
					"people(uint256)": "9e7a13ad",
					"retrieve()": "2e64cec1",
					"sdGet(uint256)": "be2ec9cb",
					"sfStore(uint256,uint256)": "1563700f",
					"store(uint256)": "6057361d"
				}
			},
			"storageLayout": {
				"storage": [
					{
						"astId": 3,
						"contract": "contracts/StorageFactory.sol:StorageFactory",
						"label": "favoriteNumber",
						"offset": 0,
						"slot": "0",
						"type": "t_uint256"
					},
					{
						"astId": 6,
						"contract": "contracts/StorageFactory.sol:StorageFactory",
						"label": "favoriteBool",
						"offset": 0,
						"slot": "1",
						"type": "t_bool"
					},
					{
						"astId": 15,
						"contract": "contracts/StorageFactory.sol:StorageFactory",
						"label": "people",
						"offset": 0,
						"slot": "2",
						"type": "t_array(t_struct(People)11_storage)dyn_storage"
					},
					{
						"astId": 19,
						"contract": "contracts/StorageFactory.sol:StorageFactory",
						"label": "nameToFavoriteNumber",
						"offset": 0,
						"slot": "3",
						"type": "t_mapping(t_string_memory_ptr,t_uint256)"
					},
					{
						"astId": 70,
						"contract": "contracts/StorageFactory.sol:StorageFactory",
						"label": "SimpleStorageArray",
						"offset": 0,
						"slot": "4",
						"type": "t_array(t_contract(SimpleStorage)61)dyn_storage"
					}
				],
				"types": {
					"t_array(t_contract(SimpleStorage)61)dyn_storage": {
						"base": "t_contract(SimpleStorage)61",
						"encoding": "dynamic_array",
						"label": "contract SimpleStorage[]",
						"numberOfBytes": "32"
					},
					"t_array(t_struct(People)11_storage)dyn_storage": {
						"base": "t_struct(People)11_storage",
						"encoding": "dynamic_array",
						"label": "struct SimpleStorage.People[]",
						"numberOfBytes": "32"
					},
					"t_bool": {
						"encoding": "inplace",
						"label": "bool",
						"numberOfBytes": "1"
					},
					"t_contract(SimpleStorage)61": {
						"encoding": "inplace",
						"label": "contract SimpleStorage",
						"numberOfBytes": "20"
					},
					"t_mapping(t_string_memory_ptr,t_uint256)": {
						"encoding": "mapping",
						"key": "t_string_memory_ptr",
						"label": "mapping(string => uint256)",
						"numberOfBytes": "32",
						"value": "t_uint256"
					},
					"t_string_memory_ptr": {
						"encoding": "bytes",
						"label": "string",
						"numberOfBytes": "32"
					},
					"t_string_storage": {
						"encoding": "bytes",
						"label": "string",
						"numberOfBytes": "32"
					},
					"t_struct(People)11_storage": {
						"encoding": "inplace",
						"label": "struct SimpleStorage.People",
						"members": [
							{
								"astId": 8,
								"contract": "contracts/StorageFactory.sol:StorageFactory",
								"label": "favoriteNumber",
								"offset": 0,
								"slot": "0",
								"type": "t_uint256"
							},
							{
								"astId": 10,
								"contract": "contracts/StorageFactory.sol:StorageFactory",
								"label": "name",
								"offset": 0,
								"slot": "1",
								"type": "t_string_storage"
							}
						],
						"numberOfBytes": "64"
					},
					"t_uint256": {
						"encoding": "inplace",
						"label": "uint256",
						"numberOfBytes": "32"
					}
				}
			},
			"userdoc": {
				"kind": "user",
				"methods": {},
				"version": 1
			}
		}
	}
}